{
  "abi": [
    {
      "inputs": [
        {
          "internalType": "address",
          "name": "_owner",
          "type": "address"
        }
      ],
      "stateMutability": "nonpayable",
      "type": "constructor"
    },
    {
      "inputs": [],
      "name": "CallerHasNotVoted",
      "type": "error"
    },
    {
      "inputs": [],
      "name": "InvalidVotingReward",
      "type": "error"
    },
    {
      "inputs": [],
      "name": "MintableSupplyExceeded",
      "type": "error"
    },
    {
      "inputs": [],
      "name": "ProposalNotExecuted",
      "type": "error"
    },
    {
      "inputs": [
        {
          "internalType": "uint256",
          "name": "reward",
          "type": "uint256"
        }
      ],
      "name": "ProposalRewardAlreadyAssigned",
      "type": "error"
    },
    {
      "inputs": [],
      "name": "ProposalRewardAlreadyClaimed",
      "type": "error"
    },
    {
      "inputs": [],
      "name": "ProposalRewardNotAssigned",
      "type": "error"
    },
    {
      "inputs": [],
      "name": "ProposalSnapshotInImmutablePeriod",
      "type": "error"
    },
    {
      "inputs": [],
      "name": "VotingRewardNotSet",
      "type": "error"
    },
    {
      "inputs": [],
      "name": "ZeroVotingContract",
      "type": "error"
    },
    {
      "anonymous": false,
      "inputs": [
        {
          "indexed": true,
          "internalType": "address",
          "name": "owner",
          "type": "address"
        },
        {
          "indexed": true,
          "internalType": "address",
          "name": "spender",
          "type": "address"
        },
        {
          "indexed": false,
          "internalType": "uint256",
          "name": "value",
          "type": "uint256"
        }
      ],
      "name": "Approval",
      "type": "event"
    },
    {
      "anonymous": false,
      "inputs": [
        {
          "indexed": true,
          "internalType": "address",
          "name": "previousOwner",
          "type": "address"
        },
        {
          "indexed": true,
          "internalType": "address",
          "name": "newOwner",
          "type": "address"
        }
      ],
      "name": "OwnershipTransferStarted",
      "type": "event"
    },
    {
      "anonymous": false,
      "inputs": [
        {
          "indexed": true,
          "internalType": "address",
          "name": "previousOwner",
          "type": "address"
        },
        {
          "indexed": true,
          "internalType": "address",
          "name": "newOwner",
          "type": "address"
        }
      ],
      "name": "OwnershipTransferred",
      "type": "event"
    },
    {
      "anonymous": false,
      "inputs": [
        {
          "indexed": true,
          "internalType": "address",
          "name": "votingContract",
          "type": "address"
        },
        {
          "indexed": true,
          "internalType": "uint256",
          "name": "proposalId",
          "type": "uint256"
        },
        {
          "indexed": false,
          "internalType": "uint256",
          "name": "reward",
          "type": "uint256"
        }
      ],
      "name": "ProposalRewardAssigned",
      "type": "event"
    },
    {
      "anonymous": false,
      "inputs": [
        {
          "indexed": true,
          "internalType": "address",
          "name": "votingContract",
          "type": "address"
        },
        {
          "indexed": true,
          "internalType": "uint256",
          "name": "proposalId",
          "type": "uint256"
        },
        {
          "indexed": true,
          "internalType": "address",
          "name": "voter",
          "type": "address"
        },
        {
          "indexed": false,
          "internalType": "uint256",
          "name": "voterReward",
          "type": "uint256"
        }
      ],
      "name": "ProposalRewardClaimed",
      "type": "event"
    },
    {
      "anonymous": false,
      "inputs": [
        {
          "indexed": true,
          "internalType": "address",
          "name": "from",
          "type": "address"
        },
        {
          "indexed": true,
          "internalType": "address",
          "name": "to",
          "type": "address"
        },
        {
          "indexed": false,
          "internalType": "uint256",
          "name": "value",
          "type": "uint256"
        }
      ],
      "name": "Transfer",
      "type": "event"
    },
    {
      "inputs": [],
      "name": "IMMUTABLE_PERIOD",
      "outputs": [
        {
          "internalType": "uint256",
          "name": "",
          "type": "uint256"
        }
      ],
      "stateMutability": "view",
      "type": "function"
    },
    {
      "inputs": [],
      "name": "MAX_VOTING_REWARD",
      "outputs": [
        {
          "internalType": "uint256",
          "name": "",
          "type": "uint256"
        }
      ],
      "stateMutability": "view",
      "type": "function"
    },
    {
      "inputs": [],
      "name": "MINTABLE_TOTAL_SUPPLY",
      "outputs": [
        {
          "internalType": "uint256",
          "name": "",
          "type": "uint256"
        }
      ],
      "stateMutability": "view",
      "type": "function"
    },
    {
      "inputs": [],
      "name": "VOTING_REWARD_DENOMINATOR",
      "outputs": [
        {
          "internalType": "uint256",
          "name": "",
          "type": "uint256"
        }
      ],
      "stateMutability": "view",
      "type": "function"
    },
    {
      "inputs": [],
      "name": "acceptOwnership",
      "outputs": [],
      "stateMutability": "nonpayable",
      "type": "function"
    },
    {
      "inputs": [
        {
          "internalType": "address",
          "name": "owner",
          "type": "address"
        },
        {
          "internalType": "address",
          "name": "spender",
          "type": "address"
        }
      ],
      "name": "allowance",
      "outputs": [
        {
          "internalType": "uint256",
          "name": "",
          "type": "uint256"
        }
      ],
      "stateMutability": "view",
      "type": "function"
    },
    {
      "inputs": [
        {
          "internalType": "address",
          "name": "spender",
          "type": "address"
        },
        {
          "internalType": "uint256",
          "name": "amount",
          "type": "uint256"
        }
      ],
      "name": "approve",
      "outputs": [
        {
          "internalType": "bool",
          "name": "",
          "type": "bool"
        }
      ],
      "stateMutability": "nonpayable",
      "type": "function"
    },
    {
      "inputs": [
        {
          "internalType": "address",
          "name": "votingContract",
          "type": "address"
        },
        {
          "internalType": "uint256",
          "name": "proposalId",
          "type": "uint256"
        }
      ],
      "name": "assignProposalReward",
      "outputs": [],
      "stateMutability": "nonpayable",
      "type": "function"
    },
    {
      "inputs": [
        {
          "internalType": "address",
          "name": "account",
          "type": "address"
        }
      ],
      "name": "balanceOf",
      "outputs": [
        {
          "internalType": "uint256",
          "name": "",
          "type": "uint256"
        }
      ],
      "stateMutability": "view",
      "type": "function"
    },
    {
      "inputs": [
        {
          "internalType": "uint256",
          "name": "amount",
          "type": "uint256"
        }
      ],
      "name": "burn",
      "outputs": [],
      "stateMutability": "nonpayable",
      "type": "function"
    },
    {
      "inputs": [
        {
          "internalType": "address",
          "name": "votingContract",
          "type": "address"
        },
        {
          "internalType": "uint256",
          "name": "proposalId",
          "type": "uint256"
        }
      ],
      "name": "claimProposalReward",
      "outputs": [],
      "stateMutability": "nonpayable",
      "type": "function"
    },
    {
      "inputs": [],
      "name": "decimals",
      "outputs": [
        {
          "internalType": "uint8",
          "name": "",
          "type": "uint8"
        }
      ],
      "stateMutability": "view",
      "type": "function"
    },
    {
      "inputs": [
        {
          "internalType": "address",
          "name": "spender",
          "type": "address"
        },
        {
          "internalType": "uint256",
          "name": "subtractedValue",
          "type": "uint256"
        }
      ],
      "name": "decreaseAllowance",
      "outputs": [
        {
          "internalType": "bool",
          "name": "",
          "type": "bool"
        }
      ],
      "stateMutability": "nonpayable",
      "type": "function"
    },
    {
      "inputs": [
        {
          "internalType": "address",
          "name": "spender",
          "type": "address"
        },
        {
          "internalType": "uint256",
          "name": "addedValue",
          "type": "uint256"
        }
      ],
      "name": "increaseAllowance",
      "outputs": [
        {
          "internalType": "bool",
          "name": "",
          "type": "bool"
        }
      ],
      "stateMutability": "nonpayable",
      "type": "function"
    },
    {
      "inputs": [
        {
          "internalType": "uint256",
          "name": "amount",
          "type": "uint256"
        }
      ],
      "name": "mint",
      "outputs": [],
      "stateMutability": "nonpayable",
      "type": "function"
    },
    {
      "inputs": [],
      "name": "mintedSupply",
      "outputs": [
        {
          "internalType": "uint256",
          "name": "",
          "type": "uint256"
        }
      ],
      "stateMutability": "view",
      "type": "function"
    },
    {
      "inputs": [],
      "name": "name",
      "outputs": [
        {
          "internalType": "string",
          "name": "",
          "type": "string"
        }
      ],
      "stateMutability": "view",
      "type": "function"
    },
    {
      "inputs": [],
      "name": "owner",
      "outputs": [
        {
          "internalType": "address",
          "name": "",
          "type": "address"
        }
      ],
      "stateMutability": "view",
      "type": "function"
    },
    {
      "inputs": [],
      "name": "pendingOwner",
      "outputs": [
        {
          "internalType": "address",
          "name": "",
          "type": "address"
        }
      ],
      "stateMutability": "view",
      "type": "function"
    },
    {
      "inputs": [
        {
          "internalType": "address",
          "name": "votingContract",
          "type": "address"
        },
        {
          "internalType": "uint256",
          "name": "proposalId",
          "type": "uint256"
        }
      ],
      "name": "proposalRewards",
      "outputs": [
        {
          "internalType": "uint256",
          "name": "reward",
          "type": "uint256"
        }
      ],
      "stateMutability": "view",
      "type": "function"
    },
    {
      "inputs": [],
      "name": "renounceOwnership",
      "outputs": [],
      "stateMutability": "nonpayable",
      "type": "function"
    },
    {
      "inputs": [
        {
          "internalType": "address",
          "name": "votingContract",
          "type": "address"
        },
        {
          "internalType": "uint256",
          "name": "votingReward",
          "type": "uint256"
        }
      ],
      "name": "setVotingReward",
      "outputs": [],
      "stateMutability": "nonpayable",
      "type": "function"
    },
    {
      "inputs": [],
      "name": "symbol",
      "outputs": [
        {
          "internalType": "string",
          "name": "",
          "type": "string"
        }
      ],
      "stateMutability": "view",
      "type": "function"
    },
    {
      "inputs": [],
      "name": "totalSupply",
      "outputs": [
        {
          "internalType": "uint256",
          "name": "",
          "type": "uint256"
        }
      ],
      "stateMutability": "view",
      "type": "function"
    },
    {
      "inputs": [
        {
          "internalType": "address",
          "name": "to",
          "type": "address"
        },
        {
          "internalType": "uint256",
          "name": "amount",
          "type": "uint256"
        }
      ],
      "name": "transfer",
      "outputs": [
        {
          "internalType": "bool",
          "name": "",
          "type": "bool"
        }
      ],
      "stateMutability": "nonpayable",
      "type": "function"
    },
    {
      "inputs": [
        {
          "internalType": "address",
          "name": "from",
          "type": "address"
        },
        {
          "internalType": "address",
          "name": "to",
          "type": "address"
        },
        {
          "internalType": "uint256",
          "name": "amount",
          "type": "uint256"
        }
      ],
      "name": "transferFrom",
      "outputs": [
        {
          "internalType": "bool",
          "name": "",
          "type": "bool"
        }
      ],
      "stateMutability": "nonpayable",
      "type": "function"
    },
    {
      "inputs": [
        {
          "internalType": "address",
          "name": "newOwner",
          "type": "address"
        }
      ],
      "name": "transferOwnership",
      "outputs": [],
      "stateMutability": "nonpayable",
      "type": "function"
    },
    {
      "inputs": [
        {
          "internalType": "address",
          "name": "votingContract",
          "type": "address"
        }
      ],
      "name": "votingRewards",
      "outputs": [
        {
          "internalType": "uint256",
          "name": "reward",
          "type": "uint256"
        }
      ],
      "stateMutability": "view",
      "type": "function"
    }
  ],
  "bytecode": {
    "object": "0x60806040523480156200001157600080fd5b5060405162001c5c38038062001c5c833981016040819052620000349162000140565b6040518060400160405280600781526020016650574e2044414f60c81b81525060405180604001604052806003815260200162282ba760e91b8152506200008a62000084620000c260201b60201c565b620000c6565b600562000098838262000217565b506006620000a7828262000217565b505050620000bb81620000c660201b60201c565b50620002e3565b3390565b600180546001600160a01b0319169055620000ed81620000f0602090811b62000cdc17901c565b50565b600080546001600160a01b038381166001600160a01b0319831681178455604051919092169283917f8be0079c531659141344cd1fd0a4f28419497f9722a3daafe3b4186f6b6457e09190a35050565b6000602082840312156200015357600080fd5b81516001600160a01b03811681146200016b57600080fd5b9392505050565b634e487b7160e01b600052604160045260246000fd5b600181811c908216806200019d57607f821691505b602082108103620001be57634e487b7160e01b600052602260045260246000fd5b50919050565b601f8211156200021257600081815260208120601f850160051c81016020861015620001ed5750805b601f850160051c820191505b818110156200020e57828155600101620001f9565b5050505b505050565b81516001600160401b0381111562000233576200023362000172565b6200024b8162000244845462000188565b84620001c4565b602080601f8311600181146200028357600084156200026a5750858301515b600019600386901b1c1916600185901b1785556200020e565b600085815260208120601f198616915b82811015620002b45788860151825594840194600190910190840162000293565b5085821015620002d35787850151600019600388901b60f8161c191681555b5050505050600190811b01905550565b61196980620002f36000396000f3fe608060405234801561001057600080fd5b50600436106101c45760003560e01c806379ba5097116100f9578063a457c2d711610097578063dd62ed3e11610071578063dd62ed3e146103ae578063e30c3978146103c1578063f2fde38b146103d2578063fda599b1146103e557600080fd5b8063a457c2d71461037f578063a9059cbb14610392578063c1bd8cf9146103a557600080fd5b806395d89b41116100d357806395d89b411461033c5780639e121c3914610344578063a0712d681461034c578063a43daf6d1461035f57600080fd5b806379ba5097146102fc578063852f3945146103045780638da5cb5b1461031757600080fd5b8063313ce56711610166578063395093511161014057806339509351146102a557806342966c68146102b857806370a08231146102cb578063715018a6146102f457600080fd5b8063313ce56714610256578063360aceb71461026557806337c795611461029057600080fd5b80630edff0f1116101a25780630edff0f11461022a57806318160ddd146102325780631d3b56fe1461023a57806323b872dd1461024357600080fd5b806306fdde03146101c9578063095ea7b3146101e75780630b53c60b1461020a575b600080fd5b6101d16103f8565b6040516101de91906113e4565b60405180910390f35b6101fa6101f536600461142c565b61048a565b60405190151581526020016101de565b61021c6a52b7d2dcc80cd2e400000081565b6040519081526020016101de565b61021c601a81565b60045461021c565b61021c61271081565b6101fa610251366004611458565b6104a4565b604051601281526020016101de565b61021c61027336600461142c565b600960209081526000928352604080842090915290825290205481565b6102a361029e36600461142c565b6104ca565b005b6101fa6102b336600461142c565b6106ae565b6102a36102c6366004611499565b6106d0565b61021c6102d93660046114b2565b6001600160a01b031660009081526002602052604090205490565b6102a36106dd565b6102a36106f1565b6102a361031236600461142c565b610768565b6000546001600160a01b03165b6040516001600160a01b0390911681526020016101de565b6101d16107d5565b61021c606481565b6102a361035a366004611499565b6107e4565b61021c61036d3660046114b2565b60086020526000908152604090205481565b6101fa61038d36600461142c565b610837565b6101fa6103a036600461142c565b6108bd565b61021c60075481565b61021c6103bc3660046114cf565b6108cb565b6001546001600160a01b0316610324565b6102a36103e03660046114b2565b6108f6565b6102a36103f336600461142c565b610967565b60606005805461040790611508565b80601f016020809104026020016040519081016040528092919081815260200182805461043390611508565b80156104805780601f1061045557610100808354040283529160200191610480565b820191906000526020600020905b81548152906001019060200180831161046357829003601f168201915b5050505050905090565b600033610498818585610d2c565b60019150505b92915050565b6000336104b2858285610e51565b6104bd858585610ecb565b60019150505b9392505050565b6104d2611076565b6001600160a01b0382166104f95760405163f48af78f60e01b815260040160405180910390fd5b6001600160a01b0382166000908152600860205260408120549081900361053357604051637457f7c560e11b815260040160405180910390fd5b6001600160a01b03831660009081526009602090815260408083208584529091529020805415610581578054604051630a72c35160e41b815260048101919091526024015b60405180910390fd5b6040516318feeb1560e31b81526004810184905260009081906001600160a01b0387169063c7f758a890602401600060405180830381865afa1580156105cb573d6000803e3d6000fd5b505050506040513d6000823e601f3d908101601f191682016040526105f39190810190611785565b505050925092505081610619576040516374e0240960e11b815260040160405180910390fd5b601a816080015167ffffffffffffffff161161064857604051631c5db7b360e01b815260040160405180910390fd5b600061065f61065660045490565b866127106110d0565b80855560405181815290915086906001600160a01b038916907f01b41864e51b7647b2303e079be028a4df8d5c9ae30e2a8855d46ba89dfc6e2a9060200160405180910390a350505050505050565b6000336104988185856106c183836108cb565b6106cb919061188f565b610d2c565b6106da33826111ba565b50565b6106e5611076565b6106ef60006112e6565b565b60015433906001600160a01b0316811461075f5760405162461bcd60e51b815260206004820152602960248201527f4f776e61626c6532537465703a2063616c6c6572206973206e6f7420746865206044820152683732bb9037bbb732b960b91b6064820152608401610578565b6106da816112e6565b610770611076565b6001600160a01b0382166107975760405163f48af78f60e01b815260040160405180910390fd5b60648111156107b95760405163ccacafc360e01b815260040160405180910390fd5b6001600160a01b03909116600090815260086020526040902055565b60606006805461040790611508565b6107ec611076565b6a52b7d2dcc80cd2e400000081600754610806919061188f565b111561082557604051632e4c2d1360e21b815260040160405180910390fd5b60078054820190556106da33826112ff565b6000338161084582866108cb565b9050838110156108a55760405162461bcd60e51b815260206004820152602560248201527f45524332303a2064656372656173656420616c6c6f77616e63652062656c6f77604482015264207a65726f60d81b6064820152608401610578565b6108b28286868403610d2c565b506001949350505050565b600033610498818585610ecb565b6001600160a01b03918216600090815260036020908152604080832093909416825291909152205490565b6108fe611076565b600180546001600160a01b0383166001600160a01b0319909116811790915561092f6000546001600160a01b031690565b6001600160a01b03167f38d16b8cac22d99fc7c124b9cd0de2d3fa1faef420bfe791d8c362d765e2270060405160405180910390a350565b6001600160a01b03821661098e5760405163f48af78f60e01b815260040160405180910390fd5b6001600160a01b03821660009081526009602090815260408083208484529091528120805490918190036109d557604051635b9efee360e01b815260040160405180910390fd5b6040516318feeb1560e31b81526004810184905260009081906001600160a01b0387169063c7f758a890602401600060405180830381865afa158015610a1f573d6000803e3d6000fd5b505050506040513d6000823e601f3d908101601f19168201604052610a479190810190611785565b50919550935033925060009150610a5b9050565b6040516312e0c03b60e31b8152600481018890526001600160a01b03838116602483015289169063970601d890604401602060405180830381865afa158015610aa8573d6000803e3d6000fd5b505050506040513d601f19601f82011682018060405250810190610acc91906118c6565b6003811115610add57610add6118b0565b03610afb57604051637d06fe9d60e11b815260040160405180910390fd5b6001600160a01b038116600090815260018601602052604090205460ff1615610b37576040516338abe0f560e21b815260040160405180910390fd5b6001600160a01b038082166000908152600187810160209081526040808420805460ff1916909317909255815163e28c3b1960e01b8152915192938b169263e28c3b199260048082019392918290030181865afa158015610b9c573d6000803e3d6000fd5b505050506040513d601f19601f82011682018060405250810190610bc091906118e7565b6080850151604051630748d63560e31b81526001600160a01b03858116600483015267ffffffffffffffff9092166024820152911690633a46b1a890604401602060405180830381865afa158015610c1c573d6000803e3d6000fd5b505050506040513d601f19601f82011682018060405250810190610c409190611904565b90506000836040015184602001518560000151610c5d919061188f565b610c67919061188f565b90506000610c768784846110d0565b9050610c8284826112ff565b836001600160a01b0316898b6001600160a01b03167fe5877305879fe1f016eb4153551eb9b3d11786d817b00d1dc3b13a880d13bd9484604051610cc891815260200190565b60405180910390a450505050505050505050565b600080546001600160a01b038381166001600160a01b0319831681178455604051919092169283917f8be0079c531659141344cd1fd0a4f28419497f9722a3daafe3b4186f6b6457e09190a35050565b6001600160a01b038316610d8e5760405162461bcd60e51b8152602060048201526024808201527f45524332303a20617070726f76652066726f6d20746865207a65726f206164646044820152637265737360e01b6064820152608401610578565b6001600160a01b038216610def5760405162461bcd60e51b815260206004820152602260248201527f45524332303a20617070726f766520746f20746865207a65726f206164647265604482015261737360f01b6064820152608401610578565b6001600160a01b0383811660008181526003602090815260408083209487168084529482529182902085905590518481527f8c5be1e5ebec7d5bd14f71427d1e84f3dd0314c0f7b2291e5b200ac8c7c3b92591015b60405180910390a3505050565b6000610e5d84846108cb565b90506000198114610ec55781811015610eb85760405162461bcd60e51b815260206004820152601d60248201527f45524332303a20696e73756666696369656e7420616c6c6f77616e63650000006044820152606401610578565b610ec58484848403610d2c565b50505050565b6001600160a01b038316610f2f5760405162461bcd60e51b815260206004820152602560248201527f45524332303a207472616e736665722066726f6d20746865207a65726f206164604482015264647265737360d81b6064820152608401610578565b6001600160a01b038216610f915760405162461bcd60e51b815260206004820152602360248201527f45524332303a207472616e7366657220746f20746865207a65726f206164647260448201526265737360e81b6064820152608401610578565b6001600160a01b038316600090815260026020526040902054818110156110095760405162461bcd60e51b815260206004820152602660248201527f45524332303a207472616e7366657220616d6f756e7420657863656564732062604482015265616c616e636560d01b6064820152608401610578565b6001600160a01b0380851660008181526002602052604080822086860390559286168082529083902080548601905591517fddf252ad1be2c89b69c2b068fc378daa952ba7f163c4a11628f55a4df523b3ef906110699086815260200190565b60405180910390a3610ec5565b6000546001600160a01b031633146106ef5760405162461bcd60e51b815260206004820181905260248201527f4f776e61626c653a2063616c6c6572206973206e6f7420746865206f776e65726044820152606401610578565b600080806000198587098587029250828110838203039150508060000361110a578382816111005761110061191d565b04925050506104c3565b8084116111515760405162461bcd60e51b81526020600482015260156024820152744d6174683a206d756c446976206f766572666c6f7760581b6044820152606401610578565b60008486880960026001871981018816978890046003810283188082028403028082028403028082028403028082028403028082028403029081029092039091026000889003889004909101858311909403939093029303949094049190911702949350505050565b6001600160a01b03821661121a5760405162461bcd60e51b815260206004820152602160248201527f45524332303a206275726e2066726f6d20746865207a65726f206164647265736044820152607360f81b6064820152608401610578565b6001600160a01b0382166000908152600260205260409020548181101561128e5760405162461bcd60e51b815260206004820152602260248201527f45524332303a206275726e20616d6f756e7420657863656564732062616c616e604482015261636560f01b6064820152608401610578565b6001600160a01b03831660008181526002602090815260408083208686039055600480548790039055518581529192917fddf252ad1be2c89b69c2b068fc378daa952ba7f163c4a11628f55a4df523b3ef9101610e44565b600180546001600160a01b03191690556106da81610cdc565b6001600160a01b0382166113555760405162461bcd60e51b815260206004820152601f60248201527f45524332303a206d696e7420746f20746865207a65726f2061646472657373006044820152606401610578565b8060046000828254611367919061188f565b90915550506001600160a01b0382166000818152600260209081526040808320805486019055518481527fddf252ad1be2c89b69c2b068fc378daa952ba7f163c4a11628f55a4df523b3ef910160405180910390a35050565b60005b838110156113db5781810151838201526020016113c3565b50506000910152565b60208152600082518060208401526114038160408501602087016113c0565b601f01601f19169190910160400192915050565b6001600160a01b03811681146106da57600080fd5b6000806040838503121561143f57600080fd5b823561144a81611417565b946020939093013593505050565b60008060006060848603121561146d57600080fd5b833561147881611417565b9250602084013561148881611417565b929592945050506040919091013590565b6000602082840312156114ab57600080fd5b5035919050565b6000602082840312156114c457600080fd5b81356104c381611417565b600080604083850312156114e257600080fd5b82356114ed81611417565b915060208301356114fd81611417565b809150509250929050565b600181811c9082168061151c57607f821691505b60208210810361153c57634e487b7160e01b600052602260045260246000fd5b50919050565b8051801515811461155257600080fd5b919050565b634e487b7160e01b600052604160045260246000fd5b6040516060810167ffffffffffffffff8111828210171561159057611590611557565b60405290565b60405160c0810167ffffffffffffffff8111828210171561159057611590611557565b604051601f8201601f1916810167ffffffffffffffff811182821017156115e2576115e2611557565b604052919050565b805167ffffffffffffffff8116811461155257600080fd5b60006060828403121561161457600080fd5b61161c61156d565b905081518152602082015160208201526040820151604082015292915050565b6000601f838184011261164e57600080fd5b8251602067ffffffffffffffff8083111561166b5761166b611557565b8260051b61167a8382016115b9565b938452868101830193838101908986111561169457600080fd5b84890192505b85831015611778578251848111156116b25760008081fd5b89016060601f19828d0381018213156116cb5760008081fd5b6116d361156d565b888401516116e081611417565b81526040848101518a8301529284015192888411156116ff5760008081fd5b83850194508e603f86011261171657600093508384fd5b8985015193508884111561172c5761172c611557565b61173b8a848e870116016115b9565b92508383528e818587010111156117525760008081fd5b611761848b85018388016113c0565b81019190915284525050918401919084019061169a565b9998505050505050505050565b6000806000806000808688036101a08112156117a057600080fd5b6117a988611542565b96506117b760208901611542565b955060c0603f19820112156117cb57600080fd5b506117d4611596565b6040880151600381106117e657600080fd5b8152606088015163ffffffff811681146117ff57600080fd5b6020820152611810608089016115ea565b604082015261182160a089016115ea565b606082015261183260c089016115ea565b608082015260e088015160a08201529350611851886101008901611602565b925061016087015167ffffffffffffffff81111561186e57600080fd5b61187a89828a0161163c565b92505061018087015190509295509295509295565b8082018082111561049e57634e487b7160e01b600052601160045260246000fd5b634e487b7160e01b600052602160045260246000fd5b6000602082840312156118d857600080fd5b8151600481106104c357600080fd5b6000602082840312156118f957600080fd5b81516104c381611417565b60006020828403121561191657600080fd5b5051919050565b634e487b7160e01b600052601260045260246000fdfea2646970667358221220e0118df54311cc9b6acfcc43acd6b063453a722c33481e08c39cbce8e64659c064736f6c63430008120033",
    "linkReferences": {}
  },
  "methodIdentifiers": {
    "IMMUTABLE_PERIOD()": "0edff0f1",
    "MAX_VOTING_REWARD()": "9e121c39",
    "MINTABLE_TOTAL_SUPPLY()": "0b53c60b",
    "VOTING_REWARD_DENOMINATOR()": "1d3b56fe",
    "acceptOwnership()": "79ba5097",
    "allowance(address,address)": "dd62ed3e",
    "approve(address,uint256)": "095ea7b3",
    "assignProposalReward(address,uint256)": "37c79561",
    "balanceOf(address)": "70a08231",
    "burn(uint256)": "42966c68",
    "claimProposalReward(address,uint256)": "fda599b1",
    "decimals()": "313ce567",
    "decreaseAllowance(address,uint256)": "a457c2d7",
    "increaseAllowance(address,uint256)": "39509351",
    "mint(uint256)": "a0712d68",
    "mintedSupply()": "c1bd8cf9",
    "name()": "06fdde03",
    "owner()": "8da5cb5b",
    "pendingOwner()": "e30c3978",
    "proposalRewards(address,uint256)": "360aceb7",
    "renounceOwnership()": "715018a6",
    "setVotingReward(address,uint256)": "852f3945",
    "symbol()": "95d89b41",
    "totalSupply()": "18160ddd",
    "transfer(address,uint256)": "a9059cbb",
    "transferFrom(address,address,uint256)": "23b872dd",
    "transferOwnership(address)": "f2fde38b",
    "votingRewards(address)": "a43daf6d"
  },
  "id": 52
}