{
  "abi": [
    {
      "inputs": [],
      "stateMutability": "nonpayable",
      "type": "constructor"
    },
    {
      "inputs": [
        {
          "internalType": "address",
          "name": "computer",
          "type": "address"
        },
        {
          "internalType": "address",
          "name": "asset",
          "type": "address"
        }
      ],
      "name": "InvalidComputerContract",
      "type": "error"
    },
    {
      "inputs": [
        {
          "internalType": "uint256",
          "name": "fee",
          "type": "uint256"
        },
        {
          "internalType": "uint256",
          "name": "limit",
          "type": "uint256"
        }
      ],
      "name": "InvalidFeeValue",
      "type": "error"
    },
    {
      "inputs": [],
      "name": "ZeroFeeCollector",
      "type": "error"
    },
    {
      "inputs": [],
      "name": "ZeroLoanContract",
      "type": "error"
    },
    {
      "anonymous": false,
      "inputs": [
        {
          "indexed": false,
          "internalType": "string",
          "name": "newUri",
          "type": "string"
        }
      ],
      "name": "DefaultLOANMetadataUriUpdated",
      "type": "event"
    },
    {
      "anonymous": false,
      "inputs": [
        {
          "indexed": false,
          "internalType": "address",
          "name": "oldFeeCollector",
          "type": "address"
        },
        {
          "indexed": false,
          "internalType": "address",
          "name": "newFeeCollector",
          "type": "address"
        }
      ],
      "name": "FeeCollectorUpdated",
      "type": "event"
    },
    {
      "anonymous": false,
      "inputs": [
        {
          "indexed": false,
          "internalType": "uint16",
          "name": "oldFee",
          "type": "uint16"
        },
        {
          "indexed": false,
          "internalType": "uint16",
          "name": "newFee",
          "type": "uint16"
        }
      ],
      "name": "FeeUpdated",
      "type": "event"
    },
    {
      "anonymous": false,
      "inputs": [
        {
          "indexed": false,
          "internalType": "uint8",
          "name": "version",
          "type": "uint8"
        }
      ],
      "name": "Initialized",
      "type": "event"
    },
    {
      "anonymous": false,
      "inputs": [
        {
          "indexed": true,
          "internalType": "address",
          "name": "loanContract",
          "type": "address"
        },
        {
          "indexed": false,
          "internalType": "string",
          "name": "newUri",
          "type": "string"
        }
      ],
      "name": "LOANMetadataUriUpdated",
      "type": "event"
    },
    {
      "anonymous": false,
      "inputs": [
        {
          "indexed": true,
          "internalType": "address",
          "name": "previousOwner",
          "type": "address"
        },
        {
          "indexed": true,
          "internalType": "address",
          "name": "newOwner",
          "type": "address"
        }
      ],
      "name": "OwnershipTransferStarted",
      "type": "event"
    },
    {
      "anonymous": false,
      "inputs": [
        {
          "indexed": true,
          "internalType": "address",
          "name": "previousOwner",
          "type": "address"
        },
        {
          "indexed": true,
          "internalType": "address",
          "name": "newOwner",
          "type": "address"
        }
      ],
      "name": "OwnershipTransferred",
      "type": "event"
    },
    {
      "inputs": [],
      "name": "MAX_FEE",
      "outputs": [
        {
          "internalType": "uint16",
          "name": "",
          "type": "uint16"
        }
      ],
      "stateMutability": "view",
      "type": "function"
    },
    {
      "inputs": [],
      "name": "acceptOwnership",
      "outputs": [],
      "stateMutability": "nonpayable",
      "type": "function"
    },
    {
      "inputs": [],
      "name": "fee",
      "outputs": [
        {
          "internalType": "uint16",
          "name": "",
          "type": "uint16"
        }
      ],
      "stateMutability": "view",
      "type": "function"
    },
    {
      "inputs": [],
      "name": "feeCollector",
      "outputs": [
        {
          "internalType": "address",
          "name": "",
          "type": "address"
        }
      ],
      "stateMutability": "view",
      "type": "function"
    },
    {
      "inputs": [
        {
          "internalType": "address",
          "name": "pool",
          "type": "address"
        }
      ],
      "name": "getPoolAdapter",
      "outputs": [
        {
          "internalType": "contract IPoolAdapter",
          "name": "",
          "type": "address"
        }
      ],
      "stateMutability": "view",
      "type": "function"
    },
    {
      "inputs": [
        {
          "internalType": "address",
          "name": "asset",
          "type": "address"
        }
      ],
      "name": "getStateFingerprintComputer",
      "outputs": [
        {
          "internalType": "contract IStateFingerpringComputer",
          "name": "",
          "type": "address"
        }
      ],
      "stateMutability": "view",
      "type": "function"
    },
    {
      "inputs": [
        {
          "internalType": "address",
          "name": "_owner",
          "type": "address"
        },
        {
          "internalType": "uint16",
          "name": "_fee",
          "type": "uint16"
        },
        {
          "internalType": "address",
          "name": "_feeCollector",
          "type": "address"
        }
      ],
      "name": "initialize",
      "outputs": [],
      "stateMutability": "nonpayable",
      "type": "function"
    },
    {
      "inputs": [
        {
          "internalType": "address",
          "name": "loanContract",
          "type": "address"
        }
      ],
      "name": "loanMetadataUri",
      "outputs": [
        {
          "internalType": "string",
          "name": "uri",
          "type": "string"
        }
      ],
      "stateMutability": "view",
      "type": "function"
    },
    {
      "inputs": [],
      "name": "owner",
      "outputs": [
        {
          "internalType": "address",
          "name": "",
          "type": "address"
        }
      ],
      "stateMutability": "view",
      "type": "function"
    },
    {
      "inputs": [],
      "name": "pendingOwner",
      "outputs": [
        {
          "internalType": "address",
          "name": "",
          "type": "address"
        }
      ],
      "stateMutability": "view",
      "type": "function"
    },
    {
      "inputs": [
        {
          "internalType": "address",
          "name": "pool",
          "type": "address"
        },
        {
          "internalType": "address",
          "name": "adapter",
          "type": "address"
        }
      ],
      "name": "registerPoolAdapter",
      "outputs": [],
      "stateMutability": "nonpayable",
      "type": "function"
    },
    {
      "inputs": [
        {
          "internalType": "address",
          "name": "asset",
          "type": "address"
        },
        {
          "internalType": "address",
          "name": "computer",
          "type": "address"
        }
      ],
      "name": "registerStateFingerprintComputer",
      "outputs": [],
      "stateMutability": "nonpayable",
      "type": "function"
    },
    {
      "inputs": [],
      "name": "renounceOwnership",
      "outputs": [],
      "stateMutability": "nonpayable",
      "type": "function"
    },
    {
      "inputs": [
        {
          "internalType": "string",
          "name": "metadataUri",
          "type": "string"
        }
      ],
      "name": "setDefaultLOANMetadataUri",
      "outputs": [],
      "stateMutability": "nonpayable",
      "type": "function"
    },
    {
      "inputs": [
        {
          "internalType": "uint16",
          "name": "_fee",
          "type": "uint16"
        }
      ],
      "name": "setFee",
      "outputs": [],
      "stateMutability": "nonpayable",
      "type": "function"
    },
    {
      "inputs": [
        {
          "internalType": "address",
          "name": "_feeCollector",
          "type": "address"
        }
      ],
      "name": "setFeeCollector",
      "outputs": [],
      "stateMutability": "nonpayable",
      "type": "function"
    },
    {
      "inputs": [
        {
          "internalType": "address",
          "name": "loanContract",
          "type": "address"
        },
        {
          "internalType": "string",
          "name": "metadataUri",
          "type": "string"
        }
      ],
      "name": "setLOANMetadataUri",
      "outputs": [],
      "stateMutability": "nonpayable",
      "type": "function"
    },
    {
      "inputs": [
        {
          "internalType": "address",
          "name": "newOwner",
          "type": "address"
        }
      ],
      "name": "transferOwnership",
      "outputs": [],
      "stateMutability": "nonpayable",
      "type": "function"
    }
  ],
  "bytecode": {
    "object": "0x608060405234801561001057600080fd5b5061001a33610031565b610022610058565b61002c6000610031565b610174565b600180546001600160a01b031916905561005581610124602090811b61095917901c565b50565b600154600160a81b900460ff16156100c65760405162461bcd60e51b815260206004820152602760248201527f496e697469616c697a61626c653a20636f6e747261637420697320696e697469604482015266616c697a696e6760c81b606482015260840160405180910390fd5b600154600160a01b900460ff90811614610122576001805460ff60a01b191660ff60a01b17905560405160ff81527f7f26b83ff96e1f2b6a682f133852f6798a09c465da95921460cefb38474024989060200160405180910390a15b565b600080546001600160a01b038381166001600160a01b0319831681178455604051919092169283917f8be0079c531659141344cd1fd0a4f28419497f9722a3daafe3b4186f6b6457e09190a35050565b610f31806101836000396000f3fe608060405234801561001057600080fd5b50600436106101165760003560e01c8063a42dce80116100a2578063c4743ae011610071578063c4743ae014610265578063cbf35d8814610278578063ddca3f431461028b578063e30c3978146102a0578063f2fde38b146102b157600080fd5b8063a42dce80146101f7578063b20912311461020a578063bc063e1a14610236578063c415b95c1461025257600080fd5b8063715018a6116100e9578063715018a6146101b057806379ba5097146101b85780638da5cb5b146101c05780638e005553146101d1578063935bf0d7146101e457600080fd5b8063233557501461011b5780632df927ac146101445780634bbcf8de14610188578063708c0db91461019d575b600080fd5b61012e610129366004610b4f565b6102c4565b60405161013b9190610b71565b60405180910390f35b610170610152366004610b4f565b6001600160a01b039081166000908152600460205260409020541690565b6040516001600160a01b03909116815260200161013b565b61019b610196366004610c62565b61042f565b005b61019b6101ab366004610cc2565b6104c6565b61019b6106ad565b61019b6106c1565b6000546001600160a01b0316610170565b61019b6101df366004610d05565b61073b565b61019b6101f2366004610d20565b61074c565b61019b610205366004610b4f565b61082a565b610170610218366004610b4f565b6001600160a01b039081166000908152600560205260409020541690565b61023f6103e881565b60405161ffff909116815260200161013b565b600254610170906001600160a01b031681565b61019b610273366004610d53565b61083b565b61019b610286366004610d20565b6108b2565b60015461023f90600160b01b900461ffff1681565b6001546001600160a01b0316610170565b61019b6102bf366004610b4f565b6108e8565b6001600160a01b03811660009081526003602052604090208054606091906102eb90610d90565b80601f016020809104026020016040519081016040528092919081815260200182805461031790610d90565b80156103645780601f1061033957610100808354040283529160200191610364565b820191906000526020600020905b81548152906001019060200180831161034757829003601f168201915b50505050509050805160000361042a576000805260036020527f3617319a054d772f909f7c479a2cebe5066e836a939412e32403c99029b92eff80546103a990610d90565b80601f01602080910402602001604051908101604052809291908181526020018280546103d590610d90565b80156104225780601f106103f757610100808354040283529160200191610422565b820191906000526020600020905b81548152906001019060200180831161040557829003601f168201915b505050505090505b919050565b6104376109a9565b6001600160a01b03821661045e5760405163a9fcf0f560e01b815260040160405180910390fd5b6001600160a01b03821660009081526003602052604090206104808282610e19565b50816001600160a01b03167f6004b71123e07b97df793497325c4438343da4eeb06cfe39475aa69d93476527826040516104ba9190610b71565b60405180910390a25050565b600154600160a81b900460ff16158080156104ec575060018054600160a01b900460ff16105b8061050c5750303b15801561050c575060018054600160a01b900460ff16145b6105745760405162461bcd60e51b815260206004820152602e60248201527f496e697469616c697a61626c653a20636f6e747261637420697320616c72656160448201526d191e481a5b9a5d1a585b1a5e995960921b60648201526084015b60405180910390fd5b6001805460ff60a01b1916600160a01b17905580156105a1576001805460ff60a81b1916600160a81b1790555b6001600160a01b0384166105ef5760405162461bcd60e51b81526020600482015260156024820152744f776e6572206973207a65726f206164647265737360581b604482015260640161056b565b6105f884610a03565b6001600160a01b03821661064e5760405162461bcd60e51b815260206004820152601d60248201527f46656520636f6c6c6563746f72206973207a65726f2061646472657373000000604482015260640161056b565b61065782610a1c565b61066083610aa5565b80156106a7576001805460ff60a81b191681556040519081527f7f26b83ff96e1f2b6a682f133852f6798a09c465da95921460cefb38474024989060200160405180910390a15b50505050565b6106b56109a9565b6106bf6000610a03565b565b60015433906001600160a01b0316811461072f5760405162461bcd60e51b815260206004820152602960248201527f4f776e61626c6532537465703a2063616c6c6572206973206e6f7420746865206044820152683732bb9037bbb732b960b91b606482015260840161056b565b61073881610a03565b50565b6107436109a9565b61073881610aa5565b6107546109a9565b6001600160a01b038116156107fc576040516261f76560e41b81526001600160a01b03838116600483015282169063061f765090602401602060405180830381865afa1580156107a8573d6000803e3d6000fd5b505050506040513d601f19601f820116820180604052508101906107cc9190610ed9565b6107fc5760405163e12aeae760e01b81526001600160a01b0380831660048301528316602482015260440161056b565b6001600160a01b03918216600090815260046020526040902080546001600160a01b03191691909216179055565b6108326109a9565b61073881610a1c565b6108436109a9565b6000805260036020527f3617319a054d772f909f7c479a2cebe5066e836a939412e32403c99029b92eff6108778282610e19565b507fe358eb330ebc40c9c9375742912f9c5a8ae1db2e9990a15039c889ba971e128b816040516108a79190610b71565b60405180910390a150565b6108ba6109a9565b6001600160a01b03918216600090815260056020526040902080546001600160a01b03191691909216179055565b6108f06109a9565b600180546001600160a01b0383166001600160a01b031990911681179091556109216000546001600160a01b031690565b6001600160a01b03167f38d16b8cac22d99fc7c124b9cd0de2d3fa1faef420bfe791d8c362d765e2270060405160405180910390a350565b600080546001600160a01b038381166001600160a01b0319831681178455604051919092169283917f8be0079c531659141344cd1fd0a4f28419497f9722a3daafe3b4186f6b6457e09190a35050565b6000546001600160a01b031633146106bf5760405162461bcd60e51b815260206004820181905260248201527f4f776e61626c653a2063616c6c6572206973206e6f7420746865206f776e6572604482015260640161056b565b600180546001600160a01b031916905561073881610959565b6001600160a01b038116610a4357604051635fb3e86760e11b815260040160405180910390fd5b600280546001600160a01b038381166001600160a01b031983168117909355604080519190921680825260208201939093527f5d16ad41baeb009cd23eb8f6c7cde5c2e0cd5acf4a33926ab488875c37c37f3891015b60405180910390a15050565b6103e861ffff82161115610ada5760405163f6696bd560e01b815261ffff821660048201526103e8602482015260440161056b565b6001805461ffff838116600160b01b81810261ffff60b01b1985161790945560408051949093049091168084526020840191909152917f2e7c4279000925b8ff0bca0e7109cbc47fc6f6c4edfb831ffe7466cf0af07fa09101610a99565b80356001600160a01b038116811461042a57600080fd5b600060208284031215610b6157600080fd5b610b6a82610b38565b9392505050565b600060208083528351808285015260005b81811015610b9e57858101830151858201604001528201610b82565b506000604082860101526040601f19601f8301168501019250505092915050565b634e487b7160e01b600052604160045260246000fd5b600082601f830112610be657600080fd5b813567ffffffffffffffff80821115610c0157610c01610bbf565b604051601f8301601f19908116603f01168101908282118183101715610c2957610c29610bbf565b81604052838152866020858801011115610c4257600080fd5b836020870160208301376000602085830101528094505050505092915050565b60008060408385031215610c7557600080fd5b610c7e83610b38565b9150602083013567ffffffffffffffff811115610c9a57600080fd5b610ca685828601610bd5565b9150509250929050565b803561ffff8116811461042a57600080fd5b600080600060608486031215610cd757600080fd5b610ce084610b38565b9250610cee60208501610cb0565b9150610cfc60408501610b38565b90509250925092565b600060208284031215610d1757600080fd5b610b6a82610cb0565b60008060408385031215610d3357600080fd5b610d3c83610b38565b9150610d4a60208401610b38565b90509250929050565b600060208284031215610d6557600080fd5b813567ffffffffffffffff811115610d7c57600080fd5b610d8884828501610bd5565b949350505050565b600181811c90821680610da457607f821691505b602082108103610dc457634e487b7160e01b600052602260045260246000fd5b50919050565b601f821115610e1457600081815260208120601f850160051c81016020861015610df15750805b601f850160051c820191505b81811015610e1057828155600101610dfd565b5050505b505050565b815167ffffffffffffffff811115610e3357610e33610bbf565b610e4781610e418454610d90565b84610dca565b602080601f831160018114610e7c5760008415610e645750858301515b600019600386901b1c1916600185901b178555610e10565b600085815260208120601f198616915b82811015610eab57888601518255948401946001909101908401610e8c565b5085821015610ec95787850151600019600388901b60f8161c191681555b5050505050600190811b01905550565b600060208284031215610eeb57600080fd5b81518015158114610b6a57600080fdfea26469706673582212204003e6b013d4aac90c6538b0ca83f7edea11b482d0dc530140893659c31b9d6a64736f6c63430008100033",
    "linkReferences": {}
  },
  "methodIdentifiers": {
    "MAX_FEE()": "bc063e1a",
    "acceptOwnership()": "79ba5097",
    "fee()": "ddca3f43",
    "feeCollector()": "c415b95c",
    "getPoolAdapter(address)": "b2091231",
    "getStateFingerprintComputer(address)": "2df927ac",
    "initialize(address,uint16,address)": "708c0db9",
    "loanMetadataUri(address)": "23355750",
    "owner()": "8da5cb5b",
    "pendingOwner()": "e30c3978",
    "registerPoolAdapter(address,address)": "cbf35d88",
    "registerStateFingerprintComputer(address,address)": "935bf0d7",
    "renounceOwnership()": "715018a6",
    "setDefaultLOANMetadataUri(string)": "c4743ae0",
    "setFee(uint16)": "8e005553",
    "setFeeCollector(address)": "a42dce80",
    "setLOANMetadataUri(address,string)": "4bbcf8de",
    "transferOwnership(address)": "f2fde38b"
  },
  "id": 73
}