{
  "abi": [
    {
      "inputs": [
        {
          "internalType": "uint256",
          "name": "initialEpochTimestamp",
          "type": "uint256"
        }
      ],
      "stateMutability": "nonpayable",
      "type": "constructor"
    },
    {
      "inputs": [
        {
          "internalType": "uint256",
          "name": "currentTimestamp",
          "type": "uint256"
        }
      ],
      "name": "InitialEpochTimestampInFuture",
      "type": "error"
    },
    {
      "inputs": [],
      "name": "INITIAL_EPOCH_TIMESTAMP",
      "outputs": [
        {
          "internalType": "uint256",
          "name": "",
          "type": "uint256"
        }
      ],
      "stateMutability": "view",
      "type": "function"
    },
    {
      "inputs": [],
      "name": "SECONDS_IN_EPOCH",
      "outputs": [
        {
          "internalType": "uint256",
          "name": "",
          "type": "uint256"
        }
      ],
      "stateMutability": "view",
      "type": "function"
    },
    {
      "inputs": [],
      "name": "currentEpoch",
      "outputs": [
        {
          "internalType": "uint16",
          "name": "",
          "type": "uint16"
        }
      ],
      "stateMutability": "view",
      "type": "function"
    }
  ],
  "bytecode": {
    "object": "0x60a060405234801561001057600080fd5b5060405161025138038061025183398101604081905261002f9161005e565b42811115610056576040516313218df960e21b815242600482015260240160405180910390fd5b608052610077565b60006020828403121561007057600080fd5b5051919050565b6080516101b461009d60003960008181604b0152818160a9015260e001526101b46000f3fe608060405234801561001057600080fd5b50600436106100415760003560e01c806339c5ea9b1461004657806358cc124514610080578063766718081461008a575b600080fd5b61006d7f000000000000000000000000000000000000000000000000000000000000000081565b6040519081526020015b60405180910390f35b61006d6224ea0081565b6100926100a5565b60405161ffff9091168152602001610077565b60007f00000000000000000000000000000000000000000000000000000000000000004210156100d55750600090565b60006224ea006101057f000000000000000000000000000000000000000000000000000000000000000042610136565b61010f9190610149565b61011a90600161016b565b92915050565b634e487b7160e01b600052601160045260246000fd5b8181038181111561011a5761011a610120565b60008261016657634e487b7160e01b600052601260045260246000fd5b500490565b8082018082111561011a5761011a61012056fea2646970667358221220ec399246279f8c5199c0e8a01306eb85544080eeb4d51ef381b93397c379500764736f6c63430008120033",
    "linkReferences": {}
  },
  "methodIdentifiers": {
    "INITIAL_EPOCH_TIMESTAMP()": "39c5ea9b",
    "SECONDS_IN_EPOCH()": "58cc1245",
    "currentEpoch()": "76671808"
  },
  "id": 53
}