{
  "abi": [
    {
      "inputs": [],
      "stateMutability": "nonpayable",
      "type": "constructor"
    },
    {
      "inputs": [],
      "name": "InvalidInputData",
      "type": "error"
    },
    {
      "anonymous": false,
      "inputs": [
        {
          "indexed": true,
          "internalType": "address",
          "name": "previousOwner",
          "type": "address"
        },
        {
          "indexed": true,
          "internalType": "address",
          "name": "newOwner",
          "type": "address"
        }
      ],
      "name": "OwnershipTransferStarted",
      "type": "event"
    },
    {
      "anonymous": false,
      "inputs": [
        {
          "indexed": true,
          "internalType": "address",
          "name": "previousOwner",
          "type": "address"
        },
        {
          "indexed": true,
          "internalType": "address",
          "name": "newOwner",
          "type": "address"
        }
      ],
      "name": "OwnershipTransferred",
      "type": "event"
    },
    {
      "anonymous": false,
      "inputs": [
        {
          "indexed": true,
          "internalType": "address",
          "name": "_address",
          "type": "address"
        },
        {
          "indexed": true,
          "internalType": "bytes32",
          "name": "tag",
          "type": "bytes32"
        },
        {
          "indexed": false,
          "internalType": "bool",
          "name": "hasTag",
          "type": "bool"
        }
      ],
      "name": "TagSet",
      "type": "event"
    },
    {
      "inputs": [],
      "name": "acceptOwnership",
      "outputs": [],
      "stateMutability": "nonpayable",
      "type": "function"
    },
    {
      "inputs": [
        {
          "internalType": "address",
          "name": "_address",
          "type": "address"
        },
        {
          "internalType": "bytes32",
          "name": "tag",
          "type": "bytes32"
        }
      ],
      "name": "hasTag",
      "outputs": [
        {
          "internalType": "bool",
          "name": "",
          "type": "bool"
        }
      ],
      "stateMutability": "view",
      "type": "function"
    },
    {
      "inputs": [],
      "name": "owner",
      "outputs": [
        {
          "internalType": "address",
          "name": "",
          "type": "address"
        }
      ],
      "stateMutability": "view",
      "type": "function"
    },
    {
      "inputs": [],
      "name": "pendingOwner",
      "outputs": [
        {
          "internalType": "address",
          "name": "",
          "type": "address"
        }
      ],
      "stateMutability": "view",
      "type": "function"
    },
    {
      "inputs": [],
      "name": "renounceOwnership",
      "outputs": [],
      "stateMutability": "nonpayable",
      "type": "function"
    },
    {
      "inputs": [
        {
          "internalType": "address",
          "name": "_address",
          "type": "address"
        },
        {
          "internalType": "bytes32",
          "name": "tag",
          "type": "bytes32"
        },
        {
          "internalType": "bool",
          "name": "_hasTag",
          "type": "bool"
        }
      ],
      "name": "setTag",
      "outputs": [],
      "stateMutability": "nonpayable",
      "type": "function"
    },
    {
      "inputs": [
        {
          "internalType": "address[]",
          "name": "_addresses",
          "type": "address[]"
        },
        {
          "internalType": "bytes32[]",
          "name": "_tags",
          "type": "bytes32[]"
        },
        {
          "internalType": "bool",
          "name": "_hasTag",
          "type": "bool"
        }
      ],
      "name": "setTags",
      "outputs": [],
      "stateMutability": "nonpayable",
      "type": "function"
    },
    {
      "inputs": [
        {
          "internalType": "address",
          "name": "newOwner",
          "type": "address"
        }
      ],
      "name": "transferOwnership",
      "outputs": [],
      "stateMutability": "nonpayable",
      "type": "function"
    }
  ],
  "bytecode": {
    "object": "0x608060405234801561001057600080fd5b5061001a3361001f565b610096565b600180546001600160a01b031916905561004381610046602090811b61035617901c565b50565b600080546001600160a01b038381166001600160a01b0319831681178455604051919092169283917f8be0079c531659141344cd1fd0a4f28419497f9722a3daafe3b4186f6b6457e09190a35050565b6106b6806100a56000396000f3fe608060405234801561001057600080fd5b50600436106100885760003560e01c8063d019577a1161005b578063d019577a146100dc578063e30c397814610125578063f12715a114610136578063f2fde38b1461014957600080fd5b8063715018a61461008d57806379ba5097146100975780638da5cb5b1461009f5780639cd9c520146100c9575b600080fd5b61009561015c565b005b610095610170565b6000546001600160a01b03165b6040516001600160a01b0390911681526020015b60405180910390f35b6100956100d7366004610445565b6101ef565b6101156100ea366004610481565b6001600160a01b03919091166000908152600260209081526040808320938352929052205460ff1690565b60405190151581526020016100c0565b6001546001600160a01b03166100ac565b610095610144366004610581565b610262565b610095610157366004610648565b6102e5565b6101646103a6565b61016e6000610400565b565b60015433906001600160a01b031681146101e35760405162461bcd60e51b815260206004820152602960248201527f4f776e61626c6532537465703a2063616c6c6572206973206e6f7420746865206044820152683732bb9037bbb732b960b91b60648201526084015b60405180910390fd5b6101ec81610400565b50565b6101f76103a6565b6001600160a01b0383166000818152600260209081526040808320868452825291829020805460ff191685151590811790915591519182528492917fb30f662698af140e14b21a677b92bf5a9787f9109294b3d206fa53ea23069d2b910160405180910390a3505050565b61026a6103a6565b815183511461028c57604051637016bd9b60e01b815260040160405180910390fd5b815160005b818110156102de576102d68582815181106102ae576102ae61066a565b60200260200101518583815181106102c8576102c861066a565b6020026020010151856101ef565b600101610291565b5050505050565b6102ed6103a6565b600180546001600160a01b0383166001600160a01b0319909116811790915561031e6000546001600160a01b031690565b6001600160a01b03167f38d16b8cac22d99fc7c124b9cd0de2d3fa1faef420bfe791d8c362d765e2270060405160405180910390a350565b600080546001600160a01b038381166001600160a01b0319831681178455604051919092169283917f8be0079c531659141344cd1fd0a4f28419497f9722a3daafe3b4186f6b6457e09190a35050565b6000546001600160a01b0316331461016e5760405162461bcd60e51b815260206004820181905260248201527f4f776e61626c653a2063616c6c6572206973206e6f7420746865206f776e657260448201526064016101da565b600180546001600160a01b03191690556101ec81610356565b80356001600160a01b038116811461043057600080fd5b919050565b8035801515811461043057600080fd5b60008060006060848603121561045a57600080fd5b61046384610419565b92506020840135915061047860408501610435565b90509250925092565b6000806040838503121561049457600080fd5b61049d83610419565b946020939093013593505050565b634e487b7160e01b600052604160045260246000fd5b604051601f8201601f1916810167ffffffffffffffff811182821017156104ea576104ea6104ab565b604052919050565b600067ffffffffffffffff82111561050c5761050c6104ab565b5060051b60200190565b600082601f83011261052757600080fd5b8135602061053c610537836104f2565b6104c1565b82815260059290921b8401810191818101908684111561055b57600080fd5b8286015b84811015610576578035835291830191830161055f565b509695505050505050565b60008060006060848603121561059657600080fd5b833567ffffffffffffffff808211156105ae57600080fd5b818601915086601f8301126105c257600080fd5b813560206105d2610537836104f2565b82815260059290921b8401810191818101908a8411156105f157600080fd5b948201945b838610156106165761060786610419565b825294820194908201906105f6565b9750508701359250508082111561062c57600080fd5b5061063986828701610516565b92505061047860408501610435565b60006020828403121561065a57600080fd5b61066382610419565b9392505050565b634e487b7160e01b600052603260045260246000fdfea264697066735822122001ba215ab43733d2f336e0b3233c29e151b05b6958f97faf1782d3c0c589978864736f6c63430008100033",
    "linkReferences": {}
  },
  "methodIdentifiers": {
    "acceptOwnership()": "79ba5097",
    "hasTag(address,bytes32)": "d019577a",
    "owner()": "8da5cb5b",
    "pendingOwner()": "e30c3978",
    "renounceOwnership()": "715018a6",
    "setTag(address,bytes32,bool)": "9cd9c520",
    "setTags(address[],bytes32[],bool)": "f12715a1",
    "transferOwnership(address)": "f2fde38b"
  },
  "id": 74
}