{
  "abi": [
    {
      "inputs": [
        {
          "internalType": "address",
          "name": "hub",
          "type": "address"
        }
      ],
      "stateMutability": "nonpayable",
      "type": "constructor"
    },
    {
      "inputs": [
        {
          "internalType": "bytes32",
          "name": "",
          "type": "bytes32"
        }
      ],
      "name": "CallerMissingHubTag",
      "type": "error"
    },
    {
      "inputs": [],
      "name": "InvalidLoanContractCaller",
      "type": "error"
    },
    {
      "anonymous": false,
      "inputs": [
        {
          "indexed": true,
          "internalType": "address",
          "name": "owner",
          "type": "address"
        },
        {
          "indexed": true,
          "internalType": "address",
          "name": "approved",
          "type": "address"
        },
        {
          "indexed": true,
          "internalType": "uint256",
          "name": "tokenId",
          "type": "uint256"
        }
      ],
      "name": "Approval",
      "type": "event"
    },
    {
      "anonymous": false,
      "inputs": [
        {
          "indexed": true,
          "internalType": "address",
          "name": "owner",
          "type": "address"
        },
        {
          "indexed": true,
          "internalType": "address",
          "name": "operator",
          "type": "address"
        },
        {
          "indexed": false,
          "internalType": "bool",
          "name": "approved",
          "type": "bool"
        }
      ],
      "name": "ApprovalForAll",
      "type": "event"
    },
    {
      "anonymous": false,
      "inputs": [
        {
          "indexed": true,
          "internalType": "uint256",
          "name": "loanId",
          "type": "uint256"
        }
      ],
      "name": "LOANBurned",
      "type": "event"
    },
    {
      "anonymous": false,
      "inputs": [
        {
          "indexed": true,
          "internalType": "uint256",
          "name": "loanId",
          "type": "uint256"
        },
        {
          "indexed": true,
          "internalType": "address",
          "name": "loanContract",
          "type": "address"
        },
        {
          "indexed": true,
          "internalType": "address",
          "name": "owner",
          "type": "address"
        }
      ],
      "name": "LOANMinted",
      "type": "event"
    },
    {
      "anonymous": false,
      "inputs": [
        {
          "indexed": true,
          "internalType": "address",
          "name": "from",
          "type": "address"
        },
        {
          "indexed": true,
          "internalType": "address",
          "name": "to",
          "type": "address"
        },
        {
          "indexed": true,
          "internalType": "uint256",
          "name": "tokenId",
          "type": "uint256"
        }
      ],
      "name": "Transfer",
      "type": "event"
    },
    {
      "inputs": [
        {
          "internalType": "address",
          "name": "to",
          "type": "address"
        },
        {
          "internalType": "uint256",
          "name": "tokenId",
          "type": "uint256"
        }
      ],
      "name": "approve",
      "outputs": [],
      "stateMutability": "nonpayable",
      "type": "function"
    },
    {
      "inputs": [
        {
          "internalType": "address",
          "name": "owner",
          "type": "address"
        }
      ],
      "name": "balanceOf",
      "outputs": [
        {
          "internalType": "uint256",
          "name": "",
          "type": "uint256"
        }
      ],
      "stateMutability": "view",
      "type": "function"
    },
    {
      "inputs": [
        {
          "internalType": "uint256",
          "name": "loanId",
          "type": "uint256"
        }
      ],
      "name": "burn",
      "outputs": [],
      "stateMutability": "nonpayable",
      "type": "function"
    },
    {
      "inputs": [
        {
          "internalType": "uint256",
          "name": "tokenId",
          "type": "uint256"
        }
      ],
      "name": "getApproved",
      "outputs": [
        {
          "internalType": "address",
          "name": "",
          "type": "address"
        }
      ],
      "stateMutability": "view",
      "type": "function"
    },
    {
      "inputs": [
        {
          "internalType": "uint256",
          "name": "tokenId",
          "type": "uint256"
        }
      ],
      "name": "getStateFingerprint",
      "outputs": [
        {
          "internalType": "bytes32",
          "name": "",
          "type": "bytes32"
        }
      ],
      "stateMutability": "view",
      "type": "function"
    },
    {
      "inputs": [
        {
          "internalType": "address",
          "name": "owner",
          "type": "address"
        },
        {
          "internalType": "address",
          "name": "operator",
          "type": "address"
        }
      ],
      "name": "isApprovedForAll",
      "outputs": [
        {
          "internalType": "bool",
          "name": "",
          "type": "bool"
        }
      ],
      "stateMutability": "view",
      "type": "function"
    },
    {
      "inputs": [],
      "name": "lastLoanId",
      "outputs": [
        {
          "internalType": "uint256",
          "name": "",
          "type": "uint256"
        }
      ],
      "stateMutability": "view",
      "type": "function"
    },
    {
      "inputs": [
        {
          "internalType": "uint256",
          "name": "",
          "type": "uint256"
        }
      ],
      "name": "loanContract",
      "outputs": [
        {
          "internalType": "address",
          "name": "",
          "type": "address"
        }
      ],
      "stateMutability": "view",
      "type": "function"
    },
    {
      "inputs": [
        {
          "internalType": "address",
          "name": "owner",
          "type": "address"
        }
      ],
      "name": "mint",
      "outputs": [
        {
          "internalType": "uint256",
          "name": "loanId",
          "type": "uint256"
        }
      ],
      "stateMutability": "nonpayable",
      "type": "function"
    },
    {
      "inputs": [],
      "name": "name",
      "outputs": [
        {
          "internalType": "string",
          "name": "",
          "type": "string"
        }
      ],
      "stateMutability": "view",
      "type": "function"
    },
    {
      "inputs": [
        {
          "internalType": "uint256",
          "name": "tokenId",
          "type": "uint256"
        }
      ],
      "name": "ownerOf",
      "outputs": [
        {
          "internalType": "address",
          "name": "",
          "type": "address"
        }
      ],
      "stateMutability": "view",
      "type": "function"
    },
    {
      "inputs": [
        {
          "internalType": "address",
          "name": "from",
          "type": "address"
        },
        {
          "internalType": "address",
          "name": "to",
          "type": "address"
        },
        {
          "internalType": "uint256",
          "name": "tokenId",
          "type": "uint256"
        }
      ],
      "name": "safeTransferFrom",
      "outputs": [],
      "stateMutability": "nonpayable",
      "type": "function"
    },
    {
      "inputs": [
        {
          "internalType": "address",
          "name": "from",
          "type": "address"
        },
        {
          "internalType": "address",
          "name": "to",
          "type": "address"
        },
        {
          "internalType": "uint256",
          "name": "tokenId",
          "type": "uint256"
        },
        {
          "internalType": "bytes",
          "name": "data",
          "type": "bytes"
        }
      ],
      "name": "safeTransferFrom",
      "outputs": [],
      "stateMutability": "nonpayable",
      "type": "function"
    },
    {
      "inputs": [
        {
          "internalType": "address",
          "name": "operator",
          "type": "address"
        },
        {
          "internalType": "bool",
          "name": "approved",
          "type": "bool"
        }
      ],
      "name": "setApprovalForAll",
      "outputs": [],
      "stateMutability": "nonpayable",
      "type": "function"
    },
    {
      "inputs": [
        {
          "internalType": "bytes4",
          "name": "interfaceId",
          "type": "bytes4"
        }
      ],
      "name": "supportsInterface",
      "outputs": [
        {
          "internalType": "bool",
          "name": "",
          "type": "bool"
        }
      ],
      "stateMutability": "view",
      "type": "function"
    },
    {
      "inputs": [],
      "name": "symbol",
      "outputs": [
        {
          "internalType": "string",
          "name": "",
          "type": "string"
        }
      ],
      "stateMutability": "view",
      "type": "function"
    },
    {
      "inputs": [
        {
          "internalType": "uint256",
          "name": "tokenId",
          "type": "uint256"
        }
      ],
      "name": "tokenURI",
      "outputs": [
        {
          "internalType": "string",
          "name": "",
          "type": "string"
        }
      ],
      "stateMutability": "view",
      "type": "function"
    },
    {
      "inputs": [
        {
          "internalType": "address",
          "name": "from",
          "type": "address"
        },
        {
          "internalType": "address",
          "name": "to",
          "type": "address"
        },
        {
          "internalType": "uint256",
          "name": "tokenId",
          "type": "uint256"
        }
      ],
      "name": "transferFrom",
      "outputs": [],
      "stateMutability": "nonpayable",
      "type": "function"
    }
  ],
  "bytecode": {
    "object": "0x60a06040523480156200001157600080fd5b506040516200185b3803806200185b8339810160408190526200003491620000a3565b6040805180820182526008815267282ba7102627a0a760c11b602080830191909152825180840190935260048352632627a0a760e11b908301526001600160a01b0383166080529060006200008a83826200017a565b5060016200009982826200017a565b5050505062000246565b600060208284031215620000b657600080fd5b81516001600160a01b0381168114620000ce57600080fd5b9392505050565b634e487b7160e01b600052604160045260246000fd5b600181811c908216806200010057607f821691505b6020821081036200012157634e487b7160e01b600052602260045260246000fd5b50919050565b601f8211156200017557600081815260208120601f850160051c81016020861015620001505750805b601f850160051c820191505b8181101562000171578281556001016200015c565b5050505b505050565b81516001600160401b03811115620001965762000196620000d5565b620001ae81620001a78454620000eb565b8462000127565b602080601f831160018114620001e65760008415620001cd5750858301515b600019600386901b1c1916600185901b17855562000171565b600085815260208120601f198616915b828110156200021757888601518255948401946001909101908401620001f6565b5085821015620002365787850151600019600388901b60f8161c191681555b5050505050600190811b01905550565b6080516115f962000262600039600061064d01526115f96000f3fe608060405234801561001057600080fd5b50600436106101165760003560e01c80636a627842116100a2578063a22cb46511610071578063a22cb46514610252578063b88d4fde14610265578063c87b56dd14610278578063e985e9c51461028b578063f5112315146102c757600080fd5b80636a627842146101fb57806370a082311461020e57806395d89b4114610221578063a00d21fc1461022957600080fd5b806323b872dd116100e957806323b872dd1461019857806342842e0e146101ab57806342966c68146101be5780636352211e146101d157806368be92b4146101e457600080fd5b806301ffc9a71461011b57806306fdde0314610143578063081812fc14610158578063095ea7b314610183575b600080fd5b61012e6101293660046110af565b6102da565b60405190151581526020015b60405180910390f35b61014b610306565b60405161013a919061111c565b61016b61016636600461112f565b610398565b6040516001600160a01b03909116815260200161013a565b610196610191366004611164565b6103bf565b005b6101966101a636600461118e565b6104d9565b6101966101b936600461118e565b61050a565b6101966101cc36600461112f565b610525565b61016b6101df36600461112f565b6105af565b6101ed60065481565b60405190815260200161013a565b6101ed6102093660046111ca565b61060f565b6101ed61021c3660046111ca565b61077f565b61014b610805565b61016b61023736600461112f565b6007602052600090815260409020546001600160a01b031681565b6101966102603660046111f3565b610814565b610196610273366004611299565b610823565b61014b61028636600461112f565b61085b565b61012e610299366004611344565b6001600160a01b03918216600090815260056020908152604080832093909416825291909152205460ff1690565b6101ed6102d536600461112f565b6108de565b60006102e582610974565b8061030057506001600160e01b0319821663f511231560e01b145b92915050565b60606000805461031590611377565b80601f016020809104026020016040519081016040528092919081815260200182805461034190611377565b801561038e5780601f106103635761010080835404028352916020019161038e565b820191906000526020600020905b81548152906001019060200180831161037157829003601f168201915b5050505050905090565b60006103a3826109c4565b506000908152600460205260409020546001600160a01b031690565b60006103ca826105af565b9050806001600160a01b0316836001600160a01b03160361043c5760405162461bcd60e51b815260206004820152602160248201527f4552433732313a20617070726f76616c20746f2063757272656e74206f776e656044820152603960f91b60648201526084015b60405180910390fd5b336001600160a01b038216148061045857506104588133610299565b6104ca5760405162461bcd60e51b815260206004820152603d60248201527f4552433732313a20617070726f76652063616c6c6572206973206e6f7420746f60448201527f6b656e206f776e6572206f7220617070726f76656420666f7220616c6c0000006064820152608401610433565b6104d48383610a26565b505050565b6104e33382610a94565b6104ff5760405162461bcd60e51b8152600401610433906113b1565b6104d4838383610b13565b6104d483838360405180602001604052806000815250610823565b6000818152600760205260409020546001600160a01b0316331461055c576040516374768c4960e11b815260040160405180910390fd5b600081815260076020526040902080546001600160a01b031916905561058181610c77565b60405181907f56f7da88d3aa2a8ad74b71a5b449a66a643193815eace8bbd6b089d4bc18294b90600090a250565b6000818152600260205260408120546001600160a01b0316806103005760405162461bcd60e51b8152602060048201526018602482015277115490cdcc8c4e881a5b9d985b1a59081d1bdad95b88125160421b6044820152606401610433565b60405163680cabbd60e11b81523360048201527f9e56ea094d7a53440eef11fa42b63159fbf703b4ee579494a6ae85afc560359460248201526000907f00000000000000000000000000000000000000000000000000000000000000006001600160a01b03169063d019577a90604401602060405180830381865afa15801561069c573d6000803e3d6000fd5b505050506040513d601f19601f820116820180604052508101906106c091906113fe565b15156000036107045760405163f8932b2d60e01b81527f9e56ea094d7a53440eef11fa42b63159fbf703b4ee579494a6ae85afc56035946004820152602401610433565b6006600081546107139061141b565b9182905550600081815260076020526040902080546001600160a01b0319163317905590506107428282610d0c565b6040516001600160a01b03831690339083907f2ca529bede83c064afd9331357a1ce320271c9c7ceda28ac31472d76f7aff53090600090a4919050565b60006001600160a01b0382166107e95760405162461bcd60e51b815260206004820152602960248201527f4552433732313a2061646472657373207a65726f206973206e6f7420612076616044820152683634b21037bbb732b960b91b6064820152608401610433565b506001600160a01b031660009081526003602052604090205490565b60606001805461031590611377565b61081f338383610e97565b5050565b61082d3383610a94565b6108495760405162461bcd60e51b8152600401610433906113b1565b61085584848484610f65565b50505050565b6060610866826109c4565b60008281526007602052604080822054815163111d8a1560e01b815291516001600160a01b039091169263111d8a1592600480820193918290030181865afa1580156108b6573d6000803e3d6000fd5b505050506040513d6000823e601f3d908101601f191682016040526103009190810190611442565b6000818152600760205260408120546001600160a01b0316806109045750600092915050565b60405163f511231560e01b8152600481018490526001600160a01b0382169063f511231590602401602060405180830381865afa158015610949573d6000803e3d6000fd5b505050506040513d601f19601f8201168201806040525081019061096d91906114b9565b9392505050565b60006001600160e01b031982166380ac58cd60e01b14806109a557506001600160e01b03198216635b5e139f60e01b145b8061030057506301ffc9a760e01b6001600160e01b0319831614610300565b6000818152600260205260409020546001600160a01b0316610a235760405162461bcd60e51b8152602060048201526018602482015277115490cdcc8c4e881a5b9d985b1a59081d1bdad95b88125160421b6044820152606401610433565b50565b600081815260046020526040902080546001600160a01b0319166001600160a01b0384169081179091558190610a5b826105af565b6001600160a01b03167f8c5be1e5ebec7d5bd14f71427d1e84f3dd0314c0f7b2291e5b200ac8c7c3b92560405160405180910390a45050565b600080610aa0836105af565b9050806001600160a01b0316846001600160a01b03161480610ae757506001600160a01b0380821660009081526005602090815260408083209388168352929052205460ff165b80610b0b5750836001600160a01b0316610b0084610398565b6001600160a01b0316145b949350505050565b826001600160a01b0316610b26826105af565b6001600160a01b031614610b4c5760405162461bcd60e51b8152600401610433906114d2565b6001600160a01b038216610bae5760405162461bcd60e51b8152602060048201526024808201527f4552433732313a207472616e7366657220746f20746865207a65726f206164646044820152637265737360e01b6064820152608401610433565b826001600160a01b0316610bc1826105af565b6001600160a01b031614610be75760405162461bcd60e51b8152600401610433906114d2565b600081815260046020908152604080832080546001600160a01b03199081169091556001600160a01b0387811680865260038552838620805460001901905590871680865283862080546001019055868652600290945282852080549092168417909155905184937fddf252ad1be2c89b69c2b068fc378daa952ba7f163c4a11628f55a4df523b3ef91a4505050565b6000610c82826105af565b9050610c8d826105af565b600083815260046020908152604080832080546001600160a01b03199081169091556001600160a01b0385168085526003845282852080546000190190558785526002909352818420805490911690555192935084927fddf252ad1be2c89b69c2b068fc378daa952ba7f163c4a11628f55a4df523b3ef908390a45050565b6001600160a01b038216610d625760405162461bcd60e51b815260206004820181905260248201527f4552433732313a206d696e7420746f20746865207a65726f20616464726573736044820152606401610433565b6000818152600260205260409020546001600160a01b031615610dc75760405162461bcd60e51b815260206004820152601c60248201527f4552433732313a20746f6b656e20616c7265616479206d696e746564000000006044820152606401610433565b6000818152600260205260409020546001600160a01b031615610e2c5760405162461bcd60e51b815260206004820152601c60248201527f4552433732313a20746f6b656e20616c7265616479206d696e746564000000006044820152606401610433565b6001600160a01b038216600081815260036020908152604080832080546001019055848352600290915280822080546001600160a01b0319168417905551839291907fddf252ad1be2c89b69c2b068fc378daa952ba7f163c4a11628f55a4df523b3ef908290a45050565b816001600160a01b0316836001600160a01b031603610ef85760405162461bcd60e51b815260206004820152601960248201527f4552433732313a20617070726f766520746f2063616c6c6572000000000000006044820152606401610433565b6001600160a01b03838116600081815260056020908152604080832094871680845294825291829020805460ff191686151590811790915591519182527f17307eab39ab6107e8899845ad3d59bd9653f200f220920489ca2b5937696c31910160405180910390a3505050565b610f70848484610b13565b610f7c84848484610f98565b6108555760405162461bcd60e51b815260040161043390611517565b60006001600160a01b0384163b1561108e57604051630a85bd0160e11b81526001600160a01b0385169063150b7a0290610fdc903390899088908890600401611569565b6020604051808303816000875af1925050508015611017575060408051601f3d908101601f19168201909252611014918101906115a6565b60015b611074573d808015611045576040519150601f19603f3d011682016040523d82523d6000602084013e61104a565b606091505b50805160000361106c5760405162461bcd60e51b815260040161043390611517565b805181602001fd5b6001600160e01b031916630a85bd0160e11b149050610b0b565b506001949350505050565b6001600160e01b031981168114610a2357600080fd5b6000602082840312156110c157600080fd5b813561096d81611099565b60005b838110156110e75781810151838201526020016110cf565b50506000910152565b600081518084526111088160208601602086016110cc565b601f01601f19169290920160200192915050565b60208152600061096d60208301846110f0565b60006020828403121561114157600080fd5b5035919050565b80356001600160a01b038116811461115f57600080fd5b919050565b6000806040838503121561117757600080fd5b61118083611148565b946020939093013593505050565b6000806000606084860312156111a357600080fd5b6111ac84611148565b92506111ba60208501611148565b9150604084013590509250925092565b6000602082840312156111dc57600080fd5b61096d82611148565b8015158114610a2357600080fd5b6000806040838503121561120657600080fd5b61120f83611148565b9150602083013561121f816111e5565b809150509250929050565b634e487b7160e01b600052604160045260246000fd5b604051601f8201601f1916810167ffffffffffffffff811182821017156112695761126961122a565b604052919050565b600067ffffffffffffffff82111561128b5761128b61122a565b50601f01601f191660200190565b600080600080608085870312156112af57600080fd5b6112b885611148565b93506112c660208601611148565b925060408501359150606085013567ffffffffffffffff8111156112e957600080fd5b8501601f810187136112fa57600080fd5b803561130d61130882611271565b611240565b81815288602083850101111561132257600080fd5b8160208401602083013760006020838301015280935050505092959194509250565b6000806040838503121561135757600080fd5b61136083611148565b915061136e60208401611148565b90509250929050565b600181811c9082168061138b57607f821691505b6020821081036113ab57634e487b7160e01b600052602260045260246000fd5b50919050565b6020808252602d908201527f4552433732313a2063616c6c6572206973206e6f7420746f6b656e206f776e6560408201526c1c881bdc88185c1c1c9bdd9959609a1b606082015260800190565b60006020828403121561141057600080fd5b815161096d816111e5565b60006001820161143b57634e487b7160e01b600052601160045260246000fd5b5060010190565b60006020828403121561145457600080fd5b815167ffffffffffffffff81111561146b57600080fd5b8201601f8101841361147c57600080fd5b805161148a61130882611271565b81815285602083850101111561149f57600080fd5b6114b08260208301602086016110cc565b95945050505050565b6000602082840312156114cb57600080fd5b5051919050565b60208082526025908201527f4552433732313a207472616e736665722066726f6d20696e636f72726563742060408201526437bbb732b960d91b606082015260800190565b60208082526032908201527f4552433732313a207472616e7366657220746f206e6f6e20455243373231526560408201527131b2b4bb32b91034b6b83632b6b2b73a32b960711b606082015260800190565b6001600160a01b038581168252841660208201526040810183905260806060820181905260009061159c908301846110f0565b9695505050505050565b6000602082840312156115b857600080fd5b815161096d8161109956fea2646970667358221220f9e174f43cdc77a3bc492a640d10f97b14cc702215fccc8c5fd18dca284dc9d164736f6c63430008100033",
    "linkReferences": {}
  },
  "methodIdentifiers": {
    "approve(address,uint256)": "095ea7b3",
    "balanceOf(address)": "70a08231",
    "burn(uint256)": "42966c68",
    "getApproved(uint256)": "081812fc",
    "getStateFingerprint(uint256)": "f5112315",
    "isApprovedForAll(address,address)": "e985e9c5",
    "lastLoanId()": "68be92b4",
    "loanContract(uint256)": "a00d21fc",
    "mint(address)": "6a627842",
    "name()": "06fdde03",
    "ownerOf(uint256)": "6352211e",
    "safeTransferFrom(address,address,uint256)": "42842e0e",
    "safeTransferFrom(address,address,uint256,bytes)": "b88d4fde",
    "setApprovalForAll(address,bool)": "a22cb465",
    "supportsInterface(bytes4)": "01ffc9a7",
    "symbol()": "95d89b41",
    "tokenURI(uint256)": "c87b56dd",
    "transferFrom(address,address,uint256)": "23b872dd"
  },
  "id": 92
}