{
  "abi": [
    {
      "inputs": [
        {
          "internalType": "address",
          "name": "_hub",
          "type": "address"
        },
        {
          "internalType": "bytes32",
          "name": "_accessTag",
          "type": "bytes32"
        }
      ],
      "stateMutability": "nonpayable",
      "type": "constructor"
    },
    {
      "inputs": [
        {
          "internalType": "address",
          "name": "addr",
          "type": "address"
        },
        {
          "internalType": "bytes32",
          "name": "tag",
          "type": "bytes32"
        }
      ],
      "name": "AddressMissingHubTag",
      "type": "error"
    },
    {
      "inputs": [
        {
          "internalType": "address",
          "name": "addr",
          "type": "address"
        },
        {
          "internalType": "uint256",
          "name": "nonceSpace",
          "type": "uint256"
        },
        {
          "internalType": "uint256",
          "name": "nonce",
          "type": "uint256"
        }
      ],
      "name": "NonceAlreadyRevoked",
      "type": "error"
    },
    {
      "inputs": [
        {
          "internalType": "address",
          "name": "addr",
          "type": "address"
        },
        {
          "internalType": "uint256",
          "name": "nonceSpace",
          "type": "uint256"
        },
        {
          "internalType": "uint256",
          "name": "nonce",
          "type": "uint256"
        }
      ],
      "name": "NonceNotUsable",
      "type": "error"
    },
    {
      "anonymous": false,
      "inputs": [
        {
          "indexed": true,
          "internalType": "address",
          "name": "owner",
          "type": "address"
        },
        {
          "indexed": true,
          "internalType": "uint256",
          "name": "nonceSpace",
          "type": "uint256"
        },
        {
          "indexed": true,
          "internalType": "uint256",
          "name": "nonce",
          "type": "uint256"
        }
      ],
      "name": "NonceRevoked",
      "type": "event"
    },
    {
      "anonymous": false,
      "inputs": [
        {
          "indexed": true,
          "internalType": "address",
          "name": "owner",
          "type": "address"
        },
        {
          "indexed": true,
          "internalType": "uint256",
          "name": "nonceSpace",
          "type": "uint256"
        }
      ],
      "name": "NonceSpaceRevoked",
      "type": "event"
    },
    {
      "inputs": [],
      "name": "accessTag",
      "outputs": [
        {
          "internalType": "bytes32",
          "name": "",
          "type": "bytes32"
        }
      ],
      "stateMutability": "view",
      "type": "function"
    },
    {
      "inputs": [
        {
          "internalType": "address",
          "name": "owner",
          "type": "address"
        }
      ],
      "name": "currentNonceSpace",
      "outputs": [
        {
          "internalType": "uint256",
          "name": "",
          "type": "uint256"
        }
      ],
      "stateMutability": "view",
      "type": "function"
    },
    {
      "inputs": [],
      "name": "hub",
      "outputs": [
        {
          "internalType": "contract PWNHub",
          "name": "",
          "type": "address"
        }
      ],
      "stateMutability": "view",
      "type": "function"
    },
    {
      "inputs": [
        {
          "internalType": "address",
          "name": "owner",
          "type": "address"
        },
        {
          "internalType": "uint256",
          "name": "nonceSpace",
          "type": "uint256"
        },
        {
          "internalType": "uint256",
          "name": "nonce",
          "type": "uint256"
        }
      ],
      "name": "isNonceRevoked",
      "outputs": [
        {
          "internalType": "bool",
          "name": "",
          "type": "bool"
        }
      ],
      "stateMutability": "view",
      "type": "function"
    },
    {
      "inputs": [
        {
          "internalType": "address",
          "name": "owner",
          "type": "address"
        },
        {
          "internalType": "uint256",
          "name": "nonceSpace",
          "type": "uint256"
        },
        {
          "internalType": "uint256",
          "name": "nonce",
          "type": "uint256"
        }
      ],
      "name": "isNonceUsable",
      "outputs": [
        {
          "internalType": "bool",
          "name": "",
          "type": "bool"
        }
      ],
      "stateMutability": "view",
      "type": "function"
    },
    {
      "inputs": [
        {
          "internalType": "uint256",
          "name": "nonce",
          "type": "uint256"
        }
      ],
      "name": "revokeNonce",
      "outputs": [],
      "stateMutability": "nonpayable",
      "type": "function"
    },
    {
      "inputs": [
        {
          "internalType": "address",
          "name": "owner",
          "type": "address"
        },
        {
          "internalType": "uint256",
          "name": "nonce",
          "type": "uint256"
        }
      ],
      "name": "revokeNonce",
      "outputs": [],
      "stateMutability": "nonpayable",
      "type": "function"
    },
    {
      "inputs": [
        {
          "internalType": "uint256",
          "name": "nonceSpace",
          "type": "uint256"
        },
        {
          "internalType": "uint256",
          "name": "nonce",
          "type": "uint256"
        }
      ],
      "name": "revokeNonce",
      "outputs": [],
      "stateMutability": "nonpayable",
      "type": "function"
    },
    {
      "inputs": [
        {
          "internalType": "address",
          "name": "owner",
          "type": "address"
        },
        {
          "internalType": "uint256",
          "name": "nonceSpace",
          "type": "uint256"
        },
        {
          "internalType": "uint256",
          "name": "nonce",
          "type": "uint256"
        }
      ],
      "name": "revokeNonce",
      "outputs": [],
      "stateMutability": "nonpayable",
      "type": "function"
    },
    {
      "inputs": [],
      "name": "revokeNonceSpace",
      "outputs": [
        {
          "internalType": "uint256",
          "name": "",
          "type": "uint256"
        }
      ],
      "stateMutability": "nonpayable",
      "type": "function"
    }
  ],
  "bytecode": {
    "object": "0x60c060405234801561001057600080fd5b506040516107f53803806107f583398101604081905261002f91610043565b6080526001600160a01b031660a05261007d565b6000806040838503121561005657600080fd5b82516001600160a01b038116811461006d57600080fd5b6020939093015192949293505050565b60805160a05161072a6100cb6000396000818160eb0152818161028d015261044b01526000818161012a01528181610267015281816103190152818161042501526104d7015261072a6000f3fe608060405234801561001057600080fd5b506004361061009e5760003560e01c8063579bfc3011610066578063579bfc301461014c578063753a64b31461015f57806397a4570614610182578063f291a62c146101ab578063f79924a9146101be57600080fd5b806305c1ee20146100a3578063120b8895146100b857806329a504bc146100d3578063365a86fc146100e657806348481dc214610125575b600080fd5b6100b66100b13660046105dc565b6101d1565b005b6100c06101ef565b6040519081526020015b60405180910390f35b6100b66100e1366004610611565b610252565b61010d7f000000000000000000000000000000000000000000000000000000000000000081565b6040516001600160a01b0390911681526020016100ca565b6100c07f000000000000000000000000000000000000000000000000000000000000000081565b6100b661015a36600461063b565b610373565b61017261016d36600461065d565b61037e565b60405190151581526020016100ca565b6100c0610190366004610690565b6001600160a01b031660009081526001602052604090205490565b6101726101b936600461065d565b6103b3565b6100b66101cc36600461065d565b610410565b336000818152600160205260409020546101ec919083610513565b50565b33600081815260016020526040808220549051919290917f333dc8184b6d6597be9ce764402863d3e5fa6ec80ec1c903339f0cec8a902927908490a33360009081526001602052604081208054909190610248906106ab565b9182905550919050565b60405163680cabbd60e11b81523360048201527f000000000000000000000000000000000000000000000000000000000000000060248201527f00000000000000000000000000000000000000000000000000000000000000006001600160a01b03169063d019577a90604401602060405180830381865afa1580156102dc573d6000803e3d6000fd5b505050506040513d601f19601f8201168201806040525081019061030091906106d2565b61034a57604051630b92eb2560e11b81523360048201527f000000000000000000000000000000000000000000000000000000000000000060248201526044015b60405180910390fd5b6001600160a01b03821660009081526001602052604090205461036f90839083610513565b5050565b61036f338383610513565b6001600160a01b038316600090815260208181526040808320858452825280832084845290915290205460ff165b9392505050565b6001600160a01b03831660009081526001602052604081205483146103da575060006103ac565b506001600160a01b038316600090815260208181526040808320858452825280832084845290915290205460ff16159392505050565b60405163680cabbd60e11b81523360048201527f000000000000000000000000000000000000000000000000000000000000000060248201527f00000000000000000000000000000000000000000000000000000000000000006001600160a01b03169063d019577a90604401602060405180830381865afa15801561049a573d6000803e3d6000fd5b505050506040513d601f19601f820116820180604052508101906104be91906106d2565b61050357604051630b92eb2560e11b81523360048201527f00000000000000000000000000000000000000000000000000000000000000006024820152604401610341565b61050e838383610513565b505050565b6001600160a01b038316600090815260208181526040808320858452825280832084845290915290205460ff161561057757604051631d46ca3f60e31b81526001600160a01b03841660048201526024810183905260448101829052606401610341565b6001600160a01b0383166000818152602081815260408083208684528252808320858452909152808220805460ff19166001179055518392859290917f2ec96e5ecfd0a6307dd3d65b4be4eba2f2524e43ca849ce27cdafd9a440517719190a4505050565b6000602082840312156105ee57600080fd5b5035919050565b80356001600160a01b038116811461060c57600080fd5b919050565b6000806040838503121561062457600080fd5b61062d836105f5565b946020939093013593505050565b6000806040838503121561064e57600080fd5b50508035926020909101359150565b60008060006060848603121561067257600080fd5b61067b846105f5565b95602085013595506040909401359392505050565b6000602082840312156106a257600080fd5b6103ac826105f5565b6000600182016106cb57634e487b7160e01b600052601160045260246000fd5b5060010190565b6000602082840312156106e457600080fd5b815180151581146103ac57600080fdfea264697066735822122083132033061fd59c14931e674956d29ad9c18f46cae44dead69567ca6a0c3f3864736f6c63430008100033",
    "linkReferences": {}
  },
  "methodIdentifiers": {
    "accessTag()": "48481dc2",
    "currentNonceSpace(address)": "97a45706",
    "hub()": "365a86fc",
    "isNonceRevoked(address,uint256,uint256)": "753a64b3",
    "isNonceUsable(address,uint256,uint256)": "f291a62c",
    "revokeNonce(address,uint256)": "29a504bc",
    "revokeNonce(address,uint256,uint256)": "f79924a9",
    "revokeNonce(uint256)": "05c1ee20",
    "revokeNonce(uint256,uint256)": "579bfc30",
    "revokeNonceSpace()": "120b8895"
  },
  "id": 95
}