{
  "abi": [
    {
      "inputs": [
        {
          "internalType": "address",
          "name": "_hub",
          "type": "address"
        },
        {
          "internalType": "address",
          "name": "_revokedNonce",
          "type": "address"
        },
        {
          "internalType": "address",
          "name": "_config",
          "type": "address"
        }
      ],
      "stateMutability": "nonpayable",
      "type": "constructor"
    },
    {
      "inputs": [
        {
          "internalType": "address",
          "name": "addr",
          "type": "address"
        }
      ],
      "name": "AcceptorIsProposer",
      "type": "error"
    },
    {
      "inputs": [
        {
          "internalType": "address",
          "name": "addr",
          "type": "address"
        },
        {
          "internalType": "bytes32",
          "name": "tag",
          "type": "bytes32"
        }
      ],
      "name": "AddressMissingHubTag",
      "type": "error"
    },
    {
      "inputs": [
        {
          "internalType": "uint256",
          "name": "used",
          "type": "uint256"
        },
        {
          "internalType": "uint256",
          "name": "limit",
          "type": "uint256"
        }
      ],
      "name": "AvailableCreditLimitExceeded",
      "type": "error"
    },
    {
      "inputs": [
        {
          "internalType": "address",
          "name": "addr",
          "type": "address"
        }
      ],
      "name": "CallerIsNotStatedProposer",
      "type": "error"
    },
    {
      "inputs": [
        {
          "internalType": "address",
          "name": "current",
          "type": "address"
        },
        {
          "internalType": "address",
          "name": "allowed",
          "type": "address"
        }
      ],
      "name": "CallerNotAllowedAcceptor",
      "type": "error"
    },
    {
      "inputs": [
        {
          "internalType": "address",
          "name": "caller",
          "type": "address"
        },
        {
          "internalType": "address",
          "name": "loanContract",
          "type": "address"
        }
      ],
      "name": "CallerNotLoanContract",
      "type": "error"
    },
    {
      "inputs": [
        {
          "internalType": "uint256",
          "name": "current",
          "type": "uint256"
        },
        {
          "internalType": "uint256",
          "name": "expiration",
          "type": "uint256"
        }
      ],
      "name": "Expired",
      "type": "error"
    },
    {
      "inputs": [
        {
          "internalType": "uint256",
          "name": "current",
          "type": "uint256"
        },
        {
          "internalType": "uint256",
          "name": "limit",
          "type": "uint256"
        }
      ],
      "name": "InsufficientCollateralAmount",
      "type": "error"
    },
    {
      "inputs": [
        {
          "internalType": "bytes32",
          "name": "current",
          "type": "bytes32"
        },
        {
          "internalType": "bytes32",
          "name": "proposed",
          "type": "bytes32"
        }
      ],
      "name": "InvalidCollateralStateFingerprint",
      "type": "error"
    },
    {
      "inputs": [
        {
          "internalType": "uint256",
          "name": "refinancingLoanId",
          "type": "uint256"
        }
      ],
      "name": "InvalidRefinancingLoanId",
      "type": "error"
    },
    {
      "inputs": [
        {
          "internalType": "address",
          "name": "signer",
          "type": "address"
        },
        {
          "internalType": "bytes32",
          "name": "digest",
          "type": "bytes32"
        }
      ],
      "name": "InvalidSignature",
      "type": "error"
    },
    {
      "inputs": [
        {
          "internalType": "uint256",
          "name": "length",
          "type": "uint256"
        }
      ],
      "name": "InvalidSignatureLength",
      "type": "error"
    },
    {
      "inputs": [],
      "name": "MinCollateralAmountNotSet",
      "type": "error"
    },
    {
      "inputs": [],
      "name": "MissingStateFingerprintComputer",
      "type": "error"
    },
    {
      "inputs": [
        {
          "internalType": "address",
          "name": "addr",
          "type": "address"
        },
        {
          "internalType": "uint256",
          "name": "nonceSpace",
          "type": "uint256"
        },
        {
          "internalType": "uint256",
          "name": "nonce",
          "type": "uint256"
        }
      ],
      "name": "NonceNotUsable",
      "type": "error"
    },
    {
      "anonymous": false,
      "inputs": [
        {
          "indexed": true,
          "internalType": "bytes32",
          "name": "proposalHash",
          "type": "bytes32"
        },
        {
          "indexed": true,
          "internalType": "address",
          "name": "proposer",
          "type": "address"
        },
        {
          "components": [
            {
              "internalType": "enum MultiToken.Category",
              "name": "collateralCategory",
              "type": "uint8"
            },
            {
              "internalType": "address",
              "name": "collateralAddress",
              "type": "address"
            },
            {
              "internalType": "uint256",
              "name": "collateralId",
              "type": "uint256"
            },
            {
              "internalType": "uint256",
              "name": "minCollateralAmount",
              "type": "uint256"
            },
            {
              "internalType": "bool",
              "name": "checkCollateralStateFingerprint",
              "type": "bool"
            },
            {
              "internalType": "bytes32",
              "name": "collateralStateFingerprint",
              "type": "bytes32"
            },
            {
              "internalType": "address",
              "name": "creditAddress",
              "type": "address"
            },
            {
              "internalType": "uint256",
              "name": "creditPerCollateralUnit",
              "type": "uint256"
            },
            {
              "internalType": "uint256",
              "name": "availableCreditLimit",
              "type": "uint256"
            },
            {
              "internalType": "uint256",
              "name": "fixedInterestAmount",
              "type": "uint256"
            },
            {
              "internalType": "uint40",
              "name": "accruingInterestAPR",
              "type": "uint40"
            },
            {
              "internalType": "uint32",
              "name": "duration",
              "type": "uint32"
            },
            {
              "internalType": "uint40",
              "name": "expiration",
              "type": "uint40"
            },
            {
              "internalType": "address",
              "name": "allowedAcceptor",
              "type": "address"
            },
            {
              "internalType": "address",
              "name": "proposer",
              "type": "address"
            },
            {
              "internalType": "bytes32",
              "name": "proposerSpecHash",
              "type": "bytes32"
            },
            {
              "internalType": "bool",
              "name": "isOffer",
              "type": "bool"
            },
            {
              "internalType": "uint256",
              "name": "refinancingLoanId",
              "type": "uint256"
            },
            {
              "internalType": "uint256",
              "name": "nonceSpace",
              "type": "uint256"
            },
            {
              "internalType": "uint256",
              "name": "nonce",
              "type": "uint256"
            },
            {
              "internalType": "address",
              "name": "loanContract",
              "type": "address"
            }
          ],
          "indexed": false,
          "internalType": "struct PWNSimpleLoanFungibleProposal.Proposal",
          "name": "proposal",
          "type": "tuple"
        }
      ],
      "name": "ProposalMade",
      "type": "event"
    },
    {
      "inputs": [],
      "name": "CREDIT_PER_COLLATERAL_UNIT_DENOMINATOR",
      "outputs": [
        {
          "internalType": "uint256",
          "name": "",
          "type": "uint256"
        }
      ],
      "stateMutability": "view",
      "type": "function"
    },
    {
      "inputs": [],
      "name": "DOMAIN_SEPARATOR",
      "outputs": [
        {
          "internalType": "bytes32",
          "name": "",
          "type": "bytes32"
        }
      ],
      "stateMutability": "view",
      "type": "function"
    },
    {
      "inputs": [],
      "name": "MULTIPROPOSAL_DOMAIN_SEPARATOR",
      "outputs": [
        {
          "internalType": "bytes32",
          "name": "",
          "type": "bytes32"
        }
      ],
      "stateMutability": "view",
      "type": "function"
    },
    {
      "inputs": [],
      "name": "MULTIPROPOSAL_TYPEHASH",
      "outputs": [
        {
          "internalType": "bytes32",
          "name": "",
          "type": "bytes32"
        }
      ],
      "stateMutability": "view",
      "type": "function"
    },
    {
      "inputs": [],
      "name": "PROPOSAL_TYPEHASH",
      "outputs": [
        {
          "internalType": "bytes32",
          "name": "",
          "type": "bytes32"
        }
      ],
      "stateMutability": "view",
      "type": "function"
    },
    {
      "inputs": [],
      "name": "VERSION",
      "outputs": [
        {
          "internalType": "string",
          "name": "",
          "type": "string"
        }
      ],
      "stateMutability": "view",
      "type": "function"
    },
    {
      "inputs": [
        {
          "internalType": "address",
          "name": "acceptor",
          "type": "address"
        },
        {
          "internalType": "uint256",
          "name": "refinancingLoanId",
          "type": "uint256"
        },
        {
          "internalType": "bytes",
          "name": "proposalData",
          "type": "bytes"
        },
        {
          "internalType": "bytes32[]",
          "name": "proposalInclusionProof",
          "type": "bytes32[]"
        },
        {
          "internalType": "bytes",
          "name": "signature",
          "type": "bytes"
        }
      ],
      "name": "acceptProposal",
      "outputs": [
        {
          "internalType": "bytes32",
          "name": "proposalHash",
          "type": "bytes32"
        },
        {
          "components": [
            {
              "internalType": "address",
              "name": "lender",
              "type": "address"
            },
            {
              "internalType": "address",
              "name": "borrower",
              "type": "address"
            },
            {
              "internalType": "uint32",
              "name": "duration",
              "type": "uint32"
            },
            {
              "components": [
                {
                  "internalType": "enum MultiToken.Category",
                  "name": "category",
                  "type": "uint8"
                },
                {
                  "internalType": "address",
                  "name": "assetAddress",
                  "type": "address"
                },
                {
                  "internalType": "uint256",
                  "name": "id",
                  "type": "uint256"
                },
                {
                  "internalType": "uint256",
                  "name": "amount",
                  "type": "uint256"
                }
              ],
              "internalType": "struct MultiToken.Asset",
              "name": "collateral",
              "type": "tuple"
            },
            {
              "components": [
                {
                  "internalType": "enum MultiToken.Category",
                  "name": "category",
                  "type": "uint8"
                },
                {
                  "internalType": "address",
                  "name": "assetAddress",
                  "type": "address"
                },
                {
                  "internalType": "uint256",
                  "name": "id",
                  "type": "uint256"
                },
                {
                  "internalType": "uint256",
                  "name": "amount",
                  "type": "uint256"
                }
              ],
              "internalType": "struct MultiToken.Asset",
              "name": "credit",
              "type": "tuple"
            },
            {
              "internalType": "uint256",
              "name": "fixedInterestAmount",
              "type": "uint256"
            },
            {
              "internalType": "uint40",
              "name": "accruingInterestAPR",
              "type": "uint40"
            },
            {
              "internalType": "bytes32",
              "name": "lenderSpecHash",
              "type": "bytes32"
            },
            {
              "internalType": "bytes32",
              "name": "borrowerSpecHash",
              "type": "bytes32"
            }
          ],
          "internalType": "struct PWNSimpleLoan.Terms",
          "name": "loanTerms",
          "type": "tuple"
        }
      ],
      "stateMutability": "nonpayable",
      "type": "function"
    },
    {
      "inputs": [],
      "name": "config",
      "outputs": [
        {
          "internalType": "contract PWNConfig",
          "name": "",
          "type": "address"
        }
      ],
      "stateMutability": "view",
      "type": "function"
    },
    {
      "inputs": [
        {
          "internalType": "bytes32",
          "name": "",
          "type": "bytes32"
        }
      ],
      "name": "creditUsed",
      "outputs": [
        {
          "internalType": "uint256",
          "name": "",
          "type": "uint256"
        }
      ],
      "stateMutability": "view",
      "type": "function"
    },
    {
      "inputs": [
        {
          "internalType": "bytes",
          "name": "proposalData",
          "type": "bytes"
        }
      ],
      "name": "decodeProposalData",
      "outputs": [
        {
          "components": [
            {
              "internalType": "enum MultiToken.Category",
              "name": "collateralCategory",
              "type": "uint8"
            },
            {
              "internalType": "address",
              "name": "collateralAddress",
              "type": "address"
            },
            {
              "internalType": "uint256",
              "name": "collateralId",
              "type": "uint256"
            },
            {
              "internalType": "uint256",
              "name": "minCollateralAmount",
              "type": "uint256"
            },
            {
              "internalType": "bool",
              "name": "checkCollateralStateFingerprint",
              "type": "bool"
            },
            {
              "internalType": "bytes32",
              "name": "collateralStateFingerprint",
              "type": "bytes32"
            },
            {
              "internalType": "address",
              "name": "creditAddress",
              "type": "address"
            },
            {
              "internalType": "uint256",
              "name": "creditPerCollateralUnit",
              "type": "uint256"
            },
            {
              "internalType": "uint256",
              "name": "availableCreditLimit",
              "type": "uint256"
            },
            {
              "internalType": "uint256",
              "name": "fixedInterestAmount",
              "type": "uint256"
            },
            {
              "internalType": "uint40",
              "name": "accruingInterestAPR",
              "type": "uint40"
            },
            {
              "internalType": "uint32",
              "name": "duration",
              "type": "uint32"
            },
            {
              "internalType": "uint40",
              "name": "expiration",
              "type": "uint40"
            },
            {
              "internalType": "address",
              "name": "allowedAcceptor",
              "type": "address"
            },
            {
              "internalType": "address",
              "name": "proposer",
              "type": "address"
            },
            {
              "internalType": "bytes32",
              "name": "proposerSpecHash",
              "type": "bytes32"
            },
            {
              "internalType": "bool",
              "name": "isOffer",
              "type": "bool"
            },
            {
              "internalType": "uint256",
              "name": "refinancingLoanId",
              "type": "uint256"
            },
            {
              "internalType": "uint256",
              "name": "nonceSpace",
              "type": "uint256"
            },
            {
              "internalType": "uint256",
              "name": "nonce",
              "type": "uint256"
            },
            {
              "internalType": "address",
              "name": "loanContract",
              "type": "address"
            }
          ],
          "internalType": "struct PWNSimpleLoanFungibleProposal.Proposal",
          "name": "",
          "type": "tuple"
        },
        {
          "components": [
            {
              "internalType": "uint256",
              "name": "collateralAmount",
              "type": "uint256"
            }
          ],
          "internalType": "struct PWNSimpleLoanFungibleProposal.ProposalValues",
          "name": "",
          "type": "tuple"
        }
      ],
      "stateMutability": "pure",
      "type": "function"
    },
    {
      "inputs": [
        {
          "components": [
            {
              "internalType": "enum MultiToken.Category",
              "name": "collateralCategory",
              "type": "uint8"
            },
            {
              "internalType": "address",
              "name": "collateralAddress",
              "type": "address"
            },
            {
              "internalType": "uint256",
              "name": "collateralId",
              "type": "uint256"
            },
            {
              "internalType": "uint256",
              "name": "minCollateralAmount",
              "type": "uint256"
            },
            {
              "internalType": "bool",
              "name": "checkCollateralStateFingerprint",
              "type": "bool"
            },
            {
              "internalType": "bytes32",
              "name": "collateralStateFingerprint",
              "type": "bytes32"
            },
            {
              "internalType": "address",
              "name": "creditAddress",
              "type": "address"
            },
            {
              "internalType": "uint256",
              "name": "creditPerCollateralUnit",
              "type": "uint256"
            },
            {
              "internalType": "uint256",
              "name": "availableCreditLimit",
              "type": "uint256"
            },
            {
              "internalType": "uint256",
              "name": "fixedInterestAmount",
              "type": "uint256"
            },
            {
              "internalType": "uint40",
              "name": "accruingInterestAPR",
              "type": "uint40"
            },
            {
              "internalType": "uint32",
              "name": "duration",
              "type": "uint32"
            },
            {
              "internalType": "uint40",
              "name": "expiration",
              "type": "uint40"
            },
            {
              "internalType": "address",
              "name": "allowedAcceptor",
              "type": "address"
            },
            {
              "internalType": "address",
              "name": "proposer",
              "type": "address"
            },
            {
              "internalType": "bytes32",
              "name": "proposerSpecHash",
              "type": "bytes32"
            },
            {
              "internalType": "bool",
              "name": "isOffer",
              "type": "bool"
            },
            {
              "internalType": "uint256",
              "name": "refinancingLoanId",
              "type": "uint256"
            },
            {
              "internalType": "uint256",
              "name": "nonceSpace",
              "type": "uint256"
            },
            {
              "internalType": "uint256",
              "name": "nonce",
              "type": "uint256"
            },
            {
              "internalType": "address",
              "name": "loanContract",
              "type": "address"
            }
          ],
          "internalType": "struct PWNSimpleLoanFungibleProposal.Proposal",
          "name": "proposal",
          "type": "tuple"
        },
        {
          "components": [
            {
              "internalType": "uint256",
              "name": "collateralAmount",
              "type": "uint256"
            }
          ],
          "internalType": "struct PWNSimpleLoanFungibleProposal.ProposalValues",
          "name": "proposalValues",
          "type": "tuple"
        }
      ],
      "name": "encodeProposalData",
      "outputs": [
        {
          "internalType": "bytes",
          "name": "",
          "type": "bytes"
        }
      ],
      "stateMutability": "pure",
      "type": "function"
    },
    {
      "inputs": [
        {
          "internalType": "uint256",
          "name": "collateralAmount",
          "type": "uint256"
        },
        {
          "internalType": "uint256",
          "name": "creditPerCollateralUnit",
          "type": "uint256"
        }
      ],
      "name": "getCreditAmount",
      "outputs": [
        {
          "internalType": "uint256",
          "name": "",
          "type": "uint256"
        }
      ],
      "stateMutability": "pure",
      "type": "function"
    },
    {
      "inputs": [
        {
          "components": [
            {
              "internalType": "bytes32",
              "name": "multiproposalMerkleRoot",
              "type": "bytes32"
            }
          ],
          "internalType": "struct PWNSimpleLoanProposal.Multiproposal",
          "name": "multiproposal",
          "type": "tuple"
        }
      ],
      "name": "getMultiproposalHash",
      "outputs": [
        {
          "internalType": "bytes32",
          "name": "",
          "type": "bytes32"
        }
      ],
      "stateMutability": "view",
      "type": "function"
    },
    {
      "inputs": [
        {
          "components": [
            {
              "internalType": "enum MultiToken.Category",
              "name": "collateralCategory",
              "type": "uint8"
            },
            {
              "internalType": "address",
              "name": "collateralAddress",
              "type": "address"
            },
            {
              "internalType": "uint256",
              "name": "collateralId",
              "type": "uint256"
            },
            {
              "internalType": "uint256",
              "name": "minCollateralAmount",
              "type": "uint256"
            },
            {
              "internalType": "bool",
              "name": "checkCollateralStateFingerprint",
              "type": "bool"
            },
            {
              "internalType": "bytes32",
              "name": "collateralStateFingerprint",
              "type": "bytes32"
            },
            {
              "internalType": "address",
              "name": "creditAddress",
              "type": "address"
            },
            {
              "internalType": "uint256",
              "name": "creditPerCollateralUnit",
              "type": "uint256"
            },
            {
              "internalType": "uint256",
              "name": "availableCreditLimit",
              "type": "uint256"
            },
            {
              "internalType": "uint256",
              "name": "fixedInterestAmount",
              "type": "uint256"
            },
            {
              "internalType": "uint40",
              "name": "accruingInterestAPR",
              "type": "uint40"
            },
            {
              "internalType": "uint32",
              "name": "duration",
              "type": "uint32"
            },
            {
              "internalType": "uint40",
              "name": "expiration",
              "type": "uint40"
            },
            {
              "internalType": "address",
              "name": "allowedAcceptor",
              "type": "address"
            },
            {
              "internalType": "address",
              "name": "proposer",
              "type": "address"
            },
            {
              "internalType": "bytes32",
              "name": "proposerSpecHash",
              "type": "bytes32"
            },
            {
              "internalType": "bool",
              "name": "isOffer",
              "type": "bool"
            },
            {
              "internalType": "uint256",
              "name": "refinancingLoanId",
              "type": "uint256"
            },
            {
              "internalType": "uint256",
              "name": "nonceSpace",
              "type": "uint256"
            },
            {
              "internalType": "uint256",
              "name": "nonce",
              "type": "uint256"
            },
            {
              "internalType": "address",
              "name": "loanContract",
              "type": "address"
            }
          ],
          "internalType": "struct PWNSimpleLoanFungibleProposal.Proposal",
          "name": "proposal",
          "type": "tuple"
        }
      ],
      "name": "getProposalHash",
      "outputs": [
        {
          "internalType": "bytes32",
          "name": "",
          "type": "bytes32"
        }
      ],
      "stateMutability": "view",
      "type": "function"
    },
    {
      "inputs": [],
      "name": "hub",
      "outputs": [
        {
          "internalType": "contract PWNHub",
          "name": "",
          "type": "address"
        }
      ],
      "stateMutability": "view",
      "type": "function"
    },
    {
      "inputs": [
        {
          "components": [
            {
              "internalType": "enum MultiToken.Category",
              "name": "collateralCategory",
              "type": "uint8"
            },
            {
              "internalType": "address",
              "name": "collateralAddress",
              "type": "address"
            },
            {
              "internalType": "uint256",
              "name": "collateralId",
              "type": "uint256"
            },
            {
              "internalType": "uint256",
              "name": "minCollateralAmount",
              "type": "uint256"
            },
            {
              "internalType": "bool",
              "name": "checkCollateralStateFingerprint",
              "type": "bool"
            },
            {
              "internalType": "bytes32",
              "name": "collateralStateFingerprint",
              "type": "bytes32"
            },
            {
              "internalType": "address",
              "name": "creditAddress",
              "type": "address"
            },
            {
              "internalType": "uint256",
              "name": "creditPerCollateralUnit",
              "type": "uint256"
            },
            {
              "internalType": "uint256",
              "name": "availableCreditLimit",
              "type": "uint256"
            },
            {
              "internalType": "uint256",
              "name": "fixedInterestAmount",
              "type": "uint256"
            },
            {
              "internalType": "uint40",
              "name": "accruingInterestAPR",
              "type": "uint40"
            },
            {
              "internalType": "uint32",
              "name": "duration",
              "type": "uint32"
            },
            {
              "internalType": "uint40",
              "name": "expiration",
              "type": "uint40"
            },
            {
              "internalType": "address",
              "name": "allowedAcceptor",
              "type": "address"
            },
            {
              "internalType": "address",
              "name": "proposer",
              "type": "address"
            },
            {
              "internalType": "bytes32",
              "name": "proposerSpecHash",
              "type": "bytes32"
            },
            {
              "internalType": "bool",
              "name": "isOffer",
              "type": "bool"
            },
            {
              "internalType": "uint256",
              "name": "refinancingLoanId",
              "type": "uint256"
            },
            {
              "internalType": "uint256",
              "name": "nonceSpace",
              "type": "uint256"
            },
            {
              "internalType": "uint256",
              "name": "nonce",
              "type": "uint256"
            },
            {
              "internalType": "address",
              "name": "loanContract",
              "type": "address"
            }
          ],
          "internalType": "struct PWNSimpleLoanFungibleProposal.Proposal",
          "name": "proposal",
          "type": "tuple"
        }
      ],
      "name": "makeProposal",
      "outputs": [
        {
          "internalType": "bytes32",
          "name": "proposalHash",
          "type": "bytes32"
        }
      ],
      "stateMutability": "nonpayable",
      "type": "function"
    },
    {
      "inputs": [
        {
          "internalType": "bytes32",
          "name": "",
          "type": "bytes32"
        }
      ],
      "name": "proposalsMade",
      "outputs": [
        {
          "internalType": "bool",
          "name": "",
          "type": "bool"
        }
      ],
      "stateMutability": "view",
      "type": "function"
    },
    {
      "inputs": [
        {
          "internalType": "uint256",
          "name": "nonceSpace",
          "type": "uint256"
        },
        {
          "internalType": "uint256",
          "name": "nonce",
          "type": "uint256"
        }
      ],
      "name": "revokeNonce",
      "outputs": [],
      "stateMutability": "nonpayable",
      "type": "function"
    },
    {
      "inputs": [],
      "name": "revokedNonce",
      "outputs": [
        {
          "internalType": "contract PWNRevokedNonce",
          "name": "",
          "type": "address"
        }
      ],
      "stateMutability": "view",
      "type": "function"
    }
  ],
  "bytecode": {
    "object": "0x6101206040523480156200001257600080fd5b5060405162002947380380620029478339810160408190526200003591620001ea565b604080518082018252601d81527f50574e53696d706c654c6f616e46756e6769626c6550726f706f73616c0000006020808301919091528251808401845260038152620312e360ec1b818301526001600160a01b0380881660c05280871660e052851661010052925186938693869390927f8b73c3c69bb8fe3d512ecc4cf759cc79239f7b179b0ffacaa9a75d522b39400f91620000d69185910162000234565b6040516020818303038152906040528051906020012082604051602001620000ff919062000234565b60408051601f1981840301815282825280516020918201209083019490945281019190915260608101919091524660808201523060a082015260c00160408051808303601f1901815282825280516020918201206080527fb2178a58fb1eefb359ecfdd57bb19c0bdd0f4e6eed8547f46600e500ed111af3908301527fb63b40822cc79278afd8d1ce1a8006a4a298ec829d4d1610b69b2a4830c232709082015260600160408051601f19818403018152919052805160209091012060a05250620002659650505050505050565b80516001600160a01b0381168114620001e557600080fd5b919050565b6000806000606084860312156200020057600080fd5b6200020b84620001cd565b92506200021b60208501620001cd565b91506200022b60408501620001cd565b90509250925092565b6000825160005b818110156200025757602081860181015185830152016200023b565b506000920191825250919050565b60805160a05160c05160e0516101005161266c620002db6000396000818161026501526110e40152600081816102f00152818161082501528181610e3e0152610f850152600081816101de0152610b3301526000818161032a01526108980152600081816101a90152610a0c015261266c6000f3fe608060405234801561001057600080fd5b50600436106101215760003560e01c8063808560ee116100ad578063993fba5c11610071578063993fba5c14610312578063abe9387814610325578063d06a0d821461034c578063f0209ad614610373578063ffa1ad741461039357600080fd5b8063808560ee14610287578063829d37701461029e57806383f19a0b146102b1578063853b94a0146102c45780639788ad55146102eb57600080fd5b8063365a86fc116100f4578063365a86fc146101d9578063382c0cdd1461021857806349d2151c1461022b578063579bfc301461024b57806379502c551461026057600080fd5b806301e83272146101265780631da4c275146101505780632d5d17fc146101835780633644e515146101a4575b600080fd5b610139610134366004611a31565b6103b5565b604051610147929190611b83565b60405180910390f35b61017361015e366004611c25565b60006020819052908152604090205460ff1681565b6040519015158152602001610147565b610196610191366004611ca1565b6106d0565b604051610147929190611e87565b6101cb7f000000000000000000000000000000000000000000000000000000000000000081565b604051908152602001610147565b6102007f000000000000000000000000000000000000000000000000000000000000000081565b6040516001600160a01b039091168152602001610147565b6101cb610226366004611ea5565b6107a5565b61023e610239366004611f4e565b6107e2565b604051610147919061210e565b61025e610259366004612121565b61080e565b005b6102007f000000000000000000000000000000000000000000000000000000000000000081565b6101cb6f4b3b4ca85a86c47a098a22400000000081565b6101cb6102ac366004612143565b610894565b6101cb6102bf366004611ea5565b610964565b6101cb7f58062dbce0eca7d4486c66e0d48cdd72744db07523b68e9e4dad30aa4bee135681565b6102007f000000000000000000000000000000000000000000000000000000000000000081565b6101cb610320366004612121565b6109e4565b6101cb7f000000000000000000000000000000000000000000000000000000000000000081565b6101cb7f73af92d8ed4d3261ba61cd686d2f8a9cceb2563cc7c4c5355eb121316fc5358d81565b6101cb610381366004611c25565b60016020526000908152604090205481565b61023e604051806040016040528060038152602001620312e360ec1b81525081565b60006103bf611938565b6000806104018a8a8080601f0160208091040260200160405190810160405280939291908181526020018383808284376000920191909152506106d092505050565b9150915061044e7f58062dbce0eca7d4486c66e0d48cdd72744db07523b68e9e4dad30aa4bee13568360405160200161043a9190612185565b604051602081830303815290604052610a08565b93508160600151600003610475576040516322565ab160e11b815260040160405180910390fd5b6060820151815110156104b057805160608301516040516307d2092d60e21b8152600481019290925260248201526044015b60405180910390fd5b60006104c482600001518460e001516109e4565b905061059f8d8d878c8c8c8c604051806101c001604052808c602001516001600160a01b031681526020018c6040015181526020018c60800151151581526020018c60a0015181526020018a81526020018c610100015181526020018c610180015164ffffffffff1681526020018c6101a001516001600160a01b031681526020018c6101c001516001600160a01b031681526020018c6102000151151581526020018c610220015181526020018c610240015181526020018c610260015181526020018c61028001516001600160a01b0316815250610a99565b6040518061012001604052808461020001516105bb578e6105c2565b846101c001515b6001600160a01b031681526020018461020001516105e557846101c001516105e7565b8e5b6001600160a01b0316815260200184610160015163ffffffff16815260200160405180608001604052808660000151600381111561062757610627611b18565b815260200186602001516001600160a01b0316815260200186604001518152602001856000015181525081526020016106648560c0015184611297565b8152602001846101200151815260200184610140015164ffffffffff16815260200184610200015161069757600061069e565b846101e001515b81526020018461020001516106b857846101e001516106bb565b60005b81525093505050509850989650505050505050565b604080516102a081018252600080825260208201819052918101829052606081018290526080810182905260a0810182905260c0810182905260e08101829052610100810182905261012081018290526101408101829052610160810182905261018081018290526101a081018290526101c081018290526101e0810182905261020081018290526102208101829052610240810182905261026081018290526102808101919091526040805160208101909152600081528280602001905181019061079c91906121ef565b91509150915091565b60006107dc7f58062dbce0eca7d4486c66e0d48cdd72744db07523b68e9e4dad30aa4bee13568360405160200161043a9190612354565b92915050565b606082826040516020016107f7929190611e87565b604051602081830303815290604052905092915050565b60405163f79924a960e01b81526001600160a01b037f0000000000000000000000000000000000000000000000000000000000000000169063f79924a99061085e903390869086906004016124d4565b600060405180830381600087803b15801561087857600080fd5b505af115801561088c573d6000803e3d6000fd5b505050505050565b60007f00000000000000000000000000000000000000000000000000000000000000007f73af92d8ed4d3261ba61cd686d2f8a9cceb2563cc7c4c5355eb121316fc5358d836040516020016108ec9151815260200190565b60408051601f198184030181529082905261090a92916020016124f5565b6040516020818303038152906040528051906020012060405160200161094792919061190160f01b81526002810192909252602282015260420190565b604051602081830303815290604052805190602001209050919050565b600061096f826107a5565b905061098c816109876101e085016101c0860161251b565b6112cf565b61099e6101e083016101c0840161251b565b6001600160a01b0316817fe228ae64deb022978896dc961784e5e37437005800b772804f5cf7d66c76f464846040516109d79190612354565b60405180910390a3919050565b6000610a0183836f4b3b4ca85a86c47a098a22400000000061131f565b9392505050565b60007f00000000000000000000000000000000000000000000000000000000000000008383604051602001610a3e9291906124f5565b60405160208183030381529060405280519060200120604051602001610a7b92919061190160f01b81526002810192909252602282015260420190565b60405160208183030381529060405280519060200120905092915050565b806101a001516001600160a01b0316336001600160a01b031614610ae8576101a081015160405163a4ce7f2960e01b81523360048201526001600160a01b0390911660248201526044016104a7565b6101a081015160405163680cabbd60e11b81526001600160a01b0391821660048201527f9e56ea094d7a53440eef11fa42b63159fbf703b4ee579494a6ae85afc560359460248201527f00000000000000000000000000000000000000000000000000000000000000009091169063d019577a90604401602060405180830381865afa158015610b7c573d6000803e3d6000fd5b505050506040513d601f19601f82011682018060405250810190610ba09190612538565b610bf5576101a0810151604051630b92eb2560e11b81526001600160a01b0390911660048201527f9e56ea094d7a53440eef11fa42b63159fbf703b4ee579494a6ae85afc560359460248201526044016104a7565b6000849003610c955760008681526020819052604090205460ff16610c9057610c5a8161010001518785858080601f01602080910402602001604051908101604052809392919081815260200183838082843760009201919091525061140892505050565b610c90576101008101516040516301d2d55760e31b81526001600160a01b039091166004820152602481018790526044016104a7565b610d37565b6000610cb76040518060200160405280610cb089898c6115ac565b9052610894565b9050610cff8261010001518286868080601f01602080910402602001604051908101604052809392919081815260200183838082843760009201919091525061140892505050565b610d35576101008201516040516301d2d55760e31b81526001600160a01b039091166004820152602481018290526044016104a7565b505b876001600160a01b03168161010001516001600160a01b031603610d79576040516326ab1a1d60e11b81526001600160a01b03891660048201526024016104a7565b86600003610db35761014081015115610dae57806101400151604051637a4b6f9760e11b81526004016104a791815260200190565b610dfc565b8061014001518714610dfc57610140810151151580610dd55750806101200151155b15610dfc57806101400151604051637a4b6f9760e11b81526004016104a791815260200190565b8060c0015164ffffffffff164210610e3c5760c081015160405163aa2fd92560e01b815242600482015264ffffffffff90911660248201526044016104a7565b7f00000000000000000000000000000000000000000000000000000000000000006001600160a01b031663f291a62c8261010001518361016001518461018001516040518463ffffffff1660e01b8152600401610e9b939291906124d4565b602060405180830381865afa158015610eb8573d6000803e3d6000fd5b505050506040513d601f19601f82011682018060405250810190610edc9190612538565b610f0e57806101000151816101600151826101800151604051632108c30560e11b81526004016104a7939291906124d4565b60e08101516001600160a01b031615801590610f4057508060e001516001600160a01b0316886001600160a01b031614155b15610f775760e0810151604051636075c95560e11b81526001600160a01b03808b16600483015290911660248201526044016104a7565b8060a00151600003611019577f00000000000000000000000000000000000000000000000000000000000000006001600160a01b031663f79924a98261010001518361016001518461018001516040518463ffffffff1660e01b8152600401610fe2939291906124d4565b600060405180830381600087803b158015610ffc57600080fd5b505af1158015611010573d6000803e3d6000fd5b505050506110b4565b60a0810151608082015160008881526001602052604090205461103c919061256b565b1161106f5760808101516000878152600160205260408120805490919061106490849061256b565b909155506110b49050565b608081015160008781526001602052604090205461108d919061256b565b60a082015160405163231795cb60e21b8152600481019290925260248201526044016104a7565b80604001511561128d578051604051630b7e49eb60e21b81526001600160a01b03918216600482015260009182917f000000000000000000000000000000000000000000000000000000000000000090911690632df927ac90602401602060405180830381865afa15801561112d573d6000803e3d6000fd5b505050506040513d601f19601f82011682018060405250810190611151919061257e565b90506001600160a01b038116156111ef578251602084015160405163ec2ce34560e01b81526001600160a01b0384169263ec2ce345926111a7926004016001600160a01b03929092168252602082015260400190565b602060405180830381865afa1580156111c4573d6000803e3d6000fd5b505050506040513d601f19601f820116820180604052508101906111e8919061259b565b9150611256565b82516112029063f511231560e01b6115f8565b1561123d578251602084015160405163f511231560e01b81526001600160a01b039092169163f5112315916111a79160040190815260200190565b60405163f3c0936360e01b815260040160405180910390fd5b8183606001511461128a576060830151604051633840fc0160e01b81526104a7918491600401918252602082015260400190565b50505b5050505050505050565b61129f611991565b506040805160808101825260008082526001600160a01b0394909416602082015290810192909252606082015290565b336001600160a01b0382161461130357604051631144200360e31b81526001600160a01b03821660048201526024016104a7565b506000908152602081905260409020805460ff19166001179055565b60008080600019858709858702925082811083820303915050806000036113595783828161134f5761134f6125b4565b0492505050610a01565b8084116113a05760405162461bcd60e51b81526020600482015260156024820152744d6174683a206d756c446976206f766572666c6f7760581b60448201526064016104a7565b600084868809600260036001881981018916988990049182028318808302840302808302840302808302840302808302840302808302840302918202909203026000889003889004909101858311909403939093029303949094049190911702949350505050565b60006001600160a01b0384163b1561150357600080856001600160a01b0316631626ba7e60e01b86866040516024016114429291906125ca565b60408051601f198184030181529181526020820180516001600160e01b03166001600160e01b031990941693909317909252905161148091906125eb565b600060405180830381855afa9150503d80600081146114bb576040519150601f19603f3d011682016040523d82523d6000602084013e6114c0565b606091505b50915091508180156114d3575080516020145b80156114fa57508051630b135d3f60e11b906114f8908301602090810190840161259b565b145b92505050610a01565b6000806000845160410361152b5750505060208201516040830151606084015160001a611582565b845160400361156457602085015160408601519093506001600160ff1b038116925061155c60ff82901c601b61256b565b915050611582565b845160405163058676ad60e31b81526004016104a791815260200190565b61158e86828585611614565b6001600160a01b0316876001600160a01b0316149350505050610a01565b600081815b848110156115ef576115db828787848181106115cf576115cf612607565b9050602002013561163c565b9150806115e78161261d565b9150506115b1565b50949350505050565b60006116038361166b565b8015610a015750610a01838361169e565b600080600061162587878787611727565b91509150611632816117eb565b5095945050505050565b6000818310611658576000828152602084905260409020610a01565b6000838152602083905260409020610a01565b600061167e826301ffc9a760e01b61169e565b80156107dc5750611697826001600160e01b031961169e565b1592915050565b604080516001600160e01b03198316602480830191909152825180830390910181526044909101909152602080820180516001600160e01b03166301ffc9a760e01b178152825160009392849283928392918391908a617530fa92503d91506000519050828015611710575060208210155b801561171c5750600081115b979650505050505050565b6000807f7fffffffffffffffffffffffffffffff5d576e7357a4501ddfe92f46681b20a083111561175e57506000905060036117e2565b6040805160008082526020820180845289905260ff881692820192909252606081018690526080810185905260019060a0016020604051602081039080840390855afa1580156117b2573d6000803e3d6000fd5b5050604051601f1901519150506001600160a01b0381166117db576000600192509250506117e2565b9150600090505b94509492505050565b60008160048111156117ff576117ff611b18565b036118075750565b600181600481111561181b5761181b611b18565b036118685760405162461bcd60e51b815260206004820152601860248201527f45434453413a20696e76616c6964207369676e6174757265000000000000000060448201526064016104a7565b600281600481111561187c5761187c611b18565b036118c95760405162461bcd60e51b815260206004820152601f60248201527f45434453413a20696e76616c6964207369676e6174757265206c656e6774680060448201526064016104a7565b60038160048111156118dd576118dd611b18565b036119355760405162461bcd60e51b815260206004820152602260248201527f45434453413a20696e76616c6964207369676e6174757265202773272076616c604482015261756560f01b60648201526084016104a7565b50565b60408051610120810182526000808252602082018190529181019190915260608101611962611991565b815260200161196f611991565b8152600060208201819052604082018190526060820181905260809091015290565b6040805160808101909152806000815260200160006001600160a01b0316815260200160008152602001600081525090565b6001600160a01b038116811461193557600080fd5b80356119e3816119c3565b919050565b60008083601f8401126119fa57600080fd5b50813567ffffffffffffffff811115611a1257600080fd5b602083019150836020828501011115611a2a57600080fd5b9250929050565b60008060008060008060008060a0898b031215611a4d57600080fd5b8835611a58816119c3565b975060208901359650604089013567ffffffffffffffff80821115611a7c57600080fd5b611a888c838d016119e8565b909850965060608b0135915080821115611aa157600080fd5b818b0191508b601f830112611ab557600080fd5b813581811115611ac457600080fd5b8c60208260051b8501011115611ad957600080fd5b6020830196508095505060808b0135915080821115611af757600080fd5b50611b048b828c016119e8565b999c989b5096995094979396929594505050565b634e487b7160e01b600052602160045260246000fd5b60048110611b4c57634e487b7160e01b600052602160045260246000fd5b9052565b611b5b828251611b2e565b6020818101516001600160a01b03169083015260408082015190830152606090810151910152565b82815281516001600160a01b03166020820152610200810160208301516001600160a01b038116604084015250604083015163ffffffff81166060840152506060830151611bd46080840182611b50565b506080830151610100611be981850183611b50565b60a085015161018085015260c085015164ffffffffff166101a085015260e08501516101c0850152909301516101e09092019190915292915050565b600060208284031215611c3757600080fd5b5035919050565b634e487b7160e01b600052604160045260246000fd5b6040516020810167ffffffffffffffff81118282101715611c7757611c77611c3e565b60405290565b6040516102a0810167ffffffffffffffff81118282101715611c7757611c77611c3e565b600060208284031215611cb357600080fd5b813567ffffffffffffffff80821115611ccb57600080fd5b818401915084601f830112611cdf57600080fd5b813581811115611cf157611cf1611c3e565b604051601f8201601f19908116603f01168101908382118183101715611d1957611d19611c3e565b81604052828152876020848701011115611d3257600080fd5b826020860160208301376000928101602001929092525095945050505050565b611d5d828251611b2e565b6020810151611d7760208401826001600160a01b03169052565b5060408101516040830152606081015160608301526080810151611d9f608084018215159052565b5060a081015160a083015260c0810151611dc460c08401826001600160a01b03169052565b5060e08181015190830152610100808201519083015261012080820151908301526101408082015164ffffffffff908116918401919091526101608083015163ffffffff169084015261018080830151909116908301526101a0808201516001600160a01b03908116918401919091526101c0808301518216908401526101e08083015190840152610200808301511515908401526102208083015190840152610240808301519084015261026080830151908401526102809182015116910152565b6102c08101611e968285611d52565b82516102a08301529392505050565b60006102a08284031215611eb857600080fd5b50919050565b6004811061193557600080fd5b80356119e381611ebe565b801515811461193557600080fd5b80356119e381611ed6565b64ffffffffff8116811461193557600080fd5b80356119e381611eef565b63ffffffff8116811461193557600080fd5b80356119e381611f0d565b600060208284031215611f3c57600080fd5b611f44611c54565b9135825250919050565b6000808284036102c0811215611f6357600080fd5b6102a080821215611f7357600080fd5b611f7b611c7d565b9150611f8685611ecb565b8252611f94602086016119d8565b60208301526040850135604083015260608501356060830152611fb960808601611ee4565b608083015260a085013560a0830152611fd460c086016119d8565b60c083015260e0858101359083015261010080860135908301526101208086013590830152610140612007818701611f02565b90830152610160612019868201611f1f565b9083015261018061202b868201611f02565b908301526101a061203d8682016119d8565b908301526101c061204f8682016119d8565b908301526101e0858101359083015261020061206c818701611ee4565b9083015261022085810135908301526102408086013590830152610260808601359083015261028061209f8187016119d8565b81840152508193506120b386828701611f2a565b925050509250929050565b60005b838110156120d95781810151838201526020016120c1565b50506000910152565b600081518084526120fa8160208601602086016120be565b601f01601f19169290920160200192915050565b602081526000610a0160208301846120e2565b6000806040838503121561213457600080fd5b50508035926020909101359150565b60006020828403121561215557600080fd5b6040516020810181811067ffffffffffffffff8211171561217857612178611c3e565b6040529135825250919050565b6102a081016107dc8284611d52565b80516119e381611ebe565b80516119e3816119c3565b80516119e381611ed6565b80516119e381611eef565b80516119e381611f0d565b6000602082840312156121dd57600080fd5b6121e5611c54565b9151825250919050565b6000808284036102c081121561220457600080fd5b6102a08082121561221457600080fd5b61221c611c7d565b915061222785612194565b82526122356020860161219f565b6020830152604085015160408301526060850151606083015261225a608086016121aa565b608083015260a085015160a083015261227560c0860161219f565b60c083015260e08581015190830152610100808601519083015261012080860151908301526101406122a88187016121b5565b908301526101606122ba8682016121c0565b908301526101806122cc8682016121b5565b908301526101a06122de86820161219f565b908301526101c06122f086820161219f565b908301526101e0858101519083015261020061230d8187016121aa565b9083015261022085810151908301526102408086015190830152610260808601519083015261028061234081870161219f565b81840152508193506120b3868287016121cb565b6102a0810161236b8261236685611ecb565b611b2e565b612377602084016119d8565b6001600160a01b03811660208401525060408301356040830152606083013560608301526123a760808401611ee4565b1515608083015260a083810135908301526123c460c084016119d8565b6001600160a01b031660c083015260e0838101359083015261010080840135908301526101208084013590830152610140612400818501611f02565b64ffffffffff1690830152610160612419848201611f1f565b63ffffffff1690830152610180612431848201611f02565b64ffffffffff16908301526101a061244a8482016119d8565b6001600160a01b0316908301526101c06124658482016119d8565b6001600160a01b0316908301526101e0838101359083015261020061248b818501611ee4565b1515908301526102208381013590830152610240808401359083015261026080840135908301526102806124c08185016119d8565b6001600160a01b0316920191909152919050565b6001600160a01b039390931683526020830191909152604082015260600190565b8281526000825161250d8160208501602087016120be565b919091016020019392505050565b60006020828403121561252d57600080fd5b8135610a01816119c3565b60006020828403121561254a57600080fd5b8151610a0181611ed6565b634e487b7160e01b600052601160045260246000fd5b808201808211156107dc576107dc612555565b60006020828403121561259057600080fd5b8151610a01816119c3565b6000602082840312156125ad57600080fd5b5051919050565b634e487b7160e01b600052601260045260246000fd5b8281526040602082015260006125e360408301846120e2565b949350505050565b600082516125fd8184602087016120be565b9190910192915050565b634e487b7160e01b600052603260045260246000fd5b60006001820161262f5761262f612555565b506001019056fea2646970667358221220e96650315c4766bc4f7c305a555e2212c9a7ed4104b1ca57c6e2f637e1b4a58964736f6c63430008100033",
    "linkReferences": {}
  },
  "methodIdentifiers": {
    "CREDIT_PER_COLLATERAL_UNIT_DENOMINATOR()": "808560ee",
    "DOMAIN_SEPARATOR()": "3644e515",
    "MULTIPROPOSAL_DOMAIN_SEPARATOR()": "abe93878",
    "MULTIPROPOSAL_TYPEHASH()": "d06a0d82",
    "PROPOSAL_TYPEHASH()": "853b94a0",
    "VERSION()": "ffa1ad74",
    "acceptProposal(address,uint256,bytes,bytes32[],bytes)": "01e83272",
    "config()": "79502c55",
    "creditUsed(bytes32)": "f0209ad6",
    "decodeProposalData(bytes)": "2d5d17fc",
    "encodeProposalData((uint8,address,uint256,uint256,bool,bytes32,address,uint256,uint256,uint256,uint40,uint32,uint40,address,address,bytes32,bool,uint256,uint256,uint256,address),(uint256))": "49d2151c",
    "getCreditAmount(uint256,uint256)": "993fba5c",
    "getMultiproposalHash((bytes32))": "829d3770",
    "getProposalHash((uint8,address,uint256,uint256,bool,bytes32,address,uint256,uint256,uint256,uint40,uint32,uint40,address,address,bytes32,bool,uint256,uint256,uint256,address))": "382c0cdd",
    "hub()": "365a86fc",
    "makeProposal((uint8,address,uint256,uint256,bool,bytes32,address,uint256,uint256,uint256,uint40,uint32,uint40,address,address,bytes32,bool,uint256,uint256,uint256,address))": "83f19a0b",
    "proposalsMade(bytes32)": "1da4c275",
    "revokeNonce(uint256,uint256)": "579bfc30",
    "revokedNonce()": "9788ad55"
  },
  "id": 88
}