{
  "abi": [
    {
      "inputs": [
        {
          "internalType": "address",
          "name": "_hub",
          "type": "address"
        },
        {
          "internalType": "address",
          "name": "_revokedNonce",
          "type": "address"
        },
        {
          "internalType": "address",
          "name": "_config",
          "type": "address"
        }
      ],
      "stateMutability": "nonpayable",
      "type": "constructor"
    },
    {
      "inputs": [
        {
          "internalType": "address",
          "name": "addr",
          "type": "address"
        }
      ],
      "name": "AcceptorIsProposer",
      "type": "error"
    },
    {
      "inputs": [
        {
          "internalType": "address",
          "name": "addr",
          "type": "address"
        },
        {
          "internalType": "bytes32",
          "name": "tag",
          "type": "bytes32"
        }
      ],
      "name": "AddressMissingHubTag",
      "type": "error"
    },
    {
      "inputs": [
        {
          "internalType": "uint256",
          "name": "used",
          "type": "uint256"
        },
        {
          "internalType": "uint256",
          "name": "limit",
          "type": "uint256"
        }
      ],
      "name": "AvailableCreditLimitExceeded",
      "type": "error"
    },
    {
      "inputs": [
        {
          "internalType": "address",
          "name": "addr",
          "type": "address"
        }
      ],
      "name": "CallerIsNotStatedProposer",
      "type": "error"
    },
    {
      "inputs": [
        {
          "internalType": "address",
          "name": "current",
          "type": "address"
        },
        {
          "internalType": "address",
          "name": "allowed",
          "type": "address"
        }
      ],
      "name": "CallerNotAllowedAcceptor",
      "type": "error"
    },
    {
      "inputs": [
        {
          "internalType": "address",
          "name": "caller",
          "type": "address"
        },
        {
          "internalType": "address",
          "name": "loanContract",
          "type": "address"
        }
      ],
      "name": "CallerNotLoanContract",
      "type": "error"
    },
    {
      "inputs": [
        {
          "internalType": "uint256",
          "name": "id",
          "type": "uint256"
        }
      ],
      "name": "CollateralIdNotWhitelisted",
      "type": "error"
    },
    {
      "inputs": [
        {
          "internalType": "uint256",
          "name": "current",
          "type": "uint256"
        },
        {
          "internalType": "uint256",
          "name": "expiration",
          "type": "uint256"
        }
      ],
      "name": "Expired",
      "type": "error"
    },
    {
      "inputs": [
        {
          "internalType": "bytes32",
          "name": "current",
          "type": "bytes32"
        },
        {
          "internalType": "bytes32",
          "name": "proposed",
          "type": "bytes32"
        }
      ],
      "name": "InvalidCollateralStateFingerprint",
      "type": "error"
    },
    {
      "inputs": [
        {
          "internalType": "uint256",
          "name": "refinancingLoanId",
          "type": "uint256"
        }
      ],
      "name": "InvalidRefinancingLoanId",
      "type": "error"
    },
    {
      "inputs": [
        {
          "internalType": "address",
          "name": "signer",
          "type": "address"
        },
        {
          "internalType": "bytes32",
          "name": "digest",
          "type": "bytes32"
        }
      ],
      "name": "InvalidSignature",
      "type": "error"
    },
    {
      "inputs": [
        {
          "internalType": "uint256",
          "name": "length",
          "type": "uint256"
        }
      ],
      "name": "InvalidSignatureLength",
      "type": "error"
    },
    {
      "inputs": [],
      "name": "MissingStateFingerprintComputer",
      "type": "error"
    },
    {
      "inputs": [
        {
          "internalType": "address",
          "name": "addr",
          "type": "address"
        },
        {
          "internalType": "uint256",
          "name": "nonceSpace",
          "type": "uint256"
        },
        {
          "internalType": "uint256",
          "name": "nonce",
          "type": "uint256"
        }
      ],
      "name": "NonceNotUsable",
      "type": "error"
    },
    {
      "anonymous": false,
      "inputs": [
        {
          "indexed": true,
          "internalType": "bytes32",
          "name": "proposalHash",
          "type": "bytes32"
        },
        {
          "indexed": true,
          "internalType": "address",
          "name": "proposer",
          "type": "address"
        },
        {
          "components": [
            {
              "internalType": "enum MultiToken.Category",
              "name": "collateralCategory",
              "type": "uint8"
            },
            {
              "internalType": "address",
              "name": "collateralAddress",
              "type": "address"
            },
            {
              "internalType": "bytes32",
              "name": "collateralIdsWhitelistMerkleRoot",
              "type": "bytes32"
            },
            {
              "internalType": "uint256",
              "name": "collateralAmount",
              "type": "uint256"
            },
            {
              "internalType": "bool",
              "name": "checkCollateralStateFingerprint",
              "type": "bool"
            },
            {
              "internalType": "bytes32",
              "name": "collateralStateFingerprint",
              "type": "bytes32"
            },
            {
              "internalType": "address",
              "name": "creditAddress",
              "type": "address"
            },
            {
              "internalType": "uint256",
              "name": "creditAmount",
              "type": "uint256"
            },
            {
              "internalType": "uint256",
              "name": "availableCreditLimit",
              "type": "uint256"
            },
            {
              "internalType": "uint256",
              "name": "fixedInterestAmount",
              "type": "uint256"
            },
            {
              "internalType": "uint40",
              "name": "accruingInterestAPR",
              "type": "uint40"
            },
            {
              "internalType": "uint32",
              "name": "duration",
              "type": "uint32"
            },
            {
              "internalType": "uint40",
              "name": "expiration",
              "type": "uint40"
            },
            {
              "internalType": "address",
              "name": "allowedAcceptor",
              "type": "address"
            },
            {
              "internalType": "address",
              "name": "proposer",
              "type": "address"
            },
            {
              "internalType": "bytes32",
              "name": "proposerSpecHash",
              "type": "bytes32"
            },
            {
              "internalType": "bool",
              "name": "isOffer",
              "type": "bool"
            },
            {
              "internalType": "uint256",
              "name": "refinancingLoanId",
              "type": "uint256"
            },
            {
              "internalType": "uint256",
              "name": "nonceSpace",
              "type": "uint256"
            },
            {
              "internalType": "uint256",
              "name": "nonce",
              "type": "uint256"
            },
            {
              "internalType": "address",
              "name": "loanContract",
              "type": "address"
            }
          ],
          "indexed": false,
          "internalType": "struct PWNSimpleLoanListProposal.Proposal",
          "name": "proposal",
          "type": "tuple"
        }
      ],
      "name": "ProposalMade",
      "type": "event"
    },
    {
      "inputs": [],
      "name": "DOMAIN_SEPARATOR",
      "outputs": [
        {
          "internalType": "bytes32",
          "name": "",
          "type": "bytes32"
        }
      ],
      "stateMutability": "view",
      "type": "function"
    },
    {
      "inputs": [],
      "name": "MULTIPROPOSAL_DOMAIN_SEPARATOR",
      "outputs": [
        {
          "internalType": "bytes32",
          "name": "",
          "type": "bytes32"
        }
      ],
      "stateMutability": "view",
      "type": "function"
    },
    {
      "inputs": [],
      "name": "MULTIPROPOSAL_TYPEHASH",
      "outputs": [
        {
          "internalType": "bytes32",
          "name": "",
          "type": "bytes32"
        }
      ],
      "stateMutability": "view",
      "type": "function"
    },
    {
      "inputs": [],
      "name": "PROPOSAL_TYPEHASH",
      "outputs": [
        {
          "internalType": "bytes32",
          "name": "",
          "type": "bytes32"
        }
      ],
      "stateMutability": "view",
      "type": "function"
    },
    {
      "inputs": [],
      "name": "VERSION",
      "outputs": [
        {
          "internalType": "string",
          "name": "",
          "type": "string"
        }
      ],
      "stateMutability": "view",
      "type": "function"
    },
    {
      "inputs": [
        {
          "internalType": "address",
          "name": "acceptor",
          "type": "address"
        },
        {
          "internalType": "uint256",
          "name": "refinancingLoanId",
          "type": "uint256"
        },
        {
          "internalType": "bytes",
          "name": "proposalData",
          "type": "bytes"
        },
        {
          "internalType": "bytes32[]",
          "name": "proposalInclusionProof",
          "type": "bytes32[]"
        },
        {
          "internalType": "bytes",
          "name": "signature",
          "type": "bytes"
        }
      ],
      "name": "acceptProposal",
      "outputs": [
        {
          "internalType": "bytes32",
          "name": "proposalHash",
          "type": "bytes32"
        },
        {
          "components": [
            {
              "internalType": "address",
              "name": "lender",
              "type": "address"
            },
            {
              "internalType": "address",
              "name": "borrower",
              "type": "address"
            },
            {
              "internalType": "uint32",
              "name": "duration",
              "type": "uint32"
            },
            {
              "components": [
                {
                  "internalType": "enum MultiToken.Category",
                  "name": "category",
                  "type": "uint8"
                },
                {
                  "internalType": "address",
                  "name": "assetAddress",
                  "type": "address"
                },
                {
                  "internalType": "uint256",
                  "name": "id",
                  "type": "uint256"
                },
                {
                  "internalType": "uint256",
                  "name": "amount",
                  "type": "uint256"
                }
              ],
              "internalType": "struct MultiToken.Asset",
              "name": "collateral",
              "type": "tuple"
            },
            {
              "components": [
                {
                  "internalType": "enum MultiToken.Category",
                  "name": "category",
                  "type": "uint8"
                },
                {
                  "internalType": "address",
                  "name": "assetAddress",
                  "type": "address"
                },
                {
                  "internalType": "uint256",
                  "name": "id",
                  "type": "uint256"
                },
                {
                  "internalType": "uint256",
                  "name": "amount",
                  "type": "uint256"
                }
              ],
              "internalType": "struct MultiToken.Asset",
              "name": "credit",
              "type": "tuple"
            },
            {
              "internalType": "uint256",
              "name": "fixedInterestAmount",
              "type": "uint256"
            },
            {
              "internalType": "uint40",
              "name": "accruingInterestAPR",
              "type": "uint40"
            },
            {
              "internalType": "bytes32",
              "name": "lenderSpecHash",
              "type": "bytes32"
            },
            {
              "internalType": "bytes32",
              "name": "borrowerSpecHash",
              "type": "bytes32"
            }
          ],
          "internalType": "struct PWNSimpleLoan.Terms",
          "name": "loanTerms",
          "type": "tuple"
        }
      ],
      "stateMutability": "nonpayable",
      "type": "function"
    },
    {
      "inputs": [],
      "name": "config",
      "outputs": [
        {
          "internalType": "contract PWNConfig",
          "name": "",
          "type": "address"
        }
      ],
      "stateMutability": "view",
      "type": "function"
    },
    {
      "inputs": [
        {
          "internalType": "bytes32",
          "name": "",
          "type": "bytes32"
        }
      ],
      "name": "creditUsed",
      "outputs": [
        {
          "internalType": "uint256",
          "name": "",
          "type": "uint256"
        }
      ],
      "stateMutability": "view",
      "type": "function"
    },
    {
      "inputs": [
        {
          "internalType": "bytes",
          "name": "proposalData",
          "type": "bytes"
        }
      ],
      "name": "decodeProposalData",
      "outputs": [
        {
          "components": [
            {
              "internalType": "enum MultiToken.Category",
              "name": "collateralCategory",
              "type": "uint8"
            },
            {
              "internalType": "address",
              "name": "collateralAddress",
              "type": "address"
            },
            {
              "internalType": "bytes32",
              "name": "collateralIdsWhitelistMerkleRoot",
              "type": "bytes32"
            },
            {
              "internalType": "uint256",
              "name": "collateralAmount",
              "type": "uint256"
            },
            {
              "internalType": "bool",
              "name": "checkCollateralStateFingerprint",
              "type": "bool"
            },
            {
              "internalType": "bytes32",
              "name": "collateralStateFingerprint",
              "type": "bytes32"
            },
            {
              "internalType": "address",
              "name": "creditAddress",
              "type": "address"
            },
            {
              "internalType": "uint256",
              "name": "creditAmount",
              "type": "uint256"
            },
            {
              "internalType": "uint256",
              "name": "availableCreditLimit",
              "type": "uint256"
            },
            {
              "internalType": "uint256",
              "name": "fixedInterestAmount",
              "type": "uint256"
            },
            {
              "internalType": "uint40",
              "name": "accruingInterestAPR",
              "type": "uint40"
            },
            {
              "internalType": "uint32",
              "name": "duration",
              "type": "uint32"
            },
            {
              "internalType": "uint40",
              "name": "expiration",
              "type": "uint40"
            },
            {
              "internalType": "address",
              "name": "allowedAcceptor",
              "type": "address"
            },
            {
              "internalType": "address",
              "name": "proposer",
              "type": "address"
            },
            {
              "internalType": "bytes32",
              "name": "proposerSpecHash",
              "type": "bytes32"
            },
            {
              "internalType": "bool",
              "name": "isOffer",
              "type": "bool"
            },
            {
              "internalType": "uint256",
              "name": "refinancingLoanId",
              "type": "uint256"
            },
            {
              "internalType": "uint256",
              "name": "nonceSpace",
              "type": "uint256"
            },
            {
              "internalType": "uint256",
              "name": "nonce",
              "type": "uint256"
            },
            {
              "internalType": "address",
              "name": "loanContract",
              "type": "address"
            }
          ],
          "internalType": "struct PWNSimpleLoanListProposal.Proposal",
          "name": "",
          "type": "tuple"
        },
        {
          "components": [
            {
              "internalType": "uint256",
              "name": "collateralId",
              "type": "uint256"
            },
            {
              "internalType": "bytes32[]",
              "name": "merkleInclusionProof",
              "type": "bytes32[]"
            }
          ],
          "internalType": "struct PWNSimpleLoanListProposal.ProposalValues",
          "name": "",
          "type": "tuple"
        }
      ],
      "stateMutability": "pure",
      "type": "function"
    },
    {
      "inputs": [
        {
          "components": [
            {
              "internalType": "enum MultiToken.Category",
              "name": "collateralCategory",
              "type": "uint8"
            },
            {
              "internalType": "address",
              "name": "collateralAddress",
              "type": "address"
            },
            {
              "internalType": "bytes32",
              "name": "collateralIdsWhitelistMerkleRoot",
              "type": "bytes32"
            },
            {
              "internalType": "uint256",
              "name": "collateralAmount",
              "type": "uint256"
            },
            {
              "internalType": "bool",
              "name": "checkCollateralStateFingerprint",
              "type": "bool"
            },
            {
              "internalType": "bytes32",
              "name": "collateralStateFingerprint",
              "type": "bytes32"
            },
            {
              "internalType": "address",
              "name": "creditAddress",
              "type": "address"
            },
            {
              "internalType": "uint256",
              "name": "creditAmount",
              "type": "uint256"
            },
            {
              "internalType": "uint256",
              "name": "availableCreditLimit",
              "type": "uint256"
            },
            {
              "internalType": "uint256",
              "name": "fixedInterestAmount",
              "type": "uint256"
            },
            {
              "internalType": "uint40",
              "name": "accruingInterestAPR",
              "type": "uint40"
            },
            {
              "internalType": "uint32",
              "name": "duration",
              "type": "uint32"
            },
            {
              "internalType": "uint40",
              "name": "expiration",
              "type": "uint40"
            },
            {
              "internalType": "address",
              "name": "allowedAcceptor",
              "type": "address"
            },
            {
              "internalType": "address",
              "name": "proposer",
              "type": "address"
            },
            {
              "internalType": "bytes32",
              "name": "proposerSpecHash",
              "type": "bytes32"
            },
            {
              "internalType": "bool",
              "name": "isOffer",
              "type": "bool"
            },
            {
              "internalType": "uint256",
              "name": "refinancingLoanId",
              "type": "uint256"
            },
            {
              "internalType": "uint256",
              "name": "nonceSpace",
              "type": "uint256"
            },
            {
              "internalType": "uint256",
              "name": "nonce",
              "type": "uint256"
            },
            {
              "internalType": "address",
              "name": "loanContract",
              "type": "address"
            }
          ],
          "internalType": "struct PWNSimpleLoanListProposal.Proposal",
          "name": "proposal",
          "type": "tuple"
        },
        {
          "components": [
            {
              "internalType": "uint256",
              "name": "collateralId",
              "type": "uint256"
            },
            {
              "internalType": "bytes32[]",
              "name": "merkleInclusionProof",
              "type": "bytes32[]"
            }
          ],
          "internalType": "struct PWNSimpleLoanListProposal.ProposalValues",
          "name": "proposalValues",
          "type": "tuple"
        }
      ],
      "name": "encodeProposalData",
      "outputs": [
        {
          "internalType": "bytes",
          "name": "",
          "type": "bytes"
        }
      ],
      "stateMutability": "pure",
      "type": "function"
    },
    {
      "inputs": [
        {
          "components": [
            {
              "internalType": "bytes32",
              "name": "multiproposalMerkleRoot",
              "type": "bytes32"
            }
          ],
          "internalType": "struct PWNSimpleLoanProposal.Multiproposal",
          "name": "multiproposal",
          "type": "tuple"
        }
      ],
      "name": "getMultiproposalHash",
      "outputs": [
        {
          "internalType": "bytes32",
          "name": "",
          "type": "bytes32"
        }
      ],
      "stateMutability": "view",
      "type": "function"
    },
    {
      "inputs": [
        {
          "components": [
            {
              "internalType": "enum MultiToken.Category",
              "name": "collateralCategory",
              "type": "uint8"
            },
            {
              "internalType": "address",
              "name": "collateralAddress",
              "type": "address"
            },
            {
              "internalType": "bytes32",
              "name": "collateralIdsWhitelistMerkleRoot",
              "type": "bytes32"
            },
            {
              "internalType": "uint256",
              "name": "collateralAmount",
              "type": "uint256"
            },
            {
              "internalType": "bool",
              "name": "checkCollateralStateFingerprint",
              "type": "bool"
            },
            {
              "internalType": "bytes32",
              "name": "collateralStateFingerprint",
              "type": "bytes32"
            },
            {
              "internalType": "address",
              "name": "creditAddress",
              "type": "address"
            },
            {
              "internalType": "uint256",
              "name": "creditAmount",
              "type": "uint256"
            },
            {
              "internalType": "uint256",
              "name": "availableCreditLimit",
              "type": "uint256"
            },
            {
              "internalType": "uint256",
              "name": "fixedInterestAmount",
              "type": "uint256"
            },
            {
              "internalType": "uint40",
              "name": "accruingInterestAPR",
              "type": "uint40"
            },
            {
              "internalType": "uint32",
              "name": "duration",
              "type": "uint32"
            },
            {
              "internalType": "uint40",
              "name": "expiration",
              "type": "uint40"
            },
            {
              "internalType": "address",
              "name": "allowedAcceptor",
              "type": "address"
            },
            {
              "internalType": "address",
              "name": "proposer",
              "type": "address"
            },
            {
              "internalType": "bytes32",
              "name": "proposerSpecHash",
              "type": "bytes32"
            },
            {
              "internalType": "bool",
              "name": "isOffer",
              "type": "bool"
            },
            {
              "internalType": "uint256",
              "name": "refinancingLoanId",
              "type": "uint256"
            },
            {
              "internalType": "uint256",
              "name": "nonceSpace",
              "type": "uint256"
            },
            {
              "internalType": "uint256",
              "name": "nonce",
              "type": "uint256"
            },
            {
              "internalType": "address",
              "name": "loanContract",
              "type": "address"
            }
          ],
          "internalType": "struct PWNSimpleLoanListProposal.Proposal",
          "name": "proposal",
          "type": "tuple"
        }
      ],
      "name": "getProposalHash",
      "outputs": [
        {
          "internalType": "bytes32",
          "name": "",
          "type": "bytes32"
        }
      ],
      "stateMutability": "view",
      "type": "function"
    },
    {
      "inputs": [],
      "name": "hub",
      "outputs": [
        {
          "internalType": "contract PWNHub",
          "name": "",
          "type": "address"
        }
      ],
      "stateMutability": "view",
      "type": "function"
    },
    {
      "inputs": [
        {
          "components": [
            {
              "internalType": "enum MultiToken.Category",
              "name": "collateralCategory",
              "type": "uint8"
            },
            {
              "internalType": "address",
              "name": "collateralAddress",
              "type": "address"
            },
            {
              "internalType": "bytes32",
              "name": "collateralIdsWhitelistMerkleRoot",
              "type": "bytes32"
            },
            {
              "internalType": "uint256",
              "name": "collateralAmount",
              "type": "uint256"
            },
            {
              "internalType": "bool",
              "name": "checkCollateralStateFingerprint",
              "type": "bool"
            },
            {
              "internalType": "bytes32",
              "name": "collateralStateFingerprint",
              "type": "bytes32"
            },
            {
              "internalType": "address",
              "name": "creditAddress",
              "type": "address"
            },
            {
              "internalType": "uint256",
              "name": "creditAmount",
              "type": "uint256"
            },
            {
              "internalType": "uint256",
              "name": "availableCreditLimit",
              "type": "uint256"
            },
            {
              "internalType": "uint256",
              "name": "fixedInterestAmount",
              "type": "uint256"
            },
            {
              "internalType": "uint40",
              "name": "accruingInterestAPR",
              "type": "uint40"
            },
            {
              "internalType": "uint32",
              "name": "duration",
              "type": "uint32"
            },
            {
              "internalType": "uint40",
              "name": "expiration",
              "type": "uint40"
            },
            {
              "internalType": "address",
              "name": "allowedAcceptor",
              "type": "address"
            },
            {
              "internalType": "address",
              "name": "proposer",
              "type": "address"
            },
            {
              "internalType": "bytes32",
              "name": "proposerSpecHash",
              "type": "bytes32"
            },
            {
              "internalType": "bool",
              "name": "isOffer",
              "type": "bool"
            },
            {
              "internalType": "uint256",
              "name": "refinancingLoanId",
              "type": "uint256"
            },
            {
              "internalType": "uint256",
              "name": "nonceSpace",
              "type": "uint256"
            },
            {
              "internalType": "uint256",
              "name": "nonce",
              "type": "uint256"
            },
            {
              "internalType": "address",
              "name": "loanContract",
              "type": "address"
            }
          ],
          "internalType": "struct PWNSimpleLoanListProposal.Proposal",
          "name": "proposal",
          "type": "tuple"
        }
      ],
      "name": "makeProposal",
      "outputs": [
        {
          "internalType": "bytes32",
          "name": "proposalHash",
          "type": "bytes32"
        }
      ],
      "stateMutability": "nonpayable",
      "type": "function"
    },
    {
      "inputs": [
        {
          "internalType": "bytes32",
          "name": "",
          "type": "bytes32"
        }
      ],
      "name": "proposalsMade",
      "outputs": [
        {
          "internalType": "bool",
          "name": "",
          "type": "bool"
        }
      ],
      "stateMutability": "view",
      "type": "function"
    },
    {
      "inputs": [
        {
          "internalType": "uint256",
          "name": "nonceSpace",
          "type": "uint256"
        },
        {
          "internalType": "uint256",
          "name": "nonce",
          "type": "uint256"
        }
      ],
      "name": "revokeNonce",
      "outputs": [],
      "stateMutability": "nonpayable",
      "type": "function"
    },
    {
      "inputs": [],
      "name": "revokedNonce",
      "outputs": [
        {
          "internalType": "contract PWNRevokedNonce",
          "name": "",
          "type": "address"
        }
      ],
      "stateMutability": "view",
      "type": "function"
    }
  ],
  "bytecode": {
    "object": "0x6101206040523480156200001257600080fd5b5060405162002a0438038062002a048339810160408190526200003591620001ea565b604080518082018252601981527f50574e53696d706c654c6f616e4c69737450726f706f73616c0000000000000060208083019190915282518084018452600381526218971960e91b818301526001600160a01b0380881660c05280871660e052851661010052925186938693869390927f8b73c3c69bb8fe3d512ecc4cf759cc79239f7b179b0ffacaa9a75d522b39400f91620000d69185910162000234565b6040516020818303038152906040528051906020012082604051602001620000ff919062000234565b60408051601f1981840301815282825280516020918201209083019490945281019190915260608101919091524660808201523060a082015260c00160408051808303601f1901815282825280516020918201206080527fb2178a58fb1eefb359ecfdd57bb19c0bdd0f4e6eed8547f46600e500ed111af3908301527fb63b40822cc79278afd8d1ce1a8006a4a298ec829d4d1610b69b2a4830c232709082015260600160408051601f19818403018152919052805160209091012060a05250620002659650505050505050565b80516001600160a01b0381168114620001e557600080fd5b919050565b6000806000606084860312156200020057600080fd5b6200020b84620001cd565b92506200021b60208501620001cd565b91506200022b60408501620001cd565b90509250925092565b6000825160005b818110156200025757602081860181015185830152016200023b565b506000920191825250919050565b60805160a05160c05160e05161010051612729620002db6000396000818161024201526110a10152600081816102a30152818161084201528181610dfb0152610f420152600081816101ee0152610af00152600081816102ca01526108b50152600081816101c701526109b101526127296000f3fe608060405234801561001057600080fd5b506004361061010b5760003560e01c806379502c55116100a2578063abe9387811610071578063abe93878146102c5578063d06a0d82146102ec578063f0209ad614610313578063f164787414610333578063ffa1ad741461035357600080fd5b806379502c551461023d578063829d377014610264578063853b94a0146102775780639788ad551461029e57600080fd5b80632d5d17fc116100de5780632d5d17fc146101a15780633644e515146101c2578063365a86fc146101e9578063579bfc301461022857600080fd5b806301e832721461011057806318e639b91461013a5780631a787a481461015b5780631da4c2751461016e575b600080fd5b61012361011e366004611952565b610375565b604051610131929190611aa4565b60405180910390f35b61014d610148366004611b46565b610693565b604051908152602001610131565b61014d610169366004611b46565b610713565b61019161017c366004611b5f565b60006020819052908152604090205460ff1681565b6040519015158152602001610131565b6101b46101af366004611c0c565b610750565b604051610131929190611dd6565b61014d7f000000000000000000000000000000000000000000000000000000000000000081565b6102107f000000000000000000000000000000000000000000000000000000000000000081565b6040516001600160a01b039091168152602001610131565b61023b610236366004611e45565b61082b565b005b6102107f000000000000000000000000000000000000000000000000000000000000000081565b61014d610272366004611e67565b6108b1565b61014d7fafbf4de294949c186bbc5f2122c5a2c96baf0ea86d6d3b740cddf83e4f89035181565b6102107f000000000000000000000000000000000000000000000000000000000000000081565b61014d7f000000000000000000000000000000000000000000000000000000000000000081565b61014d7f73af92d8ed4d3261ba61cd686d2f8a9cceb2563cc7c4c5355eb121316fc5358d81565b61014d610321366004611b5f565b60016020526000908152604090205481565b610346610341366004611fe5565b610981565b60405161013191906121bb565b6103466040518060400160405280600381526020016218971960e91b81525081565b600061037f611859565b6000806103c18a8a8080601f01602080910402602001604051908101604052809392919081815260200183838082843760009201919091525061075092505050565b9150915061040e7fafbf4de294949c186bbc5f2122c5a2c96baf0ea86d6d3b740cddf83e4f890351836040516020016103fa91906121ce565b6040516020818303038152906040526109ad565b6040830151909450156104825761045a81602001518360400151836000015160405160200161043f91815260200190565b60405160208183030381529060405280519060200120610a3e565b61048257805160405163153accc960e21b815260048101919091526024015b60405180910390fd5b61055f8c8c868b8b8b8b604051806101c001604052808b602001516001600160a01b031681526020018a6000015181526020018b60800151151581526020018b60a0015181526020018b60e0015181526020018b610100015181526020018b610180015164ffffffffff1681526020018b6101a001516001600160a01b031681526020018b6101c001516001600160a01b031681526020018b6102000151151581526020018b610220015181526020018b610240015181526020018b610260015181526020018b61028001516001600160a01b0316815250610a56565b60405180610120016040528083610200015161057b578d610582565b836101c001515b6001600160a01b031681526020018361020001516105a557836101c001516105a7565b8d5b6001600160a01b0316815260200183610160015163ffffffff1681526020016040518060800160405280856000015160038111156105e7576105e7611a39565b815260200185602001516001600160a01b0316815260200184600001518152602001856060015181525081526020016106288460c001518560e00151611254565b8152602001836101200151815260200183610140015164ffffffffff16815260200183610200015161065b576000610662565b836101e001515b815260200183610200015161067c57836101e0015161067f565b60005b815250925050509850989650505050505050565b600061069e82610713565b90506106bb816106b66101e085016101c086016121dd565b61128c565b6106cd6101e083016101c084016121dd565b6001600160a01b0316817f5ea9a493aa7cc9a038b59151e7f783c297cb1b764579b58cfd90f530049a8c098460405161070691906121fa565b60405180910390a3919050565b600061074a7fafbf4de294949c186bbc5f2122c5a2c96baf0ea86d6d3b740cddf83e4f890351836040516020016103fa91906121fa565b92915050565b604080516102a081018252600080825260208201819052918101829052606081018290526080810182905260a0810182905260c0810182905260e08101829052610100810182905261012081018290526101408101829052610160810182905261018081018290526101a081018290526101c081018290526101e081018290526102008101829052610220810182905261024081018290526102608101829052610280810191909152604080518082019091526000815260606020820152828060200190518101906108229190612448565b91509150915091565b60405163f79924a960e01b81526001600160a01b037f0000000000000000000000000000000000000000000000000000000000000000169063f79924a99061087b903390869086906004016125c4565b600060405180830381600087803b15801561089557600080fd5b505af11580156108a9573d6000803e3d6000fd5b505050505050565b60007f00000000000000000000000000000000000000000000000000000000000000007f73af92d8ed4d3261ba61cd686d2f8a9cceb2563cc7c4c5355eb121316fc5358d836040516020016109099151815260200190565b60408051601f198184030181529082905261092792916020016125e5565b6040516020818303038152906040528051906020012060405160200161096492919061190160f01b81526002810192909252602282015260420190565b604051602081830303815290604052805190602001209050919050565b60608282604051602001610996929190611dd6565b604051602081830303815290604052905092915050565b60007f000000000000000000000000000000000000000000000000000000000000000083836040516020016109e39291906125e5565b60405160208183030381529060405280519060200120604051602001610a2092919061190160f01b81526002810192909252602282015260420190565b60405160208183030381529060405280519060200120905092915050565b600082610a4b85846112dc565b1490505b9392505050565b806101a001516001600160a01b0316336001600160a01b031614610aa5576101a081015160405163a4ce7f2960e01b81523360048201526001600160a01b039091166024820152604401610479565b6101a081015160405163680cabbd60e11b81526001600160a01b0391821660048201527f9e56ea094d7a53440eef11fa42b63159fbf703b4ee579494a6ae85afc560359460248201527f00000000000000000000000000000000000000000000000000000000000000009091169063d019577a90604401602060405180830381865afa158015610b39573d6000803e3d6000fd5b505050506040513d601f19601f82011682018060405250810190610b5d919061260b565b610bb2576101a0810151604051630b92eb2560e11b81526001600160a01b0390911660048201527f9e56ea094d7a53440eef11fa42b63159fbf703b4ee579494a6ae85afc56035946024820152604401610479565b6000849003610c525760008681526020819052604090205460ff16610c4d57610c178161010001518785858080601f01602080910402602001604051908101604052809392919081815260200183838082843760009201919091525061132992505050565b610c4d576101008101516040516301d2d55760e31b81526001600160a01b03909116600482015260248101879052604401610479565b610cf4565b6000610c746040518060200160405280610c6d89898c6114cd565b90526108b1565b9050610cbc8261010001518286868080601f01602080910402602001604051908101604052809392919081815260200183838082843760009201919091525061132992505050565b610cf2576101008201516040516301d2d55760e31b81526001600160a01b03909116600482015260248101829052604401610479565b505b876001600160a01b03168161010001516001600160a01b031603610d36576040516326ab1a1d60e11b81526001600160a01b0389166004820152602401610479565b86600003610d705761014081015115610d6b57806101400151604051637a4b6f9760e11b815260040161047991815260200190565b610db9565b8061014001518714610db957610140810151151580610d925750806101200151155b15610db957806101400151604051637a4b6f9760e11b815260040161047991815260200190565b8060c0015164ffffffffff164210610df95760c081015160405163aa2fd92560e01b815242600482015264ffffffffff9091166024820152604401610479565b7f00000000000000000000000000000000000000000000000000000000000000006001600160a01b031663f291a62c8261010001518361016001518461018001516040518463ffffffff1660e01b8152600401610e58939291906125c4565b602060405180830381865afa158015610e75573d6000803e3d6000fd5b505050506040513d601f19601f82011682018060405250810190610e99919061260b565b610ecb57806101000151816101600151826101800151604051632108c30560e11b8152600401610479939291906125c4565b60e08101516001600160a01b031615801590610efd57508060e001516001600160a01b0316886001600160a01b031614155b15610f345760e0810151604051636075c95560e11b81526001600160a01b03808b1660048301529091166024820152604401610479565b8060a00151600003610fd6577f00000000000000000000000000000000000000000000000000000000000000006001600160a01b031663f79924a98261010001518361016001518461018001516040518463ffffffff1660e01b8152600401610f9f939291906125c4565b600060405180830381600087803b158015610fb957600080fd5b505af1158015610fcd573d6000803e3d6000fd5b50505050611071565b60a08101516080820151600088815260016020526040902054610ff9919061263e565b1161102c5760808101516000878152600160205260408120805490919061102190849061263e565b909155506110719050565b608081015160008781526001602052604090205461104a919061263e565b60a082015160405163231795cb60e21b815260048101929092526024820152604401610479565b80604001511561124a578051604051630b7e49eb60e21b81526001600160a01b03918216600482015260009182917f000000000000000000000000000000000000000000000000000000000000000090911690632df927ac90602401602060405180830381865afa1580156110ea573d6000803e3d6000fd5b505050506040513d601f19601f8201168201806040525081019061110e9190612651565b90506001600160a01b038116156111ac578251602084015160405163ec2ce34560e01b81526001600160a01b0384169263ec2ce34592611164926004016001600160a01b03929092168252602082015260400190565b602060405180830381865afa158015611181573d6000803e3d6000fd5b505050506040513d601f19601f820116820180604052508101906111a5919061266e565b9150611213565b82516111bf9063f511231560e01b611519565b156111fa578251602084015160405163f511231560e01b81526001600160a01b039092169163f5112315916111649160040190815260200190565b60405163f3c0936360e01b815260040160405180910390fd5b81836060015114611247576060830151604051633840fc0160e01b8152610479918491600401918252602082015260400190565b50505b5050505050505050565b61125c6118b2565b506040805160808101825260008082526001600160a01b0394909416602082015290810192909252606082015290565b336001600160a01b038216146112c057604051631144200360e31b81526001600160a01b0382166004820152602401610479565b506000908152602081905260409020805460ff19166001179055565b600081815b84518110156113215761130d8286838151811061130057611300612687565b6020026020010151611535565b9150806113198161269d565b9150506112e1565b509392505050565b60006001600160a01b0384163b1561142457600080856001600160a01b0316631626ba7e60e01b86866040516024016113639291906126b6565b60408051601f198184030181529181526020820180516001600160e01b03166001600160e01b03199094169390931790925290516113a191906126d7565b600060405180830381855afa9150503d80600081146113dc576040519150601f19603f3d011682016040523d82523d6000602084013e6113e1565b606091505b50915091508180156113f4575080516020145b801561141b57508051630b135d3f60e11b90611419908301602090810190840161266e565b145b92505050610a4f565b6000806000845160410361144c5750505060208201516040830151606084015160001a6114a3565b845160400361148557602085015160408601519093506001600160ff1b038116925061147d60ff82901c601b61263e565b9150506114a3565b845160405163058676ad60e31b815260040161047991815260200190565b6114af86828585611564565b6001600160a01b0316876001600160a01b0316149350505050610a4f565b600081815b84811015611510576114fc828787848181106114f0576114f0612687565b90506020020135611535565b9150806115088161269d565b9150506114d2565b50949350505050565b60006115248361158c565b8015610a4f5750610a4f83836115bf565b6000818310611551576000828152602084905260409020610a4f565b6000838152602083905260409020610a4f565b600080600061157587878787611648565b915091506115828161170c565b5095945050505050565b600061159f826301ffc9a760e01b6115bf565b801561074a57506115b8826001600160e01b03196115bf565b1592915050565b604080516001600160e01b03198316602480830191909152825180830390910181526044909101909152602080820180516001600160e01b03166301ffc9a760e01b178152825160009392849283928392918391908a617530fa92503d91506000519050828015611631575060208210155b801561163d5750600081115b979650505050505050565b6000807f7fffffffffffffffffffffffffffffff5d576e7357a4501ddfe92f46681b20a083111561167f5750600090506003611703565b6040805160008082526020820180845289905260ff881692820192909252606081018690526080810185905260019060a0016020604051602081039080840390855afa1580156116d3573d6000803e3d6000fd5b5050604051601f1901519150506001600160a01b0381166116fc57600060019250925050611703565b9150600090505b94509492505050565b600081600481111561172057611720611a39565b036117285750565b600181600481111561173c5761173c611a39565b036117895760405162461bcd60e51b815260206004820152601860248201527f45434453413a20696e76616c6964207369676e617475726500000000000000006044820152606401610479565b600281600481111561179d5761179d611a39565b036117ea5760405162461bcd60e51b815260206004820152601f60248201527f45434453413a20696e76616c6964207369676e6174757265206c656e677468006044820152606401610479565b60038160048111156117fe576117fe611a39565b036118565760405162461bcd60e51b815260206004820152602260248201527f45434453413a20696e76616c6964207369676e6174757265202773272076616c604482015261756560f01b6064820152608401610479565b50565b604080516101208101825260008082526020820181905291810191909152606081016118836118b2565b81526020016118906118b2565b8152600060208201819052604082018190526060820181905260809091015290565b6040805160808101909152806000815260200160006001600160a01b0316815260200160008152602001600081525090565b6001600160a01b038116811461185657600080fd5b8035611904816118e4565b919050565b60008083601f84011261191b57600080fd5b50813567ffffffffffffffff81111561193357600080fd5b60208301915083602082850101111561194b57600080fd5b9250929050565b60008060008060008060008060a0898b03121561196e57600080fd5b8835611979816118e4565b975060208901359650604089013567ffffffffffffffff8082111561199d57600080fd5b6119a98c838d01611909565b909850965060608b01359150808211156119c257600080fd5b818b0191508b601f8301126119d657600080fd5b8135818111156119e557600080fd5b8c60208260051b85010111156119fa57600080fd5b6020830196508095505060808b0135915080821115611a1857600080fd5b50611a258b828c01611909565b999c989b5096995094979396929594505050565b634e487b7160e01b600052602160045260246000fd5b60048110611a6d57634e487b7160e01b600052602160045260246000fd5b9052565b611a7c828251611a4f565b6020818101516001600160a01b03169083015260408082015190830152606090810151910152565b82815281516001600160a01b03166020820152610200810160208301516001600160a01b038116604084015250604083015163ffffffff81166060840152506060830151611af56080840182611a71565b506080830151610100611b0a81850183611a71565b60a085015161018085015260c085015164ffffffffff166101a085015260e08501516101c0850152909301516101e09092019190915292915050565b60006102a08284031215611b5957600080fd5b50919050565b600060208284031215611b7157600080fd5b5035919050565b634e487b7160e01b600052604160045260246000fd5b6040805190810167ffffffffffffffff81118282101715611bb157611bb1611b78565b60405290565b6040516102a0810167ffffffffffffffff81118282101715611bb157611bb1611b78565b604051601f8201601f1916810167ffffffffffffffff81118282101715611c0457611c04611b78565b604052919050565b60006020808385031215611c1f57600080fd5b823567ffffffffffffffff80821115611c3757600080fd5b818501915085601f830112611c4b57600080fd5b813581811115611c5d57611c5d611b78565b611c6f601f8201601f19168501611bdb565b91508082528684828501011115611c8557600080fd5b8084840185840137600090820190930192909252509392505050565b611cac828251611a4f565b6020810151611cc660208401826001600160a01b03169052565b5060408101516040830152606081015160608301526080810151611cee608084018215159052565b5060a081015160a083015260c0810151611d1360c08401826001600160a01b03169052565b5060e08181015190830152610100808201519083015261012080820151908301526101408082015164ffffffffff908116918401919091526101608083015163ffffffff169084015261018080830151909116908301526101a0808201516001600160a01b03908116918401919091526101c0808301518216908401526101e08083015190840152610200808301511515908401526102208083015190840152610240808301519084015261026080830151908401526102809182015116910152565b60006102c0611de58386611ca1565b6102a0830181905283519083015260208084015160406102e085015280516103008501819052908201906000906103208601905b80831015611e395783518252928401926001929092019190840190611e19565b50979650505050505050565b60008060408385031215611e5857600080fd5b50508035926020909101359150565b600060208284031215611e7957600080fd5b6040516020810181811067ffffffffffffffff82111715611e9c57611e9c611b78565b6040529135825250919050565b6004811061185657600080fd5b803561190481611ea9565b801515811461185657600080fd5b803561190481611ec1565b64ffffffffff8116811461185657600080fd5b803561190481611eda565b63ffffffff8116811461185657600080fd5b803561190481611ef8565b600067ffffffffffffffff821115611f2f57611f2f611b78565b5060051b60200190565b600060408284031215611f4b57600080fd5b611f53611b8e565b90508135815260208083013567ffffffffffffffff811115611f7457600080fd5b8301601f81018513611f8557600080fd5b8035611f98611f9382611f15565b611bdb565b81815260059190911b82018301908381019087831115611fb757600080fd5b928401925b82841015611fd557833582529284019290840190611fbc565b8085870152505050505092915050565b6000808284036102c0811215611ffa57600080fd5b6102a08082121561200a57600080fd5b612012611bb7565b915061201d85611eb6565b825261202b602086016118f9565b6020830152604085013560408301526060850135606083015261205060808601611ecf565b608083015260a085013560a083015261206b60c086016118f9565b60c083015260e085810135908301526101008086013590830152610120808601359083015261014061209e818701611eed565b908301526101606120b0868201611f0a565b908301526101806120c2868201611eed565b908301526101a06120d48682016118f9565b908301526101c06120e68682016118f9565b908301526101e08581013590830152610200612103818701611ecf565b908301526102208581013590830152610240808601359083015261026080860135908301526102806121368187016118f9565b9083015290925083013567ffffffffffffffff81111561215557600080fd5b61216185828601611f39565b9150509250929050565b60005b8381101561218657818101518382015260200161216e565b50506000910152565b600081518084526121a781602086016020860161216b565b601f01601f19169290920160200192915050565b602081526000610a4f602083018461218f565b6102a0810161074a8284611ca1565b6000602082840312156121ef57600080fd5b8135610a4f816118e4565b6102a081016122118261220c85611eb6565b611a4f565b61221d602084016118f9565b6001600160a01b038116602084015250604083013560408301526060830135606083015261224d60808401611ecf565b1515608083015260a0838101359083015261226a60c084016118f9565b6001600160a01b031660c083015260e08381013590830152610100808401359083015261012080840135908301526101406122a6818501611eed565b64ffffffffff16908301526101606122bf848201611f0a565b63ffffffff16908301526101806122d7848201611eed565b64ffffffffff16908301526101a06122f08482016118f9565b6001600160a01b0316908301526101c061230b8482016118f9565b6001600160a01b0316908301526101e08381013590830152610200612331818501611ecf565b1515908301526102208381013590830152610240808401359083015261026080840135908301526102806123668185016118f9565b6001600160a01b0316920191909152919050565b805161190481611ea9565b8051611904816118e4565b805161190481611ec1565b805161190481611eda565b805161190481611ef8565b6000604082840312156123c357600080fd5b6123cb611b8e565b90508151815260208083015167ffffffffffffffff8111156123ec57600080fd5b8301601f810185136123fd57600080fd5b805161240b611f9382611f15565b81815260059190911b8201830190838101908783111561242a57600080fd5b928401925b82841015611fd55783518252928401929084019061242f565b6000808284036102c081121561245d57600080fd5b6102a08082121561246d57600080fd5b612475611bb7565b91506124808561237a565b825261248e60208601612385565b602083015260408501516040830152606085015160608301526124b360808601612390565b608083015260a085015160a08301526124ce60c08601612385565b60c083015260e085810151908301526101008086015190830152610120808601519083015261014061250181870161239b565b908301526101606125138682016123a6565b9083015261018061252586820161239b565b908301526101a0612537868201612385565b908301526101c0612549868201612385565b908301526101e08581015190830152610200612566818701612390565b90830152610220858101519083015261024080860151908301526102608086015190830152610280612599818701612385565b9083015284015190925067ffffffffffffffff8111156125b857600080fd5b612161858286016123b1565b6001600160a01b039390931683526020830191909152604082015260600190565b828152600082516125fd81602085016020870161216b565b919091016020019392505050565b60006020828403121561261d57600080fd5b8151610a4f81611ec1565b634e487b7160e01b600052601160045260246000fd5b8082018082111561074a5761074a612628565b60006020828403121561266357600080fd5b8151610a4f816118e4565b60006020828403121561268057600080fd5b5051919050565b634e487b7160e01b600052603260045260246000fd5b6000600182016126af576126af612628565b5060010190565b8281526040602082015260006126cf604083018461218f565b949350505050565b600082516126e981846020870161216b565b919091019291505056fea26469706673582212205ee3c5ea8f3e460f171747972966f555d0afadd1a2547107b7a46e08c6bfd05b64736f6c63430008100033",
    "linkReferences": {}
  },
  "methodIdentifiers": {
    "DOMAIN_SEPARATOR()": "3644e515",
    "MULTIPROPOSAL_DOMAIN_SEPARATOR()": "abe93878",
    "MULTIPROPOSAL_TYPEHASH()": "d06a0d82",
    "PROPOSAL_TYPEHASH()": "853b94a0",
    "VERSION()": "ffa1ad74",
    "acceptProposal(address,uint256,bytes,bytes32[],bytes)": "01e83272",
    "config()": "79502c55",
    "creditUsed(bytes32)": "f0209ad6",
    "decodeProposalData(bytes)": "2d5d17fc",
    "encodeProposalData((uint8,address,bytes32,uint256,bool,bytes32,address,uint256,uint256,uint256,uint40,uint32,uint40,address,address,bytes32,bool,uint256,uint256,uint256,address),(uint256,bytes32[]))": "f1647874",
    "getMultiproposalHash((bytes32))": "829d3770",
    "getProposalHash((uint8,address,bytes32,uint256,bool,bytes32,address,uint256,uint256,uint256,uint40,uint32,uint40,address,address,bytes32,bool,uint256,uint256,uint256,address))": "1a787a48",
    "hub()": "365a86fc",
    "makeProposal((uint8,address,bytes32,uint256,bool,bytes32,address,uint256,uint256,uint256,uint40,uint32,uint40,address,address,bytes32,bool,uint256,uint256,uint256,address))": "18e639b9",
    "proposalsMade(bytes32)": "1da4c275",
    "revokeNonce(uint256,uint256)": "579bfc30",
    "revokedNonce()": "9788ad55"
  },
  "id": 89
}