{
  "abi": [
    {
      "inputs": [
        {
          "internalType": "address",
          "name": "_hub",
          "type": "address"
        },
        {
          "internalType": "address",
          "name": "_revokedNonce",
          "type": "address"
        },
        {
          "internalType": "address",
          "name": "_config",
          "type": "address"
        }
      ],
      "stateMutability": "nonpayable",
      "type": "constructor"
    },
    {
      "inputs": [
        {
          "internalType": "address",
          "name": "addr",
          "type": "address"
        }
      ],
      "name": "AcceptorIsProposer",
      "type": "error"
    },
    {
      "inputs": [
        {
          "internalType": "address",
          "name": "addr",
          "type": "address"
        },
        {
          "internalType": "bytes32",
          "name": "tag",
          "type": "bytes32"
        }
      ],
      "name": "AddressMissingHubTag",
      "type": "error"
    },
    {
      "inputs": [
        {
          "internalType": "uint256",
          "name": "used",
          "type": "uint256"
        },
        {
          "internalType": "uint256",
          "name": "limit",
          "type": "uint256"
        }
      ],
      "name": "AvailableCreditLimitExceeded",
      "type": "error"
    },
    {
      "inputs": [
        {
          "internalType": "address",
          "name": "addr",
          "type": "address"
        }
      ],
      "name": "CallerIsNotStatedProposer",
      "type": "error"
    },
    {
      "inputs": [
        {
          "internalType": "address",
          "name": "current",
          "type": "address"
        },
        {
          "internalType": "address",
          "name": "allowed",
          "type": "address"
        }
      ],
      "name": "CallerNotAllowedAcceptor",
      "type": "error"
    },
    {
      "inputs": [
        {
          "internalType": "address",
          "name": "caller",
          "type": "address"
        },
        {
          "internalType": "address",
          "name": "loanContract",
          "type": "address"
        }
      ],
      "name": "CallerNotLoanContract",
      "type": "error"
    },
    {
      "inputs": [
        {
          "internalType": "uint256",
          "name": "current",
          "type": "uint256"
        },
        {
          "internalType": "uint256",
          "name": "expiration",
          "type": "uint256"
        }
      ],
      "name": "Expired",
      "type": "error"
    },
    {
      "inputs": [
        {
          "internalType": "bytes32",
          "name": "current",
          "type": "bytes32"
        },
        {
          "internalType": "bytes32",
          "name": "proposed",
          "type": "bytes32"
        }
      ],
      "name": "InvalidCollateralStateFingerprint",
      "type": "error"
    },
    {
      "inputs": [
        {
          "internalType": "uint256",
          "name": "refinancingLoanId",
          "type": "uint256"
        }
      ],
      "name": "InvalidRefinancingLoanId",
      "type": "error"
    },
    {
      "inputs": [
        {
          "internalType": "address",
          "name": "signer",
          "type": "address"
        },
        {
          "internalType": "bytes32",
          "name": "digest",
          "type": "bytes32"
        }
      ],
      "name": "InvalidSignature",
      "type": "error"
    },
    {
      "inputs": [
        {
          "internalType": "uint256",
          "name": "length",
          "type": "uint256"
        }
      ],
      "name": "InvalidSignatureLength",
      "type": "error"
    },
    {
      "inputs": [],
      "name": "MissingStateFingerprintComputer",
      "type": "error"
    },
    {
      "inputs": [
        {
          "internalType": "address",
          "name": "addr",
          "type": "address"
        },
        {
          "internalType": "uint256",
          "name": "nonceSpace",
          "type": "uint256"
        },
        {
          "internalType": "uint256",
          "name": "nonce",
          "type": "uint256"
        }
      ],
      "name": "NonceNotUsable",
      "type": "error"
    },
    {
      "anonymous": false,
      "inputs": [
        {
          "indexed": true,
          "internalType": "bytes32",
          "name": "proposalHash",
          "type": "bytes32"
        },
        {
          "indexed": true,
          "internalType": "address",
          "name": "proposer",
          "type": "address"
        },
        {
          "components": [
            {
              "internalType": "enum MultiToken.Category",
              "name": "collateralCategory",
              "type": "uint8"
            },
            {
              "internalType": "address",
              "name": "collateralAddress",
              "type": "address"
            },
            {
              "internalType": "uint256",
              "name": "collateralId",
              "type": "uint256"
            },
            {
              "internalType": "uint256",
              "name": "collateralAmount",
              "type": "uint256"
            },
            {
              "internalType": "bool",
              "name": "checkCollateralStateFingerprint",
              "type": "bool"
            },
            {
              "internalType": "bytes32",
              "name": "collateralStateFingerprint",
              "type": "bytes32"
            },
            {
              "internalType": "address",
              "name": "creditAddress",
              "type": "address"
            },
            {
              "internalType": "uint256",
              "name": "creditAmount",
              "type": "uint256"
            },
            {
              "internalType": "uint256",
              "name": "availableCreditLimit",
              "type": "uint256"
            },
            {
              "internalType": "uint256",
              "name": "fixedInterestAmount",
              "type": "uint256"
            },
            {
              "internalType": "uint40",
              "name": "accruingInterestAPR",
              "type": "uint40"
            },
            {
              "internalType": "uint32",
              "name": "duration",
              "type": "uint32"
            },
            {
              "internalType": "uint40",
              "name": "expiration",
              "type": "uint40"
            },
            {
              "internalType": "address",
              "name": "allowedAcceptor",
              "type": "address"
            },
            {
              "internalType": "address",
              "name": "proposer",
              "type": "address"
            },
            {
              "internalType": "bytes32",
              "name": "proposerSpecHash",
              "type": "bytes32"
            },
            {
              "internalType": "bool",
              "name": "isOffer",
              "type": "bool"
            },
            {
              "internalType": "uint256",
              "name": "refinancingLoanId",
              "type": "uint256"
            },
            {
              "internalType": "uint256",
              "name": "nonceSpace",
              "type": "uint256"
            },
            {
              "internalType": "uint256",
              "name": "nonce",
              "type": "uint256"
            },
            {
              "internalType": "address",
              "name": "loanContract",
              "type": "address"
            }
          ],
          "indexed": false,
          "internalType": "struct PWNSimpleLoanSimpleProposal.Proposal",
          "name": "proposal",
          "type": "tuple"
        }
      ],
      "name": "ProposalMade",
      "type": "event"
    },
    {
      "inputs": [],
      "name": "DOMAIN_SEPARATOR",
      "outputs": [
        {
          "internalType": "bytes32",
          "name": "",
          "type": "bytes32"
        }
      ],
      "stateMutability": "view",
      "type": "function"
    },
    {
      "inputs": [],
      "name": "MULTIPROPOSAL_DOMAIN_SEPARATOR",
      "outputs": [
        {
          "internalType": "bytes32",
          "name": "",
          "type": "bytes32"
        }
      ],
      "stateMutability": "view",
      "type": "function"
    },
    {
      "inputs": [],
      "name": "MULTIPROPOSAL_TYPEHASH",
      "outputs": [
        {
          "internalType": "bytes32",
          "name": "",
          "type": "bytes32"
        }
      ],
      "stateMutability": "view",
      "type": "function"
    },
    {
      "inputs": [],
      "name": "PROPOSAL_TYPEHASH",
      "outputs": [
        {
          "internalType": "bytes32",
          "name": "",
          "type": "bytes32"
        }
      ],
      "stateMutability": "view",
      "type": "function"
    },
    {
      "inputs": [],
      "name": "VERSION",
      "outputs": [
        {
          "internalType": "string",
          "name": "",
          "type": "string"
        }
      ],
      "stateMutability": "view",
      "type": "function"
    },
    {
      "inputs": [
        {
          "internalType": "address",
          "name": "acceptor",
          "type": "address"
        },
        {
          "internalType": "uint256",
          "name": "refinancingLoanId",
          "type": "uint256"
        },
        {
          "internalType": "bytes",
          "name": "proposalData",
          "type": "bytes"
        },
        {
          "internalType": "bytes32[]",
          "name": "proposalInclusionProof",
          "type": "bytes32[]"
        },
        {
          "internalType": "bytes",
          "name": "signature",
          "type": "bytes"
        }
      ],
      "name": "acceptProposal",
      "outputs": [
        {
          "internalType": "bytes32",
          "name": "proposalHash",
          "type": "bytes32"
        },
        {
          "components": [
            {
              "internalType": "address",
              "name": "lender",
              "type": "address"
            },
            {
              "internalType": "address",
              "name": "borrower",
              "type": "address"
            },
            {
              "internalType": "uint32",
              "name": "duration",
              "type": "uint32"
            },
            {
              "components": [
                {
                  "internalType": "enum MultiToken.Category",
                  "name": "category",
                  "type": "uint8"
                },
                {
                  "internalType": "address",
                  "name": "assetAddress",
                  "type": "address"
                },
                {
                  "internalType": "uint256",
                  "name": "id",
                  "type": "uint256"
                },
                {
                  "internalType": "uint256",
                  "name": "amount",
                  "type": "uint256"
                }
              ],
              "internalType": "struct MultiToken.Asset",
              "name": "collateral",
              "type": "tuple"
            },
            {
              "components": [
                {
                  "internalType": "enum MultiToken.Category",
                  "name": "category",
                  "type": "uint8"
                },
                {
                  "internalType": "address",
                  "name": "assetAddress",
                  "type": "address"
                },
                {
                  "internalType": "uint256",
                  "name": "id",
                  "type": "uint256"
                },
                {
                  "internalType": "uint256",
                  "name": "amount",
                  "type": "uint256"
                }
              ],
              "internalType": "struct MultiToken.Asset",
              "name": "credit",
              "type": "tuple"
            },
            {
              "internalType": "uint256",
              "name": "fixedInterestAmount",
              "type": "uint256"
            },
            {
              "internalType": "uint40",
              "name": "accruingInterestAPR",
              "type": "uint40"
            },
            {
              "internalType": "bytes32",
              "name": "lenderSpecHash",
              "type": "bytes32"
            },
            {
              "internalType": "bytes32",
              "name": "borrowerSpecHash",
              "type": "bytes32"
            }
          ],
          "internalType": "struct PWNSimpleLoan.Terms",
          "name": "loanTerms",
          "type": "tuple"
        }
      ],
      "stateMutability": "nonpayable",
      "type": "function"
    },
    {
      "inputs": [],
      "name": "config",
      "outputs": [
        {
          "internalType": "contract PWNConfig",
          "name": "",
          "type": "address"
        }
      ],
      "stateMutability": "view",
      "type": "function"
    },
    {
      "inputs": [
        {
          "internalType": "bytes32",
          "name": "",
          "type": "bytes32"
        }
      ],
      "name": "creditUsed",
      "outputs": [
        {
          "internalType": "uint256",
          "name": "",
          "type": "uint256"
        }
      ],
      "stateMutability": "view",
      "type": "function"
    },
    {
      "inputs": [
        {
          "internalType": "bytes",
          "name": "proposalData",
          "type": "bytes"
        }
      ],
      "name": "decodeProposalData",
      "outputs": [
        {
          "components": [
            {
              "internalType": "enum MultiToken.Category",
              "name": "collateralCategory",
              "type": "uint8"
            },
            {
              "internalType": "address",
              "name": "collateralAddress",
              "type": "address"
            },
            {
              "internalType": "uint256",
              "name": "collateralId",
              "type": "uint256"
            },
            {
              "internalType": "uint256",
              "name": "collateralAmount",
              "type": "uint256"
            },
            {
              "internalType": "bool",
              "name": "checkCollateralStateFingerprint",
              "type": "bool"
            },
            {
              "internalType": "bytes32",
              "name": "collateralStateFingerprint",
              "type": "bytes32"
            },
            {
              "internalType": "address",
              "name": "creditAddress",
              "type": "address"
            },
            {
              "internalType": "uint256",
              "name": "creditAmount",
              "type": "uint256"
            },
            {
              "internalType": "uint256",
              "name": "availableCreditLimit",
              "type": "uint256"
            },
            {
              "internalType": "uint256",
              "name": "fixedInterestAmount",
              "type": "uint256"
            },
            {
              "internalType": "uint40",
              "name": "accruingInterestAPR",
              "type": "uint40"
            },
            {
              "internalType": "uint32",
              "name": "duration",
              "type": "uint32"
            },
            {
              "internalType": "uint40",
              "name": "expiration",
              "type": "uint40"
            },
            {
              "internalType": "address",
              "name": "allowedAcceptor",
              "type": "address"
            },
            {
              "internalType": "address",
              "name": "proposer",
              "type": "address"
            },
            {
              "internalType": "bytes32",
              "name": "proposerSpecHash",
              "type": "bytes32"
            },
            {
              "internalType": "bool",
              "name": "isOffer",
              "type": "bool"
            },
            {
              "internalType": "uint256",
              "name": "refinancingLoanId",
              "type": "uint256"
            },
            {
              "internalType": "uint256",
              "name": "nonceSpace",
              "type": "uint256"
            },
            {
              "internalType": "uint256",
              "name": "nonce",
              "type": "uint256"
            },
            {
              "internalType": "address",
              "name": "loanContract",
              "type": "address"
            }
          ],
          "internalType": "struct PWNSimpleLoanSimpleProposal.Proposal",
          "name": "",
          "type": "tuple"
        }
      ],
      "stateMutability": "pure",
      "type": "function"
    },
    {
      "inputs": [
        {
          "components": [
            {
              "internalType": "enum MultiToken.Category",
              "name": "collateralCategory",
              "type": "uint8"
            },
            {
              "internalType": "address",
              "name": "collateralAddress",
              "type": "address"
            },
            {
              "internalType": "uint256",
              "name": "collateralId",
              "type": "uint256"
            },
            {
              "internalType": "uint256",
              "name": "collateralAmount",
              "type": "uint256"
            },
            {
              "internalType": "bool",
              "name": "checkCollateralStateFingerprint",
              "type": "bool"
            },
            {
              "internalType": "bytes32",
              "name": "collateralStateFingerprint",
              "type": "bytes32"
            },
            {
              "internalType": "address",
              "name": "creditAddress",
              "type": "address"
            },
            {
              "internalType": "uint256",
              "name": "creditAmount",
              "type": "uint256"
            },
            {
              "internalType": "uint256",
              "name": "availableCreditLimit",
              "type": "uint256"
            },
            {
              "internalType": "uint256",
              "name": "fixedInterestAmount",
              "type": "uint256"
            },
            {
              "internalType": "uint40",
              "name": "accruingInterestAPR",
              "type": "uint40"
            },
            {
              "internalType": "uint32",
              "name": "duration",
              "type": "uint32"
            },
            {
              "internalType": "uint40",
              "name": "expiration",
              "type": "uint40"
            },
            {
              "internalType": "address",
              "name": "allowedAcceptor",
              "type": "address"
            },
            {
              "internalType": "address",
              "name": "proposer",
              "type": "address"
            },
            {
              "internalType": "bytes32",
              "name": "proposerSpecHash",
              "type": "bytes32"
            },
            {
              "internalType": "bool",
              "name": "isOffer",
              "type": "bool"
            },
            {
              "internalType": "uint256",
              "name": "refinancingLoanId",
              "type": "uint256"
            },
            {
              "internalType": "uint256",
              "name": "nonceSpace",
              "type": "uint256"
            },
            {
              "internalType": "uint256",
              "name": "nonce",
              "type": "uint256"
            },
            {
              "internalType": "address",
              "name": "loanContract",
              "type": "address"
            }
          ],
          "internalType": "struct PWNSimpleLoanSimpleProposal.Proposal",
          "name": "proposal",
          "type": "tuple"
        }
      ],
      "name": "encodeProposalData",
      "outputs": [
        {
          "internalType": "bytes",
          "name": "",
          "type": "bytes"
        }
      ],
      "stateMutability": "pure",
      "type": "function"
    },
    {
      "inputs": [
        {
          "components": [
            {
              "internalType": "bytes32",
              "name": "multiproposalMerkleRoot",
              "type": "bytes32"
            }
          ],
          "internalType": "struct PWNSimpleLoanProposal.Multiproposal",
          "name": "multiproposal",
          "type": "tuple"
        }
      ],
      "name": "getMultiproposalHash",
      "outputs": [
        {
          "internalType": "bytes32",
          "name": "",
          "type": "bytes32"
        }
      ],
      "stateMutability": "view",
      "type": "function"
    },
    {
      "inputs": [
        {
          "components": [
            {
              "internalType": "enum MultiToken.Category",
              "name": "collateralCategory",
              "type": "uint8"
            },
            {
              "internalType": "address",
              "name": "collateralAddress",
              "type": "address"
            },
            {
              "internalType": "uint256",
              "name": "collateralId",
              "type": "uint256"
            },
            {
              "internalType": "uint256",
              "name": "collateralAmount",
              "type": "uint256"
            },
            {
              "internalType": "bool",
              "name": "checkCollateralStateFingerprint",
              "type": "bool"
            },
            {
              "internalType": "bytes32",
              "name": "collateralStateFingerprint",
              "type": "bytes32"
            },
            {
              "internalType": "address",
              "name": "creditAddress",
              "type": "address"
            },
            {
              "internalType": "uint256",
              "name": "creditAmount",
              "type": "uint256"
            },
            {
              "internalType": "uint256",
              "name": "availableCreditLimit",
              "type": "uint256"
            },
            {
              "internalType": "uint256",
              "name": "fixedInterestAmount",
              "type": "uint256"
            },
            {
              "internalType": "uint40",
              "name": "accruingInterestAPR",
              "type": "uint40"
            },
            {
              "internalType": "uint32",
              "name": "duration",
              "type": "uint32"
            },
            {
              "internalType": "uint40",
              "name": "expiration",
              "type": "uint40"
            },
            {
              "internalType": "address",
              "name": "allowedAcceptor",
              "type": "address"
            },
            {
              "internalType": "address",
              "name": "proposer",
              "type": "address"
            },
            {
              "internalType": "bytes32",
              "name": "proposerSpecHash",
              "type": "bytes32"
            },
            {
              "internalType": "bool",
              "name": "isOffer",
              "type": "bool"
            },
            {
              "internalType": "uint256",
              "name": "refinancingLoanId",
              "type": "uint256"
            },
            {
              "internalType": "uint256",
              "name": "nonceSpace",
              "type": "uint256"
            },
            {
              "internalType": "uint256",
              "name": "nonce",
              "type": "uint256"
            },
            {
              "internalType": "address",
              "name": "loanContract",
              "type": "address"
            }
          ],
          "internalType": "struct PWNSimpleLoanSimpleProposal.Proposal",
          "name": "proposal",
          "type": "tuple"
        }
      ],
      "name": "getProposalHash",
      "outputs": [
        {
          "internalType": "bytes32",
          "name": "",
          "type": "bytes32"
        }
      ],
      "stateMutability": "view",
      "type": "function"
    },
    {
      "inputs": [],
      "name": "hub",
      "outputs": [
        {
          "internalType": "contract PWNHub",
          "name": "",
          "type": "address"
        }
      ],
      "stateMutability": "view",
      "type": "function"
    },
    {
      "inputs": [
        {
          "components": [
            {
              "internalType": "enum MultiToken.Category",
              "name": "collateralCategory",
              "type": "uint8"
            },
            {
              "internalType": "address",
              "name": "collateralAddress",
              "type": "address"
            },
            {
              "internalType": "uint256",
              "name": "collateralId",
              "type": "uint256"
            },
            {
              "internalType": "uint256",
              "name": "collateralAmount",
              "type": "uint256"
            },
            {
              "internalType": "bool",
              "name": "checkCollateralStateFingerprint",
              "type": "bool"
            },
            {
              "internalType": "bytes32",
              "name": "collateralStateFingerprint",
              "type": "bytes32"
            },
            {
              "internalType": "address",
              "name": "creditAddress",
              "type": "address"
            },
            {
              "internalType": "uint256",
              "name": "creditAmount",
              "type": "uint256"
            },
            {
              "internalType": "uint256",
              "name": "availableCreditLimit",
              "type": "uint256"
            },
            {
              "internalType": "uint256",
              "name": "fixedInterestAmount",
              "type": "uint256"
            },
            {
              "internalType": "uint40",
              "name": "accruingInterestAPR",
              "type": "uint40"
            },
            {
              "internalType": "uint32",
              "name": "duration",
              "type": "uint32"
            },
            {
              "internalType": "uint40",
              "name": "expiration",
              "type": "uint40"
            },
            {
              "internalType": "address",
              "name": "allowedAcceptor",
              "type": "address"
            },
            {
              "internalType": "address",
              "name": "proposer",
              "type": "address"
            },
            {
              "internalType": "bytes32",
              "name": "proposerSpecHash",
              "type": "bytes32"
            },
            {
              "internalType": "bool",
              "name": "isOffer",
              "type": "bool"
            },
            {
              "internalType": "uint256",
              "name": "refinancingLoanId",
              "type": "uint256"
            },
            {
              "internalType": "uint256",
              "name": "nonceSpace",
              "type": "uint256"
            },
            {
              "internalType": "uint256",
              "name": "nonce",
              "type": "uint256"
            },
            {
              "internalType": "address",
              "name": "loanContract",
              "type": "address"
            }
          ],
          "internalType": "struct PWNSimpleLoanSimpleProposal.Proposal",
          "name": "proposal",
          "type": "tuple"
        }
      ],
      "name": "makeProposal",
      "outputs": [
        {
          "internalType": "bytes32",
          "name": "proposalHash",
          "type": "bytes32"
        }
      ],
      "stateMutability": "nonpayable",
      "type": "function"
    },
    {
      "inputs": [
        {
          "internalType": "bytes32",
          "name": "",
          "type": "bytes32"
        }
      ],
      "name": "proposalsMade",
      "outputs": [
        {
          "internalType": "bool",
          "name": "",
          "type": "bool"
        }
      ],
      "stateMutability": "view",
      "type": "function"
    },
    {
      "inputs": [
        {
          "internalType": "uint256",
          "name": "nonceSpace",
          "type": "uint256"
        },
        {
          "internalType": "uint256",
          "name": "nonce",
          "type": "uint256"
        }
      ],
      "name": "revokeNonce",
      "outputs": [],
      "stateMutability": "nonpayable",
      "type": "function"
    },
    {
      "inputs": [],
      "name": "revokedNonce",
      "outputs": [
        {
          "internalType": "contract PWNRevokedNonce",
          "name": "",
          "type": "address"
        }
      ],
      "stateMutability": "view",
      "type": "function"
    }
  ],
  "bytecode": {
    "object": "0x6101206040523480156200001257600080fd5b5060405162002686380380620026868339810160408190526200003591620001ea565b604080518082018252601b81527f50574e53696d706c654c6f616e53696d706c6550726f706f73616c000000000060208083019190915282518084018452600381526218971960e91b818301526001600160a01b0380881660c05280871660e052851661010052925186938693869390927f8b73c3c69bb8fe3d512ecc4cf759cc79239f7b179b0ffacaa9a75d522b39400f91620000d69185910162000234565b6040516020818303038152906040528051906020012082604051602001620000ff919062000234565b60408051601f1981840301815282825280516020918201209083019490945281019190915260608101919091524660808201523060a082015260c00160408051808303601f1901815282825280516020918201206080527fb2178a58fb1eefb359ecfdd57bb19c0bdd0f4e6eed8547f46600e500ed111af3908301527fb63b40822cc79278afd8d1ce1a8006a4a298ec829d4d1610b69b2a4830c232709082015260600160408051601f19818403018152919052805160209091012060a05250620002659650505050505050565b80516001600160a01b0381168114620001e557600080fd5b919050565b6000806000606084860312156200020057600080fd5b6200020b84620001cd565b92506200021b60208501620001cd565b91506200022b60408501620001cd565b90509250925092565b6000825160005b818110156200025757602081860181015185830152016200023b565b506000920191825250919050565b60805160a05160c05160e051610100516123ab620002db6000396000818161024e0152610ff40152600081816102c20152818161072b01528181610d4e0152610e950152600081816101c70152610a430152600081816102e901526107c7015260008181610192015261091701526123ab6000f3fe608060405234801561001057600080fd5b506004361061010b5760003560e01c806379502c55116100a25780639788ad55116100715780639788ad55146102bd578063abe93878146102e4578063d06a0d821461030b578063f0209ad614610332578063ffa1ad741461035257600080fd5b806379502c5514610249578063829d37701461027057806383f19a0b14610283578063853b94a01461029657600080fd5b8063365a86fc116100de578063365a86fc146101c2578063382c0cdd14610201578063579bfc30146102145780635b3275e21461022957600080fd5b806301e83272146101105780631da4c2751461013a5780632d5d17fc1461016d5780633644e5151461018d575b600080fd5b61012361011e36600461185b565b610374565b6040516101319291906119ad565b60405180910390f35b61015d610148366004611a4f565b60006020819052908152604090205460ff1681565b6040519015158152602001610131565b61018061017b366004611aa8565b61061c565b6040516101319190611b59565b6101b47f000000000000000000000000000000000000000000000000000000000000000081565b604051908152602001610131565b6101e97f000000000000000000000000000000000000000000000000000000000000000081565b6040516001600160a01b039091168152602001610131565b6101b461020f366004611ca2565b6106dd565b610227610222366004611cbb565b610714565b005b61023c610237366004611d49565b61079a565b6040516101319190611ee1565b6101e97f000000000000000000000000000000000000000000000000000000000000000081565b6101b461027e366004611ef4565b6107c3565b6101b4610291366004611ca2565b610893565b6101b47f2b5f73ebb16e8e796c727d020a1a8f0190005ba40559ee87674fb8de78939b1a81565b6101e97f000000000000000000000000000000000000000000000000000000000000000081565b6101b47f000000000000000000000000000000000000000000000000000000000000000081565b6101b47f73af92d8ed4d3261ba61cd686d2f8a9cceb2563cc7c4c5355eb121316fc5358d81565b6101b4610340366004611a4f565b60016020526000908152604090205481565b61023c6040518060400160405280600381526020016218971960e91b81525081565b600061037e611762565b60006103bf89898080601f01602080910402602001604051908101604052809392919081815260200183838082843760009201919091525061061c92505050565b905061040a7f2b5f73ebb16e8e796c727d020a1a8f0190005ba40559ee87674fb8de78939b1a826040516020016103f69190611b59565b604051602081830303815290604052610913565b92506104e98b8b858a8a8a8a604051806101c001604052808a602001516001600160a01b031681526020018a6040015181526020018a60800151151581526020018a60a0015181526020018a60e0015181526020018a610100015181526020018a610180015164ffffffffff1681526020018a6101a001516001600160a01b031681526020018a6101c001516001600160a01b031681526020018a6102000151151581526020018a610220015181526020018a610240015181526020018a610260015181526020018a61028001516001600160a01b03168152506109a4565b604051806101200160405280826102000151610505578c61050c565b826101c001515b6001600160a01b0316815260200182610200015161052f57826101c00151610531565b8c5b6001600160a01b0316815260200182610160015163ffffffff16815260200160405180608001604052808460000151600381111561057157610571611942565b815260200184602001516001600160a01b0316815260200184604001518152602001846060015181525081526020016105b28360c001518460e001516111a7565b8152602001826101200151815260200182610140015164ffffffffff1681526020018261020001516105e55760006105ec565b826101e001515b815260200182610200015161060657826101e00151610609565b60005b8152509150509850989650505050505050565b604080516102a08101825260008082526020808301829052928201819052606082018190526080820181905260a0820181905260c0820181905260e08201819052610100820181905261012082018190526101408201819052610160820181905261018082018190526101a082018190526101c082018190526101e082018190526102008201819052610220820181905261024082018190526102608201819052610280820152825190916106d79184018101908401611f6d565b92915050565b60006106d77f2b5f73ebb16e8e796c727d020a1a8f0190005ba40559ee87674fb8de78939b1a836040516020016103f691906120aa565b60405163f79924a960e01b81526001600160a01b037f0000000000000000000000000000000000000000000000000000000000000000169063f79924a99061076490339086908690600401612229565b600060405180830381600087803b15801561077e57600080fd5b505af1158015610792573d6000803e3d6000fd5b505050505050565b6060816040516020016107ad9190611b59565b6040516020818303038152906040529050919050565b60007f00000000000000000000000000000000000000000000000000000000000000007f73af92d8ed4d3261ba61cd686d2f8a9cceb2563cc7c4c5355eb121316fc5358d8360405160200161081b9151815260200190565b60408051601f1981840301815290829052610839929160200161224a565b6040516020818303038152906040528051906020012060405160200161087692919061190160f01b81526002810192909252602282015260420190565b604051602081830303815290604052805190602001209050919050565b600061089e826106dd565b90506108bb816108b66101e085016101c08601612270565b6111df565b6108cd6101e083016101c08401612270565b6001600160a01b0316817fe228ae64deb022978896dc961784e5e37437005800b772804f5cf7d66c76f4648460405161090691906120aa565b60405180910390a3919050565b60007f0000000000000000000000000000000000000000000000000000000000000000838360405160200161094992919061224a565b6040516020818303038152906040528051906020012060405160200161098692919061190160f01b81526002810192909252602282015260420190565b60405160208183030381529060405280519060200120905092915050565b806101a001516001600160a01b0316336001600160a01b0316146109f8576101a081015160405163a4ce7f2960e01b81523360048201526001600160a01b0390911660248201526044015b60405180910390fd5b6101a081015160405163680cabbd60e11b81526001600160a01b0391821660048201527f9e56ea094d7a53440eef11fa42b63159fbf703b4ee579494a6ae85afc560359460248201527f00000000000000000000000000000000000000000000000000000000000000009091169063d019577a90604401602060405180830381865afa158015610a8c573d6000803e3d6000fd5b505050506040513d601f19601f82011682018060405250810190610ab0919061228d565b610b05576101a0810151604051630b92eb2560e11b81526001600160a01b0390911660048201527f9e56ea094d7a53440eef11fa42b63159fbf703b4ee579494a6ae85afc560359460248201526044016109ef565b6000849003610ba55760008681526020819052604090205460ff16610ba057610b6a8161010001518785858080601f01602080910402602001604051908101604052809392919081815260200183838082843760009201919091525061122f92505050565b610ba0576101008101516040516301d2d55760e31b81526001600160a01b039091166004820152602481018790526044016109ef565b610c47565b6000610bc76040518060200160405280610bc089898c6113d6565b90526107c3565b9050610c0f8261010001518286868080601f01602080910402602001604051908101604052809392919081815260200183838082843760009201919091525061122f92505050565b610c45576101008201516040516301d2d55760e31b81526001600160a01b039091166004820152602481018290526044016109ef565b505b876001600160a01b03168161010001516001600160a01b031603610c89576040516326ab1a1d60e11b81526001600160a01b03891660048201526024016109ef565b86600003610cc35761014081015115610cbe57806101400151604051637a4b6f9760e11b81526004016109ef91815260200190565b610d0c565b8061014001518714610d0c57610140810151151580610ce55750806101200151155b15610d0c57806101400151604051637a4b6f9760e11b81526004016109ef91815260200190565b8060c0015164ffffffffff164210610d4c5760c081015160405163aa2fd92560e01b815242600482015264ffffffffff90911660248201526044016109ef565b7f00000000000000000000000000000000000000000000000000000000000000006001600160a01b031663f291a62c8261010001518361016001518461018001516040518463ffffffff1660e01b8152600401610dab93929190612229565b602060405180830381865afa158015610dc8573d6000803e3d6000fd5b505050506040513d601f19601f82011682018060405250810190610dec919061228d565b610e1e57806101000151816101600151826101800151604051632108c30560e11b81526004016109ef93929190612229565b60e08101516001600160a01b031615801590610e5057508060e001516001600160a01b0316886001600160a01b031614155b15610e875760e0810151604051636075c95560e11b81526001600160a01b03808b16600483015290911660248201526044016109ef565b8060a00151600003610f29577f00000000000000000000000000000000000000000000000000000000000000006001600160a01b031663f79924a98261010001518361016001518461018001516040518463ffffffff1660e01b8152600401610ef293929190612229565b600060405180830381600087803b158015610f0c57600080fd5b505af1158015610f20573d6000803e3d6000fd5b50505050610fc4565b60a08101516080820151600088815260016020526040902054610f4c91906122c0565b11610f7f57608081015160008781526001602052604081208054909190610f749084906122c0565b90915550610fc49050565b6080810151600087815260016020526040902054610f9d91906122c0565b60a082015160405163231795cb60e21b8152600481019290925260248201526044016109ef565b80604001511561119d578051604051630b7e49eb60e21b81526001600160a01b03918216600482015260009182917f000000000000000000000000000000000000000000000000000000000000000090911690632df927ac90602401602060405180830381865afa15801561103d573d6000803e3d6000fd5b505050506040513d601f19601f8201168201806040525081019061106191906122d3565b90506001600160a01b038116156110ff578251602084015160405163ec2ce34560e01b81526001600160a01b0384169263ec2ce345926110b7926004016001600160a01b03929092168252602082015260400190565b602060405180830381865afa1580156110d4573d6000803e3d6000fd5b505050506040513d601f19601f820116820180604052508101906110f891906122f0565b9150611166565b82516111129063f511231560e01b611422565b1561114d578251602084015160405163f511231560e01b81526001600160a01b039092169163f5112315916110b79160040190815260200190565b60405163f3c0936360e01b815260040160405180910390fd5b8183606001511461119a576060830151604051633840fc0160e01b81526109ef918491600401918252602082015260400190565b50505b5050505050505050565b6111af6117bb565b506040805160808101825260008082526001600160a01b0394909416602082015290810192909252606082015290565b336001600160a01b0382161461121357604051631144200360e31b81526001600160a01b03821660048201526024016109ef565b506000908152602081905260409020805460ff19166001179055565b60006001600160a01b0384163b1561132a57600080856001600160a01b0316631626ba7e60e01b8686604051602401611269929190612309565b60408051601f198184030181529181526020820180516001600160e01b03166001600160e01b03199094169390931790925290516112a7919061232a565b600060405180830381855afa9150503d80600081146112e2576040519150601f19603f3d011682016040523d82523d6000602084013e6112e7565b606091505b50915091508180156112fa575080516020145b801561132157508051630b135d3f60e11b9061131f90830160209081019084016122f0565b145b925050506113cf565b600080600084516041036113525750505060208201516040830151606084015160001a6113a9565b845160400361138b57602085015160408601519093506001600160ff1b038116925061138360ff82901c601b6122c0565b9150506113a9565b845160405163058676ad60e31b81526004016109ef91815260200190565b6113b58682858561143e565b6001600160a01b0316876001600160a01b03161493505050505b9392505050565b600081815b8481101561141957611405828787848181106113f9576113f9612346565b90506020020135611466565b9150806114118161235c565b9150506113db565b50949350505050565b600061142d83611495565b80156113cf57506113cf83836114c8565b600080600061144f87878787611551565b9150915061145c81611615565b5095945050505050565b60008183106114825760008281526020849052604090206113cf565b60008381526020839052604090206113cf565b60006114a8826301ffc9a760e01b6114c8565b80156106d757506114c1826001600160e01b03196114c8565b1592915050565b604080516001600160e01b03198316602480830191909152825180830390910181526044909101909152602080820180516001600160e01b03166301ffc9a760e01b178152825160009392849283928392918391908a617530fa92503d9150600051905082801561153a575060208210155b80156115465750600081115b979650505050505050565b6000807f7fffffffffffffffffffffffffffffff5d576e7357a4501ddfe92f46681b20a0831115611588575060009050600361160c565b6040805160008082526020820180845289905260ff881692820192909252606081018690526080810185905260019060a0016020604051602081039080840390855afa1580156115dc573d6000803e3d6000fd5b5050604051601f1901519150506001600160a01b0381166116055760006001925092505061160c565b9150600090505b94509492505050565b600081600481111561162957611629611942565b036116315750565b600181600481111561164557611645611942565b036116925760405162461bcd60e51b815260206004820152601860248201527f45434453413a20696e76616c6964207369676e6174757265000000000000000060448201526064016109ef565b60028160048111156116a6576116a6611942565b036116f35760405162461bcd60e51b815260206004820152601f60248201527f45434453413a20696e76616c6964207369676e6174757265206c656e6774680060448201526064016109ef565b600381600481111561170757611707611942565b0361175f5760405162461bcd60e51b815260206004820152602260248201527f45434453413a20696e76616c6964207369676e6174757265202773272076616c604482015261756560f01b60648201526084016109ef565b50565b6040805161012081018252600080825260208201819052918101919091526060810161178c6117bb565b81526020016117996117bb565b8152600060208201819052604082018190526060820181905260809091015290565b6040805160808101909152806000815260200160006001600160a01b0316815260200160008152602001600081525090565b6001600160a01b038116811461175f57600080fd5b803561180d816117ed565b919050565b60008083601f84011261182457600080fd5b50813567ffffffffffffffff81111561183c57600080fd5b60208301915083602082850101111561185457600080fd5b9250929050565b60008060008060008060008060a0898b03121561187757600080fd5b8835611882816117ed565b975060208901359650604089013567ffffffffffffffff808211156118a657600080fd5b6118b28c838d01611812565b909850965060608b01359150808211156118cb57600080fd5b818b0191508b601f8301126118df57600080fd5b8135818111156118ee57600080fd5b8c60208260051b850101111561190357600080fd5b6020830196508095505060808b013591508082111561192157600080fd5b5061192e8b828c01611812565b999c989b5096995094979396929594505050565b634e487b7160e01b600052602160045260246000fd5b6004811061197657634e487b7160e01b600052602160045260246000fd5b9052565b611985828251611958565b6020818101516001600160a01b03169083015260408082015190830152606090810151910152565b82815281516001600160a01b03166020820152610200810160208301516001600160a01b038116604084015250604083015163ffffffff811660608401525060608301516119fe608084018261197a565b506080830151610100611a138185018361197a565b60a085015161018085015260c085015164ffffffffff166101a085015260e08501516101c0850152909301516101e09092019190915292915050565b600060208284031215611a6157600080fd5b5035919050565b634e487b7160e01b600052604160045260246000fd5b6040516102a0810167ffffffffffffffff81118282101715611aa257611aa2611a68565b60405290565b600060208284031215611aba57600080fd5b813567ffffffffffffffff80821115611ad257600080fd5b818401915084601f830112611ae657600080fd5b813581811115611af857611af8611a68565b604051601f8201601f19908116603f01168101908382118183101715611b2057611b20611a68565b81604052828152876020848701011115611b3957600080fd5b826020860160208301376000928101602001929092525095945050505050565b60006102a082019050611b6d828451611958565b6020830151611b8760208401826001600160a01b03169052565b5060408301516040830152606083015160608301526080830151611baf608084018215159052565b5060a083015160a083015260c0830151611bd460c08401826001600160a01b03169052565b5060e08381015190830152610100808401519083015261012080840151908301526101408084015164ffffffffff908116918401919091526101608085015163ffffffff169084015261018080850151909116908301526101a0808401516001600160a01b03908116918401919091526101c0808501518216908401526101e08085015190840152610200808501511515908401526102208085015190840152610240808501519084015261026080850151908401526102808085015191821681850152905b505092915050565b60006102a08284031215611cb557600080fd5b50919050565b60008060408385031215611cce57600080fd5b50508035926020909101359150565b6004811061175f57600080fd5b803561180d81611cdd565b801515811461175f57600080fd5b803561180d81611cf5565b64ffffffffff8116811461175f57600080fd5b803561180d81611d0e565b63ffffffff8116811461175f57600080fd5b803561180d81611d2c565b60006102a08284031215611d5c57600080fd5b611d64611a7e565b611d6d83611cea565b8152611d7b60208401611802565b60208201526040830135604082015260608301356060820152611da060808401611d03565b608082015260a083013560a0820152611dbb60c08401611802565b60c082015260e0838101359082015261010080840135908201526101208084013590820152610140611dee818501611d21565b90820152610160611e00848201611d3e565b90820152610180611e12848201611d21565b908201526101a0611e24848201611802565b908201526101c0611e36848201611802565b908201526101e08381013590820152610200611e53818501611d03565b90820152610220838101359082015261024080840135908201526102608084013590820152610280611e86818501611802565b908201529392505050565b60005b83811015611eac578181015183820152602001611e94565b50506000910152565b60008151808452611ecd816020860160208601611e91565b601f01601f19169290920160200192915050565b6020815260006113cf6020830184611eb5565b600060208284031215611f0657600080fd5b6040516020810181811067ffffffffffffffff82111715611f2957611f29611a68565b6040529135825250919050565b805161180d81611cdd565b805161180d816117ed565b805161180d81611cf5565b805161180d81611d0e565b805161180d81611d2c565b60006102a08284031215611f8057600080fd5b611f88611a7e565b611f9183611f36565b8152611f9f60208401611f41565b60208201526040830151604082015260608301516060820152611fc460808401611f4c565b608082015260a083015160a0820152611fdf60c08401611f41565b60c082015260e0838101519082015261010080840151908201526101208084015190820152610140612012818501611f57565b90820152610160612024848201611f62565b90820152610180612036848201611f57565b908201526101a0612048848201611f41565b908201526101c061205a848201611f41565b908201526101e08381015190820152610200612077818501611f4c565b90820152610220838101519082015261024080840151908201526102608084015190820152610280611e86818501611f41565b6102a081016120c1826120bc85611cea565b611958565b6120cd60208401611802565b6001600160a01b03811660208401525060408301356040830152606083013560608301526120fd60808401611d03565b1515608083015260a0838101359083015261211a60c08401611802565b6001600160a01b031660c083015260e0838101359083015261010080840135908301526101208084013590830152610140612156818501611d21565b64ffffffffff169083015261016061216f848201611d3e565b63ffffffff1690830152610180612187848201611d21565b64ffffffffff16908301526101a06121a0848201611802565b6001600160a01b0316908301526101c06121bb848201611802565b6001600160a01b0316908301526101e083810135908301526102006121e1818501611d03565b151590830152610220838101359083015261024080840135908301526102608084013590830152610280612216818501611802565b6001600160a01b03811684830152611c9a565b6001600160a01b039390931683526020830191909152604082015260600190565b82815260008251612262816020850160208701611e91565b919091016020019392505050565b60006020828403121561228257600080fd5b81356113cf816117ed565b60006020828403121561229f57600080fd5b81516113cf81611cf5565b634e487b7160e01b600052601160045260246000fd5b808201808211156106d7576106d76122aa565b6000602082840312156122e557600080fd5b81516113cf816117ed565b60006020828403121561230257600080fd5b5051919050565b8281526040602082015260006123226040830184611eb5565b949350505050565b6000825161233c818460208701611e91565b9190910192915050565b634e487b7160e01b600052603260045260246000fd5b60006001820161236e5761236e6122aa565b506001019056fea26469706673582212205673e4a3db10a432a016ddd014ace640aebf89d5bb2aacabd1503df98aaff72964736f6c63430008100033",
    "linkReferences": {}
  },
  "methodIdentifiers": {
    "DOMAIN_SEPARATOR()": "3644e515",
    "MULTIPROPOSAL_DOMAIN_SEPARATOR()": "abe93878",
    "MULTIPROPOSAL_TYPEHASH()": "d06a0d82",
    "PROPOSAL_TYPEHASH()": "853b94a0",
    "VERSION()": "ffa1ad74",
    "acceptProposal(address,uint256,bytes,bytes32[],bytes)": "01e83272",
    "config()": "79502c55",
    "creditUsed(bytes32)": "f0209ad6",
    "decodeProposalData(bytes)": "2d5d17fc",
    "encodeProposalData((uint8,address,uint256,uint256,bool,bytes32,address,uint256,uint256,uint256,uint40,uint32,uint40,address,address,bytes32,bool,uint256,uint256,uint256,address))": "5b3275e2",
    "getMultiproposalHash((bytes32))": "829d3770",
    "getProposalHash((uint8,address,uint256,uint256,bool,bytes32,address,uint256,uint256,uint256,uint40,uint32,uint40,address,address,bytes32,bool,uint256,uint256,uint256,address))": "382c0cdd",
    "hub()": "365a86fc",
    "makeProposal((uint8,address,uint256,uint256,bool,bytes32,address,uint256,uint256,uint256,uint40,uint32,uint40,address,address,bytes32,bool,uint256,uint256,uint256,address))": "83f19a0b",
    "proposalsMade(bytes32)": "1da4c275",
    "revokeNonce(uint256,uint256)": "579bfc30",
    "revokedNonce()": "9788ad55"
  },
  "id": 91
}