{
  "abi": [
    {
      "inputs": [
        {
          "internalType": "address",
          "name": "_hub",
          "type": "address"
        },
        {
          "internalType": "address",
          "name": "_loanToken",
          "type": "address"
        },
        {
          "internalType": "address",
          "name": "_config",
          "type": "address"
        },
        {
          "internalType": "address",
          "name": "_revokedNonce",
          "type": "address"
        },
        {
          "internalType": "address",
          "name": "_categoryRegistry",
          "type": "address"
        }
      ],
      "stateMutability": "nonpayable",
      "type": "constructor"
    },
    {
      "inputs": [
        {
          "internalType": "address",
          "name": "addr",
          "type": "address"
        },
        {
          "internalType": "bytes32",
          "name": "tag",
          "type": "bytes32"
        }
      ],
      "name": "AddressMissingHubTag",
      "type": "error"
    },
    {
      "inputs": [],
      "name": "CallerNotLOANTokenHolder",
      "type": "error"
    },
    {
      "inputs": [],
      "name": "CallerNotVault",
      "type": "error"
    },
    {
      "inputs": [
        {
          "internalType": "uint256",
          "name": "current",
          "type": "uint256"
        },
        {
          "internalType": "uint256",
          "name": "expiration",
          "type": "uint256"
        }
      ],
      "name": "Expired",
      "type": "error"
    },
    {
      "inputs": [],
      "name": "IncompleteTransfer",
      "type": "error"
    },
    {
      "inputs": [
        {
          "internalType": "uint256",
          "name": "current",
          "type": "uint256"
        },
        {
          "internalType": "uint256",
          "name": "limit",
          "type": "uint256"
        }
      ],
      "name": "InterestAPROutOfBounds",
      "type": "error"
    },
    {
      "inputs": [
        {
          "internalType": "uint256",
          "name": "current",
          "type": "uint256"
        },
        {
          "internalType": "uint256",
          "name": "limit",
          "type": "uint256"
        }
      ],
      "name": "InvalidDuration",
      "type": "error"
    },
    {
      "inputs": [],
      "name": "InvalidExtensionCaller",
      "type": "error"
    },
    {
      "inputs": [
        {
          "internalType": "uint256",
          "name": "duration",
          "type": "uint256"
        },
        {
          "internalType": "uint256",
          "name": "limit",
          "type": "uint256"
        }
      ],
      "name": "InvalidExtensionDuration",
      "type": "error"
    },
    {
      "inputs": [
        {
          "internalType": "address",
          "name": "allowed",
          "type": "address"
        },
        {
          "internalType": "address",
          "name": "current",
          "type": "address"
        }
      ],
      "name": "InvalidExtensionSigner",
      "type": "error"
    },
    {
      "inputs": [
        {
          "internalType": "bytes32",
          "name": "current",
          "type": "bytes32"
        },
        {
          "internalType": "bytes32",
          "name": "expected",
          "type": "bytes32"
        }
      ],
      "name": "InvalidLenderSpecHash",
      "type": "error"
    },
    {
      "inputs": [
        {
          "internalType": "uint8",
          "name": "category",
          "type": "uint8"
        },
        {
          "internalType": "address",
          "name": "addr",
          "type": "address"
        },
        {
          "internalType": "uint256",
          "name": "id",
          "type": "uint256"
        },
        {
          "internalType": "uint256",
          "name": "amount",
          "type": "uint256"
        }
      ],
      "name": "InvalidMultiTokenAsset",
      "type": "error"
    },
    {
      "inputs": [
        {
          "internalType": "address",
          "name": "current",
          "type": "address"
        },
        {
          "internalType": "address",
          "name": "expected",
          "type": "address"
        }
      ],
      "name": "InvalidPermitAsset",
      "type": "error"
    },
    {
      "inputs": [
        {
          "internalType": "address",
          "name": "current",
          "type": "address"
        },
        {
          "internalType": "address",
          "name": "expected",
          "type": "address"
        }
      ],
      "name": "InvalidPermitOwner",
      "type": "error"
    },
    {
      "inputs": [
        {
          "internalType": "address",
          "name": "signer",
          "type": "address"
        },
        {
          "internalType": "bytes32",
          "name": "digest",
          "type": "bytes32"
        }
      ],
      "name": "InvalidSignature",
      "type": "error"
    },
    {
      "inputs": [
        {
          "internalType": "uint256",
          "name": "length",
          "type": "uint256"
        }
      ],
      "name": "InvalidSignatureLength",
      "type": "error"
    },
    {
      "inputs": [
        {
          "internalType": "address",
          "name": "sourceOfFunds",
          "type": "address"
        }
      ],
      "name": "InvalidSourceOfFunds",
      "type": "error"
    },
    {
      "inputs": [
        {
          "internalType": "uint40",
          "name": "",
          "type": "uint40"
        }
      ],
      "name": "LoanDefaulted",
      "type": "error"
    },
    {
      "inputs": [],
      "name": "LoanNotRunning",
      "type": "error"
    },
    {
      "inputs": [],
      "name": "LoanRepaid",
      "type": "error"
    },
    {
      "inputs": [],
      "name": "LoanRunning",
      "type": "error"
    },
    {
      "inputs": [],
      "name": "NonExistingLoan",
      "type": "error"
    },
    {
      "inputs": [
        {
          "internalType": "address",
          "name": "addr",
          "type": "address"
        },
        {
          "internalType": "uint256",
          "name": "nonceSpace",
          "type": "uint256"
        },
        {
          "internalType": "uint256",
          "name": "nonce",
          "type": "uint256"
        }
      ],
      "name": "NonceNotUsable",
      "type": "error"
    },
    {
      "inputs": [
        {
          "internalType": "address",
          "name": "currentBorrower",
          "type": "address"
        },
        {
          "internalType": "address",
          "name": "newBorrower",
          "type": "address"
        }
      ],
      "name": "RefinanceBorrowerMismatch",
      "type": "error"
    },
    {
      "inputs": [],
      "name": "RefinanceCollateralMismatch",
      "type": "error"
    },
    {
      "inputs": [],
      "name": "RefinanceCreditMismatch",
      "type": "error"
    },
    {
      "inputs": [
        {
          "internalType": "uint8",
          "name": "categoryValue",
          "type": "uint8"
        }
      ],
      "name": "UnsupportedCategory",
      "type": "error"
    },
    {
      "inputs": [],
      "name": "UnsupportedTransferFunction",
      "type": "error"
    },
    {
      "anonymous": false,
      "inputs": [
        {
          "indexed": true,
          "internalType": "bytes32",
          "name": "extensionHash",
          "type": "bytes32"
        },
        {
          "indexed": true,
          "internalType": "address",
          "name": "proposer",
          "type": "address"
        },
        {
          "components": [
            {
              "internalType": "uint256",
              "name": "loanId",
              "type": "uint256"
            },
            {
              "internalType": "address",
              "name": "compensationAddress",
              "type": "address"
            },
            {
              "internalType": "uint256",
              "name": "compensationAmount",
              "type": "uint256"
            },
            {
              "internalType": "uint40",
              "name": "duration",
              "type": "uint40"
            },
            {
              "internalType": "uint40",
              "name": "expiration",
              "type": "uint40"
            },
            {
              "internalType": "address",
              "name": "proposer",
              "type": "address"
            },
            {
              "internalType": "uint256",
              "name": "nonceSpace",
              "type": "uint256"
            },
            {
              "internalType": "uint256",
              "name": "nonce",
              "type": "uint256"
            }
          ],
          "indexed": false,
          "internalType": "struct PWNSimpleLoan.ExtensionProposal",
          "name": "proposal",
          "type": "tuple"
        }
      ],
      "name": "ExtensionProposalMade",
      "type": "event"
    },
    {
      "anonymous": false,
      "inputs": [
        {
          "indexed": true,
          "internalType": "uint256",
          "name": "loanId",
          "type": "uint256"
        },
        {
          "indexed": true,
          "internalType": "bool",
          "name": "defaulted",
          "type": "bool"
        }
      ],
      "name": "LOANClaimed",
      "type": "event"
    },
    {
      "anonymous": false,
      "inputs": [
        {
          "indexed": true,
          "internalType": "uint256",
          "name": "loanId",
          "type": "uint256"
        },
        {
          "indexed": true,
          "internalType": "bytes32",
          "name": "proposalHash",
          "type": "bytes32"
        },
        {
          "indexed": true,
          "internalType": "address",
          "name": "proposalContract",
          "type": "address"
        },
        {
          "components": [
            {
              "internalType": "address",
              "name": "lender",
              "type": "address"
            },
            {
              "internalType": "address",
              "name": "borrower",
              "type": "address"
            },
            {
              "internalType": "uint32",
              "name": "duration",
              "type": "uint32"
            },
            {
              "components": [
                {
                  "internalType": "enum MultiToken.Category",
                  "name": "category",
                  "type": "uint8"
                },
                {
                  "internalType": "address",
                  "name": "assetAddress",
                  "type": "address"
                },
                {
                  "internalType": "uint256",
                  "name": "id",
                  "type": "uint256"
                },
                {
                  "internalType": "uint256",
                  "name": "amount",
                  "type": "uint256"
                }
              ],
              "internalType": "struct MultiToken.Asset",
              "name": "collateral",
              "type": "tuple"
            },
            {
              "components": [
                {
                  "internalType": "enum MultiToken.Category",
                  "name": "category",
                  "type": "uint8"
                },
                {
                  "internalType": "address",
                  "name": "assetAddress",
                  "type": "address"
                },
                {
                  "internalType": "uint256",
                  "name": "id",
                  "type": "uint256"
                },
                {
                  "internalType": "uint256",
                  "name": "amount",
                  "type": "uint256"
                }
              ],
              "internalType": "struct MultiToken.Asset",
              "name": "credit",
              "type": "tuple"
            },
            {
              "internalType": "uint256",
              "name": "fixedInterestAmount",
              "type": "uint256"
            },
            {
              "internalType": "uint40",
              "name": "accruingInterestAPR",
              "type": "uint40"
            },
            {
              "internalType": "bytes32",
              "name": "lenderSpecHash",
              "type": "bytes32"
            },
            {
              "internalType": "bytes32",
              "name": "borrowerSpecHash",
              "type": "bytes32"
            }
          ],
          "indexed": false,
          "internalType": "struct PWNSimpleLoan.Terms",
          "name": "terms",
          "type": "tuple"
        },
        {
          "components": [
            {
              "internalType": "address",
              "name": "sourceOfFunds",
              "type": "address"
            }
          ],
          "indexed": false,
          "internalType": "struct PWNSimpleLoan.LenderSpec",
          "name": "lenderSpec",
          "type": "tuple"
        },
        {
          "indexed": false,
          "internalType": "bytes",
          "name": "extra",
          "type": "bytes"
        }
      ],
      "name": "LOANCreated",
      "type": "event"
    },
    {
      "anonymous": false,
      "inputs": [
        {
          "indexed": true,
          "internalType": "uint256",
          "name": "loanId",
          "type": "uint256"
        },
        {
          "indexed": false,
          "internalType": "uint40",
          "name": "originalDefaultTimestamp",
          "type": "uint40"
        },
        {
          "indexed": false,
          "internalType": "uint40",
          "name": "extendedDefaultTimestamp",
          "type": "uint40"
        }
      ],
      "name": "LOANExtended",
      "type": "event"
    },
    {
      "anonymous": false,
      "inputs": [
        {
          "indexed": true,
          "internalType": "uint256",
          "name": "loanId",
          "type": "uint256"
        }
      ],
      "name": "LOANPaidBack",
      "type": "event"
    },
    {
      "anonymous": false,
      "inputs": [
        {
          "indexed": true,
          "internalType": "uint256",
          "name": "loanId",
          "type": "uint256"
        },
        {
          "indexed": true,
          "internalType": "uint256",
          "name": "refinancedLoanId",
          "type": "uint256"
        }
      ],
      "name": "LOANRefinanced",
      "type": "event"
    },
    {
      "anonymous": false,
      "inputs": [
        {
          "components": [
            {
              "internalType": "enum MultiToken.Category",
              "name": "category",
              "type": "uint8"
            },
            {
              "internalType": "address",
              "name": "assetAddress",
              "type": "address"
            },
            {
              "internalType": "uint256",
              "name": "id",
              "type": "uint256"
            },
            {
              "internalType": "uint256",
              "name": "amount",
              "type": "uint256"
            }
          ],
          "indexed": false,
          "internalType": "struct MultiToken.Asset",
          "name": "asset",
          "type": "tuple"
        },
        {
          "indexed": true,
          "internalType": "address",
          "name": "poolAdapter",
          "type": "address"
        },
        {
          "indexed": true,
          "internalType": "address",
          "name": "pool",
          "type": "address"
        },
        {
          "indexed": true,
          "internalType": "address",
          "name": "owner",
          "type": "address"
        }
      ],
      "name": "PoolSupply",
      "type": "event"
    },
    {
      "anonymous": false,
      "inputs": [
        {
          "components": [
            {
              "internalType": "enum MultiToken.Category",
              "name": "category",
              "type": "uint8"
            },
            {
              "internalType": "address",
              "name": "assetAddress",
              "type": "address"
            },
            {
              "internalType": "uint256",
              "name": "id",
              "type": "uint256"
            },
            {
              "internalType": "uint256",
              "name": "amount",
              "type": "uint256"
            }
          ],
          "indexed": false,
          "internalType": "struct MultiToken.Asset",
          "name": "asset",
          "type": "tuple"
        },
        {
          "indexed": true,
          "internalType": "address",
          "name": "poolAdapter",
          "type": "address"
        },
        {
          "indexed": true,
          "internalType": "address",
          "name": "pool",
          "type": "address"
        },
        {
          "indexed": true,
          "internalType": "address",
          "name": "owner",
          "type": "address"
        }
      ],
      "name": "PoolWithdraw",
      "type": "event"
    },
    {
      "anonymous": false,
      "inputs": [
        {
          "components": [
            {
              "internalType": "enum MultiToken.Category",
              "name": "category",
              "type": "uint8"
            },
            {
              "internalType": "address",
              "name": "assetAddress",
              "type": "address"
            },
            {
              "internalType": "uint256",
              "name": "id",
              "type": "uint256"
            },
            {
              "internalType": "uint256",
              "name": "amount",
              "type": "uint256"
            }
          ],
          "indexed": false,
          "internalType": "struct MultiToken.Asset",
          "name": "asset",
          "type": "tuple"
        },
        {
          "indexed": true,
          "internalType": "address",
          "name": "origin",
          "type": "address"
        }
      ],
      "name": "VaultPull",
      "type": "event"
    },
    {
      "anonymous": false,
      "inputs": [
        {
          "components": [
            {
              "internalType": "enum MultiToken.Category",
              "name": "category",
              "type": "uint8"
            },
            {
              "internalType": "address",
              "name": "assetAddress",
              "type": "address"
            },
            {
              "internalType": "uint256",
              "name": "id",
              "type": "uint256"
            },
            {
              "internalType": "uint256",
              "name": "amount",
              "type": "uint256"
            }
          ],
          "indexed": false,
          "internalType": "struct MultiToken.Asset",
          "name": "asset",
          "type": "tuple"
        },
        {
          "indexed": true,
          "internalType": "address",
          "name": "beneficiary",
          "type": "address"
        }
      ],
      "name": "VaultPush",
      "type": "event"
    },
    {
      "anonymous": false,
      "inputs": [
        {
          "components": [
            {
              "internalType": "enum MultiToken.Category",
              "name": "category",
              "type": "uint8"
            },
            {
              "internalType": "address",
              "name": "assetAddress",
              "type": "address"
            },
            {
              "internalType": "uint256",
              "name": "id",
              "type": "uint256"
            },
            {
              "internalType": "uint256",
              "name": "amount",
              "type": "uint256"
            }
          ],
          "indexed": false,
          "internalType": "struct MultiToken.Asset",
          "name": "asset",
          "type": "tuple"
        },
        {
          "indexed": true,
          "internalType": "address",
          "name": "origin",
          "type": "address"
        },
        {
          "indexed": true,
          "internalType": "address",
          "name": "beneficiary",
          "type": "address"
        }
      ],
      "name": "VaultPushFrom",
      "type": "event"
    },
    {
      "inputs": [],
      "name": "APR_INTEREST_DENOMINATOR",
      "outputs": [
        {
          "internalType": "uint256",
          "name": "",
          "type": "uint256"
        }
      ],
      "stateMutability": "view",
      "type": "function"
    },
    {
      "inputs": [],
      "name": "APR_TO_DAILY_INTEREST_DENOMINATOR",
      "outputs": [
        {
          "internalType": "uint256",
          "name": "",
          "type": "uint256"
        }
      ],
      "stateMutability": "view",
      "type": "function"
    },
    {
      "inputs": [],
      "name": "APR_TO_DAILY_INTEREST_NUMERATOR",
      "outputs": [
        {
          "internalType": "uint256",
          "name": "",
          "type": "uint256"
        }
      ],
      "stateMutability": "view",
      "type": "function"
    },
    {
      "inputs": [],
      "name": "DAILY_INTEREST_DENOMINATOR",
      "outputs": [
        {
          "internalType": "uint256",
          "name": "",
          "type": "uint256"
        }
      ],
      "stateMutability": "view",
      "type": "function"
    },
    {
      "inputs": [],
      "name": "DOMAIN_SEPARATOR",
      "outputs": [
        {
          "internalType": "bytes32",
          "name": "",
          "type": "bytes32"
        }
      ],
      "stateMutability": "view",
      "type": "function"
    },
    {
      "inputs": [],
      "name": "EXTENSION_PROPOSAL_TYPEHASH",
      "outputs": [
        {
          "internalType": "bytes32",
          "name": "",
          "type": "bytes32"
        }
      ],
      "stateMutability": "view",
      "type": "function"
    },
    {
      "inputs": [],
      "name": "MAX_ACCRUING_INTEREST_APR",
      "outputs": [
        {
          "internalType": "uint40",
          "name": "",
          "type": "uint40"
        }
      ],
      "stateMutability": "view",
      "type": "function"
    },
    {
      "inputs": [],
      "name": "MAX_EXTENSION_DURATION",
      "outputs": [
        {
          "internalType": "uint256",
          "name": "",
          "type": "uint256"
        }
      ],
      "stateMutability": "view",
      "type": "function"
    },
    {
      "inputs": [],
      "name": "MIN_EXTENSION_DURATION",
      "outputs": [
        {
          "internalType": "uint256",
          "name": "",
          "type": "uint256"
        }
      ],
      "stateMutability": "view",
      "type": "function"
    },
    {
      "inputs": [],
      "name": "MIN_LOAN_DURATION",
      "outputs": [
        {
          "internalType": "uint32",
          "name": "",
          "type": "uint32"
        }
      ],
      "stateMutability": "view",
      "type": "function"
    },
    {
      "inputs": [],
      "name": "VERSION",
      "outputs": [
        {
          "internalType": "string",
          "name": "",
          "type": "string"
        }
      ],
      "stateMutability": "view",
      "type": "function"
    },
    {
      "inputs": [],
      "name": "categoryRegistry",
      "outputs": [
        {
          "internalType": "contract IMultiTokenCategoryRegistry",
          "name": "",
          "type": "address"
        }
      ],
      "stateMutability": "view",
      "type": "function"
    },
    {
      "inputs": [
        {
          "internalType": "uint256",
          "name": "loanId",
          "type": "uint256"
        }
      ],
      "name": "claimLOAN",
      "outputs": [],
      "stateMutability": "nonpayable",
      "type": "function"
    },
    {
      "inputs": [],
      "name": "config",
      "outputs": [
        {
          "internalType": "contract PWNConfig",
          "name": "",
          "type": "address"
        }
      ],
      "stateMutability": "view",
      "type": "function"
    },
    {
      "inputs": [
        {
          "components": [
            {
              "internalType": "address",
              "name": "proposalContract",
              "type": "address"
            },
            {
              "internalType": "bytes",
              "name": "proposalData",
              "type": "bytes"
            },
            {
              "internalType": "bytes32[]",
              "name": "proposalInclusionProof",
              "type": "bytes32[]"
            },
            {
              "internalType": "bytes",
              "name": "signature",
              "type": "bytes"
            }
          ],
          "internalType": "struct PWNSimpleLoan.ProposalSpec",
          "name": "proposalSpec",
          "type": "tuple"
        },
        {
          "components": [
            {
              "internalType": "address",
              "name": "sourceOfFunds",
              "type": "address"
            }
          ],
          "internalType": "struct PWNSimpleLoan.LenderSpec",
          "name": "lenderSpec",
          "type": "tuple"
        },
        {
          "components": [
            {
              "internalType": "uint256",
              "name": "refinancingLoanId",
              "type": "uint256"
            },
            {
              "internalType": "bool",
              "name": "revokeNonce",
              "type": "bool"
            },
            {
              "internalType": "uint256",
              "name": "nonce",
              "type": "uint256"
            },
            {
              "internalType": "bytes",
              "name": "permitData",
              "type": "bytes"
            }
          ],
          "internalType": "struct PWNSimpleLoan.CallerSpec",
          "name": "callerSpec",
          "type": "tuple"
        },
        {
          "internalType": "bytes",
          "name": "extra",
          "type": "bytes"
        }
      ],
      "name": "createLOAN",
      "outputs": [
        {
          "internalType": "uint256",
          "name": "loanId",
          "type": "uint256"
        }
      ],
      "stateMutability": "nonpayable",
      "type": "function"
    },
    {
      "inputs": [
        {
          "components": [
            {
              "internalType": "uint256",
              "name": "loanId",
              "type": "uint256"
            },
            {
              "internalType": "address",
              "name": "compensationAddress",
              "type": "address"
            },
            {
              "internalType": "uint256",
              "name": "compensationAmount",
              "type": "uint256"
            },
            {
              "internalType": "uint40",
              "name": "duration",
              "type": "uint40"
            },
            {
              "internalType": "uint40",
              "name": "expiration",
              "type": "uint40"
            },
            {
              "internalType": "address",
              "name": "proposer",
              "type": "address"
            },
            {
              "internalType": "uint256",
              "name": "nonceSpace",
              "type": "uint256"
            },
            {
              "internalType": "uint256",
              "name": "nonce",
              "type": "uint256"
            }
          ],
          "internalType": "struct PWNSimpleLoan.ExtensionProposal",
          "name": "extension",
          "type": "tuple"
        },
        {
          "internalType": "bytes",
          "name": "signature",
          "type": "bytes"
        },
        {
          "internalType": "bytes",
          "name": "permitData",
          "type": "bytes"
        }
      ],
      "name": "extendLOAN",
      "outputs": [],
      "stateMutability": "nonpayable",
      "type": "function"
    },
    {
      "inputs": [
        {
          "internalType": "bytes32",
          "name": "",
          "type": "bytes32"
        }
      ],
      "name": "extensionProposalsMade",
      "outputs": [
        {
          "internalType": "bool",
          "name": "",
          "type": "bool"
        }
      ],
      "stateMutability": "view",
      "type": "function"
    },
    {
      "inputs": [
        {
          "components": [
            {
              "internalType": "uint256",
              "name": "loanId",
              "type": "uint256"
            },
            {
              "internalType": "address",
              "name": "compensationAddress",
              "type": "address"
            },
            {
              "internalType": "uint256",
              "name": "compensationAmount",
              "type": "uint256"
            },
            {
              "internalType": "uint40",
              "name": "duration",
              "type": "uint40"
            },
            {
              "internalType": "uint40",
              "name": "expiration",
              "type": "uint40"
            },
            {
              "internalType": "address",
              "name": "proposer",
              "type": "address"
            },
            {
              "internalType": "uint256",
              "name": "nonceSpace",
              "type": "uint256"
            },
            {
              "internalType": "uint256",
              "name": "nonce",
              "type": "uint256"
            }
          ],
          "internalType": "struct PWNSimpleLoan.ExtensionProposal",
          "name": "extension",
          "type": "tuple"
        }
      ],
      "name": "getExtensionHash",
      "outputs": [
        {
          "internalType": "bytes32",
          "name": "",
          "type": "bytes32"
        }
      ],
      "stateMutability": "view",
      "type": "function"
    },
    {
      "inputs": [
        {
          "internalType": "uint256",
          "name": "loanId",
          "type": "uint256"
        }
      ],
      "name": "getLOAN",
      "outputs": [
        {
          "internalType": "uint8",
          "name": "status",
          "type": "uint8"
        },
        {
          "internalType": "uint40",
          "name": "startTimestamp",
          "type": "uint40"
        },
        {
          "internalType": "uint40",
          "name": "defaultTimestamp",
          "type": "uint40"
        },
        {
          "internalType": "address",
          "name": "borrower",
          "type": "address"
        },
        {
          "internalType": "address",
          "name": "originalLender",
          "type": "address"
        },
        {
          "internalType": "address",
          "name": "loanOwner",
          "type": "address"
        },
        {
          "internalType": "uint40",
          "name": "accruingInterestDailyRate",
          "type": "uint40"
        },
        {
          "internalType": "uint256",
          "name": "fixedInterestAmount",
          "type": "uint256"
        },
        {
          "components": [
            {
              "internalType": "enum MultiToken.Category",
              "name": "category",
              "type": "uint8"
            },
            {
              "internalType": "address",
              "name": "assetAddress",
              "type": "address"
            },
            {
              "internalType": "uint256",
              "name": "id",
              "type": "uint256"
            },
            {
              "internalType": "uint256",
              "name": "amount",
              "type": "uint256"
            }
          ],
          "internalType": "struct MultiToken.Asset",
          "name": "credit",
          "type": "tuple"
        },
        {
          "components": [
            {
              "internalType": "enum MultiToken.Category",
              "name": "category",
              "type": "uint8"
            },
            {
              "internalType": "address",
              "name": "assetAddress",
              "type": "address"
            },
            {
              "internalType": "uint256",
              "name": "id",
              "type": "uint256"
            },
            {
              "internalType": "uint256",
              "name": "amount",
              "type": "uint256"
            }
          ],
          "internalType": "struct MultiToken.Asset",
          "name": "collateral",
          "type": "tuple"
        },
        {
          "internalType": "address",
          "name": "originalSourceOfFunds",
          "type": "address"
        },
        {
          "internalType": "uint256",
          "name": "repaymentAmount",
          "type": "uint256"
        }
      ],
      "stateMutability": "view",
      "type": "function"
    },
    {
      "inputs": [
        {
          "components": [
            {
              "internalType": "address",
              "name": "sourceOfFunds",
              "type": "address"
            }
          ],
          "internalType": "struct PWNSimpleLoan.LenderSpec",
          "name": "lenderSpec",
          "type": "tuple"
        }
      ],
      "name": "getLenderSpecHash",
      "outputs": [
        {
          "internalType": "bytes32",
          "name": "",
          "type": "bytes32"
        }
      ],
      "stateMutability": "pure",
      "type": "function"
    },
    {
      "inputs": [
        {
          "internalType": "uint256",
          "name": "tokenId",
          "type": "uint256"
        }
      ],
      "name": "getStateFingerprint",
      "outputs": [
        {
          "internalType": "bytes32",
          "name": "",
          "type": "bytes32"
        }
      ],
      "stateMutability": "view",
      "type": "function"
    },
    {
      "inputs": [],
      "name": "hub",
      "outputs": [
        {
          "internalType": "contract PWNHub",
          "name": "",
          "type": "address"
        }
      ],
      "stateMutability": "view",
      "type": "function"
    },
    {
      "inputs": [
        {
          "components": [
            {
              "internalType": "enum MultiToken.Category",
              "name": "category",
              "type": "uint8"
            },
            {
              "internalType": "address",
              "name": "assetAddress",
              "type": "address"
            },
            {
              "internalType": "uint256",
              "name": "id",
              "type": "uint256"
            },
            {
              "internalType": "uint256",
              "name": "amount",
              "type": "uint256"
            }
          ],
          "internalType": "struct MultiToken.Asset",
          "name": "asset",
          "type": "tuple"
        }
      ],
      "name": "isValidAsset",
      "outputs": [
        {
          "internalType": "bool",
          "name": "",
          "type": "bool"
        }
      ],
      "stateMutability": "view",
      "type": "function"
    },
    {
      "inputs": [],
      "name": "loanMetadataUri",
      "outputs": [
        {
          "internalType": "string",
          "name": "",
          "type": "string"
        }
      ],
      "stateMutability": "view",
      "type": "function"
    },
    {
      "inputs": [
        {
          "internalType": "uint256",
          "name": "loanId",
          "type": "uint256"
        }
      ],
      "name": "loanRepaymentAmount",
      "outputs": [
        {
          "internalType": "uint256",
          "name": "",
          "type": "uint256"
        }
      ],
      "stateMutability": "view",
      "type": "function"
    },
    {
      "inputs": [],
      "name": "loanToken",
      "outputs": [
        {
          "internalType": "contract PWNLOAN",
          "name": "",
          "type": "address"
        }
      ],
      "stateMutability": "view",
      "type": "function"
    },
    {
      "inputs": [
        {
          "components": [
            {
              "internalType": "uint256",
              "name": "loanId",
              "type": "uint256"
            },
            {
              "internalType": "address",
              "name": "compensationAddress",
              "type": "address"
            },
            {
              "internalType": "uint256",
              "name": "compensationAmount",
              "type": "uint256"
            },
            {
              "internalType": "uint40",
              "name": "duration",
              "type": "uint40"
            },
            {
              "internalType": "uint40",
              "name": "expiration",
              "type": "uint40"
            },
            {
              "internalType": "address",
              "name": "proposer",
              "type": "address"
            },
            {
              "internalType": "uint256",
              "name": "nonceSpace",
              "type": "uint256"
            },
            {
              "internalType": "uint256",
              "name": "nonce",
              "type": "uint256"
            }
          ],
          "internalType": "struct PWNSimpleLoan.ExtensionProposal",
          "name": "extension",
          "type": "tuple"
        }
      ],
      "name": "makeExtensionProposal",
      "outputs": [],
      "stateMutability": "nonpayable",
      "type": "function"
    },
    {
      "inputs": [
        {
          "internalType": "address",
          "name": "",
          "type": "address"
        },
        {
          "internalType": "address",
          "name": "",
          "type": "address"
        },
        {
          "internalType": "uint256[]",
          "name": "",
          "type": "uint256[]"
        },
        {
          "internalType": "uint256[]",
          "name": "",
          "type": "uint256[]"
        },
        {
          "internalType": "bytes",
          "name": "",
          "type": "bytes"
        }
      ],
      "name": "onERC1155BatchReceived",
      "outputs": [
        {
          "internalType": "bytes4",
          "name": "",
          "type": "bytes4"
        }
      ],
      "stateMutability": "pure",
      "type": "function"
    },
    {
      "inputs": [
        {
          "internalType": "address",
          "name": "operator",
          "type": "address"
        },
        {
          "internalType": "address",
          "name": "",
          "type": "address"
        },
        {
          "internalType": "uint256",
          "name": "",
          "type": "uint256"
        },
        {
          "internalType": "uint256",
          "name": "",
          "type": "uint256"
        },
        {
          "internalType": "bytes",
          "name": "",
          "type": "bytes"
        }
      ],
      "name": "onERC1155Received",
      "outputs": [
        {
          "internalType": "bytes4",
          "name": "",
          "type": "bytes4"
        }
      ],
      "stateMutability": "view",
      "type": "function"
    },
    {
      "inputs": [
        {
          "internalType": "address",
          "name": "operator",
          "type": "address"
        },
        {
          "internalType": "address",
          "name": "",
          "type": "address"
        },
        {
          "internalType": "uint256",
          "name": "",
          "type": "uint256"
        },
        {
          "internalType": "bytes",
          "name": "",
          "type": "bytes"
        }
      ],
      "name": "onERC721Received",
      "outputs": [
        {
          "internalType": "bytes4",
          "name": "",
          "type": "bytes4"
        }
      ],
      "stateMutability": "view",
      "type": "function"
    },
    {
      "inputs": [
        {
          "internalType": "uint256",
          "name": "loanId",
          "type": "uint256"
        },
        {
          "internalType": "bytes",
          "name": "permitData",
          "type": "bytes"
        }
      ],
      "name": "repayLOAN",
      "outputs": [],
      "stateMutability": "nonpayable",
      "type": "function"
    },
    {
      "inputs": [],
      "name": "revokedNonce",
      "outputs": [
        {
          "internalType": "contract PWNRevokedNonce",
          "name": "",
          "type": "address"
        }
      ],
      "stateMutability": "view",
      "type": "function"
    },
    {
      "inputs": [
        {
          "internalType": "bytes4",
          "name": "interfaceId",
          "type": "bytes4"
        }
      ],
      "name": "supportsInterface",
      "outputs": [
        {
          "internalType": "bool",
          "name": "",
          "type": "bool"
        }
      ],
      "stateMutability": "pure",
      "type": "function"
    },
    {
      "inputs": [
        {
          "internalType": "uint256",
          "name": "loanId",
          "type": "uint256"
        },
        {
          "internalType": "uint256",
          "name": "creditAmount",
          "type": "uint256"
        },
        {
          "internalType": "address",
          "name": "loanOwner",
          "type": "address"
        }
      ],
      "name": "tryClaimRepaidLOAN",
      "outputs": [],
      "stateMutability": "nonpayable",
      "type": "function"
    }
  ],
  "bytecode": {
    "object": "0x61018060405260036101409081526218971960e91b610160527f8b73c3c69bb8fe3d512ecc4cf759cc79239f7b179b0ffacaa9a75d522b39400f907f3af43dc47dd092dc79d11f941571a702d1419a15bb1e9b52d0e0e91e22f07352906200006a906101a06200011c565b60408051601f1981840301815282825280516020918201209083019490945281019190915260608101919091524660808201523060a082015260c00160408051601f198184030181529190528051602090910120608052348015620000ce57600080fd5b506040516200531a3803806200531a833981016040819052620000f1916200016a565b6001600160a01b0394851660a05292841660c05290831660e0528216610100521661012052620001da565b6000825160005b818110156200013f576020818601810151858301520162000123565b506000920191825250919050565b80516001600160a01b03811681146200016557600080fd5b919050565b600080600080600060a086880312156200018357600080fd5b6200018e866200014d565b94506200019e602087016200014d565b9350620001ae604087016200014d565b9250620001be606087016200014d565b9150620001ce608087016200014d565b90509295509295909350565b60805160a05160c05160e0516101005161012051615064620002b6600039600081816103c701526114150152600081816104b60152818161075901528181610a99015261184d01526000818161045401528181610e06015281816115df01528181612a0301528181612ab601528181612c0501528181612db9015261357301526000818161024d0152818161087001528181610cca015281816110ad01528181611331015281816123d40152818161272b0152612b7b01526000818161033b01526116fd015260008181610314015261143d01526150646000f3fe608060405234801561001057600080fd5b50600436106102065760003560e01c8063640d16ed1161011a578063a11a581c116100ad578063c81980801161007c578063c819808014610522578063da8c3b7014610535578063f23a6e6114610548578063f51123151461055b578063ffa1ad741461056e57600080fd5b8063a11a581c146104d8578063a2d00469146104e1578063bc197c81146104ed578063c399e17d1461050057600080fd5b80637f24133f116100e95780637f24133f1461047657806389d99a051461048057806394aedc2f1461049e5780639788ad55146104b157600080fd5b8063640d16ed146104065780637122192c1461042957806374baf6ef1461043c57806379502c551461044f57600080fd5b80632c8ebec81161019d5780633e6df5121161016c5780633e6df512146103705780634acacdda1461039b57806358099d96146103c257806358b5d263146103e9578063632c6a23146103f357600080fd5b80632c8ebec8146103055780633644e5151461030f578063365a86fc14610336578063376af4d11461035d57600080fd5b8063111d8a15116101d9578063111d8a151461029a578063150b7a02146102af57806325f2c190146102db5780632c3eae8a146102f257600080fd5b806301ffc9a71461020b578063028232ea1461023357806306d37817146102485780630ee1ba1714610287575b600080fd5b61021e6102193660046141ef565b610590565b60405190151581526020015b60405180910390f35b610246610241366004614273565b6105e2565b005b61026f7f000000000000000000000000000000000000000000000000000000000000000081565b6040516001600160a01b03909116815260200161022a565b6102466102953660046142f7565b610c9b565b6102a2610dee565b60405161022a9190614360565b6102c26102bd366004614393565b610e82565b6040516001600160e01b0319909116815260200161022a565b6102e461011281565b60405190815260200161022a565b6102e46103003660046142f7565b610ebf565b6102e46276a70081565b6102e47f000000000000000000000000000000000000000000000000000000000000000081565b61026f7f000000000000000000000000000000000000000000000000000000000000000081565b61024661036b3660046143f4565b610ef1565b61038361037e3660046142f7565b610fd1565b60405161022a9c9b9a99989796959493929190614471565b6102e47f9ff198f1043fd251b64c2f21c2278160819a77a1da50cf8284dc53af040fa71781565b61026f7f000000000000000000000000000000000000000000000000000000000000000081565b6102e4620186a081565b610246610401366004614500565b6111ec565b61021e6104143660046142f7565b60016020526000908152604090205460ff1681565b61021e610437366004614597565b61140d565b6102e461044a3660046143f4565b611439565b61026f7f000000000000000000000000000000000000000000000000000000000000000081565b6102e46201518081565b61048961025881565b60405163ffffffff909116815260200161022a565b6102466104ac36600461460b565b611506565b61026f7f000000000000000000000000000000000000000000000000000000000000000081565b6102e461271081565b6102e46402540be40081565b6102c26104fb366004614688565b6116c3565b61050c64174876e80081565b60405164ffffffffff909116815260200161022a565b6102e4610530366004614758565b6116de565b6102e4610543366004614786565b6116f1565b6102c2610556366004614808565b611ba4565b6102e46105693660046142f7565b611be2565b6102a26040518060400160405280600381526020016218971960e91b81525081565b60006001600160e01b031982166301ffc9a760e01b14806105c157506001600160e01b03198216630a85bd0160e11b145b806105dc57506001600160e01b03198216630271189760e51b145b92915050565b843560009081526020819052604081208054909160ff909116900361061a576040516335cee39560e01b815260040160405180910390fd5b805460ff1660030361063f57604051631062e18f60e01b815260040160405180910390fd5b600061064a87611439565b60008181526001602052604090205490915060ff166106f8576106b361067660c0890160a08a01614883565b8288888080601f016020809104026020016040519081016040528093929190818152602001838380828437600092019190915250611c7592505050565b6106f8576106c760c0880160a08901614883565b6040516301d2d55760e31b81526001600160a01b039091166004820152602481018290526044015b60405180910390fd5b61070860a08801608089016148b3565b64ffffffffff16421061074f574261072660a0890160808a016148b3565b60405163aa2fd92560e01b8152600481019290925264ffffffffff1660248201526044016106ef565b6001600160a01b037f00000000000000000000000000000000000000000000000000000000000000001663f291a62c61078e60c08a0160a08b01614883565b60405160e083811b6001600160e01b03191682526001600160a01b0392909216600482015260c08b01356024820152908a01356044820152606401602060405180830381865afa1580156107e6573d6000803e3d6000fd5b505050506040513d601f19601f8201168201806040525081019061080a91906148de565b6108575761081e60c0880160a08901614883565b604051632108c30560e11b81526001600160a01b03909116600482015260c0880135602482015260e088013560448201526064016106ef565b6040516331a9108f60e11b8152873560048201526000907f00000000000000000000000000000000000000000000000000000000000000006001600160a01b031690636352211e90602401602060405180830381865afa1580156108bf573d6000803e3d6000fd5b505050506040513d601f19601f820116820180604052508101906108e39190614906565b90506001600160a01b038116330361096f5760028301546001600160a01b031661091360c08a0160a08b01614883565b6001600160a01b03161461096a5760028301546001600160a01b031661093f60c08a0160a08b01614883565b604051627c5e8760e31b81526001600160a01b039283166004820152911660248201526044016106ef565b6109d5565b60028301546001600160a01b031633036109bc576001600160a01b03811661099d60c08a0160a08b01614883565b6001600160a01b03161461096a578061093f60c08a0160a08b01614883565b604051639d29f3a960e01b815260040160405180910390fd5b620151806109e960808a0160608b016148b3565b64ffffffffff161015610a3257610a066080890160608a016148b3565b604051631a16ab3160e11b815264ffffffffff90911660048201526201518060248201526044016106ef565b6276a700610a4660808a0160608b016148b3565b64ffffffffff161115610a8f57610a636080890160608a016148b3565b604051631a16ab3160e11b815264ffffffffff90911660048201526276a70060248201526044016106ef565b6001600160a01b037f00000000000000000000000000000000000000000000000000000000000000001663f79924a9610ace60c08b0160a08c01614883565b60405160e083811b6001600160e01b03191682526001600160a01b0392909216600482015260c08c01356024820152908b01356044820152606401600060405180830381600087803b158015610b2357600080fd5b505af1158015610b37573d6000803e3d6000fd5b505050506001830154600160c81b900464ffffffffff16610b5e60808a0160608b016148b3565b610b689082614939565b60018501805464ffffffffff60c81b1916600160c81b64ffffffffff938416810291909117918290556040805185851681529190920490921660208301528a35917f16e70f82a9a68fdbf6cc67068dcfadcaf1e0c61409aa3a24122767789ccc20d5910160405180910390a26000610be660408b0160208c01614883565b6001600160a01b031614158015610c01575060008960400135115b15610c90576000610c2e60408b01803590610c1f9060208e01614883565b6001600160a01b031690611e1b565b9050610c3981611e53565b8515610c74576000610c4d8789018961496d565b9050610c6933610c6360408e0160208f01614883565b83611ec1565b610c7281611f71565b505b6002850154610c8e9082906001600160a01b031685612028565b505b505050505050505050565b6000818152602081905260409081902090516331a9108f60e11b81526004810183905233906001600160a01b037f00000000000000000000000000000000000000000000000000000000000000001690636352211e90602401602060405180830381865afa158015610d11573d6000803e3d6000fd5b505050506040513d601f19601f82011682018060405250810190610d359190614906565b6001600160a01b031614610d5c57604051632a0a3d8160e11b815260040160405180910390fd5b805460ff16600003610d81576040516335cee39560e01b815260040160405180910390fd5b805460ff16600303610d9d57610d998233600061209f565b5050565b805460ff166002148015610dc45750600181015442600160c81b90910464ffffffffff1611155b15610dd557610d998233600161209f565b6040516311d01f2b60e31b815260040160405180910390fd5b604051630233557560e41b81523060048201526060907f00000000000000000000000000000000000000000000000000000000000000006001600160a01b031690632335575090602401600060405180830381865afa158015610e55573d6000803e3d6000fd5b505050506040513d6000823e601f3d908101601f19168201604052610e7d9190810190614a0a565b905090565b60006001600160a01b0386163014610ead576040516382a1dea160e01b815260040160405180910390fd5b50630a85bd0160e11b95945050505050565b6000818152602081905260408120805460ff168203610ee15750600092915050565b610eea83612184565b9392505050565b610f0160c0820160a08301614883565b6001600160a01b0316336001600160a01b031614610f5357610f2960c0820160a08301614883565b604051627c5e8760e31b81526001600160a01b0390911660048201523360248201526044016106ef565b6000610f5e82611439565b6000818152600160208190526040909120805460ff191690911790559050610f8c60c0830160a08401614883565b6001600160a01b0316817f3404b1a797c8c84bf93d13290f9f6e7464634602778a1ffa1fc7d8708668022e84604051610fc59190614aab565b60405180910390a35050565b600080600080600080600080610fe56141bd565b610fed6141bd565b60008b815260208190526040812081906110068e6121aa565b9c508060010160149054906101000a900464ffffffffff169b508060010160199054906101000a900464ffffffffff169a508060020160009054906101000a90046001600160a01b031699508060030160009054906101000a90046001600160a01b031698508060000160009054906101000a900460ff1660ff1660000361108f576000611118565b6040516331a9108f60e11b8152600481018f90526001600160a01b037f00000000000000000000000000000000000000000000000000000000000000001690636352211e90602401602060405180830381865afa1580156110f4573d6000803e3d6000fd5b505050506040513d601f19601f820116820180604052508101906111189190614906565b6003820154600483015460058401548454939b50600160a01b90920464ffffffffff16995097506111579161010090046001600160a01b031690611e1b565b60408051608081019091526006830180549297509091829060ff16600381111561118357611183614411565b600381111561119457611194614411565b815281546001600160a01b03610100909104811660208301526001808401546040840152600290930154606090920191909152908301549195501692506111da8e610ebf565b91505091939597999b5091939597999b565b60008381526020819052604090208054600182015461121c9160ff1690600160c81b900464ffffffffff166121f6565b6112258461226e565b81156112635760006112398385018561496d565b825490915061125890339061010090046001600160a01b031683611ec1565b61126181611f71565b505b600061126e85612184565b82549091506112959061128f9061010090046001600160a01b031683611e1b565b336122d7565b604080516080810190915260068301805461130f929190829060ff1660038111156112c2576112c2614411565b60038111156112d3576112d3614411565b815281546001600160a01b0361010090910481166020830152600183015460408301526002928301546060909201919091529085015416612343565b6040516331a9108f60e11b81526004810186905230906394aedc2f90879084907f00000000000000000000000000000000000000000000000000000000000000006001600160a01b031690636352211e90602401602060405180830381865afa158015611380573d6000803e3d6000fd5b505050506040513d601f19601f820116820180604052508101906113a49190614906565b6040516001600160e01b031960e086901b168152600481019390935260248301919091526001600160a01b03166044820152606401600060405180830381600087803b1580156113f357600080fd5b505af1925050508015611404575060015b505b5050505050565b60006105dc827f00000000000000000000000000000000000000000000000000000000000000006123a2565b60007f00000000000000000000000000000000000000000000000000000000000000007f9ff198f1043fd251b64c2f21c2278160819a77a1da50cf8284dc53af040fa7178360405160200161148e9190614aab565b60408051601f19818403018152908290526114ac9291602001614b44565b604051602081830303815290604052805190602001206040516020016114e992919061190160f01b81526002810192909252602282015260420190565b604051602081830303815290604052805190602001209050919050565b3330146115265760405163edd7338f60e01b815260040160405180910390fd5b6000838152602081905260409020805460ff166003146115465750505050565b60038101546001600160a01b038381169116146115635750505050565b600181015481546001600160a01b039182169160009161158a916101009091041686611e1b565b9050611595866123be565b836001600160a01b0316826001600160a01b0316036115bd576115b88185612343565b61168e565b60405163b209123160e01b81526001600160a01b0383811660048301526000917f00000000000000000000000000000000000000000000000000000000000000009091169063b209123190602401602060405180830381865afa158015611628573d6000803e3d6000fd5b505050506040513d601f19601f8201168201806040525081019061164c9190614906565b90506001600160a01b03811661168057604051632f9526c360e11b81526001600160a01b03841660048201526024016106ef565b61168c828285886124b2565b505b60405160009087907f01c41914692eda9e423c83b28344603636e57a2803060f6778fea9ba50e71b73908390a3505050505050565b60006040516382a1dea160e01b815260040160405180910390fd5b6000816040516020016114e99190614b84565b60006001600160a01b037f00000000000000000000000000000000000000000000000000000000000000001663d019577a61172f6020890189614883565b6040516001600160e01b031960e084901b1681526001600160a01b0390911660048201527fc0ba7a416221f318a8087fd62f9ff407488b7f5501e79caf9b0666c2df326b9c6024820152604401602060405180830381865afa158015611799573d6000803e3d6000fd5b505050506040513d601f19601f820116820180604052508101906117bd91906148de565b611819576117ce6020870187614883565b604051630b92eb2560e11b81526001600160a01b0390911660048201527fc0ba7a416221f318a8087fd62f9ff407488b7f5501e79caf9b0666c2df326b9c60248201526044016106ef565b6118296040850160208601614ba4565b156118b25760408051630a69412f60e21b81523360048201529085013560248201527f00000000000000000000000000000000000000000000000000000000000000006001600160a01b0316906329a504bc90604401600060405180830381600087803b15801561189957600080fd5b505af11580156118ad573d6000803e3d6000fd5b505050505b8335156118ed5783356000908152602081905260409020805460018201546118eb9160ff1690600160c81b900464ffffffffff166121f6565b505b6000806118fd6020890189614883565b6001600160a01b03166301e8327233883561191b60208d018d614bc1565b61192860408f018f614c07565b8f80606001906119389190614bc1565b6040518963ffffffff1660e01b815260040161195b989796959493929190614c79565b610200604051808303816000875af115801561197b573d6000803e3d6000fd5b505050506040513d601f19601f8201168201806040525081019061199f9190614d8d565b805191935091506001600160a01b031633148015906119ca57506119c2876116de565b8160e0015114155b156119ff578060e001516119dd886116de565b604051633188f56d60e11b8152600481019290925260248201526044016106ef565b61025863ffffffff16816040015163ffffffff161015611a4857604080820151905163387a058b60e01b815263ffffffff909116600482015261025860248201526044016106ef565b64174876e80064ffffffffff168160c0015164ffffffffff161115611a9a5760c0810151604051630fb8adc560e41b815264ffffffffff909116600482015264174876e80060248201526044016106ef565b8535600003611ac257611ab08160800151611e53565b611abd8160600151611e53565b611acd565b611acd8635826125b2565b611ae782611ade60208b018b614883565b838a8989612707565b92506000611af86060880188614bc1565b90501115611b3c576000611b0f6060880188614bc1565b810190611b1c919061496d565b9050611b313383608001516020015183611ec1565b611b3a81611f71565b505b8535600003611b5457611b4f81886129b4565b611b99565b611b5e863561226e565b611b6a86358289612b54565b60405183908735907fdcebfa2e6797f7ce57def09d53b735c278982e3b8c71c9fa63f167148c4cab3790600090a35b505095945050505050565b60006001600160a01b0387163014611bcf576040516382a1dea160e01b815260040160405180910390fd5b5063f23a6e6160e01b9695505050505050565b6000818152602081905260408120805460ff168203611c045750600092915050565b611c0d836121aa565b6001820154600483015460038401546040805160ff95909516602086015264ffffffffff600160c81b9094048416908501526060840191909152600160a01b900416608082015260a00160405160208183030381529060405280519060200120915050919050565b60006001600160a01b0384163b15611d7057600080856001600160a01b0316631626ba7e60e01b8686604051602401611caf929190614e53565b60408051601f198184030181529181526020820180516001600160e01b03166001600160e01b0319909416939093179092529051611ced9190614e6c565b600060405180830381855afa9150503d8060008114611d28576040519150601f19603f3d011682016040523d82523d6000602084013e611d2d565b606091505b5091509150818015611d40575080516020145b8015611d6757508051630b135d3f60e11b90611d659083016020908101908401614e88565b145b92505050610eea565b60008060008451604103611d985750505060208201516040830151606084015160001a611def565b8451604003611dd157602085015160408601519093506001600160ff1b0381169250611dc960ff82901c601b614ea1565b915050611def565b845160405163058676ad60e31b81526004016106ef91815260200190565b611dfb86828585612efe565b6001600160a01b0316876001600160a01b03161493505050509392505050565b611e236141bd565b506040805160808101825260008082526001600160a01b0394909416602082015290810192909252606082015290565b611e5c8161140d565b611ebe5780516003811115611e7357611e73614411565b60208201516040808401516060850151915163032163e160e11b815260ff90941660048501526001600160a01b039092166024840152604483019190915260648201526084016106ef565b50565b80516001600160a01b031615611f6c57826001600160a01b031681602001516001600160a01b031614611f20576020810151604051637c14fe8960e01b81526001600160a01b03918216600482015290841660248201526044016106ef565b816001600160a01b031681600001516001600160a01b031614611f6c5780516040516329be2d5d60e21b81526001600160a01b03918216600482015290831660248201526044016106ef565b505050565b80516001600160a01b031615611ebe57805160208201516040808401516060850151608086015160a087015160c0880151945163d505accf60e01b81526001600160a01b0396871660048201523060248201526044810194909452606484019290925260ff16608483015260a482015260c481019190915291169063d505accf9060e401600060405180830381600087803b15801561200f57600080fd5b505af1925050508015612020575060015b15611ebe5750565b60006120348483612f28565b9050612041848484613172565b61204e848284600161317f565b816001600160a01b0316836001600160a01b03167f0272ef83f5953daad3d7708e6b4442e126f1e049e62a01c1fc53683f3277199c866040516120919190614eb4565b60405180910390a350505050565b600083815260208190526040812090826120da576120d56120bf86612184565b835461010090046001600160a01b031690611e1b565b612140565b6040805160808101909152600683018054829060ff16600381111561210157612101614411565b600381111561211257612112614411565b8152815461010090046001600160a01b03166020820152600182015460408201526002909101546060909101525b905061214b856123be565b6040518315159086907f01c41914692eda9e423c83b28344603636e57a2803060f6778fea9ba50e71b7390600090a36114068185612343565b600081815260208190526040812061219b816131dc565b8160050154610eea9190614ea1565b6000818152602081905260408120805460ff1660021480156121df5750600181015442600160c81b90910464ffffffffff1611155b6121ed57805460ff16610eea565b60049392505050565b8160ff1660000361221a576040516335cee39560e01b815260040160405180910390fd5b8160ff1660021461223e576040516331fe4d5d60e01b815260040160405180910390fd5b428164ffffffffff1611610d9957604051631e3cd61560e01b815264ffffffffff821660048201526024016106ef565b6000818152602081905260409020805460ff19166003178155612290816131dc565b600482015560038101805464ffffffffff60a01b1916905560405182907ff1e5b832ef53e7d611651983b38ff941f4d2049e9c8962c623c2664bca312bc090600090a25050565b60006122e38330612f28565b90506122f083833061327a565b6122fd838230600161317f565b816001600160a01b03167f019fcaae912e42069954835069f1c8184411022f86cf749694625f2a2313b6ab846040516123369190614eb4565b60405180910390a2505050565b600061234f8383612f28565b905061235c833084613172565b612369838284600161317f565b816001600160a01b03167fc2b8da69776ffa72ca2d7c4a31390d57bd4871cef8066bbe7f1e5bf220a310f1846040516123369190614eb4565b60006123ae8383613287565b8015610eea5750610eea83613335565b604051630852cd8d60e31b8152600481018290527f00000000000000000000000000000000000000000000000000000000000000006001600160a01b0316906342966c6890602401600060405180830381600087803b15801561242057600080fd5b505af1158015612434573d6000803e3d6000fd5b50505060009182525060208190526040812080546001600160a81b031990811682556001820180546001600160f01b03191690556002820180546001600160a01b03191690556003820180546001600160c81b0319169055600482018390556005820183905560068201805490911690556007810182905560080155565b60006124be8530612f28565b90506124cb85308661327a565b6020850151606086015160405163107c8ed760e01b81526001600160a01b0386811660048301528581166024830152928316604482015260648101919091529085169063107c8ed790608401600060405180830381600087803b15801561253157600080fd5b505af1158015612545573d6000803e3d6000fd5b50505050612556858230600061317f565b816001600160a01b0316836001600160a01b0316856001600160a01b03167fb58f4e60b4600784c073e07e7bb67825fe64b4592b5c7ce254599a9b8dcc4d82886040516125a39190614eb4565b60405180910390a45050505050565b600082815260208181526040909120608083015190910151815461010090046001600160a01b0390811691161415806125f15750608082015160600151155b1561260f57604051635f860c6160e11b815260040160405180910390fd5b606082015151600381111561262657612626614411565b600682015460ff16600381111561263f5761263f614411565b14158061266a5750606082015160200151600682015461010090046001600160a01b03908116911614155b806126815750606082015160400151600782015414155b8061269757506060808301510151600882015414155b156126b55760405163175bb1b760e21b815260040160405180910390fd5b602082015160028201546001600160a01b03908116911614611f6c576002810154602083015160405163d4b919f760e01b81526001600160a01b039283166004820152911660248201526044016106ef565b83516040516335313c2160e11b81526001600160a01b0391821660048201526000917f00000000000000000000000000000000000000000000000000000000000000001690636a627842906024016020604051808303816000875af1158015612774573d6000803e3d6000fd5b505050506040513d601f19601f820116820180604052508101906127989190614e88565b600081815260208181526040909120805460808901518301516001600160a01b0316610100026001600160a81b03199091161760021781559192506127df90860186614883565b60018201805464ffffffffff42908116600160a01b026001600160c81b03199092166001600160a01b039490941693909317179055604087015161282b9163ffffffff90911690614939565b60018201805464ffffffffff928316600160c81b0264ffffffffff60c81b1990911617905560208701516002830180546001600160a01b039283166001600160a01b031991821617909155885160038501805491909316911617905560c08701516128a6916128a19116610112620186a0613413565b6134fd565b6003808301805464ffffffffff93909316600160a01b0264ffffffffff60a01b199093169290921790915560a0870151600483015560808701516060908101516005840155870151805160068401805492939092839160ff1990911690600190849081111561291757612917614411565b021790555060208201518160000160016101000a8154816001600160a01b0302191690836001600160a01b031602179055506040820151816001015560608201518160020155905050866001600160a01b031688837ffaeed8c21a13a10e299d00abac61501436fa5faf27ddd94540a3815fb98ce737898989896040516129a19493929190614ec2565b60405180910390a4509695505050505050565b6129c6826060015183602001516122d7565b81516001600160a01b03166129de6020830183614883565b6001600160a01b0316146129fb576129fb82608001518383613567565b600080612a917f00000000000000000000000000000000000000000000000000000000000000006001600160a01b031663ddca3f436040518163ffffffff1660e01b8152600401602060405180830381865afa158015612a5f573d6000803e3d6000fd5b505050506040513d601f19601f82011682018060405250810190612a839190614f83565b856080015160600151613678565b608086015191935091508215612b3b5782816060018181525050612b3b8186600001517f00000000000000000000000000000000000000000000000000000000000000006001600160a01b031663c415b95c6040518163ffffffff1660e01b8152600401602060405180830381865afa158015612b12573d6000803e3d6000fd5b505050506040513d601f19601f82011682018060405250810190612b369190614906565b612028565b6060810182905284516020860151611406918391612028565b60008381526020819052604080822090516331a9108f60e11b8152600481018690529091907f00000000000000000000000000000000000000000000000000000000000000006001600160a01b031690636352211e90602401602060405180830381865afa158015612bca573d6000803e3d6000fd5b505050506040513d601f19601f82011682018060405250810190612bee9190614906565b90506000612bfb86612184565b9050600080612c937f00000000000000000000000000000000000000000000000000000000000000006001600160a01b031663ddca3f436040518163ffffffff1660e01b8152600401602060405180830381865afa158015612c61573d6000803e3d6000fd5b505050506040513d601f19601f82011682018060405250810190612c859190614f83565b886080015160600151613678565b915091506000612ca384836136b9565b90506000848311612cb5576000612cbf565b612cbf8584614fa7565b90506000808211612cd957612cd48487614fa7565b612cdc565b60005b90506000876001600160a01b03168b600001516001600160a01b0316141580612d3c575060038901546001600160a01b038981169116148015612d3c5750612d2760208b018b614883565b60018a01546001600160a01b03908116911614155b60808c01518c51919250906001600160a01b0316612d5d60208d018d614883565b6001600160a01b031614612d9e578382612d78576000612d7a565b855b612d849089614ea1565b612d8e9190614ea1565b6060820152612d9e818d8d613567565b8615612e155786816060018181525050612e15818d600001517f00000000000000000000000000000000000000000000000000000000000000006001600160a01b031663c415b95c6040518163ffffffff1660e01b8152600401602060405180830381865afa158015612b12573d6000803e3d6000fd5b8115612e2f57606081018590528b51612e2f9082906122d7565b8315612e5357606081018490528b5160208d0151612e4e918391612028565b612e70565b8215612e70576060810183905260208c0151612e709082906122d7565b306394aedc2f8e8585612e84576000612e86565b885b612e909190614ea1565b6040516001600160e01b031960e085901b168152600481019290925260248201526001600160a01b038c166044820152606401600060405180830381600087803b158015612edd57600080fd5b505af1925050508015612eee575060015b5050505050505050505050505050565b6000806000612f0f878787876136cf565b91509150612f1c81613793565b5090505b949350505050565b60008083516003811115612f3e57612f3e614411565b03612fbb5760208301516040516370a0823160e01b81526001600160a01b038481166004830152909116906370a08231906024015b602060405180830381865afa158015612f90573d6000803e3d6000fd5b505050506040513d601f19601f82011682018060405250810190612fb49190614e88565b90506105dc565b600183516003811115612fd057612fd0614411565b0361307857816001600160a01b031683602001516001600160a01b0316636352211e85604001516040518263ffffffff1660e01b815260040161301591815260200190565b602060405180830381865afa158015613032573d6000803e3d6000fd5b505050506040513d601f19601f820116820180604052508101906130569190614906565b6001600160a01b03161461306b57600061306e565b60015b60ff1690506105dc565b60028351600381111561308d5761308d614411565b036130d05760208301516040808501519051627eeac760e11b81526001600160a01b038581166004830152602482019290925291169062fdd58e90604401612f73565b6003835160038111156130e5576130e5614411565b0361312a57816001600160a01b031683602001516001600160a01b0316636352211e85604001516040518263ffffffff1660e01b815260040161301591815260200190565b60405162461bcd60e51b815260206004820181905260248201527f4d756c7469546f6b656e3a20556e737570706f727465642063617465676f727960448201526064016106ef565b611f6c83838360016138dd565b60008161319e5761318f85613b96565b6131999085614fa7565b6131b1565b6131a785613b96565b6131b19085614ea1565b90506131bd8584612f28565b8114611406576040516345ffc53d60e11b815260040160405180910390fd5b6003810154600090600160a01b900464ffffffffff16810361320057506004015490565b6001820154600090620151809061322590600160a01b900464ffffffffff1642614fa7565b61322f9190614fd0565b60058401546003850154919250600091613268919061325d908590600160a01b900464ffffffffff16614ff2565b6402540be400613413565b9050808460040154612f209190614ea1565b611f6c83838360006138dd565b6020820151604051638481ab0760e01b81526001600160a01b039182166004820152600091829190841690638481ab0790602401602060405180830381865afa1580156132d8573d6000803e3d6000fd5b505050506040513d601f19601f820116820180604052508101906132fc9190615011565b905060ff8082161461332c57835160ff821690600381111561332057613320614411565b60ff16149150506105dc565b612f2084613bf1565b6000808251600381111561334b5761334b614411565b036133675760408201511561336257506000919050565b61340b565b60018251600381111561337c5761337c614411565b036133935760608201511561336257506000919050565b6002825160038111156133a8576133a8614411565b1461340b576003825160038111156133c2576133c2614411565b036133d95760608201511561336257506000919050565b815160038111156133ec576133ec614411565b604051635928f9a360e11b815260ff90911660048201526024016106ef565b506001919050565b600080806000198587098587029250828110838203039150508060000361344d5783828161344357613443614fba565b0492505050610eea565b8084116134945760405162461bcd60e51b81526020600482015260156024820152744d6174683a206d756c446976206f766572666c6f7760581b60448201526064016106ef565b60008486880960026001871981018816978890046003810283188082028403028082028403028082028403028082028403028082028403029081029092039091026000889003889004909101858311909403939093029303949094049190911702949350505050565b600064ffffffffff8211156135635760405162461bcd60e51b815260206004820152602660248201527f53616665436173743a2076616c756520646f65736e27742066697420696e203460448201526530206269747360d01b60648201526084016106ef565b5090565b60006001600160a01b037f00000000000000000000000000000000000000000000000000000000000000001663b20912316135a56020850185614883565b6040516001600160e01b031960e084901b1681526001600160a01b039091166004820152602401602060405180830381865afa1580156135e9573d6000803e3d6000fd5b505050506040513d601f19601f8201168201806040525081019061360d9190614906565b90506001600160a01b03811661364f5761362a6020830183614883565b604051632f9526c360e11b81526001600160a01b0390911660048201526024016106ef565b60608401511561367257613672848261366b6020860186614883565b8651613d87565b50505050565b6000808361ffff16600003613692575060009050816136b2565b6136a3838561ffff16612710613413565b91506136af8284614fa7565b90505b9250929050565b60008183106136c85781610eea565b5090919050565b6000807f7fffffffffffffffffffffffffffffff5d576e7357a4501ddfe92f46681b20a0831115613706575060009050600361378a565b6040805160008082526020820180845289905260ff881692820192909252606081018690526080810185905260019060a0016020604051602081039080840390855afa15801561375a573d6000803e3d6000fd5b5050604051601f1901519150506001600160a01b0381166137835760006001925092505061378a565b9150600090505b94509492505050565b60008160048111156137a7576137a7614411565b036137af5750565b60018160048111156137c3576137c3614411565b036138105760405162461bcd60e51b815260206004820152601860248201527f45434453413a20696e76616c6964207369676e6174757265000000000000000060448201526064016106ef565b600281600481111561382457613824614411565b036138715760405162461bcd60e51b815260206004820152601f60248201527f45434453413a20696e76616c6964207369676e6174757265206c656e6774680060448201526064016106ef565b600381600481111561388557613885614411565b03611ebe5760405162461bcd60e51b815260206004820152602260248201527f45434453413a20696e76616c6964207369676e6174757265202773272076616c604482015261756560f01b60648201526084016106ef565b6000845160038111156138f2576138f2614411565b0361395a57306001600160a01b038416036139325761392d82856060015186602001516001600160a01b0316613e6d9092919063ffffffff16565b613672565b61392d8383866060015187602001516001600160a01b0316613ed0909392919063ffffffff16565b60018451600381111561396f5761396f614411565b03613a4a57806139f457602084015160408086015190516323b872dd60e01b81526001600160a01b038681166004830152858116602483015260448201929092529116906323b872dd906064015b600060405180830381600087803b1580156139d757600080fd5b505af11580156139eb573d6000803e3d6000fd5b50505050613672565b60208401516040808601519051635c46a7ef60e11b81526001600160a01b03868116600483015285811660248301526044820192909252608060648201526000608482015291169063b88d4fde9060a4016139bd565b600284516003811115613a5f57613a5f614411565b03613ae45783602001516001600160a01b031663f242432a848487604001518860600151600014613a94578860600151613a97565b60015b6040516001600160e01b031960e087901b1681526001600160a01b0394851660048201529390921660248401526044830152606482015260a06084820152600060a482015260c4016139bd565b600384516003811115613af957613af9614411565b0361312a57306001600160a01b03841603613b4e576020840151604080860151905163a9059cbb60e01b81526001600160a01b038581166004830152602482019290925291169063a9059cbb906044016139bd565b602084015160408086015190516323b872dd60e01b81526001600160a01b038681166004830152858116602483015260448201929092529116906323b872dd906064016139bd565b60008082516003811115613bac57613bac614411565b03613bb957506060015190565b600282516003811115613bce57613bce614411565b148015613bdf575060008260600151115b1561340b57506060015190565b919050565b60008082516003811115613c0757613c07614411565b03613cdc57613c2282602001516001600160a01b0316613f08565b15613cc8576020820151613c46906001600160a01b03166336372b0760e01b613f30565b15613c5357506001919050565b6020820151613c72906001600160a01b03166380ac58cd60e01b613f30565b158015613c9b57506020820151613c99906001600160a01b0316636cdb3d1360e11b613f30565b155b80156105dc57506020820151613cc1906001600160a01b0316639a20483d60e01b613f30565b1592915050565b50602001516001600160a01b03163b151590565b600182516003811115613cf157613cf1614411565b03613d155760208201516105dc906001600160a01b03166380ac58cd60e01b613fb9565b600282516003811115613d2a57613d2a614411565b03613d4e5760208201516105dc906001600160a01b0316636cdb3d1360e11b613fb9565b600382516003811115613d6357613d63614411565b036133d95760208201516105dc906001600160a01b0316639a20483d60e01b613fb9565b6000613d938583612f28565b60208601516060870151604051630b620b8160e01b81526001600160a01b038781166004830152868116602483015292831660448201526064810191909152919250851690630b620b8190608401600060405180830381600087803b158015613dfb57600080fd5b505af1158015613e0f573d6000803e3d6000fd5b50505050613e20858284600161317f565b816001600160a01b0316836001600160a01b0316856001600160a01b03167f4c6641e50ab591b51c5b75ab0d3721eb0357eac106223e5d21b1ceb5c2abd303886040516125a39190614eb4565b6040516001600160a01b038316602482015260448101829052611f6c90849063a9059cbb60e01b906064015b60408051601f198184030181529190526020810180516001600160e01b03166001600160e01b031990931692909217909152613fd5565b6040516001600160a01b03808516602483015283166044820152606481018290526136729085906323b872dd60e01b90608401613e99565b6000613f1b826301ffc9a760e01b613f30565b80156105dc5750613cc1826001600160e01b03195b604080516001600160e01b03198316602480830191909152825180830390910181526044909101909152602080820180516001600160e01b03166301ffc9a760e01b178152825160009392849283928392918391908a617530fa92503d91506000519050828015613fa2575060208210155b8015613fae5750600081115b979650505050505050565b6000613fc483613f08565b8015610eea5750610eea8383613f30565b600061402a826040518060400160405280602081526020017f5361666545524332303a206c6f772d6c6576656c2063616c6c206661696c6564815250856001600160a01b03166140aa9092919063ffffffff16565b905080516000148061404b57508080602001905181019061404b91906148de565b611f6c5760405162461bcd60e51b815260206004820152602a60248201527f5361666545524332303a204552433230206f7065726174696f6e20646964206e6044820152691bdd081cdd58d8d9595960b21b60648201526084016106ef565b6060612f20848460008585600080866001600160a01b031685876040516140d19190614e6c565b60006040518083038185875af1925050503d806000811461410e576040519150601f19603f3d011682016040523d82523d6000602084013e614113565b606091505b5091509150613fae878383876060831561418e578251600003614187576001600160a01b0385163b6141875760405162461bcd60e51b815260206004820152601d60248201527f416464726573733a2063616c6c20746f206e6f6e2d636f6e747261637400000060448201526064016106ef565b5081612f20565b612f2083838151156141a35781518083602001fd5b8060405162461bcd60e51b81526004016106ef9190614360565b6040805160808101909152806000815260200160006001600160a01b0316815260200160008152602001600081525090565b60006020828403121561420157600080fd5b81356001600160e01b031981168114610eea57600080fd5b6000610100828403121561422c57600080fd5b50919050565b60008083601f84011261424457600080fd5b5081356001600160401b0381111561425b57600080fd5b6020830191508360208285010111156136b257600080fd5b6000806000806000610140868803121561428c57600080fd5b6142968787614219565b94506101008601356001600160401b03808211156142b357600080fd5b6142bf89838a01614232565b90965094506101208801359150808211156142d957600080fd5b506142e688828901614232565b969995985093965092949392505050565b60006020828403121561430957600080fd5b5035919050565b60005b8381101561432b578181015183820152602001614313565b50506000910152565b6000815180845261434c816020860160208601614310565b601f01601f19169290920160200192915050565b602081526000610eea6020830184614334565b6001600160a01b0381168114611ebe57600080fd5b8035613bec81614373565b6000806000806000608086880312156143ab57600080fd5b85356143b681614373565b945060208601356143c681614373565b93506040860135925060608601356001600160401b038111156143e857600080fd5b6142e688828901614232565b6000610100828403121561440757600080fd5b610eea8383614219565b634e487b7160e01b600052602160045260246000fd5b80516004811061444757634e487b7160e01b600052602160045260246000fd5b82526020818101516001600160a01b03169083015260408082015190830152606090810151910152565b60ff8d16815264ffffffffff8c811660208301528b811660408301526001600160a01b038b811660608401528a81166080840152891660a0830152871660c082015260e0810186905261024081016144cd610100830187614427565b6144db610180830186614427565b6001600160a01b039390931661020082015261022001529a9950505050505050505050565b60008060006040848603121561451557600080fd5b8335925060208401356001600160401b0381111561453257600080fd5b61453e86828701614232565b9497909650939450505050565b634e487b7160e01b600052604160045260246000fd5b60405161012081016001600160401b03811182821017156145845761458461454b565b60405290565b60048110611ebe57600080fd5b6000608082840312156145a957600080fd5b604051608081018181106001600160401b03821117156145cb576145cb61454b565b60405282356145d98161458a565b815260208301356145e981614373565b6020820152604083810135908201526060928301359281019290925250919050565b60008060006060848603121561462057600080fd5b8335925060208401359150604084013561463981614373565b809150509250925092565b60008083601f84011261465657600080fd5b5081356001600160401b0381111561466d57600080fd5b6020830191508360208260051b85010111156136b257600080fd5b60008060008060008060008060a0898b0312156146a457600080fd5b88356146af81614373565b975060208901356146bf81614373565b965060408901356001600160401b03808211156146db57600080fd5b6146e78c838d01614644565b909850965060608b013591508082111561470057600080fd5b61470c8c838d01614644565b909650945060808b013591508082111561472557600080fd5b506147328b828c01614232565b999c989b5096995094979396929594505050565b60006020828403121561422c57600080fd5b60006020828403121561476a57600080fd5b610eea8383614746565b60006080828403121561422c57600080fd5b60008060008060006080868803121561479e57600080fd5b85356001600160401b03808211156147b557600080fd5b6147c189838a01614774565b96506147d08960208a01614746565b955060408801359150808211156147e657600080fd5b6147f289838a01614774565b945060608801359150808211156142d957600080fd5b60008060008060008060a0878903121561482157600080fd5b863561482c81614373565b9550602087013561483c81614373565b9450604087013593506060870135925060808701356001600160401b0381111561486557600080fd5b61487189828a01614232565b979a9699509497509295939492505050565b60006020828403121561489557600080fd5b8135610eea81614373565b64ffffffffff81168114611ebe57600080fd5b6000602082840312156148c557600080fd5b8135610eea816148a0565b8015158114611ebe57600080fd5b6000602082840312156148f057600080fd5b8151610eea816148d0565b8051613bec81614373565b60006020828403121561491857600080fd5b8151610eea81614373565b634e487b7160e01b600052601160045260246000fd5b64ffffffffff81811683821601908082111561495757614957614923565b5092915050565b60ff81168114611ebe57600080fd5b600060e0828403121561497f57600080fd5b60405160e081018181106001600160401b03821117156149a1576149a161454b565b60405282356149af81614373565b815260208301356149bf81614373565b80602083015250604083013560408201526060830135606082015260808301356149e88161495e565b608082015260a0838101359082015260c0928301359281019290925250919050565b600060208284031215614a1c57600080fd5b81516001600160401b0380821115614a3357600080fd5b818401915084601f830112614a4757600080fd5b815181811115614a5957614a5961454b565b604051601f8201601f19908116603f01168101908382118183101715614a8157614a8161454b565b81604052828152876020848701011115614a9a57600080fd5b613fae836020830160208801614310565b8135815261010081016020830135614ac281614373565b6001600160a01b03166020830152604083810135908301526060830135614ae8816148a0565b64ffffffffff1660608301526080830135614b02816148a0565b64ffffffffff166080830152614b1a60a08401614388565b6001600160a01b03811660a08401525060c083013560c083015260e083013560e083015292915050565b82815260008251614b5c816020850160208701614310565b919091016020019392505050565b8035614b7581614373565b6001600160a01b031690915250565b602081018235614b9381614373565b6001600160a01b0316909152919050565b600060208284031215614bb657600080fd5b8135610eea816148d0565b6000808335601e19843603018112614bd857600080fd5b8301803591506001600160401b03821115614bf257600080fd5b6020019150368190038213156136b257600080fd5b6000808335601e19843603018112614c1e57600080fd5b8301803591506001600160401b03821115614c3857600080fd5b6020019150600581901b36038213156136b257600080fd5b81835281816020850137506000828201602090810191909152601f909101601f19169091010190565b60018060a01b038916815287602082015260a060408201526000614ca160a08301888a614c50565b82810360608401528581526001600160fb1b03861115614cc057600080fd5b8560051b808860208401370182810360209081016080850152614ce69082018587614c50565b9b9a5050505050505050505050565b805163ffffffff81168114613bec57600080fd5b600060808284031215614d1b57600080fd5b604051608081018181106001600160401b0382111715614d3d57614d3d61454b565b80604052508091508251614d508161458a565b81526020830151614d6081614373565b8060208301525060408301516040820152606083015160608201525092915050565b8051613bec816148a0565b600080828403610200811215614da257600080fd5b835192506101e080601f1983011215614dba57600080fd5b614dc2614561565b9150614dd0602086016148fb565b8252614dde604086016148fb565b6020830152614def60608601614cf5565b6040830152614e018660808701614d09565b6060830152610100614e1587828801614d09565b608084015261018086015160a0840152614e326101a08701614d82565b60c08401526101c086015160e0840152940151938101939093525092909150565b828152604060208201526000612f206040830184614334565b60008251614e7e818460208701614310565b9190910192915050565b600060208284031215614e9a57600080fd5b5051919050565b808201808211156105dc576105dc614923565b608081016105dc8284614427565b84516001600160a01b0316815260006102206020870151614eee60208501826001600160a01b03169052565b506040870151614f06604085018263ffffffff169052565b506060870151614f196060850182614427565b506080870151614f2c60e0850182614427565b5060a087015161016084015260c087015164ffffffffff1661018084015260e08701516101a08401526101008701516101c0840152614f6f6101e0840187614b6a565b80610200840152613fae8184018587614c50565b600060208284031215614f9557600080fd5b815161ffff81168114610eea57600080fd5b818103818111156105dc576105dc614923565b634e487b7160e01b600052601260045260246000fd5b600082614fed57634e487b7160e01b600052601260045260246000fd5b500490565b600081600019048311821515161561500c5761500c614923565b500290565b60006020828403121561502357600080fd5b8151610eea8161495e56fea264697066735822122051d5b16387d067513f9505182d0488c31c06ae293a0c91d3a1c1ab286f19210064736f6c63430008100033",
    "linkReferences": {}
  },
  "methodIdentifiers": {
    "APR_INTEREST_DENOMINATOR()": "a11a581c",
    "APR_TO_DAILY_INTEREST_DENOMINATOR()": "58b5d263",
    "APR_TO_DAILY_INTEREST_NUMERATOR()": "25f2c190",
    "DAILY_INTEREST_DENOMINATOR()": "a2d00469",
    "DOMAIN_SEPARATOR()": "3644e515",
    "EXTENSION_PROPOSAL_TYPEHASH()": "4acacdda",
    "MAX_ACCRUING_INTEREST_APR()": "c399e17d",
    "MAX_EXTENSION_DURATION()": "2c8ebec8",
    "MIN_EXTENSION_DURATION()": "7f24133f",
    "MIN_LOAN_DURATION()": "89d99a05",
    "VERSION()": "ffa1ad74",
    "categoryRegistry()": "58099d96",
    "claimLOAN(uint256)": "0ee1ba17",
    "config()": "79502c55",
    "createLOAN((address,bytes,bytes32[],bytes),(address),(uint256,bool,uint256,bytes),bytes)": "da8c3b70",
    "extendLOAN((uint256,address,uint256,uint40,uint40,address,uint256,uint256),bytes,bytes)": "028232ea",
    "extensionProposalsMade(bytes32)": "640d16ed",
    "getExtensionHash((uint256,address,uint256,uint40,uint40,address,uint256,uint256))": "74baf6ef",
    "getLOAN(uint256)": "3e6df512",
    "getLenderSpecHash((address))": "c8198080",
    "getStateFingerprint(uint256)": "f5112315",
    "hub()": "365a86fc",
    "isValidAsset((uint8,address,uint256,uint256))": "7122192c",
    "loanMetadataUri()": "111d8a15",
    "loanRepaymentAmount(uint256)": "2c3eae8a",
    "loanToken()": "06d37817",
    "makeExtensionProposal((uint256,address,uint256,uint40,uint40,address,uint256,uint256))": "376af4d1",
    "onERC1155BatchReceived(address,address,uint256[],uint256[],bytes)": "bc197c81",
    "onERC1155Received(address,address,uint256,uint256,bytes)": "f23a6e61",
    "onERC721Received(address,address,uint256,bytes)": "150b7a02",
    "repayLOAN(uint256,bytes)": "632c6a23",
    "revokedNonce()": "9788ad55",
    "supportsInterface(bytes4)": "01ffc9a7",
    "tryClaimRepaidLOAN(uint256,uint256,address)": "94aedc2f"
  },
  "id": 86
}