{
  "abi": [
    {
      "inputs": [
        {
          "internalType": "address",
          "name": "_hub",
          "type": "address"
        },
        {
          "internalType": "address",
          "name": "_revokedNonce",
          "type": "address"
        },
        {
          "internalType": "address",
          "name": "_config",
          "type": "address"
        }
      ],
      "stateMutability": "nonpayable",
      "type": "constructor"
    },
    {
      "inputs": [
        {
          "internalType": "address",
          "name": "addr",
          "type": "address"
        }
      ],
      "name": "AcceptorIsProposer",
      "type": "error"
    },
    {
      "inputs": [
        {
          "internalType": "address",
          "name": "addr",
          "type": "address"
        },
        {
          "internalType": "bytes32",
          "name": "tag",
          "type": "bytes32"
        }
      ],
      "name": "AddressMissingHubTag",
      "type": "error"
    },
    {
      "inputs": [
        {
          "internalType": "uint256",
          "name": "current",
          "type": "uint256"
        }
      ],
      "name": "AuctionDurationNotInFullMinutes",
      "type": "error"
    },
    {
      "inputs": [
        {
          "internalType": "uint256",
          "name": "currentTimestamp",
          "type": "uint256"
        },
        {
          "internalType": "uint256",
          "name": "auctionStart",
          "type": "uint256"
        }
      ],
      "name": "AuctionNotInProgress",
      "type": "error"
    },
    {
      "inputs": [
        {
          "internalType": "uint256",
          "name": "used",
          "type": "uint256"
        },
        {
          "internalType": "uint256",
          "name": "limit",
          "type": "uint256"
        }
      ],
      "name": "AvailableCreditLimitExceeded",
      "type": "error"
    },
    {
      "inputs": [
        {
          "internalType": "address",
          "name": "addr",
          "type": "address"
        }
      ],
      "name": "CallerIsNotStatedProposer",
      "type": "error"
    },
    {
      "inputs": [
        {
          "internalType": "address",
          "name": "current",
          "type": "address"
        },
        {
          "internalType": "address",
          "name": "allowed",
          "type": "address"
        }
      ],
      "name": "CallerNotAllowedAcceptor",
      "type": "error"
    },
    {
      "inputs": [
        {
          "internalType": "address",
          "name": "caller",
          "type": "address"
        },
        {
          "internalType": "address",
          "name": "loanContract",
          "type": "address"
        }
      ],
      "name": "CallerNotLoanContract",
      "type": "error"
    },
    {
      "inputs": [
        {
          "internalType": "uint256",
          "name": "current",
          "type": "uint256"
        },
        {
          "internalType": "uint256",
          "name": "expiration",
          "type": "uint256"
        }
      ],
      "name": "Expired",
      "type": "error"
    },
    {
      "inputs": [
        {
          "internalType": "uint256",
          "name": "current",
          "type": "uint256"
        },
        {
          "internalType": "uint256",
          "name": "limit",
          "type": "uint256"
        }
      ],
      "name": "InvalidAuctionDuration",
      "type": "error"
    },
    {
      "inputs": [
        {
          "internalType": "bytes32",
          "name": "current",
          "type": "bytes32"
        },
        {
          "internalType": "bytes32",
          "name": "proposed",
          "type": "bytes32"
        }
      ],
      "name": "InvalidCollateralStateFingerprint",
      "type": "error"
    },
    {
      "inputs": [
        {
          "internalType": "uint256",
          "name": "auctionCreditAmount",
          "type": "uint256"
        },
        {
          "internalType": "uint256",
          "name": "intendedCreditAmount",
          "type": "uint256"
        },
        {
          "internalType": "uint256",
          "name": "slippage",
          "type": "uint256"
        }
      ],
      "name": "InvalidCreditAmount",
      "type": "error"
    },
    {
      "inputs": [
        {
          "internalType": "uint256",
          "name": "minCreditAmount",
          "type": "uint256"
        },
        {
          "internalType": "uint256",
          "name": "maxCreditAmount",
          "type": "uint256"
        }
      ],
      "name": "InvalidCreditAmountRange",
      "type": "error"
    },
    {
      "inputs": [
        {
          "internalType": "uint256",
          "name": "refinancingLoanId",
          "type": "uint256"
        }
      ],
      "name": "InvalidRefinancingLoanId",
      "type": "error"
    },
    {
      "inputs": [
        {
          "internalType": "address",
          "name": "signer",
          "type": "address"
        },
        {
          "internalType": "bytes32",
          "name": "digest",
          "type": "bytes32"
        }
      ],
      "name": "InvalidSignature",
      "type": "error"
    },
    {
      "inputs": [
        {
          "internalType": "uint256",
          "name": "length",
          "type": "uint256"
        }
      ],
      "name": "InvalidSignatureLength",
      "type": "error"
    },
    {
      "inputs": [],
      "name": "MissingStateFingerprintComputer",
      "type": "error"
    },
    {
      "inputs": [
        {
          "internalType": "address",
          "name": "addr",
          "type": "address"
        },
        {
          "internalType": "uint256",
          "name": "nonceSpace",
          "type": "uint256"
        },
        {
          "internalType": "uint256",
          "name": "nonce",
          "type": "uint256"
        }
      ],
      "name": "NonceNotUsable",
      "type": "error"
    },
    {
      "anonymous": false,
      "inputs": [
        {
          "indexed": true,
          "internalType": "bytes32",
          "name": "proposalHash",
          "type": "bytes32"
        },
        {
          "indexed": true,
          "internalType": "address",
          "name": "proposer",
          "type": "address"
        },
        {
          "components": [
            {
              "internalType": "enum MultiToken.Category",
              "name": "collateralCategory",
              "type": "uint8"
            },
            {
              "internalType": "address",
              "name": "collateralAddress",
              "type": "address"
            },
            {
              "internalType": "uint256",
              "name": "collateralId",
              "type": "uint256"
            },
            {
              "internalType": "uint256",
              "name": "collateralAmount",
              "type": "uint256"
            },
            {
              "internalType": "bool",
              "name": "checkCollateralStateFingerprint",
              "type": "bool"
            },
            {
              "internalType": "bytes32",
              "name": "collateralStateFingerprint",
              "type": "bytes32"
            },
            {
              "internalType": "address",
              "name": "creditAddress",
              "type": "address"
            },
            {
              "internalType": "uint256",
              "name": "minCreditAmount",
              "type": "uint256"
            },
            {
              "internalType": "uint256",
              "name": "maxCreditAmount",
              "type": "uint256"
            },
            {
              "internalType": "uint256",
              "name": "availableCreditLimit",
              "type": "uint256"
            },
            {
              "internalType": "uint256",
              "name": "fixedInterestAmount",
              "type": "uint256"
            },
            {
              "internalType": "uint40",
              "name": "accruingInterestAPR",
              "type": "uint40"
            },
            {
              "internalType": "uint32",
              "name": "duration",
              "type": "uint32"
            },
            {
              "internalType": "uint40",
              "name": "auctionStart",
              "type": "uint40"
            },
            {
              "internalType": "uint40",
              "name": "auctionDuration",
              "type": "uint40"
            },
            {
              "internalType": "address",
              "name": "allowedAcceptor",
              "type": "address"
            },
            {
              "internalType": "address",
              "name": "proposer",
              "type": "address"
            },
            {
              "internalType": "bytes32",
              "name": "proposerSpecHash",
              "type": "bytes32"
            },
            {
              "internalType": "bool",
              "name": "isOffer",
              "type": "bool"
            },
            {
              "internalType": "uint256",
              "name": "refinancingLoanId",
              "type": "uint256"
            },
            {
              "internalType": "uint256",
              "name": "nonceSpace",
              "type": "uint256"
            },
            {
              "internalType": "uint256",
              "name": "nonce",
              "type": "uint256"
            },
            {
              "internalType": "address",
              "name": "loanContract",
              "type": "address"
            }
          ],
          "indexed": false,
          "internalType": "struct PWNSimpleLoanDutchAuctionProposal.Proposal",
          "name": "proposal",
          "type": "tuple"
        }
      ],
      "name": "ProposalMade",
      "type": "event"
    },
    {
      "inputs": [],
      "name": "DOMAIN_SEPARATOR",
      "outputs": [
        {
          "internalType": "bytes32",
          "name": "",
          "type": "bytes32"
        }
      ],
      "stateMutability": "view",
      "type": "function"
    },
    {
      "inputs": [],
      "name": "MULTIPROPOSAL_DOMAIN_SEPARATOR",
      "outputs": [
        {
          "internalType": "bytes32",
          "name": "",
          "type": "bytes32"
        }
      ],
      "stateMutability": "view",
      "type": "function"
    },
    {
      "inputs": [],
      "name": "MULTIPROPOSAL_TYPEHASH",
      "outputs": [
        {
          "internalType": "bytes32",
          "name": "",
          "type": "bytes32"
        }
      ],
      "stateMutability": "view",
      "type": "function"
    },
    {
      "inputs": [],
      "name": "PROPOSAL_TYPEHASH",
      "outputs": [
        {
          "internalType": "bytes32",
          "name": "",
          "type": "bytes32"
        }
      ],
      "stateMutability": "view",
      "type": "function"
    },
    {
      "inputs": [],
      "name": "VERSION",
      "outputs": [
        {
          "internalType": "string",
          "name": "",
          "type": "string"
        }
      ],
      "stateMutability": "view",
      "type": "function"
    },
    {
      "inputs": [
        {
          "internalType": "address",
          "name": "acceptor",
          "type": "address"
        },
        {
          "internalType": "uint256",
          "name": "refinancingLoanId",
          "type": "uint256"
        },
        {
          "internalType": "bytes",
          "name": "proposalData",
          "type": "bytes"
        },
        {
          "internalType": "bytes32[]",
          "name": "proposalInclusionProof",
          "type": "bytes32[]"
        },
        {
          "internalType": "bytes",
          "name": "signature",
          "type": "bytes"
        }
      ],
      "name": "acceptProposal",
      "outputs": [
        {
          "internalType": "bytes32",
          "name": "proposalHash",
          "type": "bytes32"
        },
        {
          "components": [
            {
              "internalType": "address",
              "name": "lender",
              "type": "address"
            },
            {
              "internalType": "address",
              "name": "borrower",
              "type": "address"
            },
            {
              "internalType": "uint32",
              "name": "duration",
              "type": "uint32"
            },
            {
              "components": [
                {
                  "internalType": "enum MultiToken.Category",
                  "name": "category",
                  "type": "uint8"
                },
                {
                  "internalType": "address",
                  "name": "assetAddress",
                  "type": "address"
                },
                {
                  "internalType": "uint256",
                  "name": "id",
                  "type": "uint256"
                },
                {
                  "internalType": "uint256",
                  "name": "amount",
                  "type": "uint256"
                }
              ],
              "internalType": "struct MultiToken.Asset",
              "name": "collateral",
              "type": "tuple"
            },
            {
              "components": [
                {
                  "internalType": "enum MultiToken.Category",
                  "name": "category",
                  "type": "uint8"
                },
                {
                  "internalType": "address",
                  "name": "assetAddress",
                  "type": "address"
                },
                {
                  "internalType": "uint256",
                  "name": "id",
                  "type": "uint256"
                },
                {
                  "internalType": "uint256",
                  "name": "amount",
                  "type": "uint256"
                }
              ],
              "internalType": "struct MultiToken.Asset",
              "name": "credit",
              "type": "tuple"
            },
            {
              "internalType": "uint256",
              "name": "fixedInterestAmount",
              "type": "uint256"
            },
            {
              "internalType": "uint40",
              "name": "accruingInterestAPR",
              "type": "uint40"
            },
            {
              "internalType": "bytes32",
              "name": "lenderSpecHash",
              "type": "bytes32"
            },
            {
              "internalType": "bytes32",
              "name": "borrowerSpecHash",
              "type": "bytes32"
            }
          ],
          "internalType": "struct PWNSimpleLoan.Terms",
          "name": "loanTerms",
          "type": "tuple"
        }
      ],
      "stateMutability": "nonpayable",
      "type": "function"
    },
    {
      "inputs": [],
      "name": "config",
      "outputs": [
        {
          "internalType": "contract PWNConfig",
          "name": "",
          "type": "address"
        }
      ],
      "stateMutability": "view",
      "type": "function"
    },
    {
      "inputs": [
        {
          "internalType": "bytes32",
          "name": "",
          "type": "bytes32"
        }
      ],
      "name": "creditUsed",
      "outputs": [
        {
          "internalType": "uint256",
          "name": "",
          "type": "uint256"
        }
      ],
      "stateMutability": "view",
      "type": "function"
    },
    {
      "inputs": [
        {
          "internalType": "bytes",
          "name": "proposalData",
          "type": "bytes"
        }
      ],
      "name": "decodeProposalData",
      "outputs": [
        {
          "components": [
            {
              "internalType": "enum MultiToken.Category",
              "name": "collateralCategory",
              "type": "uint8"
            },
            {
              "internalType": "address",
              "name": "collateralAddress",
              "type": "address"
            },
            {
              "internalType": "uint256",
              "name": "collateralId",
              "type": "uint256"
            },
            {
              "internalType": "uint256",
              "name": "collateralAmount",
              "type": "uint256"
            },
            {
              "internalType": "bool",
              "name": "checkCollateralStateFingerprint",
              "type": "bool"
            },
            {
              "internalType": "bytes32",
              "name": "collateralStateFingerprint",
              "type": "bytes32"
            },
            {
              "internalType": "address",
              "name": "creditAddress",
              "type": "address"
            },
            {
              "internalType": "uint256",
              "name": "minCreditAmount",
              "type": "uint256"
            },
            {
              "internalType": "uint256",
              "name": "maxCreditAmount",
              "type": "uint256"
            },
            {
              "internalType": "uint256",
              "name": "availableCreditLimit",
              "type": "uint256"
            },
            {
              "internalType": "uint256",
              "name": "fixedInterestAmount",
              "type": "uint256"
            },
            {
              "internalType": "uint40",
              "name": "accruingInterestAPR",
              "type": "uint40"
            },
            {
              "internalType": "uint32",
              "name": "duration",
              "type": "uint32"
            },
            {
              "internalType": "uint40",
              "name": "auctionStart",
              "type": "uint40"
            },
            {
              "internalType": "uint40",
              "name": "auctionDuration",
              "type": "uint40"
            },
            {
              "internalType": "address",
              "name": "allowedAcceptor",
              "type": "address"
            },
            {
              "internalType": "address",
              "name": "proposer",
              "type": "address"
            },
            {
              "internalType": "bytes32",
              "name": "proposerSpecHash",
              "type": "bytes32"
            },
            {
              "internalType": "bool",
              "name": "isOffer",
              "type": "bool"
            },
            {
              "internalType": "uint256",
              "name": "refinancingLoanId",
              "type": "uint256"
            },
            {
              "internalType": "uint256",
              "name": "nonceSpace",
              "type": "uint256"
            },
            {
              "internalType": "uint256",
              "name": "nonce",
              "type": "uint256"
            },
            {
              "internalType": "address",
              "name": "loanContract",
              "type": "address"
            }
          ],
          "internalType": "struct PWNSimpleLoanDutchAuctionProposal.Proposal",
          "name": "",
          "type": "tuple"
        },
        {
          "components": [
            {
              "internalType": "uint256",
              "name": "intendedCreditAmount",
              "type": "uint256"
            },
            {
              "internalType": "uint256",
              "name": "slippage",
              "type": "uint256"
            }
          ],
          "internalType": "struct PWNSimpleLoanDutchAuctionProposal.ProposalValues",
          "name": "",
          "type": "tuple"
        }
      ],
      "stateMutability": "pure",
      "type": "function"
    },
    {
      "inputs": [
        {
          "components": [
            {
              "internalType": "enum MultiToken.Category",
              "name": "collateralCategory",
              "type": "uint8"
            },
            {
              "internalType": "address",
              "name": "collateralAddress",
              "type": "address"
            },
            {
              "internalType": "uint256",
              "name": "collateralId",
              "type": "uint256"
            },
            {
              "internalType": "uint256",
              "name": "collateralAmount",
              "type": "uint256"
            },
            {
              "internalType": "bool",
              "name": "checkCollateralStateFingerprint",
              "type": "bool"
            },
            {
              "internalType": "bytes32",
              "name": "collateralStateFingerprint",
              "type": "bytes32"
            },
            {
              "internalType": "address",
              "name": "creditAddress",
              "type": "address"
            },
            {
              "internalType": "uint256",
              "name": "minCreditAmount",
              "type": "uint256"
            },
            {
              "internalType": "uint256",
              "name": "maxCreditAmount",
              "type": "uint256"
            },
            {
              "internalType": "uint256",
              "name": "availableCreditLimit",
              "type": "uint256"
            },
            {
              "internalType": "uint256",
              "name": "fixedInterestAmount",
              "type": "uint256"
            },
            {
              "internalType": "uint40",
              "name": "accruingInterestAPR",
              "type": "uint40"
            },
            {
              "internalType": "uint32",
              "name": "duration",
              "type": "uint32"
            },
            {
              "internalType": "uint40",
              "name": "auctionStart",
              "type": "uint40"
            },
            {
              "internalType": "uint40",
              "name": "auctionDuration",
              "type": "uint40"
            },
            {
              "internalType": "address",
              "name": "allowedAcceptor",
              "type": "address"
            },
            {
              "internalType": "address",
              "name": "proposer",
              "type": "address"
            },
            {
              "internalType": "bytes32",
              "name": "proposerSpecHash",
              "type": "bytes32"
            },
            {
              "internalType": "bool",
              "name": "isOffer",
              "type": "bool"
            },
            {
              "internalType": "uint256",
              "name": "refinancingLoanId",
              "type": "uint256"
            },
            {
              "internalType": "uint256",
              "name": "nonceSpace",
              "type": "uint256"
            },
            {
              "internalType": "uint256",
              "name": "nonce",
              "type": "uint256"
            },
            {
              "internalType": "address",
              "name": "loanContract",
              "type": "address"
            }
          ],
          "internalType": "struct PWNSimpleLoanDutchAuctionProposal.Proposal",
          "name": "proposal",
          "type": "tuple"
        },
        {
          "components": [
            {
              "internalType": "uint256",
              "name": "intendedCreditAmount",
              "type": "uint256"
            },
            {
              "internalType": "uint256",
              "name": "slippage",
              "type": "uint256"
            }
          ],
          "internalType": "struct PWNSimpleLoanDutchAuctionProposal.ProposalValues",
          "name": "proposalValues",
          "type": "tuple"
        }
      ],
      "name": "encodeProposalData",
      "outputs": [
        {
          "internalType": "bytes",
          "name": "",
          "type": "bytes"
        }
      ],
      "stateMutability": "pure",
      "type": "function"
    },
    {
      "inputs": [
        {
          "components": [
            {
              "internalType": "enum MultiToken.Category",
              "name": "collateralCategory",
              "type": "uint8"
            },
            {
              "internalType": "address",
              "name": "collateralAddress",
              "type": "address"
            },
            {
              "internalType": "uint256",
              "name": "collateralId",
              "type": "uint256"
            },
            {
              "internalType": "uint256",
              "name": "collateralAmount",
              "type": "uint256"
            },
            {
              "internalType": "bool",
              "name": "checkCollateralStateFingerprint",
              "type": "bool"
            },
            {
              "internalType": "bytes32",
              "name": "collateralStateFingerprint",
              "type": "bytes32"
            },
            {
              "internalType": "address",
              "name": "creditAddress",
              "type": "address"
            },
            {
              "internalType": "uint256",
              "name": "minCreditAmount",
              "type": "uint256"
            },
            {
              "internalType": "uint256",
              "name": "maxCreditAmount",
              "type": "uint256"
            },
            {
              "internalType": "uint256",
              "name": "availableCreditLimit",
              "type": "uint256"
            },
            {
              "internalType": "uint256",
              "name": "fixedInterestAmount",
              "type": "uint256"
            },
            {
              "internalType": "uint40",
              "name": "accruingInterestAPR",
              "type": "uint40"
            },
            {
              "internalType": "uint32",
              "name": "duration",
              "type": "uint32"
            },
            {
              "internalType": "uint40",
              "name": "auctionStart",
              "type": "uint40"
            },
            {
              "internalType": "uint40",
              "name": "auctionDuration",
              "type": "uint40"
            },
            {
              "internalType": "address",
              "name": "allowedAcceptor",
              "type": "address"
            },
            {
              "internalType": "address",
              "name": "proposer",
              "type": "address"
            },
            {
              "internalType": "bytes32",
              "name": "proposerSpecHash",
              "type": "bytes32"
            },
            {
              "internalType": "bool",
              "name": "isOffer",
              "type": "bool"
            },
            {
              "internalType": "uint256",
              "name": "refinancingLoanId",
              "type": "uint256"
            },
            {
              "internalType": "uint256",
              "name": "nonceSpace",
              "type": "uint256"
            },
            {
              "internalType": "uint256",
              "name": "nonce",
              "type": "uint256"
            },
            {
              "internalType": "address",
              "name": "loanContract",
              "type": "address"
            }
          ],
          "internalType": "struct PWNSimpleLoanDutchAuctionProposal.Proposal",
          "name": "proposal",
          "type": "tuple"
        },
        {
          "internalType": "uint256",
          "name": "timestamp",
          "type": "uint256"
        }
      ],
      "name": "getCreditAmount",
      "outputs": [
        {
          "internalType": "uint256",
          "name": "",
          "type": "uint256"
        }
      ],
      "stateMutability": "pure",
      "type": "function"
    },
    {
      "inputs": [
        {
          "components": [
            {
              "internalType": "bytes32",
              "name": "multiproposalMerkleRoot",
              "type": "bytes32"
            }
          ],
          "internalType": "struct PWNSimpleLoanProposal.Multiproposal",
          "name": "multiproposal",
          "type": "tuple"
        }
      ],
      "name": "getMultiproposalHash",
      "outputs": [
        {
          "internalType": "bytes32",
          "name": "",
          "type": "bytes32"
        }
      ],
      "stateMutability": "view",
      "type": "function"
    },
    {
      "inputs": [
        {
          "components": [
            {
              "internalType": "enum MultiToken.Category",
              "name": "collateralCategory",
              "type": "uint8"
            },
            {
              "internalType": "address",
              "name": "collateralAddress",
              "type": "address"
            },
            {
              "internalType": "uint256",
              "name": "collateralId",
              "type": "uint256"
            },
            {
              "internalType": "uint256",
              "name": "collateralAmount",
              "type": "uint256"
            },
            {
              "internalType": "bool",
              "name": "checkCollateralStateFingerprint",
              "type": "bool"
            },
            {
              "internalType": "bytes32",
              "name": "collateralStateFingerprint",
              "type": "bytes32"
            },
            {
              "internalType": "address",
              "name": "creditAddress",
              "type": "address"
            },
            {
              "internalType": "uint256",
              "name": "minCreditAmount",
              "type": "uint256"
            },
            {
              "internalType": "uint256",
              "name": "maxCreditAmount",
              "type": "uint256"
            },
            {
              "internalType": "uint256",
              "name": "availableCreditLimit",
              "type": "uint256"
            },
            {
              "internalType": "uint256",
              "name": "fixedInterestAmount",
              "type": "uint256"
            },
            {
              "internalType": "uint40",
              "name": "accruingInterestAPR",
              "type": "uint40"
            },
            {
              "internalType": "uint32",
              "name": "duration",
              "type": "uint32"
            },
            {
              "internalType": "uint40",
              "name": "auctionStart",
              "type": "uint40"
            },
            {
              "internalType": "uint40",
              "name": "auctionDuration",
              "type": "uint40"
            },
            {
              "internalType": "address",
              "name": "allowedAcceptor",
              "type": "address"
            },
            {
              "internalType": "address",
              "name": "proposer",
              "type": "address"
            },
            {
              "internalType": "bytes32",
              "name": "proposerSpecHash",
              "type": "bytes32"
            },
            {
              "internalType": "bool",
              "name": "isOffer",
              "type": "bool"
            },
            {
              "internalType": "uint256",
              "name": "refinancingLoanId",
              "type": "uint256"
            },
            {
              "internalType": "uint256",
              "name": "nonceSpace",
              "type": "uint256"
            },
            {
              "internalType": "uint256",
              "name": "nonce",
              "type": "uint256"
            },
            {
              "internalType": "address",
              "name": "loanContract",
              "type": "address"
            }
          ],
          "internalType": "struct PWNSimpleLoanDutchAuctionProposal.Proposal",
          "name": "proposal",
          "type": "tuple"
        }
      ],
      "name": "getProposalHash",
      "outputs": [
        {
          "internalType": "bytes32",
          "name": "",
          "type": "bytes32"
        }
      ],
      "stateMutability": "view",
      "type": "function"
    },
    {
      "inputs": [],
      "name": "hub",
      "outputs": [
        {
          "internalType": "contract PWNHub",
          "name": "",
          "type": "address"
        }
      ],
      "stateMutability": "view",
      "type": "function"
    },
    {
      "inputs": [
        {
          "components": [
            {
              "internalType": "enum MultiToken.Category",
              "name": "collateralCategory",
              "type": "uint8"
            },
            {
              "internalType": "address",
              "name": "collateralAddress",
              "type": "address"
            },
            {
              "internalType": "uint256",
              "name": "collateralId",
              "type": "uint256"
            },
            {
              "internalType": "uint256",
              "name": "collateralAmount",
              "type": "uint256"
            },
            {
              "internalType": "bool",
              "name": "checkCollateralStateFingerprint",
              "type": "bool"
            },
            {
              "internalType": "bytes32",
              "name": "collateralStateFingerprint",
              "type": "bytes32"
            },
            {
              "internalType": "address",
              "name": "creditAddress",
              "type": "address"
            },
            {
              "internalType": "uint256",
              "name": "minCreditAmount",
              "type": "uint256"
            },
            {
              "internalType": "uint256",
              "name": "maxCreditAmount",
              "type": "uint256"
            },
            {
              "internalType": "uint256",
              "name": "availableCreditLimit",
              "type": "uint256"
            },
            {
              "internalType": "uint256",
              "name": "fixedInterestAmount",
              "type": "uint256"
            },
            {
              "internalType": "uint40",
              "name": "accruingInterestAPR",
              "type": "uint40"
            },
            {
              "internalType": "uint32",
              "name": "duration",
              "type": "uint32"
            },
            {
              "internalType": "uint40",
              "name": "auctionStart",
              "type": "uint40"
            },
            {
              "internalType": "uint40",
              "name": "auctionDuration",
              "type": "uint40"
            },
            {
              "internalType": "address",
              "name": "allowedAcceptor",
              "type": "address"
            },
            {
              "internalType": "address",
              "name": "proposer",
              "type": "address"
            },
            {
              "internalType": "bytes32",
              "name": "proposerSpecHash",
              "type": "bytes32"
            },
            {
              "internalType": "bool",
              "name": "isOffer",
              "type": "bool"
            },
            {
              "internalType": "uint256",
              "name": "refinancingLoanId",
              "type": "uint256"
            },
            {
              "internalType": "uint256",
              "name": "nonceSpace",
              "type": "uint256"
            },
            {
              "internalType": "uint256",
              "name": "nonce",
              "type": "uint256"
            },
            {
              "internalType": "address",
              "name": "loanContract",
              "type": "address"
            }
          ],
          "internalType": "struct PWNSimpleLoanDutchAuctionProposal.Proposal",
          "name": "proposal",
          "type": "tuple"
        }
      ],
      "name": "makeProposal",
      "outputs": [
        {
          "internalType": "bytes32",
          "name": "proposalHash",
          "type": "bytes32"
        }
      ],
      "stateMutability": "nonpayable",
      "type": "function"
    },
    {
      "inputs": [
        {
          "internalType": "bytes32",
          "name": "",
          "type": "bytes32"
        }
      ],
      "name": "proposalsMade",
      "outputs": [
        {
          "internalType": "bool",
          "name": "",
          "type": "bool"
        }
      ],
      "stateMutability": "view",
      "type": "function"
    },
    {
      "inputs": [
        {
          "internalType": "uint256",
          "name": "nonceSpace",
          "type": "uint256"
        },
        {
          "internalType": "uint256",
          "name": "nonce",
          "type": "uint256"
        }
      ],
      "name": "revokeNonce",
      "outputs": [],
      "stateMutability": "nonpayable",
      "type": "function"
    },
    {
      "inputs": [],
      "name": "revokedNonce",
      "outputs": [
        {
          "internalType": "contract PWNRevokedNonce",
          "name": "",
          "type": "address"
        }
      ],
      "stateMutability": "view",
      "type": "function"
    }
  ],
  "bytecode": {
    "object": "0x6101206040523480156200001257600080fd5b5060405162002d1638038062002d168339810160408190526200003591620001d1565b82828260405180606001604052806021815260200162002cf56021913960408051808201825260038152620312e360ec1b6020808301919091526001600160a01b0380881660c05286811660e052851661010052915190917f8b73c3c69bb8fe3d512ecc4cf759cc79239f7b179b0ffacaa9a75d522b39400f91620000bd918591016200021b565b6040516020818303038152906040528051906020012082604051602001620000e691906200021b565b60408051601f1981840301815282825280516020918201209083019490945281019190915260608101919091524660808201523060a082015260c00160408051808303601f1901815282825280516020918201206080527fb2178a58fb1eefb359ecfdd57bb19c0bdd0f4e6eed8547f46600e500ed111af3908301527fb63b40822cc79278afd8d1ce1a8006a4a298ec829d4d1610b69b2a4830c232709082015260600160408051601f19818403018152919052805160209091012060a052506200024c9650505050505050565b80516001600160a01b0381168114620001cc57600080fd5b919050565b600080600060608486031215620001e757600080fd5b620001f284620001b4565b92506200020260208501620001b4565b91506200021260408501620001b4565b90509250925092565b6000825160005b818110156200023e576020818601810151858301520162000222565b506000920191825250919050565b60805160a05160c05160e05161010051612a33620002c260003960008181610227015261133e01526000818161029b0152818161081d0152818161109801526111df0152600081816101d30152610d8d0152600081816102c2015261089001526000818161019e0152610c660152612a336000f3fe608060405234801561001057600080fd5b50600436106101165760003560e01c8063949bcadc116100a2578063c1a1f49111610071578063c1a1f491146102f7578063d06a0d821461030a578063e81ae3d614610331578063f0209ad614610351578063ffa1ad741461037157600080fd5b8063949bcadc146102835780639788ad5514610296578063abe93878146102bd578063b098647f146102e457600080fd5b8063365a86fc116100e9578063365a86fc146101ce578063579bfc301461020d57806379502c5514610222578063829d377014610249578063853b94a01461025c57600080fd5b806301e832721461011b5780631da4c275146101455780632d5d17fc146101785780633644e51514610199575b600080fd5b61012e610129366004611c92565b610393565b60405161013c929190611de4565b60405180910390f35b610168610153366004611e86565b60006020819052908152604090205460ff1681565b604051901515815260200161013c565b61018b610186366004611f02565b61071c565b60405161013c929190612100565b6101c07f000000000000000000000000000000000000000000000000000000000000000081565b60405190815260200161013c565b6101f57f000000000000000000000000000000000000000000000000000000000000000081565b6040516001600160a01b03909116815260200161013c565b61022061021b366004612129565b610806565b005b6101f57f000000000000000000000000000000000000000000000000000000000000000081565b6101c061025736600461214b565b61088c565b6101c07fc91b95ba182b3ea59860b7ebc4e42e45c9c9ae5c8f6bd7b8dbbde7415bb396b781565b6101c061029136600461218d565b61095c565b6101f57f000000000000000000000000000000000000000000000000000000000000000081565b6101c07f000000000000000000000000000000000000000000000000000000000000000081565b6101c06102f2366004612378565b6109dc565b6101c061030536600461218d565b610bff565b6101c07f73af92d8ed4d3261ba61cd686d2f8a9cceb2563cc7c4c5355eb121316fc5358d81565b61034461033f3660046123a5565b610c36565b60405161013c919061244d565b6101c061035f366004611e86565b60016020526000908152604090205481565b610344604051806040016040528060038152602001620312e360ec1b81525081565b600061039d611b99565b6000806103df8a8a8080601f01602080910402602001604051908101604052809392919081815260200183838082843760009201919091525061071c92505050565b9150915061042c7fc91b95ba182b3ea59860b7ebc4e42e45c9c9ae5c8f6bd7b8dbbde7415bb396b7836040516020016104189190612460565b604051602081830303815290604052610c62565b9350600061043a83426109dc565b9050826102400151156104a4578151811080610465575060208201518251829161046391612485565b105b1561049f578151602083015160405163facf997b60e01b815260048101849052602481019290925260448201526064015b60405180910390fd5b6104f7565b81518111806104c257506020820151825182916104c091612498565b115b156104f7578151602083015160405163facf997b60e01b81526004810184905260248101929092526044820152606401610496565b6105eb8d8d878c8c8c8c604051806101c001604052808c602001516001600160a01b031681526020018c6040015181526020018c60800151151581526020018c60a0015181526020018a81526020018c610120015181526020018c6101c001518d6101a0015161056791906124ab565b61057290603c6124ab565b64ffffffffff1681526020018c6101e001516001600160a01b031681526020018c61020001516001600160a01b031681526020018c6102400151151581526020018c610260015181526020018c610280015181526020018c6102a0015181526020018c6102c001516001600160a01b0316815250610cf3565b604051806101200160405280846102400151610607578e61060e565b8461020001515b6001600160a01b0316815260200184610240015161063157846102000151610633565b8e5b6001600160a01b0316815260200184610180015163ffffffff16815260200160405180608001604052808660000151600381111561067357610673611d79565b815260200186602001516001600160a01b0316815260200186604001518152602001866060015181525081526020016106b08560c00151846114f1565b8152602001846101400151815260200184610160015164ffffffffff1681526020018461024001516106e35760006106ea565b8461022001515b815260200184610240015161070457846102200151610707565b60005b81525093505050509850989650505050505050565b604080516102e081018252600080825260208201819052918101829052606081018290526080810182905260a0810182905260c0810182905260e08101829052610100810182905261012081018290526101408101829052610160810182905261018081018290526101a081018290526101c081018290526101e08101829052610200810182905261022081018290526102408101829052610260810182905261028081018290526102a081018290526102c08101919091526040805180820190915260008082526020820152828060200190518101906107fd9190612537565b91509150915091565b60405163f79924a960e01b81526001600160a01b037f0000000000000000000000000000000000000000000000000000000000000000169063f79924a990610856903390869086906004016126c4565b600060405180830381600087803b15801561087057600080fd5b505af1158015610884573d6000803e3d6000fd5b505050505050565b60007f00000000000000000000000000000000000000000000000000000000000000007f73af92d8ed4d3261ba61cd686d2f8a9cceb2563cc7c4c5355eb121316fc5358d836040516020016108e49151815260200190565b60408051601f198184030181529082905261090292916020016126e5565b6040516020818303038152906040528051906020012060405160200161093f92919061190160f01b81526002810192909252602282015260420190565b604051602081830303815290604052805190602001209050919050565b600061096782610bff565b90506109848161097f6102208501610200860161270b565b611529565b6109966102208301610200840161270b565b6001600160a01b0316817f3b1a36970f0572a06721d882d895a21603c69916ffb9df274f0bf300a23bd933846040516109cf9190612728565b60405180910390a3919050565b6000603c836101c0015164ffffffffff161015610a23576101c083015160405163e860e0dd60e01b815264ffffffffff9091166004820152603c6024820152604401610496565b6000603c846101c00151610a3791906128e2565b64ffffffffff161115610a6d576101c083015160405163065d35df60e51b815264ffffffffff9091166004820152602401610496565b8260e0015183610100015111610aaa5760e0830151610100840151604051630dd2188760e41b815260048101929092526024820152604401610496565b826101a0015164ffffffffff16821015610aee576101a0830151604051637eb6cbd960e01b81526004810184905264ffffffffff9091166024820152604401610496565b81836101c00151846101a00151610b0591906124ab565b610b1090603c6124ab565b64ffffffffff1611610b675781836101c00151846101a00151610b3391906124ab565b610b3e90603c6124ab565b60405163aa2fd92560e01b8152600481019290925264ffffffffff166024820152604401610496565b6000610bc38460e00151856101000151610b819190612498565b603c866101a0015164ffffffffff1686610b9b9190612498565b610ba59190612906565b603c876101c00151610bb7919061291a565b64ffffffffff16611579565b9050836102400151610be55780846101000151610be09190612498565b610bf5565b808460e00151610bf59190612485565b9150505b92915050565b6000610bf97fc91b95ba182b3ea59860b7ebc4e42e45c9c9ae5c8f6bd7b8dbbde7415bb396b7836040516020016104189190612728565b60608282604051602001610c4b929190612100565b604051602081830303815290604052905092915050565b60007f00000000000000000000000000000000000000000000000000000000000000008383604051602001610c989291906126e5565b60405160208183030381529060405280519060200120604051602001610cd592919061190160f01b81526002810192909252602282015260420190565b60405160208183030381529060405280519060200120905092915050565b806101a001516001600160a01b0316336001600160a01b031614610d42576101a081015160405163a4ce7f2960e01b81523360048201526001600160a01b039091166024820152604401610496565b6101a081015160405163680cabbd60e11b81526001600160a01b0391821660048201527f9e56ea094d7a53440eef11fa42b63159fbf703b4ee579494a6ae85afc560359460248201527f00000000000000000000000000000000000000000000000000000000000000009091169063d019577a90604401602060405180830381865afa158015610dd6573d6000803e3d6000fd5b505050506040513d601f19601f82011682018060405250810190610dfa919061293e565b610e4f576101a0810151604051630b92eb2560e11b81526001600160a01b0390911660048201527f9e56ea094d7a53440eef11fa42b63159fbf703b4ee579494a6ae85afc56035946024820152604401610496565b6000849003610eef5760008681526020819052604090205460ff16610eea57610eb48161010001518785858080601f01602080910402602001604051908101604052809392919081815260200183838082843760009201919091525061166992505050565b610eea576101008101516040516301d2d55760e31b81526001600160a01b03909116600482015260248101879052604401610496565b610f91565b6000610f116040518060200160405280610f0a89898c61180d565b905261088c565b9050610f598261010001518286868080601f01602080910402602001604051908101604052809392919081815260200183838082843760009201919091525061166992505050565b610f8f576101008201516040516301d2d55760e31b81526001600160a01b03909116600482015260248101829052604401610496565b505b876001600160a01b03168161010001516001600160a01b031603610fd3576040516326ab1a1d60e11b81526001600160a01b0389166004820152602401610496565b8660000361100d576101408101511561100857806101400151604051637a4b6f9760e11b815260040161049691815260200190565b611056565b80610140015187146110565761014081015115158061102f5750806101200151155b1561105657806101400151604051637a4b6f9760e11b815260040161049691815260200190565b8060c0015164ffffffffff1642106110965760c081015160405163aa2fd92560e01b815242600482015264ffffffffff9091166024820152604401610496565b7f00000000000000000000000000000000000000000000000000000000000000006001600160a01b031663f291a62c8261010001518361016001518461018001516040518463ffffffff1660e01b81526004016110f5939291906126c4565b602060405180830381865afa158015611112573d6000803e3d6000fd5b505050506040513d601f19601f82011682018060405250810190611136919061293e565b61116857806101000151816101600151826101800151604051632108c30560e11b8152600401610496939291906126c4565b60e08101516001600160a01b03161580159061119a57508060e001516001600160a01b0316886001600160a01b031614155b156111d15760e0810151604051636075c95560e11b81526001600160a01b03808b1660048301529091166024820152604401610496565b8060a00151600003611273577f00000000000000000000000000000000000000000000000000000000000000006001600160a01b031663f79924a98261010001518361016001518461018001516040518463ffffffff1660e01b815260040161123c939291906126c4565b600060405180830381600087803b15801561125657600080fd5b505af115801561126a573d6000803e3d6000fd5b5050505061130e565b60a081015160808201516000888152600160205260409020546112969190612485565b116112c9576080810151600087815260016020526040812080549091906112be908490612485565b9091555061130e9050565b60808101516000878152600160205260409020546112e79190612485565b60a082015160405163231795cb60e21b815260048101929092526024820152604401610496565b8060400151156114e7578051604051630b7e49eb60e21b81526001600160a01b03918216600482015260009182917f000000000000000000000000000000000000000000000000000000000000000090911690632df927ac90602401602060405180830381865afa158015611387573d6000803e3d6000fd5b505050506040513d601f19601f820116820180604052508101906113ab919061295b565b90506001600160a01b03811615611449578251602084015160405163ec2ce34560e01b81526001600160a01b0384169263ec2ce34592611401926004016001600160a01b03929092168252602082015260400190565b602060405180830381865afa15801561141e573d6000803e3d6000fd5b505050506040513d601f19601f820116820180604052508101906114429190612978565b91506114b0565b825161145c9063f511231560e01b611859565b15611497578251602084015160405163f511231560e01b81526001600160a01b039092169163f5112315916114019160040190815260200190565b60405163f3c0936360e01b815260040160405180910390fd5b818360600151146114e4576060830151604051633840fc0160e01b8152610496918491600401918252602082015260400190565b50505b5050505050505050565b6114f9611bf2565b506040805160808101825260008082526001600160a01b0394909416602082015290810192909252606082015290565b336001600160a01b0382161461155d57604051631144200360e31b81526001600160a01b0382166004820152602401610496565b506000908152602081905260409020805460ff19166001179055565b60008080600019858709858702925082811083820303915050806000036115b3578382816115a9576115a96128cc565b0492505050611662565b8084116115fa5760405162461bcd60e51b81526020600482015260156024820152744d6174683a206d756c446976206f766572666c6f7760581b6044820152606401610496565b600084868809851960019081018716968790049682860381900495909211909303600082900391909104909201919091029190911760038402600290811880860282030280860282030280860282030280860282030280860282030280860290910302029150505b9392505050565b60006001600160a01b0384163b1561176457600080856001600160a01b0316631626ba7e60e01b86866040516024016116a3929190612991565b60408051601f198184030181529181526020820180516001600160e01b03166001600160e01b03199094169390931790925290516116e191906129b2565b600060405180830381855afa9150503d806000811461171c576040519150601f19603f3d011682016040523d82523d6000602084013e611721565b606091505b5091509150818015611734575080516020145b801561175b57508051630b135d3f60e11b906117599083016020908101908401612978565b145b92505050611662565b6000806000845160410361178c5750505060208201516040830151606084015160001a6117e3565b84516040036117c557602085015160408601519093506001600160ff1b03811692506117bd60ff82901c601b612485565b9150506117e3565b845160405163058676ad60e31b815260040161049691815260200190565b6117ef86828585611875565b6001600160a01b0316876001600160a01b0316149350505050611662565b600081815b848110156118505761183c82878784818110611830576118306129ce565b9050602002013561189d565b915080611848816129e4565b915050611812565b50949350505050565b6000611864836118cc565b8015611662575061166283836118ff565b600080600061188687878787611988565b9150915061189381611a4c565b5095945050505050565b60008183106118b9576000828152602084905260409020611662565b6000838152602083905260409020611662565b60006118df826301ffc9a760e01b6118ff565b8015610bf957506118f8826001600160e01b03196118ff565b1592915050565b604080516001600160e01b03198316602480830191909152825180830390910181526044909101909152602080820180516001600160e01b03166301ffc9a760e01b178152825160009392849283928392918391908a617530fa92503d91506000519050828015611971575060208210155b801561197d5750600081115b979650505050505050565b6000807f7fffffffffffffffffffffffffffffff5d576e7357a4501ddfe92f46681b20a08311156119bf5750600090506003611a43565b6040805160008082526020820180845289905260ff881692820192909252606081018690526080810185905260019060a0016020604051602081039080840390855afa158015611a13573d6000803e3d6000fd5b5050604051601f1901519150506001600160a01b038116611a3c57600060019250925050611a43565b9150600090505b94509492505050565b6000816004811115611a6057611a60611d79565b03611a685750565b6001816004811115611a7c57611a7c611d79565b03611ac95760405162461bcd60e51b815260206004820152601860248201527f45434453413a20696e76616c6964207369676e617475726500000000000000006044820152606401610496565b6002816004811115611add57611add611d79565b03611b2a5760405162461bcd60e51b815260206004820152601f60248201527f45434453413a20696e76616c6964207369676e6174757265206c656e677468006044820152606401610496565b6003816004811115611b3e57611b3e611d79565b03611b965760405162461bcd60e51b815260206004820152602260248201527f45434453413a20696e76616c6964207369676e6174757265202773272076616c604482015261756560f01b6064820152608401610496565b50565b60408051610120810182526000808252602082018190529181019190915260608101611bc3611bf2565b8152602001611bd0611bf2565b8152600060208201819052604082018190526060820181905260809091015290565b6040805160808101909152806000815260200160006001600160a01b0316815260200160008152602001600081525090565b6001600160a01b0381168114611b9657600080fd5b8035611c4481611c24565b919050565b60008083601f840112611c5b57600080fd5b50813567ffffffffffffffff811115611c7357600080fd5b602083019150836020828501011115611c8b57600080fd5b9250929050565b60008060008060008060008060a0898b031215611cae57600080fd5b8835611cb981611c24565b975060208901359650604089013567ffffffffffffffff80821115611cdd57600080fd5b611ce98c838d01611c49565b909850965060608b0135915080821115611d0257600080fd5b818b0191508b601f830112611d1657600080fd5b813581811115611d2557600080fd5b8c60208260051b8501011115611d3a57600080fd5b6020830196508095505060808b0135915080821115611d5857600080fd5b50611d658b828c01611c49565b999c989b5096995094979396929594505050565b634e487b7160e01b600052602160045260246000fd5b60048110611dad57634e487b7160e01b600052602160045260246000fd5b9052565b611dbc828251611d8f565b6020818101516001600160a01b03169083015260408082015190830152606090810151910152565b82815281516001600160a01b03166020820152610200810160208301516001600160a01b038116604084015250604083015163ffffffff81166060840152506060830151611e356080840182611db1565b506080830151610100611e4a81850183611db1565b60a085015161018085015260c085015164ffffffffff166101a085015260e08501516101c0850152909301516101e09092019190915292915050565b600060208284031215611e9857600080fd5b5035919050565b634e487b7160e01b600052604160045260246000fd5b6040516102e0810167ffffffffffffffff81118282101715611ed957611ed9611e9f565b60405290565b6040805190810167ffffffffffffffff81118282101715611ed957611ed9611e9f565b600060208284031215611f1457600080fd5b813567ffffffffffffffff80821115611f2c57600080fd5b818401915084601f830112611f4057600080fd5b813581811115611f5257611f52611e9f565b604051601f8201601f19908116603f01168101908382118183101715611f7a57611f7a611e9f565b81604052828152876020848701011115611f9357600080fd5b826020860160208301376000928101602001929092525095945050505050565b611fbe828251611d8f565b6020810151611fd860208401826001600160a01b03169052565b5060408101516040830152606081015160608301526080810151612000608084018215159052565b5060a081015160a083015260c081015161202560c08401826001600160a01b03169052565b5060e081810151908301526101008082015190830152610120808201519083015261014080820151908301526101608082015164ffffffffff908116918401919091526101808083015163ffffffff16908401526101a0808301518216908401526101c080830151909116908301526101e0808201516001600160a01b039081169184019190915261020080830151821690840152610220808301519084015261024080830151151590840152610260808301519084015261028080830151908401526102a080830151908401526102c09182015116910152565b610320810161210f8285611fb3565b82516102e083015260208301516103008301529392505050565b6000806040838503121561213c57600080fd5b50508035926020909101359150565b60006020828403121561215d57600080fd5b6040516020810181811067ffffffffffffffff8211171561218057612180611e9f565b6040529135825250919050565b60006102e082840312156121a057600080fd5b50919050565b60048110611b9657600080fd5b8035611c44816121a6565b8015158114611b9657600080fd5b8035611c44816121be565b64ffffffffff81168114611b9657600080fd5b8035611c44816121d7565b63ffffffff81168114611b9657600080fd5b8035611c44816121f5565b60006102e0828403121561222557600080fd5b61222d611eb5565b9050612238826121b3565b815261224660208301611c39565b6020820152604082013560408201526060820135606082015261226b608083016121cc565b608082015260a082013560a082015261228660c08301611c39565b60c082015260e082810135908201526101008083013590820152610120808301359082015261014080830135908201526101606122c48184016121ea565b908201526101806122d6838201612207565b908201526101a06122e88382016121ea565b908201526101c06122fa8382016121ea565b908201526101e061230c838201611c39565b9082015261020061231e838201611c39565b90820152610220828101359082015261024061233b8184016121cc565b90820152610260828101359082015261028080830135908201526102a080830135908201526102c061236e818401611c39565b9082015292915050565b600080610300838503121561238c57600080fd5b6123968484612212565b946102e0939093013593505050565b6000808284036103208112156123ba57600080fd5b6123c48585612212565b925060406102df19820112156123d957600080fd5b506123e2611edf565b6102e084013581526103009093013560208401525092909150565b60005b83811015612418578181015183820152602001612400565b50506000910152565b600081518084526124398160208601602086016123fd565b601f01601f19169290920160200192915050565b6020815260006116626020830184612421565b6102e08101610bf98284611fb3565b634e487b7160e01b600052601160045260246000fd5b80820180821115610bf957610bf961246f565b81810381811115610bf957610bf961246f565b64ffffffffff8181168382160190808211156124c9576124c961246f565b5092915050565b8051611c44816121a6565b8051611c4481611c24565b8051611c44816121be565b8051611c44816121d7565b8051611c44816121f5565b60006040828403121561251957600080fd5b612521611edf565b9050815181526020820151602082015292915050565b60008082840361032081121561254c57600080fd5b6102e08082121561255c57600080fd5b612564611eb5565b915061256f856124d0565b825261257d602086016124db565b602083015260408501516040830152606085015160608301526125a2608086016124e6565b608083015260a085015160a08301526125bd60c086016124db565b60c083015260e085810151908301526101008086015190830152610120808601519083015261014080860151908301526101606125fb8187016124f1565b9083015261018061260d8682016124fc565b908301526101a061261f8682016124f1565b908301526101c06126318682016124f1565b908301526101e06126438682016124db565b908301526102006126558682016124db565b9083015261022085810151908301526102406126728187016124e6565b90830152610260858101519083015261028080860151908301526102a080860151908301526102c06126a58187016124db565b81840152508193506126b986828701612507565b925050509250929050565b6001600160a01b039390931683526020830191909152604082015260600190565b828152600082516126fd8160208501602087016123fd565b919091016020019392505050565b60006020828403121561271d57600080fd5b813561166281611c24565b6102e0810161273f8261273a856121b3565b611d8f565b61274b60208401611c39565b6001600160a01b038116602084015250604083013560408301526060830135606083015261277b608084016121cc565b1515608083015260a0838101359083015261279860c08401611c39565b6001600160a01b031660c083015260e083810135908301526101008084013590830152610120808401359083015261014080840135908301526101606127df8185016121ea565b64ffffffffff16908301526101806127f8848201612207565b63ffffffff16908301526101a06128108482016121ea565b64ffffffffff16908301526101c06128298482016121ea565b64ffffffffff16908301526101e0612842848201611c39565b6001600160a01b03169083015261020061285d848201611c39565b6001600160a01b03169083015261022083810135908301526102406128838185016121cc565b151590830152610260838101359083015261028080840135908301526102a080840135908301526102c06128b8818501611c39565b6001600160a01b0316920191909152919050565b634e487b7160e01b600052601260045260246000fd5b600064ffffffffff808416806128fa576128fa6128cc565b92169190910692915050565b600082612915576129156128cc565b500490565b600064ffffffffff80841680612932576129326128cc565b92169190910492915050565b60006020828403121561295057600080fd5b8151611662816121be565b60006020828403121561296d57600080fd5b815161166281611c24565b60006020828403121561298a57600080fd5b5051919050565b8281526040602082015260006129aa6040830184612421565b949350505050565b600082516129c48184602087016123fd565b9190910192915050565b634e487b7160e01b600052603260045260246000fd5b6000600182016129f6576129f661246f565b506001019056fea264697066735822122026e722b6282ca25938ff03a8c08b9c26e29a1ac617f411415722d16083d8f30864736f6c6343000810003350574e53696d706c654c6f616e447574636841756374696f6e50726f706f73616c",
    "linkReferences": {}
  },
  "methodIdentifiers": {
    "DOMAIN_SEPARATOR()": "3644e515",
    "MULTIPROPOSAL_DOMAIN_SEPARATOR()": "abe93878",
    "MULTIPROPOSAL_TYPEHASH()": "d06a0d82",
    "PROPOSAL_TYPEHASH()": "853b94a0",
    "VERSION()": "ffa1ad74",
    "acceptProposal(address,uint256,bytes,bytes32[],bytes)": "01e83272",
    "config()": "79502c55",
    "creditUsed(bytes32)": "f0209ad6",
    "decodeProposalData(bytes)": "2d5d17fc",
    "encodeProposalData((uint8,address,uint256,uint256,bool,bytes32,address,uint256,uint256,uint256,uint256,uint40,uint32,uint40,uint40,address,address,bytes32,bool,uint256,uint256,uint256,address),(uint256,uint256))": "e81ae3d6",
    "getCreditAmount((uint8,address,uint256,uint256,bool,bytes32,address,uint256,uint256,uint256,uint256,uint40,uint32,uint40,uint40,address,address,bytes32,bool,uint256,uint256,uint256,address),uint256)": "b098647f",
    "getMultiproposalHash((bytes32))": "829d3770",
    "getProposalHash((uint8,address,uint256,uint256,bool,bytes32,address,uint256,uint256,uint256,uint256,uint40,uint32,uint40,uint40,address,address,bytes32,bool,uint256,uint256,uint256,address))": "c1a1f491",
    "hub()": "365a86fc",
    "makeProposal((uint8,address,uint256,uint256,bool,bytes32,address,uint256,uint256,uint256,uint256,uint40,uint32,uint40,uint40,address,address,bytes32,bool,uint256,uint256,uint256,address))": "949bcadc",
    "proposalsMade(bytes32)": "1da4c275",
    "revokeNonce(uint256,uint256)": "579bfc30",
    "revokedNonce()": "9788ad55"
  },
  "id": 87
}