{
  "abi": [
    {
      "inputs": [
        {
          "internalType": "address",
          "name": "_owner",
          "type": "address"
        },
        {
          "internalType": "address",
          "name": "_epochClock",
          "type": "address"
        },
        {
          "internalType": "address",
          "name": "_supplyManager",
          "type": "address"
        }
      ],
      "stateMutability": "nonpayable",
      "type": "constructor"
    },
    {
      "inputs": [],
      "name": "CallerNotSupplyManager",
      "type": "error"
    },
    {
      "inputs": [],
      "name": "TransfersAlreadyEnabled",
      "type": "error"
    },
    {
      "inputs": [],
      "name": "TransfersDisabled",
      "type": "error"
    },
    {
      "anonymous": false,
      "inputs": [
        {
          "indexed": true,
          "internalType": "address",
          "name": "owner",
          "type": "address"
        },
        {
          "indexed": true,
          "internalType": "address",
          "name": "approved",
          "type": "address"
        },
        {
          "indexed": true,
          "internalType": "uint256",
          "name": "tokenId",
          "type": "uint256"
        }
      ],
      "name": "Approval",
      "type": "event"
    },
    {
      "anonymous": false,
      "inputs": [
        {
          "indexed": true,
          "internalType": "address",
          "name": "owner",
          "type": "address"
        },
        {
          "indexed": true,
          "internalType": "address",
          "name": "operator",
          "type": "address"
        },
        {
          "indexed": false,
          "internalType": "bool",
          "name": "approved",
          "type": "bool"
        }
      ],
      "name": "ApprovalForAll",
      "type": "event"
    },
    {
      "anonymous": false,
      "inputs": [
        {
          "indexed": true,
          "internalType": "address",
          "name": "previousOwner",
          "type": "address"
        },
        {
          "indexed": true,
          "internalType": "address",
          "name": "newOwner",
          "type": "address"
        }
      ],
      "name": "OwnershipTransferStarted",
      "type": "event"
    },
    {
      "anonymous": false,
      "inputs": [
        {
          "indexed": true,
          "internalType": "address",
          "name": "previousOwner",
          "type": "address"
        },
        {
          "indexed": true,
          "internalType": "address",
          "name": "newOwner",
          "type": "address"
        }
      ],
      "name": "OwnershipTransferred",
      "type": "event"
    },
    {
      "anonymous": false,
      "inputs": [
        {
          "indexed": true,
          "internalType": "address",
          "name": "from",
          "type": "address"
        },
        {
          "indexed": true,
          "internalType": "address",
          "name": "to",
          "type": "address"
        },
        {
          "indexed": true,
          "internalType": "uint256",
          "name": "tokenId",
          "type": "uint256"
        }
      ],
      "name": "Transfer",
      "type": "event"
    },
    {
      "inputs": [],
      "name": "acceptOwnership",
      "outputs": [],
      "stateMutability": "nonpayable",
      "type": "function"
    },
    {
      "inputs": [
        {
          "internalType": "address",
          "name": "to",
          "type": "address"
        },
        {
          "internalType": "uint256",
          "name": "tokenId",
          "type": "uint256"
        }
      ],
      "name": "approve",
      "outputs": [],
      "stateMutability": "nonpayable",
      "type": "function"
    },
    {
      "inputs": [
        {
          "internalType": "address",
          "name": "owner",
          "type": "address"
        }
      ],
      "name": "balanceOf",
      "outputs": [
        {
          "internalType": "uint256",
          "name": "",
          "type": "uint256"
        }
      ],
      "stateMutability": "view",
      "type": "function"
    },
    {
      "inputs": [
        {
          "internalType": "uint256",
          "name": "tokenId",
          "type": "uint256"
        }
      ],
      "name": "burn",
      "outputs": [],
      "stateMutability": "nonpayable",
      "type": "function"
    },
    {
      "inputs": [],
      "name": "enableTransfers",
      "outputs": [],
      "stateMutability": "nonpayable",
      "type": "function"
    },
    {
      "inputs": [],
      "name": "epochClock",
      "outputs": [
        {
          "internalType": "contract PWNEpochClock",
          "name": "",
          "type": "address"
        }
      ],
      "stateMutability": "view",
      "type": "function"
    },
    {
      "inputs": [
        {
          "internalType": "uint256",
          "name": "tokenId",
          "type": "uint256"
        }
      ],
      "name": "getApproved",
      "outputs": [
        {
          "internalType": "address",
          "name": "",
          "type": "address"
        }
      ],
      "stateMutability": "view",
      "type": "function"
    },
    {
      "inputs": [
        {
          "internalType": "address",
          "name": "owner",
          "type": "address"
        },
        {
          "internalType": "address",
          "name": "operator",
          "type": "address"
        }
      ],
      "name": "isApprovedForAll",
      "outputs": [
        {
          "internalType": "bool",
          "name": "",
          "type": "bool"
        }
      ],
      "stateMutability": "view",
      "type": "function"
    },
    {
      "inputs": [
        {
          "internalType": "address",
          "name": "to",
          "type": "address"
        },
        {
          "internalType": "uint256",
          "name": "tokenId",
          "type": "uint256"
        }
      ],
      "name": "mint",
      "outputs": [],
      "stateMutability": "nonpayable",
      "type": "function"
    },
    {
      "inputs": [],
      "name": "name",
      "outputs": [
        {
          "internalType": "string",
          "name": "",
          "type": "string"
        }
      ],
      "stateMutability": "view",
      "type": "function"
    },
    {
      "inputs": [
        {
          "internalType": "address",
          "name": "owner",
          "type": "address"
        },
        {
          "internalType": "uint16",
          "name": "epoch",
          "type": "uint16"
        }
      ],
      "name": "ownedTokenIdsAt",
      "outputs": [
        {
          "internalType": "uint256[]",
          "name": "",
          "type": "uint256[]"
        }
      ],
      "stateMutability": "view",
      "type": "function"
    },
    {
      "inputs": [
        {
          "internalType": "address",
          "name": "owner",
          "type": "address"
        }
      ],
      "name": "ownedTokensInEpochs",
      "outputs": [
        {
          "components": [
            {
              "internalType": "uint16",
              "name": "epoch",
              "type": "uint16"
            },
            {
              "internalType": "uint48[]",
              "name": "ids",
              "type": "uint48[]"
            }
          ],
          "internalType": "struct StakedPWN.OwnedTokensInEpoch[]",
          "name": "",
          "type": "tuple[]"
        }
      ],
      "stateMutability": "view",
      "type": "function"
    },
    {
      "inputs": [],
      "name": "owner",
      "outputs": [
        {
          "internalType": "address",
          "name": "",
          "type": "address"
        }
      ],
      "stateMutability": "view",
      "type": "function"
    },
    {
      "inputs": [
        {
          "internalType": "uint256",
          "name": "tokenId",
          "type": "uint256"
        }
      ],
      "name": "ownerOf",
      "outputs": [
        {
          "internalType": "address",
          "name": "",
          "type": "address"
        }
      ],
      "stateMutability": "view",
      "type": "function"
    },
    {
      "inputs": [],
      "name": "pendingOwner",
      "outputs": [
        {
          "internalType": "address",
          "name": "",
          "type": "address"
        }
      ],
      "stateMutability": "view",
      "type": "function"
    },
    {
      "inputs": [],
      "name": "renounceOwnership",
      "outputs": [],
      "stateMutability": "nonpayable",
      "type": "function"
    },
    {
      "inputs": [
        {
          "internalType": "address",
          "name": "from",
          "type": "address"
        },
        {
          "internalType": "address",
          "name": "to",
          "type": "address"
        },
        {
          "internalType": "uint256",
          "name": "tokenId",
          "type": "uint256"
        }
      ],
      "name": "safeTransferFrom",
      "outputs": [],
      "stateMutability": "nonpayable",
      "type": "function"
    },
    {
      "inputs": [
        {
          "internalType": "address",
          "name": "from",
          "type": "address"
        },
        {
          "internalType": "address",
          "name": "to",
          "type": "address"
        },
        {
          "internalType": "uint256",
          "name": "tokenId",
          "type": "uint256"
        },
        {
          "internalType": "bytes",
          "name": "data",
          "type": "bytes"
        }
      ],
      "name": "safeTransferFrom",
      "outputs": [],
      "stateMutability": "nonpayable",
      "type": "function"
    },
    {
      "inputs": [
        {
          "internalType": "address",
          "name": "operator",
          "type": "address"
        },
        {
          "internalType": "bool",
          "name": "approved",
          "type": "bool"
        }
      ],
      "name": "setApprovalForAll",
      "outputs": [],
      "stateMutability": "nonpayable",
      "type": "function"
    },
    {
      "inputs": [],
      "name": "supplyManager",
      "outputs": [
        {
          "internalType": "contract IStakedPWNSupplyManager",
          "name": "",
          "type": "address"
        }
      ],
      "stateMutability": "view",
      "type": "function"
    },
    {
      "inputs": [
        {
          "internalType": "bytes4",
          "name": "interfaceId",
          "type": "bytes4"
        }
      ],
      "name": "supportsInterface",
      "outputs": [
        {
          "internalType": "bool",
          "name": "",
          "type": "bool"
        }
      ],
      "stateMutability": "view",
      "type": "function"
    },
    {
      "inputs": [],
      "name": "symbol",
      "outputs": [
        {
          "internalType": "string",
          "name": "",
          "type": "string"
        }
      ],
      "stateMutability": "view",
      "type": "function"
    },
    {
      "inputs": [
        {
          "internalType": "uint256",
          "name": "tokenId",
          "type": "uint256"
        }
      ],
      "name": "tokenURI",
      "outputs": [
        {
          "internalType": "string",
          "name": "",
          "type": "string"
        }
      ],
      "stateMutability": "view",
      "type": "function"
    },
    {
      "inputs": [
        {
          "internalType": "address",
          "name": "from",
          "type": "address"
        },
        {
          "internalType": "address",
          "name": "to",
          "type": "address"
        },
        {
          "internalType": "uint256",
          "name": "tokenId",
          "type": "uint256"
        }
      ],
      "name": "transferFrom",
      "outputs": [],
      "stateMutability": "nonpayable",
      "type": "function"
    },
    {
      "inputs": [
        {
          "internalType": "address",
          "name": "newOwner",
          "type": "address"
        }
      ],
      "name": "transferOwnership",
      "outputs": [],
      "stateMutability": "nonpayable",
      "type": "function"
    },
    {
      "inputs": [],
      "name": "transfersEnabled",
      "outputs": [
        {
          "internalType": "bool",
          "name": "",
          "type": "bool"
        }
      ],
      "stateMutability": "view",
      "type": "function"
    }
  ],
  "bytecode": {
    "object": "0x60c06040523480156200001157600080fd5b50604051620023b5380380620023b5833981016040819052620000349162000171565b6040518060400160405280600a81526020016929ba30b5b2b210282ba760b11b8152506040518060400160405280600581526020016439ba282ba760d91b8152506200008f62000089620000d660201b60201c565b620000da565b60026200009d838262000260565b506003620000ac828262000260565b5050506001600160a01b0380831660a0528116608052620000cd83620000da565b5050506200032c565b3390565b600180546001600160a01b0319169055620001018162000104602090811b62000d0a17901c565b50565b600080546001600160a01b038381166001600160a01b0319831681178455604051919092169283917f8be0079c531659141344cd1fd0a4f28419497f9722a3daafe3b4186f6b6457e09190a35050565b80516001600160a01b03811681146200016c57600080fd5b919050565b6000806000606084860312156200018757600080fd5b620001928462000154565b9250620001a26020850162000154565b9150620001b26040850162000154565b90509250925092565b634e487b7160e01b600052604160045260246000fd5b600181811c90821680620001e657607f821691505b6020821081036200020757634e487b7160e01b600052602260045260246000fd5b50919050565b601f8211156200025b57600081815260208120601f850160051c81016020861015620002365750805b601f850160051c820191505b81811015620002575782815560010162000242565b5050505b505050565b81516001600160401b038111156200027c576200027c620001bb565b62000294816200028d8454620001d1565b846200020d565b602080601f831160018114620002cc5760008415620002b35750858301515b600019600386901b1c1916600185901b17855562000257565b600085815260208120601f198616915b82811015620002fd57888601518255948401946001909101908401620002dc565b50858210156200031c5787850151600019600388901b60f8161c191681555b5050505050600190811b01905550565b60805160a0516120476200036e600039600081816102fe01526114180152600081816103c00152818161084c015281816108be0152610c2201526120476000f3fe608060405234801561001057600080fd5b506004361061018e5760003560e01c806379ba5097116100de578063b88d4fde11610097578063e30c397811610071578063e30c39781461036e578063e985e9c51461037f578063f147389f146103bb578063f2fde38b146103e257600080fd5b8063b88d4fde1461033b578063bef97c871461034e578063c87b56dd1461035b57600080fd5b806379ba5097146102d85780638da5cb5b146102e057806395d89b41146102f15780639cf9a327146102f9578063a22cb46514610320578063af35c6c71461033357600080fd5b806340c10f191161014b578063602fdb0311610125578063602fdb031461027c5780636352211e1461029c57806370a08231146102af578063715018a6146102d057600080fd5b806340c10f191461024357806342842e0e1461025657806342966c681461026957600080fd5b806301ffc9a71461019357806306fdde03146101bb578063081812fc146101d0578063095ea7b3146101fb57806323b872dd1461021057806329e4eae314610223575b600080fd5b6101a66101a1366004611985565b6103f5565b60405190151581526020015b60405180910390f35b6101c3610447565b6040516101b291906119f9565b6101e36101de366004611a0c565b6104d9565b6040516001600160a01b0390911681526020016101b2565b61020e610209366004611a41565b610500565b005b61020e61021e366004611a6b565b61061a565b610236610231366004611ab7565b61064b565b6040516101b29190611aee565b61020e610251366004611a41565b610841565b61020e610264366004611a6b565b610898565b61020e610277366004611a0c565b6108b3565b61028f61028a366004611b32565b610908565b6040516101b29190611b4d565b6101e36102aa366004611a0c565b610a0b565b6102c26102bd366004611b32565b610a6b565b6040519081526020016101b2565b61020e610af1565b61020e610b05565b6000546001600160a01b03166101e3565b6101c3610b7c565b6101e37f000000000000000000000000000000000000000000000000000000000000000081565b61020e61032e366004611bf9565b610b8b565b61020e610b96565b61020e610349366004611c99565b610bd1565b6008546101a69060ff1681565b6101c3610369366004611a0c565b610c09565b6001546001600160a01b03166101e3565b6101a661038d366004611d44565b6001600160a01b03918216600090815260076020908152604080832093909416825291909152205460ff1690565b6101e37f000000000000000000000000000000000000000000000000000000000000000081565b61020e6103f0366004611b32565b610c99565b60006001600160e01b031982166380ac58cd60e01b148061042657506001600160e01b03198216635b5e139f60e01b145b8061044157506301ffc9a760e01b6001600160e01b03198316145b92915050565b60606002805461045690611d77565b80601f016020809104026020016040519081016040528092919081815260200182805461048290611d77565b80156104cf5780601f106104a4576101008083540402835291602001916104cf565b820191906000526020600020905b8154815290600101906020018083116104b257829003601f168201915b5050505050905090565b60006104e482610d5a565b506000908152600660205260409020546001600160a01b031690565b600061050b82610a0b565b9050806001600160a01b0316836001600160a01b03160361057d5760405162461bcd60e51b815260206004820152602160248201527f4552433732313a20617070726f76616c20746f2063757272656e74206f776e656044820152603960f91b60648201526084015b60405180910390fd5b336001600160a01b03821614806105995750610599813361038d565b61060b5760405162461bcd60e51b815260206004820152603d60248201527f4552433732313a20617070726f76652063616c6c6572206973206e6f7420746f60448201527f6b656e206f776e6572206f7220617070726f76656420666f7220616c6c0000006064820152608401610574565b6106158383610db9565b505050565b6106243382610e27565b6106405760405162461bcd60e51b815260040161057490611db1565b610615838383610ea6565b6001600160a01b03821660009081526009602052604081208054606092036106a25760005b604051908082528060200260200182016040528015610699578160200160208202803683370190505b50915050610441565b806000815481106106b5576106b5611dfe565b600091825260209091206002909102015461ffff90811690841610156106dc576000610670565b80546000906106ed90600190611e2a565b90505b8361ffff1682828154811061070757610707611dfe565b600091825260209091206002909102015461ffff161115610734578061072c81611e3d565b9150506106f0565b600082828154811061074857610748611dfe565b6000918252602082206001600290920201015491508167ffffffffffffffff81111561077657610776611c2a565b60405190808252806020026020018201604052801561079f578160200160208202803683370190505b50905060005b82811015610836578484815481106107bf576107bf611dfe565b906000526020600020906002020160010181815481106107e1576107e1611dfe565b90600052602060002090600591828204019190066006029054906101000a900465ffffffffffff1665ffffffffffff1682828151811061082357610823611dfe565b60209081029190910101526001016107a5565b509695505050505050565b336001600160a01b037f0000000000000000000000000000000000000000000000000000000000000000161461088a576040516313c68ddf60e11b815260040160405180910390fd5b6108948282611017565b5050565b61061583838360405180602001604052806000815250610bd1565b336001600160a01b037f000000000000000000000000000000000000000000000000000000000000000016146108fc576040516313c68ddf60e11b815260040160405180910390fd5b610905816111b0565b50565b6001600160a01b0381166000908152600960209081526040808320805482518185028101850190935280835260609492939192909184015b82821015610a0057600084815260209081902060408051808201825260028602909201805461ffff1683526001810180548351818702810187019094528084529394919385830193928301828280156109e857602002820191906000526020600020906000905b82829054906101000a900465ffffffffffff1665ffffffffffff16815260200190600601906020826005010492830192600103820291508084116109a75790505b50505050508152505081526020019060010190610940565b505050509050919050565b6000818152600460205260408120546001600160a01b0316806104415760405162461bcd60e51b8152602060048201526018602482015277115490cdcc8c4e881a5b9d985b1a59081d1bdad95b88125160421b6044820152606401610574565b60006001600160a01b038216610ad55760405162461bcd60e51b815260206004820152602960248201527f4552433732313a2061646472657373207a65726f206973206e6f7420612076616044820152683634b21037bbb732b960b91b6064820152608401610574565b506001600160a01b031660009081526005602052604090205490565b610af9611253565b610b0360006112ad565b565b60015433906001600160a01b03168114610b735760405162461bcd60e51b815260206004820152602960248201527f4f776e61626c6532537465703a2063616c6c6572206973206e6f7420746865206044820152683732bb9037bbb732b960b91b6064820152608401610574565b610905816112ad565b60606003805461045690611d77565b6108943383836112c6565b610b9e611253565b60085460ff1615610bc2576040516385e1a58160e01b815260040160405180910390fd5b6008805460ff19166001179055565b610bdb3383610e27565b610bf75760405162461bcd60e51b815260040161057490611db1565b610c0384848484611394565b50505050565b60405163e959319f60e01b8152600481018290526060907f00000000000000000000000000000000000000000000000000000000000000006001600160a01b03169063e959319f90602401600060405180830381865afa158015610c71573d6000803e3d6000fd5b505050506040513d6000823e601f3d908101601f191682016040526104419190810190611e54565b610ca1611253565b600180546001600160a01b0383166001600160a01b03199091168117909155610cd26000546001600160a01b031690565b6001600160a01b03167f38d16b8cac22d99fc7c124b9cd0de2d3fa1faef420bfe791d8c362d765e2270060405160405180910390a350565b600080546001600160a01b038381166001600160a01b0319831681178455604051919092169283917f8be0079c531659141344cd1fd0a4f28419497f9722a3daafe3b4186f6b6457e09190a35050565b6000818152600460205260409020546001600160a01b03166109055760405162461bcd60e51b8152602060048201526018602482015277115490cdcc8c4e881a5b9d985b1a59081d1bdad95b88125160421b6044820152606401610574565b600081815260066020526040902080546001600160a01b0319166001600160a01b0384169081179091558190610dee82610a0b565b6001600160a01b03167f8c5be1e5ebec7d5bd14f71427d1e84f3dd0314c0f7b2291e5b200ac8c7c3b92560405160405180910390a45050565b600080610e3383610a0b565b9050806001600160a01b0316846001600160a01b03161480610e7a57506001600160a01b0380821660009081526007602090815260408083209388168352929052205460ff165b80610e9e5750836001600160a01b0316610e93846104d9565b6001600160a01b0316145b949350505050565b826001600160a01b0316610eb982610a0b565b6001600160a01b031614610edf5760405162461bcd60e51b815260040161057490611ecb565b6001600160a01b038216610f415760405162461bcd60e51b8152602060048201526024808201527f4552433732313a207472616e7366657220746f20746865207a65726f206164646044820152637265737360e01b6064820152608401610574565b610f4e83838360016113c7565b826001600160a01b0316610f6182610a0b565b6001600160a01b031614610f875760405162461bcd60e51b815260040161057490611ecb565b600081815260066020908152604080832080546001600160a01b03199081169091556001600160a01b0387811680865260058552838620805460001901905590871680865283862080546001019055868652600490945282852080549092168417909155905184937fddf252ad1be2c89b69c2b068fc378daa952ba7f163c4a11628f55a4df523b3ef91a4505050565b6001600160a01b03821661106d5760405162461bcd60e51b815260206004820181905260248201527f4552433732313a206d696e7420746f20746865207a65726f20616464726573736044820152606401610574565b6000818152600460205260409020546001600160a01b0316156110d25760405162461bcd60e51b815260206004820152601c60248201527f4552433732313a20746f6b656e20616c7265616479206d696e746564000000006044820152606401610574565b6110e06000838360016113c7565b6000818152600460205260409020546001600160a01b0316156111455760405162461bcd60e51b815260206004820152601c60248201527f4552433732313a20746f6b656e20616c7265616479206d696e746564000000006044820152606401610574565b6001600160a01b038216600081815260056020908152604080832080546001019055848352600490915280822080546001600160a01b0319168417905551839291907fddf252ad1be2c89b69c2b068fc378daa952ba7f163c4a11628f55a4df523b3ef908290a45050565b60006111bb82610a0b565b90506111cb8160008460016113c7565b6111d482610a0b565b600083815260066020908152604080832080546001600160a01b03199081169091556001600160a01b0385168085526005845282852080546000190190558785526004909352818420805490911690555192935084927fddf252ad1be2c89b69c2b068fc378daa952ba7f163c4a11628f55a4df523b3ef908390a45050565b6000546001600160a01b03163314610b035760405162461bcd60e51b815260206004820181905260248201527f4f776e61626c653a2063616c6c6572206973206e6f7420746865206f776e65726044820152606401610574565b600180546001600160a01b031916905561090581610d0a565b816001600160a01b0316836001600160a01b0316036113275760405162461bcd60e51b815260206004820152601960248201527f4552433732313a20617070726f766520746f2063616c6c6572000000000000006044820152606401610574565b6001600160a01b03838116600081815260076020908152604080832094871680845294825291829020805460ff191686151590811790915591519182527f17307eab39ab6107e8899845ad3d59bd9653f200f220920489ca2b5937696c31910160405180910390a3505050565b61139f848484610ea6565b6113ab848484846114e0565b610c035760405162461bcd60e51b815260040161057490611f10565b60085460ff161580156113e257506001600160a01b03841615155b80156113f657506001600160a01b03831615155b1561141457604051638574adcf60e01b815260040160405180910390fd5b60007f00000000000000000000000000000000000000000000000000000000000000006001600160a01b031663766718086040518163ffffffff1660e01b8152600401602060405180830381865afa158015611474573d6000803e3d6000fd5b505050506040513d601f19601f820116820180604052508101906114989190611f62565b6114a3906001611f7f565b90506001600160a01b038516156114bf576114bf8584836115e1565b6001600160a01b038416156114d9576114d98484836116a4565b5050505050565b60006001600160a01b0384163b156115d657604051630a85bd0160e11b81526001600160a01b0385169063150b7a0290611524903390899088908890600401611fa1565b6020604051808303816000875af192505050801561155f575060408051601f3d908101601f1916820190925261155c91810190611fde565b60015b6115bc573d80801561158d576040519150601f19603f3d011682016040523d82523d6000602084013e611592565b606091505b5080516000036115b45760405162461bcd60e51b815260040161057490611f10565b805181602001fd5b6001600160e01b031916630a85bd0160e11b149050610e9e565b506001949350505050565b6001600160a01b03831660009081526009602052604081208054909190829061160c90600190611e2a565b8154811061161c5761161c611dfe565b60009182526020909120600290910201805490915061ffff8085169116036116505761164b81600101856117ca565b6114d9565b8154600180820184556000848152602090206002909202909101805461ffff191661ffff86161781558282018054919261168e9290840191906118fc565b5061169c81600101866117ca565b505050505050565b6001600160a01b0383166000908152600960205260408120805490919081036116f357508054600181018255600082815260209020600290910201805461ffff191661ffff8416178155611781565b8154600090839061170690600190611e2a565b8154811061171657611716611dfe565b60009182526020909120600290910201805490915061ffff8086169116036117405780915061177f565b8254600180820185556000858152602090206002909202909101805461ffff191661ffff8716178155828201805491945061177d928501916118fc565b505b505b60019081018054918201815560009081526020902060058083049091018054919092066006026101000a65ffffffffffff81810219909216959091160293909317909255505050565b815460005b81811015610c0357828482815481106117ea576117ea611dfe565b90600052602060002090600591828204019190066006029054906101000a900465ffffffffffff1665ffffffffffff16036118f4578361182b600184611e2a565b8154811061183b5761183b611dfe565b90600052602060002090600591828204019190066006029054906101000a900465ffffffffffff1684828154811061187557611875611dfe565b90600052602060002090600591828204019190066006026101000a81548165ffffffffffff021916908365ffffffffffff160217905550838054806118bc576118bc611ffb565b60019003818190600052602060002090600591828204019190066006026101000a81549065ffffffffffff0219169055905550505050565b6001016117cf565b8280548282559060005260206000209060040160059004810192821561194a576000526020600020916004016005900482015b8281111561194a57825482559160010191906001019061192f565b5061195692915061195a565b5090565b5b80821115611956576000815560010161195b565b6001600160e01b03198116811461090557600080fd5b60006020828403121561199757600080fd5b81356119a28161196f565b9392505050565b60005b838110156119c45781810151838201526020016119ac565b50506000910152565b600081518084526119e58160208601602086016119a9565b601f01601f19169290920160200192915050565b6020815260006119a260208301846119cd565b600060208284031215611a1e57600080fd5b5035919050565b80356001600160a01b0381168114611a3c57600080fd5b919050565b60008060408385031215611a5457600080fd5b611a5d83611a25565b946020939093013593505050565b600080600060608486031215611a8057600080fd5b611a8984611a25565b9250611a9760208501611a25565b9150604084013590509250925092565b61ffff8116811461090557600080fd5b60008060408385031215611aca57600080fd5b611ad383611a25565b91506020830135611ae381611aa7565b809150509250929050565b6020808252825182820181905260009190848201906040850190845b81811015611b2657835183529284019291840191600101611b0a565b50909695505050505050565b600060208284031215611b4457600080fd5b6119a282611a25565b60006020808301818452808551808352604092508286019150828160051b8701018488016000805b84811015611bea57898403603f190186528251805161ffff168552880151888501889052805188860181905290890190839060608701905b80831015611bd557835165ffffffffffff168252928b019260019290920191908b0190611bad565b50978a01979550505091870191600101611b75565b50919998505050505050505050565b60008060408385031215611c0c57600080fd5b611c1583611a25565b915060208301358015158114611ae357600080fd5b634e487b7160e01b600052604160045260246000fd5b604051601f8201601f1916810167ffffffffffffffff81118282101715611c6957611c69611c2a565b604052919050565b600067ffffffffffffffff821115611c8b57611c8b611c2a565b50601f01601f191660200190565b60008060008060808587031215611caf57600080fd5b611cb885611a25565b9350611cc660208601611a25565b925060408501359150606085013567ffffffffffffffff811115611ce957600080fd5b8501601f81018713611cfa57600080fd5b8035611d0d611d0882611c71565b611c40565b818152886020838501011115611d2257600080fd5b8160208401602083013760006020838301015280935050505092959194509250565b60008060408385031215611d5757600080fd5b611d6083611a25565b9150611d6e60208401611a25565b90509250929050565b600181811c90821680611d8b57607f821691505b602082108103611dab57634e487b7160e01b600052602260045260246000fd5b50919050565b6020808252602d908201527f4552433732313a2063616c6c6572206973206e6f7420746f6b656e206f776e6560408201526c1c881bdc88185c1c1c9bdd9959609a1b606082015260800190565b634e487b7160e01b600052603260045260246000fd5b634e487b7160e01b600052601160045260246000fd5b8181038181111561044157610441611e14565b600081611e4c57611e4c611e14565b506000190190565b600060208284031215611e6657600080fd5b815167ffffffffffffffff811115611e7d57600080fd5b8201601f81018413611e8e57600080fd5b8051611e9c611d0882611c71565b818152856020838501011115611eb157600080fd5b611ec28260208301602086016119a9565b95945050505050565b60208082526025908201527f4552433732313a207472616e736665722066726f6d20696e636f72726563742060408201526437bbb732b960d91b606082015260800190565b60208082526032908201527f4552433732313a207472616e7366657220746f206e6f6e20455243373231526560408201527131b2b4bb32b91034b6b83632b6b2b73a32b960711b606082015260800190565b600060208284031215611f7457600080fd5b81516119a281611aa7565b61ffff818116838216019080821115611f9a57611f9a611e14565b5092915050565b6001600160a01b0385811682528416602082015260408101839052608060608201819052600090611fd4908301846119cd565b9695505050505050565b600060208284031215611ff057600080fd5b81516119a28161196f565b634e487b7160e01b600052603160045260246000fdfea264697066735822122091e1c3bfffada7199b951774d2136663e400eb22f6d02552e6811b169c69a72c64736f6c63430008120033",
    "linkReferences": {}
  },
  "methodIdentifiers": {
    "acceptOwnership()": "79ba5097",
    "approve(address,uint256)": "095ea7b3",
    "balanceOf(address)": "70a08231",
    "burn(uint256)": "42966c68",
    "enableTransfers()": "af35c6c7",
    "epochClock()": "9cf9a327",
    "getApproved(uint256)": "081812fc",
    "isApprovedForAll(address,address)": "e985e9c5",
    "mint(address,uint256)": "40c10f19",
    "name()": "06fdde03",
    "ownedTokenIdsAt(address,uint16)": "29e4eae3",
    "ownedTokensInEpochs(address)": "602fdb03",
    "owner()": "8da5cb5b",
    "ownerOf(uint256)": "6352211e",
    "pendingOwner()": "e30c3978",
    "renounceOwnership()": "715018a6",
    "safeTransferFrom(address,address,uint256)": "42842e0e",
    "safeTransferFrom(address,address,uint256,bytes)": "b88d4fde",
    "setApprovalForAll(address,bool)": "a22cb465",
    "supplyManager()": "f147389f",
    "supportsInterface(bytes4)": "01ffc9a7",
    "symbol()": "95d89b41",
    "tokenURI(uint256)": "c87b56dd",
    "transferFrom(address,address,uint256)": "23b872dd",
    "transferOwnership(address)": "f2fde38b",
    "transfersEnabled()": "bef97c87"
  },
  "id": 54
}