{
  "abi": [
    {
      "inputs": [],
      "stateMutability": "nonpayable",
      "type": "constructor"
    },
    {
      "inputs": [],
      "name": "ApproveDisabled",
      "type": "error"
    },
    {
      "inputs": [],
      "name": "DelegateBySigDisabled",
      "type": "error"
    },
    {
      "inputs": [],
      "name": "DelegateDisabled",
      "type": "error"
    },
    {
      "inputs": [],
      "name": "EpochStillRunning",
      "type": "error"
    },
    {
      "inputs": [],
      "name": "InvalidAmount",
      "type": "error"
    },
    {
      "inputs": [],
      "name": "InvalidLockUpPeriod",
      "type": "error"
    },
    {
      "inputs": [],
      "name": "LockUpPeriodMismatch",
      "type": "error"
    },
    {
      "inputs": [],
      "name": "NotStakeOwner",
      "type": "error"
    },
    {
      "inputs": [],
      "name": "NothingToIncrease",
      "type": "error"
    },
    {
      "inputs": [
        {
          "internalType": "uint256",
          "name": "lastCalculatedEpoch",
          "type": "uint256"
        }
      ],
      "name": "PowerAlreadyCalculated",
      "type": "error"
    },
    {
      "inputs": [],
      "name": "TransferDisabled",
      "type": "error"
    },
    {
      "inputs": [],
      "name": "TransferFromDisabled",
      "type": "error"
    },
    {
      "inputs": [],
      "name": "WithrawalBeforeLockUpEnd",
      "type": "error"
    },
    {
      "anonymous": false,
      "inputs": [
        {
          "indexed": true,
          "internalType": "address",
          "name": "owner",
          "type": "address"
        },
        {
          "indexed": true,
          "internalType": "address",
          "name": "spender",
          "type": "address"
        },
        {
          "indexed": false,
          "internalType": "uint256",
          "name": "value",
          "type": "uint256"
        }
      ],
      "name": "Approval",
      "type": "event"
    },
    {
      "anonymous": false,
      "inputs": [
        {
          "indexed": true,
          "internalType": "address",
          "name": "delegator",
          "type": "address"
        },
        {
          "indexed": true,
          "internalType": "address",
          "name": "fromDelegate",
          "type": "address"
        },
        {
          "indexed": true,
          "internalType": "address",
          "name": "toDelegate",
          "type": "address"
        }
      ],
      "name": "DelegateChanged",
      "type": "event"
    },
    {
      "anonymous": false,
      "inputs": [
        {
          "indexed": true,
          "internalType": "address",
          "name": "delegate",
          "type": "address"
        },
        {
          "indexed": false,
          "internalType": "uint256",
          "name": "previousBalance",
          "type": "uint256"
        },
        {
          "indexed": false,
          "internalType": "uint256",
          "name": "newBalance",
          "type": "uint256"
        }
      ],
      "name": "DelegateVotesChanged",
      "type": "event"
    },
    {
      "anonymous": false,
      "inputs": [
        {
          "indexed": false,
          "internalType": "uint8",
          "name": "version",
          "type": "uint8"
        }
      ],
      "name": "Initialized",
      "type": "event"
    },
    {
      "anonymous": false,
      "inputs": [
        {
          "indexed": true,
          "internalType": "address",
          "name": "previousOwner",
          "type": "address"
        },
        {
          "indexed": true,
          "internalType": "address",
          "name": "newOwner",
          "type": "address"
        }
      ],
      "name": "OwnershipTransferStarted",
      "type": "event"
    },
    {
      "anonymous": false,
      "inputs": [
        {
          "indexed": true,
          "internalType": "address",
          "name": "previousOwner",
          "type": "address"
        },
        {
          "indexed": true,
          "internalType": "address",
          "name": "newOwner",
          "type": "address"
        }
      ],
      "name": "OwnershipTransferred",
      "type": "event"
    },
    {
      "anonymous": false,
      "inputs": [
        {
          "indexed": true,
          "internalType": "uint256",
          "name": "stakeId",
          "type": "uint256"
        },
        {
          "indexed": true,
          "internalType": "address",
          "name": "staker",
          "type": "address"
        },
        {
          "indexed": false,
          "internalType": "uint256",
          "name": "amount",
          "type": "uint256"
        },
        {
          "indexed": false,
          "internalType": "uint256",
          "name": "lockUpEpochs",
          "type": "uint256"
        }
      ],
      "name": "StakeCreated",
      "type": "event"
    },
    {
      "anonymous": false,
      "inputs": [
        {
          "indexed": true,
          "internalType": "uint256",
          "name": "stakeId",
          "type": "uint256"
        },
        {
          "indexed": true,
          "internalType": "address",
          "name": "staker",
          "type": "address"
        },
        {
          "indexed": false,
          "internalType": "uint256",
          "name": "additionalAmount",
          "type": "uint256"
        },
        {
          "indexed": false,
          "internalType": "uint256",
          "name": "newAmount",
          "type": "uint256"
        },
        {
          "indexed": false,
          "internalType": "uint256",
          "name": "additionalEpochs",
          "type": "uint256"
        },
        {
          "indexed": false,
          "internalType": "uint256",
          "name": "newEpochs",
          "type": "uint256"
        },
        {
          "indexed": false,
          "internalType": "uint256",
          "name": "newStakeId",
          "type": "uint256"
        }
      ],
      "name": "StakeIncreased",
      "type": "event"
    },
    {
      "anonymous": false,
      "inputs": [
        {
          "indexed": true,
          "internalType": "uint256",
          "name": "stakeId1",
          "type": "uint256"
        },
        {
          "indexed": true,
          "internalType": "uint256",
          "name": "stakeId2",
          "type": "uint256"
        },
        {
          "indexed": true,
          "internalType": "address",
          "name": "staker",
          "type": "address"
        },
        {
          "indexed": false,
          "internalType": "uint256",
          "name": "amount",
          "type": "uint256"
        },
        {
          "indexed": false,
          "internalType": "uint256",
          "name": "lockUpEpochs",
          "type": "uint256"
        },
        {
          "indexed": false,
          "internalType": "uint256",
          "name": "newStakeId",
          "type": "uint256"
        }
      ],
      "name": "StakeMerged",
      "type": "event"
    },
    {
      "anonymous": false,
      "inputs": [
        {
          "indexed": true,
          "internalType": "uint256",
          "name": "stakeId",
          "type": "uint256"
        },
        {
          "indexed": true,
          "internalType": "address",
          "name": "staker",
          "type": "address"
        },
        {
          "indexed": false,
          "internalType": "uint256",
          "name": "amount1",
          "type": "uint256"
        },
        {
          "indexed": false,
          "internalType": "uint256",
          "name": "amount2",
          "type": "uint256"
        },
        {
          "indexed": false,
          "internalType": "uint256",
          "name": "newStakeId1",
          "type": "uint256"
        },
        {
          "indexed": false,
          "internalType": "uint256",
          "name": "newStakeId2",
          "type": "uint256"
        }
      ],
      "name": "StakeSplit",
      "type": "event"
    },
    {
      "anonymous": false,
      "inputs": [
        {
          "indexed": true,
          "internalType": "uint256",
          "name": "stakeId",
          "type": "uint256"
        },
        {
          "indexed": true,
          "internalType": "address",
          "name": "staker",
          "type": "address"
        },
        {
          "indexed": false,
          "internalType": "uint256",
          "name": "amount",
          "type": "uint256"
        }
      ],
      "name": "StakeWithdrawn",
      "type": "event"
    },
    {
      "anonymous": false,
      "inputs": [
        {
          "indexed": true,
          "internalType": "uint256",
          "name": "epoch",
          "type": "uint256"
        }
      ],
      "name": "TotalPowerCalculated",
      "type": "event"
    },
    {
      "anonymous": false,
      "inputs": [
        {
          "indexed": true,
          "internalType": "address",
          "name": "from",
          "type": "address"
        },
        {
          "indexed": true,
          "internalType": "address",
          "name": "to",
          "type": "address"
        },
        {
          "indexed": false,
          "internalType": "uint256",
          "name": "value",
          "type": "uint256"
        }
      ],
      "name": "Transfer",
      "type": "event"
    },
    {
      "inputs": [],
      "name": "CLOCK_MODE",
      "outputs": [
        {
          "internalType": "string",
          "name": "",
          "type": "string"
        }
      ],
      "stateMutability": "pure",
      "type": "function"
    },
    {
      "inputs": [],
      "name": "EPOCHS_IN_YEAR",
      "outputs": [
        {
          "internalType": "uint8",
          "name": "",
          "type": "uint8"
        }
      ],
      "stateMutability": "view",
      "type": "function"
    },
    {
      "inputs": [],
      "name": "TOTAL_POWER_NAMESPACE",
      "outputs": [
        {
          "internalType": "bytes32",
          "name": "",
          "type": "bytes32"
        }
      ],
      "stateMutability": "view",
      "type": "function"
    },
    {
      "inputs": [],
      "name": "acceptOwnership",
      "outputs": [],
      "stateMutability": "nonpayable",
      "type": "function"
    },
    {
      "inputs": [
        {
          "internalType": "address",
          "name": "",
          "type": "address"
        },
        {
          "internalType": "address",
          "name": "",
          "type": "address"
        }
      ],
      "name": "allowance",
      "outputs": [
        {
          "internalType": "uint256",
          "name": "",
          "type": "uint256"
        }
      ],
      "stateMutability": "pure",
      "type": "function"
    },
    {
      "inputs": [
        {
          "internalType": "address",
          "name": "",
          "type": "address"
        },
        {
          "internalType": "uint256",
          "name": "",
          "type": "uint256"
        }
      ],
      "name": "approve",
      "outputs": [
        {
          "internalType": "bool",
          "name": "",
          "type": "bool"
        }
      ],
      "stateMutability": "pure",
      "type": "function"
    },
    {
      "inputs": [
        {
          "internalType": "address",
          "name": "account",
          "type": "address"
        }
      ],
      "name": "balanceOf",
      "outputs": [
        {
          "internalType": "uint256",
          "name": "",
          "type": "uint256"
        }
      ],
      "stateMutability": "view",
      "type": "function"
    },
    {
      "inputs": [],
      "name": "calculateTotalPower",
      "outputs": [],
      "stateMutability": "nonpayable",
      "type": "function"
    },
    {
      "inputs": [
        {
          "internalType": "uint256",
          "name": "epoch",
          "type": "uint256"
        }
      ],
      "name": "calculateTotalPowerUpTo",
      "outputs": [],
      "stateMutability": "nonpayable",
      "type": "function"
    },
    {
      "inputs": [],
      "name": "clock",
      "outputs": [
        {
          "internalType": "uint48",
          "name": "",
          "type": "uint48"
        }
      ],
      "stateMutability": "view",
      "type": "function"
    },
    {
      "inputs": [
        {
          "internalType": "uint256",
          "name": "amount",
          "type": "uint256"
        },
        {
          "internalType": "uint256",
          "name": "lockUpEpochs",
          "type": "uint256"
        }
      ],
      "name": "createStake",
      "outputs": [
        {
          "internalType": "uint256",
          "name": "stakeId",
          "type": "uint256"
        }
      ],
      "stateMutability": "nonpayable",
      "type": "function"
    },
    {
      "inputs": [],
      "name": "decimals",
      "outputs": [
        {
          "internalType": "uint8",
          "name": "",
          "type": "uint8"
        }
      ],
      "stateMutability": "pure",
      "type": "function"
    },
    {
      "inputs": [
        {
          "internalType": "address",
          "name": "",
          "type": "address"
        }
      ],
      "name": "delegate",
      "outputs": [],
      "stateMutability": "pure",
      "type": "function"
    },
    {
      "inputs": [
        {
          "internalType": "address",
          "name": "",
          "type": "address"
        },
        {
          "internalType": "uint256",
          "name": "",
          "type": "uint256"
        },
        {
          "internalType": "uint256",
          "name": "",
          "type": "uint256"
        },
        {
          "internalType": "uint8",
          "name": "",
          "type": "uint8"
        },
        {
          "internalType": "bytes32",
          "name": "",
          "type": "bytes32"
        },
        {
          "internalType": "bytes32",
          "name": "",
          "type": "bytes32"
        }
      ],
      "name": "delegateBySig",
      "outputs": [],
      "stateMutability": "pure",
      "type": "function"
    },
    {
      "inputs": [
        {
          "internalType": "address",
          "name": "",
          "type": "address"
        }
      ],
      "name": "delegates",
      "outputs": [
        {
          "internalType": "address",
          "name": "",
          "type": "address"
        }
      ],
      "stateMutability": "pure",
      "type": "function"
    },
    {
      "inputs": [],
      "name": "epochClock",
      "outputs": [
        {
          "internalType": "contract PWNEpochClock",
          "name": "",
          "type": "address"
        }
      ],
      "stateMutability": "view",
      "type": "function"
    },
    {
      "inputs": [
        {
          "internalType": "uint256",
          "name": "epoch",
          "type": "uint256"
        }
      ],
      "name": "getPastTotalSupply",
      "outputs": [
        {
          "internalType": "uint256",
          "name": "",
          "type": "uint256"
        }
      ],
      "stateMutability": "view",
      "type": "function"
    },
    {
      "inputs": [
        {
          "internalType": "address",
          "name": "account",
          "type": "address"
        },
        {
          "internalType": "uint256",
          "name": "epoch",
          "type": "uint256"
        }
      ],
      "name": "getPastVotes",
      "outputs": [
        {
          "internalType": "uint256",
          "name": "",
          "type": "uint256"
        }
      ],
      "stateMutability": "view",
      "type": "function"
    },
    {
      "inputs": [
        {
          "internalType": "address",
          "name": "account",
          "type": "address"
        }
      ],
      "name": "getVotes",
      "outputs": [
        {
          "internalType": "uint256",
          "name": "",
          "type": "uint256"
        }
      ],
      "stateMutability": "view",
      "type": "function"
    },
    {
      "inputs": [
        {
          "internalType": "uint256",
          "name": "stakeId",
          "type": "uint256"
        },
        {
          "internalType": "uint256",
          "name": "additionalAmount",
          "type": "uint256"
        },
        {
          "internalType": "uint256",
          "name": "additionalEpochs",
          "type": "uint256"
        }
      ],
      "name": "increaseStake",
      "outputs": [
        {
          "internalType": "uint256",
          "name": "newStakeId",
          "type": "uint256"
        }
      ],
      "stateMutability": "nonpayable",
      "type": "function"
    },
    {
      "inputs": [
        {
          "internalType": "address",
          "name": "_pwnToken",
          "type": "address"
        },
        {
          "internalType": "address",
          "name": "_stakedPWN",
          "type": "address"
        },
        {
          "internalType": "address",
          "name": "_epochClock",
          "type": "address"
        },
        {
          "internalType": "address",
          "name": "_owner",
          "type": "address"
        }
      ],
      "name": "initialize",
      "outputs": [],
      "stateMutability": "nonpayable",
      "type": "function"
    },
    {
      "inputs": [],
      "name": "lastCalculatedTotalPowerEpoch",
      "outputs": [
        {
          "internalType": "uint256",
          "name": "",
          "type": "uint256"
        }
      ],
      "stateMutability": "view",
      "type": "function"
    },
    {
      "inputs": [],
      "name": "lastStakeId",
      "outputs": [
        {
          "internalType": "uint256",
          "name": "",
          "type": "uint256"
        }
      ],
      "stateMutability": "view",
      "type": "function"
    },
    {
      "inputs": [
        {
          "internalType": "uint256",
          "name": "stakeId1",
          "type": "uint256"
        },
        {
          "internalType": "uint256",
          "name": "stakeId2",
          "type": "uint256"
        }
      ],
      "name": "mergeStakes",
      "outputs": [
        {
          "internalType": "uint256",
          "name": "newStakeId",
          "type": "uint256"
        }
      ],
      "stateMutability": "nonpayable",
      "type": "function"
    },
    {
      "inputs": [],
      "name": "name",
      "outputs": [
        {
          "internalType": "string",
          "name": "",
          "type": "string"
        }
      ],
      "stateMutability": "pure",
      "type": "function"
    },
    {
      "inputs": [],
      "name": "owner",
      "outputs": [
        {
          "internalType": "address",
          "name": "",
          "type": "address"
        }
      ],
      "stateMutability": "view",
      "type": "function"
    },
    {
      "inputs": [],
      "name": "pendingOwner",
      "outputs": [
        {
          "internalType": "address",
          "name": "",
          "type": "address"
        }
      ],
      "stateMutability": "view",
      "type": "function"
    },
    {
      "inputs": [],
      "name": "pwnToken",
      "outputs": [
        {
          "internalType": "contract PWN",
          "name": "",
          "type": "address"
        }
      ],
      "stateMutability": "view",
      "type": "function"
    },
    {
      "inputs": [],
      "name": "renounceOwnership",
      "outputs": [],
      "stateMutability": "nonpayable",
      "type": "function"
    },
    {
      "inputs": [
        {
          "internalType": "uint256",
          "name": "stakeId",
          "type": "uint256"
        },
        {
          "internalType": "uint256",
          "name": "splitAmount",
          "type": "uint256"
        }
      ],
      "name": "splitStake",
      "outputs": [
        {
          "internalType": "uint256",
          "name": "newStakeId1",
          "type": "uint256"
        },
        {
          "internalType": "uint256",
          "name": "newStakeId2",
          "type": "uint256"
        }
      ],
      "stateMutability": "nonpayable",
      "type": "function"
    },
    {
      "inputs": [
        {
          "internalType": "uint256",
          "name": "stakeId",
          "type": "uint256"
        }
      ],
      "name": "stakeMetadata",
      "outputs": [
        {
          "internalType": "string",
          "name": "",
          "type": "string"
        }
      ],
      "stateMutability": "view",
      "type": "function"
    },
    {
      "inputs": [
        {
          "internalType": "uint256",
          "name": "initialEpoch",
          "type": "uint256"
        },
        {
          "internalType": "uint256",
          "name": "amount",
          "type": "uint256"
        },
        {
          "internalType": "uint256",
          "name": "lockUpEpochs",
          "type": "uint256"
        }
      ],
      "name": "stakePowers",
      "outputs": [
        {
          "components": [
            {
              "internalType": "uint16",
              "name": "epoch",
              "type": "uint16"
            },
            {
              "internalType": "int104",
              "name": "power",
              "type": "int104"
            }
          ],
          "internalType": "struct VoteEscrowedPWNPower.EpochPower[]",
          "name": "powers",
          "type": "tuple[]"
        }
      ],
      "stateMutability": "pure",
      "type": "function"
    },
    {
      "inputs": [],
      "name": "stakedPWN",
      "outputs": [
        {
          "internalType": "contract StakedPWN",
          "name": "",
          "type": "address"
        }
      ],
      "stateMutability": "view",
      "type": "function"
    },
    {
      "inputs": [
        {
          "internalType": "address",
          "name": "staker",
          "type": "address"
        },
        {
          "internalType": "uint256",
          "name": "epoch",
          "type": "uint256"
        }
      ],
      "name": "stakerPowerAt",
      "outputs": [
        {
          "internalType": "uint256",
          "name": "",
          "type": "uint256"
        }
      ],
      "stateMutability": "view",
      "type": "function"
    },
    {
      "inputs": [
        {
          "internalType": "address",
          "name": "staker",
          "type": "address"
        },
        {
          "internalType": "uint256[]",
          "name": "epochs",
          "type": "uint256[]"
        }
      ],
      "name": "stakerPowers",
      "outputs": [
        {
          "internalType": "uint256[]",
          "name": "",
          "type": "uint256[]"
        }
      ],
      "stateMutability": "view",
      "type": "function"
    },
    {
      "inputs": [
        {
          "internalType": "uint256",
          "name": "stakeId",
          "type": "uint256"
        }
      ],
      "name": "stakes",
      "outputs": [
        {
          "internalType": "uint16",
          "name": "initialEpoch",
          "type": "uint16"
        },
        {
          "internalType": "uint8",
          "name": "lockUpEpochs",
          "type": "uint8"
        },
        {
          "internalType": "uint104",
          "name": "amount",
          "type": "uint104"
        }
      ],
      "stateMutability": "view",
      "type": "function"
    },
    {
      "inputs": [],
      "name": "symbol",
      "outputs": [
        {
          "internalType": "string",
          "name": "",
          "type": "string"
        }
      ],
      "stateMutability": "pure",
      "type": "function"
    },
    {
      "inputs": [
        {
          "internalType": "uint256",
          "name": "epoch",
          "type": "uint256"
        }
      ],
      "name": "totalPowerAt",
      "outputs": [
        {
          "internalType": "uint256",
          "name": "",
          "type": "uint256"
        }
      ],
      "stateMutability": "view",
      "type": "function"
    },
    {
      "inputs": [
        {
          "internalType": "uint256[]",
          "name": "epochs",
          "type": "uint256[]"
        }
      ],
      "name": "totalPowers",
      "outputs": [
        {
          "internalType": "uint256[]",
          "name": "",
          "type": "uint256[]"
        }
      ],
      "stateMutability": "view",
      "type": "function"
    },
    {
      "inputs": [],
      "name": "totalSupply",
      "outputs": [
        {
          "internalType": "uint256",
          "name": "",
          "type": "uint256"
        }
      ],
      "stateMutability": "view",
      "type": "function"
    },
    {
      "inputs": [
        {
          "internalType": "address",
          "name": "",
          "type": "address"
        },
        {
          "internalType": "uint256",
          "name": "",
          "type": "uint256"
        }
      ],
      "name": "transfer",
      "outputs": [
        {
          "internalType": "bool",
          "name": "",
          "type": "bool"
        }
      ],
      "stateMutability": "pure",
      "type": "function"
    },
    {
      "inputs": [
        {
          "internalType": "address",
          "name": "",
          "type": "address"
        },
        {
          "internalType": "address",
          "name": "",
          "type": "address"
        },
        {
          "internalType": "uint256",
          "name": "",
          "type": "uint256"
        }
      ],
      "name": "transferFrom",
      "outputs": [
        {
          "internalType": "bool",
          "name": "",
          "type": "bool"
        }
      ],
      "stateMutability": "pure",
      "type": "function"
    },
    {
      "inputs": [
        {
          "internalType": "address",
          "name": "newOwner",
          "type": "address"
        }
      ],
      "name": "transferOwnership",
      "outputs": [],
      "stateMutability": "nonpayable",
      "type": "function"
    },
    {
      "inputs": [
        {
          "internalType": "uint256",
          "name": "stakeId",
          "type": "uint256"
        }
      ],
      "name": "withdrawStake",
      "outputs": [],
      "stateMutability": "nonpayable",
      "type": "function"
    }
  ],
  "bytecode": {
    "object": "0x60806040523480156200001157600080fd5b506200001d3362000023565b6200009d565b600180546001600160a01b03191690556200004a816200004d602090811b62001f3d17901c565b50565b600080546001600160a01b038381166001600160a01b0319831681178455604051919092169283917f8be0079c531659141344cd1fd0a4f28419497f9722a3daafe3b4186f6b6457e09190a35050565b6148af80620000ad6000396000f3fe608060405234801561001057600080fd5b50600436106102745760003560e01c80638da5cb5b11610151578063d5a44f86116100c3578063e2df21b211610087578063e2df21b21461060d578063e30c397814610615578063e959319f14610626578063f2fde38b14610639578063f8c8765e1461064c578063fe7f0e8b1461065f57600080fd5b8063d5a44f861461053e578063d7fa023d146105a9578063dbeb5a37146105bc578063dc310451146105cf578063dd62ed3e146105f757600080fd5b80639ab24eb0116101155780639ab24eb0146104325780639cf9a327146104dc578063a54244b2146104ef578063a9059cbb146104f8578063c3cda5201461050b578063ce127aa31461051e57600080fd5b80638da5cb5b146104655780638e539e8c1461047657806391ddadf4146104895780639350039b146104a857806395d89b41146104bb57600080fd5b80634bf5d7e9116101ea57806368ed223e116101ae57806368ed223e1461041f57806370a0823114610432578063715018a61461044557806371fc49b51461044d57806377a4e5981461045557806379ba50971461045d57600080fd5b80634bf5d7e914610390578063510d3ee6146103ba578063587cde1e146103cd5780635c19a95c146103f9578063681100111461040c57600080fd5b806324a4afd51161023c57806324a4afd51461032457806325d5971f1461032d5780632ee293dc14610342578063313ce56714610355578063351383821461036a5780633a46b1a81461037d57600080fd5b806302aedf3c1461027957806306fdde03146102a2578063095ea7b3146102d857806318160ddd146102fb57806323b872dd14610311575b600080fd5b61028c6102873660046136cd565b610672565b60405161029991906136f9565b60405180910390f35b6040805180820190915260118152702b37ba3296b2b9b1b937bbb2b210282ba760791b60208201525b6040516102999190613773565b6102eb6102e63660046137bb565b6108b6565b6040519015158152602001610299565b6103036108d1565b604051908152602001610299565b6102eb61031f3660046137e7565b61094e565b61030360055481565b61034061033b366004613828565b610969565b005b610303610350366004613841565b610ba3565b60125b60405160ff9091168152602001610299565b6103036103783660046136cd565b610efe565b61030361038b3660046137bb565b611324565b60408051808201909152600e81526d0dadec8ca7ae0eedc5acae0dec6d60931b60208201526102cb565b6103406103c8366004613828565b611339565b6103e16103db366004613863565b50600090565b6040516001600160a01b039091168152602001610299565b610340610407366004613863565b611492565b6002546103e1906001600160a01b031681565b61030361042d3660046137bb565b6114ab565b610303610440366004613863565b6114b7565b61034061153d565b610358600d81565b610340611551565b6103406115d4565b6000546001600160a01b03166103e1565b610303610484366004613828565b61164e565b610491611659565b60405165ffffffffffff9091168152602001610299565b6003546103e1906001600160a01b031681565b6040805180820190915260058152643b32a82ba760d91b60208201526102cb565b6004546103e1906001600160a01b031681565b61030360075481565b6102eb6105063660046137bb565b6116db565b610340610519366004613880565b6116f6565b61053161052c36600461392e565b61170f565b6040516102999190613983565b61057e61054c366004613828565b60066020526000908152604090205461ffff81169062010000810460ff1690630100000090046001600160681b031683565b6040805161ffff909416845260ff90921660208401526001600160681b031690820152606001610299565b6103036105b7366004613841565b6117b3565b6105316105ca3660046139c7565b6119e4565b6105e26105dd366004613841565b611a86565b60408051928352602083019190915201610299565b610303610605366004613a09565b600092915050565b610303611c68565b6001546001600160a01b03166103e1565b6102cb610634366004613828565b611c84565b610340610647366004613863565b611d57565b61034061065a366004613a42565b611dc8565b61030361066d366004613828565b611f32565b6060606483108061068d5750600061068b606485613ab4565b115b806106a257506affffffffffffffffffffff83115b156106c05760405163162908e360e11b815260040160405180910390fd5b60018210806106dc57506106d6600d600a613ade565b60ff1682115b156106fa57604051631cf6815760e31b815260040160405180910390fd5b6000610708600d6005613ade565b60ff1683111561071a57506007610751565b6000610727600d85613ab4565b11610733576001610736565b60025b60ff16610744600d85613b01565b61074e9190613b15565b90505b8067ffffffffffffffff81111561076a5761076a613b28565b6040519080825280602002602001820160405280156107af57816020015b60408051808201909152600080825260208201528152602001906001900390816107885790505b50915060006107bd86611f8d565b90508360006107cb87611ff4565b905060006107d9828461205d565b905060405180604001604052808561ffff16815260200182600c0b8152508660008151811061080a5761080a613b3e565b602090810291909101015260015b858110156108a957600061082b85612124565b90506108378186613b54565b945061084660ff821687613b6d565b9550610852848661217d565b61085c9084613b88565b925060405180604001604052808761ffff16815260200184600c0b81525088838151811061088c5761088c613b3e565b602002602001018190525050806108a290613bc1565b9050610818565b5050505050509392505050565b6000604051633ad830b160e21b815260040160405180910390fd5b6004805460408051630ecce30160e31b81529051600093610949936001600160a01b031692637667180892818301926020928290030181865afa15801561091c573d6000803e3d6000fd5b505050506040513d601f19601f820116820180604052508101906109409190613bda565b61ffff16611f32565b905090565b6000604051632a505d8560e21b815260040160405180910390fd5b6000818152600660205260409081902060035491516331a9108f60e11b815260048101849052339283916001600160a01b0390911690636352211e90602401602060405180830381865afa1580156109c5573d6000803e3d6000fd5b505050506040513d601f19601f820116820180604052508101906109e99190613bfe565b6001600160a01b031614610a105760405163335e79fb60e21b815260040160405180910390fd5b6004805460408051630ecce30160e31b815290516001600160a01b039092169263766718089282820192602092908290030181865afa158015610a57573d6000803e3d6000fd5b505050506040513d601f19601f82011682018060405250810190610a7b9190613bda565b815461ffff91821691610a989160ff620100008204169116613b6d565b61ffff161115610abb5760405163c23d91cf60e01b815260040160405180910390fd5b610ac483612269565b600254815460405163a9059cbb60e01b81526001600160a01b03858116600483015263010000009092046001600160681b0316602482015291169063a9059cbb906044016020604051808303816000875af1158015610b27573d6000803e3d6000fd5b505050506040513d601f19601f82011682018060405250810190610b4b9190613c1b565b50805460405163010000009091046001600160681b031681526001600160a01b0383169084907f459d5aef2c549903c1eeb1736f5728845d5ccf82537ddd5bf8035795eee892639060200160405180910390a3505050565b6000828152600660205260408082208383529082208154339291908490610bd79060ff620100008204169061ffff16613b6d565b8254909150600090610bf69060ff620100008204169061ffff16613b6d565b90506000600460009054906101000a90046001600160a01b03166001600160a01b031663766718086040518163ffffffff1660e01b8152600401602060405180830381865afa158015610c4d573d6000803e3d6000fd5b505050506040513d601f19601f82011682018060405250810190610c719190613bda565b610c7c906001613b6d565b6003546040516331a9108f60e11b8152600481018c90529192506001600160a01b0388811692911690636352211e90602401602060405180830381865afa158015610ccb573d6000803e3d6000fd5b505050506040513d601f19601f82011682018060405250810190610cef9190613bfe565b6001600160a01b031614610d165760405163335e79fb60e21b815260040160405180910390fd5b6003546040516331a9108f60e11b8152600481018a90526001600160a01b03888116921690636352211e90602401602060405180830381865afa158015610d61573d6000803e3d6000fd5b505050506040513d601f19601f82011682018060405250810190610d859190613bfe565b6001600160a01b031614610dac5760405163335e79fb60e21b815260040160405180910390fd5b8161ffff168361ffff161080610dca57508061ffff168361ffff1611155b15610de7576040516254c0a160e91b815260040160405180910390fd5b6000610df38285613c3d565b90508261ffff168461ffff1614610e4a578454630100000090046001600160681b031661ffff8381169085161115610e3b57610e3b8184610e348188613c3d565b60006122c3565b610e4881848460016122c3565b505b610e538a612269565b610e5c89612269565b84548654600091610e84916001600160681b0363010000009283900481169290910416613c58565b9050610e928884838561235f565b604080516001600160681b038416815260ff851660208201529081018290529099506001600160a01b038916908b908d907f2100e56b48f7fcd6ab7b9c2bb12f63ff1d7c1d0d8265c6e684dd07b303b562f09060600160405180910390a4505050505050505092915050565b60008381526006602052604080822060035491516331a9108f60e11b815260048101879052339283916001600160a01b0390911690636352211e90602401602060405180830381865afa158015610f59573d6000803e3d6000fd5b505050506040513d601f19601f82011682018060405250810190610f7d9190613bfe565b6001600160a01b031614610fa45760405163335e79fb60e21b815260040160405180910390fd5b84158015610fb0575083155b15610fce57604051632a1a3ca760e11b815260040160405180910390fd5b6affffffffffffffffffffff851115610ffa5760405163162908e360e11b815260040160405180910390fd5b6000611007606487613ab4565b11156110265760405163162908e360e11b815260040160405180910390fd5b611032600d600a613ade565b60ff1684111561105557604051631cf6815760e31b815260040160405180910390fd5b6000600460009054906101000a90046001600160a01b03166001600160a01b031663766718086040518163ffffffff1660e01b8152600401602060405180830381865afa1580156110aa573d6000803e3d6000fd5b505050506040513d601f19601f820116820180604052508101906110ce9190613bda565b6110d9906001613b6d565b82549091506000906110f89060ff620100008204169061ffff16613b6d565b905060006111398361ffff168361ffff161115611133578361ffff16888461ffff166111249190613b15565b61112e9190613c78565b612438565b87612438565b9050600d60ff8216101561116057604051631cf6815760e31b815260040160405180910390fd5b61116c600d6005613ade565b60ff168160ff161180156111915750611187600d600a613ade565b60ff168160ff1614155b156111af57604051631cf6815760e31b815260040160405180910390fd5b8354630100000090046001600160681b031660006111cd8a83613c58565b905088158015816111e05750898460ff16115b156111f4576111f48387610e348d88613b54565b6000816112015782611203565b8b5b905061121281888760016122c3565b505061121d8b612269565b6112298786838661235f565b975089156112b0576002546040516323b872dd60e01b81526001600160a01b038981166004830152306024830152604482018d9052909116906323b872dd906064016020604051808303816000875af115801561128a573d6000803e3d6000fd5b505050506040513d601f19601f820116820180604052508101906112ae9190613c1b565b505b604080518b81526001600160681b03831660208201529081018a905260ff84166060820152608081018990526001600160a01b038816908c907fcb22a70629d8c624d65b4359cbb5d63952c81d8a036e1e1c41c638ce16eceae99060a00160405180910390a3505050505050509392505050565b600061133083836114ab565b90505b92915050565b6004805460408051630ecce30160e31b815290516001600160a01b039092169263766718089282820192602092908290030181865afa158015611380573d6000803e3d6000fd5b505050506040513d601f19601f820116820180604052508101906113a49190613bda565b61ffff168111156113c857604051630604170b60e21b815260040160405180910390fd5b80600754106113f95760075460405163acca0d9160e01b81526004016113f091815260200190565b60405180910390fd5b6007545b8181101561145e57611456611413826001613b15565b6114368361143060008051602061485a8339815191526001613b15565b90612499565b61144f60008051602061485a8339815191526001613b15565b91906124d7565b6001016113fd565b50600781905560405181907f1356e7f9e012a2125a584d468afd3bf6ed3f6f499741680831e1cfb88790a71290600090a250565b60405163468ec0b760e11b815260040160405180910390fd5b60006113308383612586565b600061133382600460009054906101000a90046001600160a01b03166001600160a01b031663766718086040518163ffffffff1660e01b8152600401602060405180830381865afa158015611510573d6000803e3d6000fd5b505050506040513d601f19601f820116820180604052508101906115349190613bda565b61ffff166114ab565b6115456126c3565b61154f600061271d565b565b61154f600460009054906101000a90046001600160a01b03166001600160a01b031663766718086040518163ffffffff1660e01b8152600401602060405180830381865afa1580156115a7573d6000803e3d6000fd5b505050506040513d601f19601f820116820180604052508101906115cb9190613bda565b61ffff16611339565b60015433906001600160a01b031681146116425760405162461bcd60e51b815260206004820152602960248201527f4f776e61626c6532537465703a2063616c6c6572206973206e6f7420746865206044820152683732bb9037bbb732b960b91b60648201526084016113f0565b61164b8161271d565b50565b600061133382611f32565b6000600460009054906101000a90046001600160a01b03166001600160a01b031663766718086040518163ffffffff1660e01b8152600401602060405180830381865afa1580156116ae573d6000803e3d6000fd5b505050506040513d601f19601f820116820180604052508101906116d29190613bda565b61ffff16905090565b600060405163a24e573d60e01b815260040160405180910390fd5b604051631c97e0a760e01b815260040160405180910390fd5b606060008267ffffffffffffffff81111561172c5761172c613b28565b604051908082528060200260200182016040528015611755578160200160208202803683370190505b50905060005b838110156117aa576117858686868481811061177957611779613b3e565b905060200201356114ab565b82828151811061179757611797613b3e565b602090810291909101015260010161175b565b50949350505050565b600060648310806117ce57506affffffffffffffffffffff83115b156117ec5760405163162908e360e11b815260040160405180910390fd5b60006117f9606485613ab4565b11156118185760405163162908e360e11b815260040160405180910390fd5b600d82101561183a57604051631cf6815760e31b815260040160405180910390fd5b611846600d6005613ade565b60ff1682118015611865575061185e600d600a613ade565b60ff168214155b1561188357604051631cf6815760e31b815260040160405180910390fd5b6004805460408051630ecce30160e31b8152905133936000936001600160a01b031692637667180892818301926020928290030181865afa1580156118cc573d6000803e3d6000fd5b505050506040513d601f19601f820116820180604052508101906118f09190613bda565b6118fb906001613b6d565b905061190a85828660016122c3565b6119168282878761235f565b6002546040516323b872dd60e01b81526001600160a01b038581166004830152306024830152604482018990529295509116906323b872dd906064016020604051808303816000875af1158015611971573d6000803e3d6000fd5b505050506040513d601f19601f820116820180604052508101906119959190613c1b565b5060408051868152602081018690526001600160a01b0384169185917ff234bd1a05f5a6f0b6af3f0c8bacad613635f0022e2ec2162717ef21a1591d6a910160405180910390a3505092915050565b606060008267ffffffffffffffff811115611a0157611a01613b28565b604051908082528060200260200182016040528015611a2a578160200160208202803683370190505b50905060005b83811015611a7e57611a59858583818110611a4d57611a4d613b3e565b90506020020135611f32565b828281518110611a6b57611a6b613b3e565b6020908102919091010152600101611a30565b509392505050565b600082815260066020526040808220805460035492516331a9108f60e11b815260048101879052849333939261ffff811692630100000082046001600160681b0316926201000090920460ff169186916001600160a01b0390911690636352211e90602401602060405180830381865afa158015611b08573d6000803e3d6000fd5b505050506040513d601f19601f82011682018060405250810190611b2c9190613bfe565b6001600160a01b031614611b535760405163335e79fb60e21b815260040160405180910390fd5b87600003611b745760405163162908e360e11b815260040160405180910390fd5b816001600160681b03168810611b9d5760405163162908e360e11b815260040160405180910390fd5b6000611baa60648a613ab4565b1115611bc95760405163162908e360e11b815260040160405180910390fd5b611bd289612269565b611be78584611be18b86613c8b565b8461235f565b9650611bf585848a8461235f565b95506001600160a01b038516897f3e64b92abec16c720f9a9719b637576f719b7b85e62aa4c632fda977e65a5437611c2d8b86613c8b565b604080516001600160681b039092168252602082018d905281018b9052606081018a905260800160405180910390a350505050509250929050565b611c8160008051602061485a8339815191526001613b15565b81565b60606000611c9183612736565b611c9a84612767565b611cc585604051806040016040528060098152602001681d1a1d5b589b985a5b60ba1b815250612796565b611cf0866040518060400160405280600981526020016830b734b6b0ba34b7b760b91b815250612796565b611cf9876127de565b611d0161287a565b604051602001611d1696959493929190613cc7565b6040516020818303038152906040529050611d308161289b565b604051602001611d409190613df2565b604051602081830303815290604052915050919050565b611d5f6126c3565b600180546001600160a01b0383166001600160a01b03199091168117909155611d906000546001600160a01b031690565b6001600160a01b03167f38d16b8cac22d99fc7c124b9cd0de2d3fa1faef420bfe791d8c362d765e2270060405160405180910390a350565b600154600160a81b900460ff1615808015611dee575060018054600160a01b900460ff16105b80611e0e5750303b158015611e0e575060018054600160a01b900460ff16145b611e715760405162461bcd60e51b815260206004820152602e60248201527f496e697469616c697a61626c653a20636f6e747261637420697320616c72656160448201526d191e481a5b9a5d1a585b1a5e995960921b60648201526084016113f0565b6001805460ff60a01b1916600160a01b1790558015611e9e576001805460ff60a81b1916600160a81b1790555b600280546001600160a01b038088166001600160a01b031992831617909255600380548784169083161790556004805492861692909116919091179055611ee48261271d565b8015611f2b576001805460ff60a81b191681556040519081527f7f26b83ff96e1f2b6a682f133852f6798a09c465da95921460cefb38474024989060200160405180910390a15b5050505050565b6000611333826129ee565b600080546001600160a01b038381166001600160a01b0319831681178455604051919092169283917f8be0079c531659141344cd1fd0a4f28419497f9722a3daafe3b4186f6b6457e09190a35050565b600061ffff821115611ff05760405162461bcd60e51b815260206004820152602660248201527f53616665436173743a2076616c756520646f65736e27742066697420696e203160448201526536206269747360d01b60648201526084016113f0565b5090565b80600c81900b81146120585760405162461bcd60e51b815260206004820152602760248201527f53616665436173743a2076616c756520646f65736e27742066697420696e20316044820152663034206269747360c81b60648201526084016113f0565b919050565b6000600d60ff831611612071575081611333565b61207d600d6002613ade565b60ff168260ff16116120a7576064612096846073613e37565b6120a09190613e57565b9050611333565b6120b3600d6003613ade565b60ff168260ff16116120cc576064612096846082613e37565b6120d8600d6004613ade565b60ff168260ff16116120f1576064612096846096613e37565b6120fd600d6005613ade565b60ff168260ff16116121165760646120968460af613e37565b60646120968461015e613e37565b6000612132600d6005613ade565b60ff168260ff1611156121555761214b600d6005613ade565b6113339083613b54565b6000612162600d84613e9b565b905060ff8116156121735780612176565b600d5b9392505050565b60008160ff16600003612193576120a083613ebd565b600d60ff8316116121b45760646121a984613ebd565b61209690600f613e37565b6121c0600d6002613ade565b60ff168260ff16116121d75760646121a984613ebd565b6121e3600d6003613ade565b60ff168260ff16116122055760646121fa84613ebd565b612096906014613e37565b612211600d6004613ade565b60ff168260ff161161223357606461222884613ebd565b612096906019613e37565b61223f600d6005613ade565b60ff168260ff161161226157606461225684613ebd565b6120969060af613e37565b506000611333565b600354604051630852cd8d60e31b8152600481018390526001600160a01b03909116906342966c6890602401600060405180830381600087803b1580156122af57600080fd5b505af1158015611f2b573d6000803e3d6000fd5b6000816122d2576000196122d5565b60015b6122e7866001600160681b0316611ff4565b6122f19190613e37565b90508261230661ffff8616611436848461205d565b60ff8116156123575761231881612124565b6123229082613b54565b90506123528160ff168560ff168761233a9190613b6d565b6123449190613c3d565b61ffff16611436848461217d565b612306565b505050505050565b600060056000815461237090613bc1565b918290555060008181526006602052604090819020805461ffff88166fffffffffffffffffffffffffff00ffff199091161763010000006001600160681b038816021762ff000019166201000060ff87160217815560035491516340c10f1960e01b81526001600160a01b038981166004830152602482018590529394509092909116906340c10f1990604401600060405180830381600087803b15801561241757600080fd5b505af115801561242b573d6000803e3d6000fd5b5050505050949350505050565b600060ff821115611ff05760405162461bcd60e51b815260206004820152602560248201527f53616665436173743a2076616c756520646f65736e27742066697420696e2038604482015264206269747360d81b60648201526084016113f0565b6000806124a68484612a6d565b90506124b3600284613ab4565b156124c9578054600160681b9004600c0b6124cf565b8054600c0b5b949350505050565b60006124e38484612a6d565b90506124f0600284613ab4565b60000361253a5780548290829060009061250e908490600c0b613b88565b92506101000a8154816001600160681b030219169083600c0b6001600160681b03160217905550612580565b805482908290600d90612558908490600160681b9004600c0b613b88565b92506101000a8154816001600160681b030219169083600c0b6001600160681b031602179055505b50505050565b60008061259283611f8d565b6003546040516329e4eae360e01b81526001600160a01b03878116600483015261ffff84166024830152929350600092909116906329e4eae390604401600060405180830381865afa1580156125ec573d6000803e3d6000fd5b505050506040513d6000823e601f3d908101601f191682016040526126149190810190613ee9565b80519091506000805b828110156126ab576126976006600086848151811061263e5761263e613b3e565b60209081029190910181015182528181019290925260409081016000208151606081018352905461ffff8116825262010000810460ff169382019390935263010000009092046001600160681b03169082015286612a85565b6126a19083613b88565b915060010161261d565b506126b881600c0b612b09565b979650505050505050565b6000546001600160a01b0316331461154f5760405162461bcd60e51b815260206004820181905260248201527f4f776e61626c653a2063616c6c6572206973206e6f7420746865206f776e657260448201526064016113f0565b600180546001600160a01b031916905561164b81611f3d565b606061274182612b5b565b6040516020016127519190613fa7565b6040516020818303038152906040529050919050565b606061277246612b5b565b61277b30612bee565b61278484612b5b565b60405160200161275193929190613feb565b60606127a146612b5b565b6127aa30612bee565b6127b385612b5b565b846040516020016127c7949392919061407c565b604051602081830303815290604052905092915050565b606060006127eb83612c04565b90506127fa8160200151612b5b565b8151612805906131db565b6128128360400151612b5b565b61281f8460600151612b5b565b61282c8560800151612b5b565b6128398660a00151612b5b565b8660c0015161284c88610100015161321f565b6128628960e001516001600160a01b0316612bee565b604051602001611d409998979695949392919061412a565b606060405180610120016040528060fd815260200161471d60fd9139905090565b606081516000036128ba57505060408051602081019091526000815290565b600060405180606001604052806040815260200161481a60409139905060006003845160026128e99190613b15565b6128f39190613b01565b6128fe906004614505565b67ffffffffffffffff81111561291657612916613b28565b6040519080825280601f01601f191660200182016040528015612940576020820181803683370190505b509050600182016020820185865187015b808210156129ac576003820191508151603f8160121c168501518453600184019350603f81600c1c168501518453600184019350603f8160061c168501518453600184019350603f8116850151845350600183019250612951565b50506003865106600181146129c857600281146129db576129e3565b603d6001830353603d60028303536129e3565b603d60018303535b509195945050505050565b60008160075410612a2157611333612a198361143060008051602061485a8339815191526001613b15565b600c0b612b09565b6007546000905b838111612a6057612a4c8161143060008051602061485a8339815191526001613b15565b612a569083613b88565b9150600101612a28565b5061217681600c0b612b09565b600080612a7b600284613b01565b6124cf9085613b15565b60008161ffff16836000015161ffff161115612aa357506000611333565b8161ffff16836020015160ff168460000151612abf9190613b6d565b61ffff1611612ad057506000611333565b611330612ae984604001516001600160681b0316611ff4565b8451612af59085613c3d565b8560200151612b049190613b54565b61205d565b600080821215611ff05760405162461bcd60e51b815260206004820181905260248201527f53616665436173743a2076616c7565206d75737420626520706f73697469766560448201526064016113f0565b60606000612b688361331e565b600101905060008167ffffffffffffffff811115612b8857612b88613b28565b6040519080825280601f01601f191660200182016040528015612bb2576020820181803683370190505b5090508181016020015b600019016f181899199a1a9b1b9c1cb0b131b232b360811b600a86061a8153600a8504945084612bbc57509392505050565b60606113336001600160a01b03831660146133f6565b612c776040805161018081019091526000610120820181815261014083018290526101608301919091528190815260200160008152602001600081526020016000815260200160008152602001600081526020016060815260200160006001600160a01b03168152602001606081525090565b6003546040516331a9108f60e11b8152600481018490526001600160a01b0390911690636352211e90602401602060405180830381865afa158015612cc0573d6000803e3d6000fd5b505050506040513d601f19601f82011682018060405250810190612ce49190613bfe565b6001600160a01b0390811660e08301526000838152600660209081526040918290208251606081018452905461ffff8116825262010000810460ff1682840152630100000090046001600160681b0316818401819052855181905285516012930192909252600254855194169390920192909252825151909190612d7190670de0b6b3a764000090613b01565b602080850191909152820151612d8b9060ff16601c614505565b60808401526020820151600790604160ff90911611612def57600d8360200151612db5919061451c565b60ff1690506000600d8460200151612dcd9190613e9b565b60ff1611612ddc576001612ddf565b60025b612dec9060ff1682613b15565b90505b8067ffffffffffffffff811115612e0857612e08613b28565b604051908082528060200260200182016040528015612e5d57816020015b612e4a60405180606001604052806000815260200160008152602001606081525090565b815260200190600190039081612e265790505b50610100850152825160208085015160048054604080516358cc124560e01b81529051939460009485946001600160a01b03909416936358cc124593808201939291908290030181865afa158015612eb9573d6000803e3d6000fd5b505050506040513d601f19601f82011682018060405250810190612edd919061453e565b90506000600460009054906101000a90046001600160a01b03166001600160a01b03166339c5ea9b6040518163ffffffff1660e01b8152600401602060405180830381865afa158015612f34573d6000803e3d6000fd5b505050506040513d601f19601f82011682018060405250810190612f58919061453e565b905060005b868110156130c2576000612f72600189613c78565b8214905083612f82600189613c3d565b61ffff16612f909190614505565b612f9a9084613b15565b8b61010001518381518110612fb157612fb1613b3e565b60209081029190910101515280612fd457612fcc898761205d565b600c0b612fd7565b60005b8b61010001518381518110612fee57612fee613b3e565b60200260200101516020018181525050806130115761300c86613592565b61302f565b6040518060400160405280600481526020016311183c1160e11b8152505b8b6101000151838151811061304657613046613b3e565b602002602001015160400181905250428b6101000151838151811061306d5761306d613b3e565b60200260200101516000015111613082578194505b806130b157600061309287612124565b90506130a160ff821689613b6d565b97506130ad8188613b54565b9650505b506130bb81613bc1565b9050612f5d565b508861010001516000815181106130db576130db613b3e565b60209081029190910101515160608a01526101008901516130fd600188613c78565b8151811061310d5761310d613b3e565b60209081029190910101515160a08a0152610100890151805160009061313557613135613b3e565b6020026020010151600001514210156131765760006040808b01919091528051808201909152600481526311183c1160e11b602082015260c08a01526131ce565b886101000151838151811061318d5761318d613b3e565b60200260200101516020015189604001818152505088610100015183815181106131b9576131b9613b3e565b6020026020010151604001518960c001819052505b5050505050505050919050565b60606131ea8260000151612b5b565b6131f78360200151612b5b565b61320d84604001516001600160a01b0316612bee565b60405160200161275193929190614557565b6040805180820190915260018152605b60f81b602082015260005b825181101561330c57801561326c578160405160200161325a9190614609565b60405160208183030381529060405291505b8161329384838151811061328257613282613b3e565b602002602001015160000151612b5b565b6132b98584815181106132a8576132a8613b3e565b602002602001015160200151612b5b565b8584815181106132cb576132cb613b3e565b6020026020010151604001516040516020016132ea949392919061462e565b60405160208183030381529060405291508061330590613bc1565b905061323a565b508060405160200161275191906146e0565b60008072184f03e93ff9f4daa797ed6e38ed64bf6a1f0160401b831061335d5772184f03e93ff9f4daa797ed6e38ed64bf6a1f0160401b830492506040015b6d04ee2d6d415b85acef81000000008310613389576d04ee2d6d415b85acef8100000000830492506020015b662386f26fc1000083106133a757662386f26fc10000830492506010015b6305f5e10083106133bf576305f5e100830492506008015b61271083106133d357612710830492506004015b606483106133e5576064830492506002015b600a83106113335760010192915050565b60606000613405836002614505565b613410906002613b15565b67ffffffffffffffff81111561342857613428613b28565b6040519080825280601f01601f191660200182016040528015613452576020820181803683370190505b509050600360fc1b8160008151811061346d5761346d613b3e565b60200101906001600160f81b031916908160001a905350600f60fb1b8160018151811061349c5761349c613b3e565b60200101906001600160f81b031916908160001a90535060006134c0846002614505565b6134cb906001613b15565b90505b6001811115613543576f181899199a1a9b1b9c1cb0b131b232b360811b85600f16601081106134ff576134ff613b3e565b1a60f81b82828151811061351557613515613b3e565b60200101906001600160f81b031916908160001a90535060049490941c9361353c81614705565b90506134ce565b5083156113305760405162461bcd60e51b815260206004820181905260248201527f537472696e67733a20686578206c656e67746820696e73756666696369656e7460448201526064016113f0565b6060600d60ff8316116135c1575050604080518082019091526006815265111897183c1160d11b602082015290565b6135cd600d6002613ade565b60ff168260ff16116135fc575050604080518082019091526007815266111897189abc1160c91b602082015290565b613608600d6003613ade565b60ff168260ff161161363657505060408051808201909152600681526511189719bc1160d11b602082015290565b613642600d6004613ade565b60ff168260ff16116136705750506040805180820190915260068152651118971abc1160d11b602082015290565b61367c600d6005613ade565b60ff168260ff16116136ab5750506040805180820190915260078152661118971b9abc1160c91b602082015290565b50506040805180820190915260068152651119971abc1160d11b602082015290565b6000806000606084860312156136e257600080fd5b505081359360208301359350604090920135919050565b602080825282518282018190526000919060409081850190868401855b82811015613742578151805161ffff168552860151600c0b868501529284019290850190600101613716565b5091979650505050505050565b60005b8381101561376a578181015183820152602001613752565b50506000910152565b602081526000825180602084015261379281604085016020870161374f565b601f01601f19169190910160400192915050565b6001600160a01b038116811461164b57600080fd5b600080604083850312156137ce57600080fd5b82356137d9816137a6565b946020939093013593505050565b6000806000606084860312156137fc57600080fd5b8335613807816137a6565b92506020840135613817816137a6565b929592945050506040919091013590565b60006020828403121561383a57600080fd5b5035919050565b6000806040838503121561385457600080fd5b50508035926020909101359150565b60006020828403121561387557600080fd5b8135611330816137a6565b60008060008060008060c0878903121561389957600080fd5b86356138a4816137a6565b95506020870135945060408701359350606087013560ff811681146138c857600080fd5b9598949750929560808101359460a0909101359350915050565b60008083601f8401126138f457600080fd5b50813567ffffffffffffffff81111561390c57600080fd5b6020830191508360208260051b850101111561392757600080fd5b9250929050565b60008060006040848603121561394357600080fd5b833561394e816137a6565b9250602084013567ffffffffffffffff81111561396a57600080fd5b613976868287016138e2565b9497909650939450505050565b6020808252825182820181905260009190848201906040850190845b818110156139bb5783518352928401929184019160010161399f565b50909695505050505050565b600080602083850312156139da57600080fd5b823567ffffffffffffffff8111156139f157600080fd5b6139fd858286016138e2565b90969095509350505050565b60008060408385031215613a1c57600080fd5b8235613a27816137a6565b91506020830135613a37816137a6565b809150509250929050565b60008060008060808587031215613a5857600080fd5b8435613a63816137a6565b93506020850135613a73816137a6565b92506040850135613a83816137a6565b91506060850135613a93816137a6565b939692955090935050565b634e487b7160e01b600052601260045260246000fd5b600082613ac357613ac3613a9e565b500690565b634e487b7160e01b600052601160045260246000fd5b60ff8181168382160290811690818114613afa57613afa613ac8565b5092915050565b600082613b1057613b10613a9e565b500490565b8082018082111561133357611333613ac8565b634e487b7160e01b600052604160045260246000fd5b634e487b7160e01b600052603260045260246000fd5b60ff828116828216039081111561133357611333613ac8565b61ffff818116838216019080821115613afa57613afa613ac8565b600c81810b9083900b016c7fffffffffffffffffffffffff81136c7fffffffffffffffffffffffff198212171561133357611333613ac8565b600060018201613bd357613bd3613ac8565b5060010190565b600060208284031215613bec57600080fd5b815161ffff8116811461133057600080fd5b600060208284031215613c1057600080fd5b8151611330816137a6565b600060208284031215613c2d57600080fd5b8151801515811461133057600080fd5b61ffff828116828216039080821115613afa57613afa613ac8565b6001600160681b03818116838216019080821115613afa57613afa613ac8565b8181038181111561133357611333613ac8565b6001600160681b03828116828216039080821115613afa57613afa613ac8565b60008151613cbd81856020860161374f565b9290920192915050565b673d913730b6b2911d60c11b81528651600090613ceb816008850160208c0161374f565b600b60fa1b6008918401918201526e1132bc3a32b93730b62fbab936111d60891b60098201528751613d24816018840160208c0161374f565b01613d3560188201600b60fa1b9052565b671134b6b0b3b2911d60c11b6019820152613d536021820188613cab565b600b60fa1b815290506f1130b734b6b0ba34b7b72fbab936111d60811b6001820152613d826011820187613cab565b600b60fa1b815290506c1130ba3a3934b13aba32b9911d60991b6001820152613dae600e820186613cab565b600b60fa1b815290506d113232b9b1b934b83a34b7b7111d60911b6001820152613ddb600f820185613cab565b607d60f81b81526001019998505050505050505050565b7f646174613a6170706c69636174696f6e2f6a736f6e3b6261736536342c000000815260008251613e2a81601d85016020870161374f565b91909101601d0192915050565b600082600c0b82600c0b0280600c0b9150808214613afa57613afa613ac8565b600081600c0b83600c0b80613e6e57613e6e613a9e565b6c7fffffffffffffffffffffffff19821460001982141615613e9257613e92613ac8565b90059392505050565b600060ff831680613eae57613eae613a9e565b8060ff84160691505092915050565b600081600c0b6c7fffffffffffffffffffffffff198103613ee057613ee0613ac8565b60000392915050565b60006020808385031215613efc57600080fd5b825167ffffffffffffffff80821115613f1457600080fd5b818501915085601f830112613f2857600080fd5b815181811115613f3a57613f3a613b28565b8060051b604051601f19603f83011681018181108582111715613f5f57613f5f613b28565b604052918252848201925083810185019188831115613f7d57600080fd5b938501935b82851015613f9b57845184529385019392850192613f82565b98975050505050505050565b6f2250574e2044414f205374616b65202360801b81528151600090613fd381601085016020870161374f565b601160f91b6010939091019283015250601101919050565b7f2268747470733a2f2f6170702e70776e2e78797a2f232f61737365742f00000081526000845161402381601d85016020890161374f565b8083019050602f60f81b80601d830152855161404681601e850160208a0161374f565b601e920191820152835161406181601f84016020880161374f565b601160f91b601f929091019182015260200195945050505050565b7f2268747470733a2f2f6170692d64616f2e70776e2e78797a2f737470776e2f0081526000855160206140b582601f8601838b0161374f565b8184019150602f60f81b80601f84015287516140d681848601858c0161374f565b808401935050808284015286516140f38160218601858b0161374f565b6021930192830152845161410d816022850184890161374f565b601160f91b60229390910192830152506023019695505050505050565b7f5b7b2274726169745f74797065223a225374616b6564202450574e20666f726d81527f6174746564222c22646973706c61795f74797065223a226e756d626572222c226020820152663b30b63ab2911d60c91b60408201526000614192604783018c613cab565b611f4b60f21b815260026141fa6141f48284017f7b2274726169745f74797065223a225374616b6564202450574e222c2264697381527f706c61795f74797065223a226f626a656374222c2276616c7565223a000000006020820152603c0190565b8d613cab565b611f4b60f21b8152915061425b6142558284017f7b2274726169745f74797065223a22506f776572222c22646973706c61795f748152753cb832911d11373ab6b132b91116113b30b63ab2911d60511b602082015260360190565b8c613cab565b611f4b60f21b815291506142c36142bd8284017f7b2274726169745f74797065223a225374616b65205374617274222c2264697381527f706c61795f74797065223a2264617465222c2276616c7565223a0000000000006020820152603a0190565b8b613cab565b611f4b60f21b8152915061433561432f8284017f7b2274726169745f74797065223a224c6f636b205570204475726174696f6e2281527f2c22646973706c61795f74797065223a226e756d626572222c2276616c7565226020820152601d60f91b604082015260410190565b8a613cab565b611f4b60f21b8152915061439d6143978284017f7b2274726169745f74797065223a22556e6c6f636b2044617465222c2264697381527f706c61795f74797065223a2264617465222c2276616c7565223a0000000000006020820152603a0190565b89613cab565b611f4b60f21b8152915061441161440b8284017f7b2274726169745f74797065223a2243757272656e74204d756c7469706c696581527f72222c22646973706c61795f74797065223a22737472696e67222c2276616c7560208201526232911d60e91b604082015260430190565b88613cab565b611f4b60f21b815291506144796144738284017f7b2274726169745f74797065223a22506f776572204368616e676573222c226481527f6973706c61795f74797065223a226f626a656374222c2276616c7565223a00006020820152603e0190565b87613cab565b611f4b60f21b815291506144e16144db8284017f7b2274726169745f74797065223a224f776e6572222c22646973706c61795f7481527f797065223a22737472696e67222c2276616c7565223a22000000000000000000602082015260370190565b86613cab565b9150506144f38162227d5d60e81b9052565b6003019b9a5050505050505050505050565b808202811582820484141761133357611333613ac8565b600060ff83168061452f5761452f613a9e565b8060ff84160491505092915050565b60006020828403121561455057600080fd5b5051919050565b693d9130b6b7bab73a111d60b11b8152835160009061457d81600a85016020890161374f565b600b60fa1b600a9184019182018190526a113232b1b4b6b0b639911d60a91b600b83015285516145b4816016850160208a0161374f565b60169201918201527411383bb72fba37b5b2b72fb0b2323932b9b9911d1160591b601782015283516145ed81602c84016020880161374f565b61227d60f01b602c9290910191820152602e0195945050505050565b6000825161461b81846020870161374f565b600b60fa1b920191825250600101919050565b60008551614640818460208a0161374f565b6d3d9139ba30b93a2fb230ba32911d60911b908301908152855161466b81600e840160208a0161374f565b6816113837bbb2b9111d60b91b600e9290910191820152845161469581601784016020890161374f565b6d161136bab63a34b83634b2b9111d60911b6017929091019182015283516146c481602584016020880161374f565b607d60f81b602592909101918201526026019695505050505050565b600082516146f281846020870161374f565b605d60f81b920191825250600101919050565b60008161471457614714613ac8565b50600019019056fe2254686973204e4654206973206120726570726573656e746174696f6e206f6620612050574e2044414f207374616b652e205374616b65206f776e657273686970206772616e747320697473206f776e657220706f77657220696e207468652050574e2044414f2e2054686520706f7765722069732064657465726d696e65642062792074686520616d6f756e74206f662050574e20746f6b656e73207374616b656420616e64207468652072656d61696e696e67206c6f636b757020706572696f642e2054686520706f77657220646563726561736573206f7665722074696d6520756e74696c20746865206c6f636b7570206973206f7665722e224142434445464748494a4b4c4d4e4f505152535455565758595a6162636465666768696a6b6c6d6e6f707172737475767778797a303132333435363738392b2f920c353e14947c4dbbef6103c601d908b93371995902e76fd01b61e605e633fda2646970667358221220f2a70b4d1ab1ae02247fedf2e904fa99abdaec91a334e45101d27ca5d06f60c064736f6c63430008120033",
    "linkReferences": {}
  },
  "methodIdentifiers": {
    "CLOCK_MODE()": "4bf5d7e9",
    "EPOCHS_IN_YEAR()": "71fc49b5",
    "TOTAL_POWER_NAMESPACE()": "e2df21b2",
    "acceptOwnership()": "79ba5097",
    "allowance(address,address)": "dd62ed3e",
    "approve(address,uint256)": "095ea7b3",
    "balanceOf(address)": "70a08231",
    "calculateTotalPower()": "77a4e598",
    "calculateTotalPowerUpTo(uint256)": "510d3ee6",
    "clock()": "91ddadf4",
    "createStake(uint256,uint256)": "d7fa023d",
    "decimals()": "313ce567",
    "delegate(address)": "5c19a95c",
    "delegateBySig(address,uint256,uint256,uint8,bytes32,bytes32)": "c3cda520",
    "delegates(address)": "587cde1e",
    "epochClock()": "9cf9a327",
    "getPastTotalSupply(uint256)": "8e539e8c",
    "getPastVotes(address,uint256)": "3a46b1a8",
    "getVotes(address)": "9ab24eb0",
    "increaseStake(uint256,uint256,uint256)": "35138382",
    "initialize(address,address,address,address)": "f8c8765e",
    "lastCalculatedTotalPowerEpoch()": "a54244b2",
    "lastStakeId()": "24a4afd5",
    "mergeStakes(uint256,uint256)": "2ee293dc",
    "name()": "06fdde03",
    "owner()": "8da5cb5b",
    "pendingOwner()": "e30c3978",
    "pwnToken()": "68110011",
    "renounceOwnership()": "715018a6",
    "splitStake(uint256,uint256)": "dc310451",
    "stakeMetadata(uint256)": "e959319f",
    "stakePowers(uint256,uint256,uint256)": "02aedf3c",
    "stakedPWN()": "9350039b",
    "stakerPowerAt(address,uint256)": "68ed223e",
    "stakerPowers(address,uint256[])": "ce127aa3",
    "stakes(uint256)": "d5a44f86",
    "symbol()": "95d89b41",
    "totalPowerAt(uint256)": "fe7f0e8b",
    "totalPowers(uint256[])": "dbeb5a37",
    "totalSupply()": "18160ddd",
    "transfer(address,uint256)": "a9059cbb",
    "transferFrom(address,address,uint256)": "23b872dd",
    "transferOwnership(address)": "f2fde38b",
    "withdrawStake(uint256)": "25d5971f"
  },
  "id": 55
}